{"abi":[{"type":"constructor","inputs":[],"stateMutability":"nonpayable"},{"type":"function","name":"absorb","inputs":[{"name":"vaultVariables_","type":"uint256","internalType":"uint256"},{"name":"maxTick_","type":"int256","internalType":"int256"}],"outputs":[{"name":"","type":"uint256","internalType":"uint256"}],"stateMutability":"payable"},{"type":"function","name":"rebalance","inputs":[],"outputs":[{"name":"supplyAmt_","type":"int256","internalType":"int256"},{"name":"borrowAmt_","type":"int256","internalType":"int256"}],"stateMutability":"payable"},{"type":"event","name":"LogAbsorb","inputs":[{"name":"colAbsorbedRaw_","type":"uint256","indexed":false,"internalType":"uint256"},{"name":"debtAbsorbedRaw_","type":"uint256","indexed":false,"internalType":"uint256"}],"anonymous":false},{"type":"event","name":"LogLiquidate","inputs":[{"name":"liquidator_","type":"address","indexed":false,"internalType":"address"},{"name":"colAmt_","type":"uint256","indexed":false,"internalType":"uint256"},{"name":"debtAmt_","type":"uint256","indexed":false,"internalType":"uint256"},{"name":"to_","type":"address","indexed":false,"internalType":"address"}],"anonymous":false},{"type":"event","name":"LogOperate","inputs":[{"name":"user_","type":"address","indexed":false,"internalType":"address"},{"name":"nftId_","type":"uint256","indexed":false,"internalType":"uint256"},{"name":"colAmt_","type":"int256","indexed":false,"internalType":"int256"},{"name":"debtAmt_","type":"int256","indexed":false,"internalType":"int256"},{"name":"to_","type":"address","indexed":false,"internalType":"address"}],"anonymous":false},{"type":"event","name":"LogRebalance","inputs":[{"name":"colAmt_","type":"int256","indexed":false,"internalType":"int256"},{"name":"debtAmt_","type":"int256","indexed":false,"internalType":"int256"}],"anonymous":false},{"type":"event","name":"LogUpdateExchangePrice","inputs":[{"name":"supplyExPrice_","type":"uint256","indexed":false,"internalType":"uint256"},{"name":"borrowExPrice_","type":"uint256","indexed":false,"internalType":"uint256"}],"anonymous":false},{"type":"error","name":"FluidLiquidateResult","inputs":[{"name":"colLiquidated","type":"uint256","internalType":"uint256"},{"name":"debtLiquidated","type":"uint256","internalType":"uint256"}]},{"type":"error","name":"FluidSafeTransferError","inputs":[{"name":"errorId_","type":"uint256","internalType":"uint256"}]},{"type":"error","name":"FluidVaultError","inputs":[{"name":"errorId_","type":"uint256","internalType":"uint256"}]}],"bytecode":{"object":"0x60a0604052346200003d576200001462000099565b6200001e62000043565b61364d620000aa8239608051818181610214015261218e015261364d90f35b62000049565b60405190565b5f80fd5b60018060a01b031690565b90565b620000746200006e6200007a926200004d565b62000058565b6200004d565b90565b62000088906200005b565b90565b62000096906200007d565b90565b620000a4306200008b565b60805256fe60806040526004361015610013575b61017e565b61001d5f3561003c565b80637d7c2a1c1461003757639e3e48210361000e57610152565b61008e565b60e01c90565b60405190565b5f80fd5b5f91031261005657565b610048565b90565b6100679061005b565b9052565b91602061008c92949361008560408201965f83019061005e565b019061005e565b565b61009936600461004c565b6100a1613579565b906100b66100ad610042565b9283928361006b565b0390f35b90565b6100c6816100ba565b036100cd57565b5f80fd5b905035906100de826100bd565b565b6100e98161005b565b036100f057565b5f80fd5b90503590610101826100e0565b565b919060408382031261012b578061011f610128925f86016100d1565b936020016100f4565b90565b610048565b610139906100ba565b9052565b9190610150905f60208501940190610130565b565b61017a610169610163366004610103565b90611df3565b610171610042565b9182918261013d565b0390f35b5f80fd5b5f90565b60018060a01b031690565b90565b6101a86101a36101ad92610186565b610191565b610186565b90565b6101b990610194565b90565b6101c5906101b0565b90565b6101d190610186565b90565b90565b6101eb6101e66101f0926101d4565b610191565b6100ba565b90565b6101fe61792b6101d7565b90565b919061020c306101bc565b61023e6102387f00000000000000000000000000000000000000000000000000000000000000006101c8565b916101c8565b1461024f5761024c92610ca6565b90565b61027861025a6101f3565b610262610042565b9182916330090e6560e11b83526004830161013d565b0390fd5b601f801991011690565b634e487b7160e01b5f52604160045260245ffd5b906102a49061027c565b810190811067ffffffffffffffff8211176102be57604052565b610286565b906102d66102cf610042565b928361029a565b565b6102e260806102c3565b90565b5f90565b5f90565b6102f56102d8565b906020808080856103046102e5565b81520161030f6102e5565b81520161031a6102e9565b8152016103256102e5565b81525050565b6103336102ed565b90565b61034060c06102c3565b90565b61034b610336565b90602080808080808761035c6102e9565b8152016103676102e9565b8152016103726102e9565b81520161037d6102e5565b8152016103886102e5565b8152016103936102e5565b81525050565b6103a1610343565b90565b90565b60ff1690565b6103c16103bc6103c6926103a4565b610191565b6103a7565b90565b1c90565b6103ec906103e66103e06103f1946103a7565b916100ba565b906103c9565b6100ba565b90565b90565b61040b610406610410926103f4565b610191565b6100ba565b90565b61041f620fffff6103f7565b90565b90565b61043961043461043e92610422565b610191565b6100ba565b90565b61045561045061045a92610422565b610191565b6103a7565b90565b61047161046c610476926100ba565b610191565b61005b565b90565b634e487b7160e01b5f52601160045260245ffd5b6104969061005b565b600160ff1b81146104a6575f0390565b610479565b6104bf6104ba6104c492610422565b610191565b61005b565b90565b6104d66104dc9193929361005b565b9261005b565b808301925f828512158183121692851291121516176104f757565b610479565b906105069061005b565b9052565b610514905161005b565b90565b90565b61052e61052961053392610517565b610191565b61005b565b90565b90565b61054d61054861055292610536565b610191565b61005b565b90565b634e487b7160e01b5f52601260045260245ffd5b61057561057b9161005b565b9161005b565b90811561059d5760015f038214600160ff1b821416610598570590565b610479565b610555565b6105b16105b79193929361005b565b9261005b565b91828103925f8285128183121692851391121516176105d257565b610479565b6105eb6105e66105f09261005b565b610191565b61005b565b90565b906105fd906105d7565b5f5260205260405f2090565b5f1c90565b90565b61061d61062291610609565b61060e565b90565b61062f9054610611565b90565b9061063c906100ba565b9052565b90565b60020b90565b61065d61065861066292610640565b610191565b610643565b90565b610670617fff610649565b90565b61068761068261068c92610643565b610191565b61005b565b90565b61069990516100ba565b90565b6106b06106ab6106b592610517565b610191565b6100ba565b90565b6106c76106cd9193929361005b565b9261005b565b916106d983820261005b565b92600160ff1b81145f8312166106fc5781840514901517156106f757565b610479565b610479565b90565b61071861071361071d92610701565b610191565b6103a7565b90565b90565b61073761073261073c92610720565b610191565b6100ba565b90565b61075067ffffffffffffffff610723565b90565b90565b61076a61076561076f92610753565b610191565b6103a7565b90565b90565b61078961078461078e92610772565b610191565b6100ba565b90565b61079b60ff610775565b90565b1b90565b6107c1906107bb6107b56107c6946100ba565b916100ba565b9061079e565b6100ba565b90565b6107d86107de919392936100ba565b926100ba565b82018092116107e957565b610479565b90565b61080561080061080a926107ee565b610191565b6100ba565b90565b61081a600160601b6107f1565b90565b61082c610832919392936100ba565b926100ba565b9161083e8382026100ba565b92818404149015171561084d57565b610479565b61086661086161086b9261005b565b610191565b610643565b90565b61087a610880916100ba565b916100ba565b90811561088b570490565b610555565b90565b6108a76108a26108ac92610890565b610191565b6100ba565b90565b90565b6108c66108c16108cb926108af565b610191565b6100ba565b90565b5f1b90565b906108df5f19916108ce565b9181191691161790565b6108fd6108f8610902926100ba565b610191565b6100ba565b90565b90565b9061091d610918610924926108e9565b610905565b82546108d3565b9055565b90565b61093f61093a61094492610928565b610191565b6100ba565b90565b61095661095c919392936100ba565b926100ba565b820391821161096757565b610479565b61098b9061098561097f610990946100ba565b916100ba565b906103c9565b6100ba565b90565b90565b6109aa6109a56109af92610993565b610191565b61005b565b90565b6109bb9061005b565b600160ff1b81146109cd576001900390565b610479565b6109dc60e06102c3565b90565b6109e76109d2565b906020808080808080886109f96102e9565b815201610a046102e5565b815201610a0f6102e5565b815201610a1a6102e5565b815201610a256102e5565b815201610a306102e5565b815201610a3b6102e5565b81525050565b610a496109df565b90565b610a5660c06102c3565b90565b610a61610a4c565b906020808080808087610a726102e5565b815201610a7d6102e5565b815201610a886102e5565b815201610a936102e5565b815201610a9e6102e9565b815201610aa96102e5565b81525050565b610ab7610a59565b90565b90565b610ad1610acc610ad692610aba565b610191565b6103a7565b90565b90565b610af0610aeb610af592610ad9565b610191565b6100ba565b90565b610b05633fffffff610adc565b90565b90610b12906108e9565b5f5260205260405f2090565b610b32610b2d610b37926103a4565b610191565b6100ba565b90565b90565b610b51610b4c610b5692610b3a565b610191565b6103a7565b90565b90565b610b70610b6b610b7592610b59565b610191565b6103a7565b90565b90565b610b8f610b8a610b9492610b78565b610191565b6100ba565b90565b90565b610bae610ba9610bb392610b97565b610191565b6100ba565b90565b90565b610bcd610bc8610bd292610bb6565b610191565b6103a7565b90565b90565b610bec610be7610bf192610bd5565b610191565b6100ba565b90565b610c08610c03610c0d9261005b565b610191565b6100ba565b90565b610c2f90610c29610c23610c34946103a7565b916100ba565b9061079e565b6100ba565b90565b90565b610c4e610c49610c5392610c37565b610191565b6103a7565b90565b90610c6191016100ba565b90565b90565b610c7b610c76610c8092610c64565b610191565b6103a7565b90565b916020610ca4929493610c9d60408201965f830190610130565b0190610130565b565b9290919250610cb361032b565b90610cbc610182565b50610cc5610182565b50610cce610399565b92610d4e610ce682610ce060026103ad565b906103cd565b610cee610413565b1680610cfa6001610425565b16610d0e610d086001610425565b916100ba565b145f14611db757610d34610d2f610d4492610d296001610441565b906103cd565b61045d565b610d3e60016104ab565b906104c7565b5b604085016104fc565b610d5a6040840161050a565b610d6c610d665f61051a565b9161005b565b125f14611d8f57610dc6610dbc610dac610d9b610d8b6040880161050a565b610d9560016104ab565b906104c7565b610da6610100610539565b90610569565b610db660016104ab565b906105a2565b5b604086016104fc565b610df1610de8610de36004610ddd6040890161050a565b906105f3565b610625565b60808601610632565b610e0d610e04610dff610665565b610673565b602086016104fc565b5b600115611d8a57610e216080850161068f565b610e33610e2d5f61069c565b916100ba565b11611a9e575b610e456020850161050a565b610e57610e518761005b565b9161005b565b1315611a9957610e696040850161050a565b610e7d610e77608019610996565b9161005b565b12610ec657610ec1610eb8610eb3600460408801610ead610ea5610ea08361050a565b6109b2565b9182906104fc565b906105f3565b610625565b60808601610632565b610e0e565b610ed7600160ff1b602086016104fc565b5b610ee0610a41565b94610ee9610aaf565b94610ef2610182565b610f1a610f0985610f036016610abd565b906103cd565b610f11610af8565b165f8901610632565b610f44610f3b610f366007610f305f8c0161068f565b90610b08565b610625565b60208901610632565b83610f4f6002610b1e565b16610f62610f5c5f61069c565b916100ba565b145f146119f35750610f755f870161068f565b91610f95610f856020890161068f565b610f8f60c4610b3d565b906103cd565b610f9d610413565b1680610fb1610fab5f61069c565b916100ba565b115f146119b35761106690610fef610fde610fce60208c0161068f565b610fd860a6610b5c565b906103cd565b610fe6610af8565b165f8b01610632565b61101a61101161100c8b6110065f6007920161068f565b90610b08565b610625565b60208b01610632565b806110256001610425565b166110396110336001610425565b916100ba565b145f1461198a5761105761105c916110516001610441565b906103cd565b61045d565b5b608089016104fc565b5b5b5b6110756080880161050a565b6110876110818361005b565b9161005b565b13156113f9576110bd6110b46110af6110aa6110a560808c0161050a565b610852565b610673565b611ef2565b60408a01610632565b6110fd6110f46110e36110d260408c0161068f565b6110dd612710610b7b565b9061081d565b6110ee61271f610b9a565b9061086e565b60608a01610632565b61112a61112161110f60408b0161068f565b61111b60608c0161068f565b90610947565b60808a01610632565b61115e61114c61113c60208a0161068f565b6111466016610abd565b906103cd565b611154610af8565b1660c08a01610632565b6111b26111a961117060608b0161068f565b6111a36111958c61118f60c06111886080840161068f565b920161068f565b9061081d565b61119d610af8565b9061086e565b906107c9565b60a08a01610632565b61126561124961123761120a6111dd6111cd60208d0161068f565b6111d76034610bb9565b906103cd565b6111e561073f565b166111fa816111f46008610756565b906103cd565b90611203610791565b16906107a2565b611229816112235f8d019161121e8361068f565b6107c9565b90610632565b61123161080d565b9061081d565b61124360a08c0161068f565b9061086e565b61125f602089019161125a8361068f565b6107c9565b90610632565b61129a6112746020890161068f565b61127e6003610bd8565b17611295600761128f5f8c0161068f565b90610b08565b610908565b6112b96112a96020890161068f565b6112b360c4610b3d565b906103cd565b6112c1610413565b16806112d56112cf5f61069c565b916100ba565b115f146113b95761138a906113136113026112f260208c0161068f565b6112fc60a6610b5c565b906103cd565b61130a610af8565b165f8b01610632565b61133e6113356113308b61132a5f6007920161068f565b90610b08565b610625565b60208b01610632565b806113496001610425565b1661135d6113576001610425565b916100ba565b145f146113905761137b611380916113756001610441565b906103cd565b61045d565b5b608089016104fc565b5b611069565b6113af6113aa6113b4926113a46001610441565b906103cd565b61045d565b61048d565b611381565b506113ce6113c65f61069c565b5f8901610632565b6113e36113da5f61069c565b60208901610632565b6113f4600160ff1b608089016104fc565b61138b565b5090919492955061140c6020820161050a565b61142961142361141e6080870161050a565b61005b565b9161005b565b12155f146117bc5761143d6020820161050a565b61145361144d600160ff1b61005b565b9161005b565b135f146117ac576114666020820161050a565b6114786114725f61051a565b9161005b565b125f146117755761149e61149961149460206114ae940161050a565b61048d565b610bf4565b6114a86001610441565b90610c10565b5b905b806114c46114be5f61069c565b916100ba565b145f1461173257506115376115266115166115056114ec886114e66034610bb9565b906103cd565b6114f4610af8565b166114ff6001610425565b90610c56565b966115106052610c3a565b906103cd565b6115206052610c3a565b90610c10565b9161153160026103ad565b90610c10565b1761154c846115466016610abd565b90610c10565b176115618461155b6034610bb9565b90610c10565b17925b6115706080830161050a565b611586611580600160ff1b61005b565b9161005b565b135f1461170f57611624826115a06080611629950161050a565b6115b26115ac5f61051a565b9161005b565b125f146116ce5761161b61160a6115fa5f6115f26115e26115dd6115d86080890161050a565b61048d565b610bf4565b6115ec6001610441565b90610c10565b5b940161068f565b61160460a6610b5c565b90610c10565b9161161560c4610b3d565b90610c10565b17916007610b08565b610908565b5b5b61167b61167461164f61163e6002610625565b6116495f860161068f565b906107c9565b61166e61165e6020860161068f565b6116686080610c67565b90610c10565b906107c9565b6002610908565b6116925f61168b6020840161068f565b920161068f565b7f115609402b8e0707cb9654c5da38e5c0790ccad443a92f71160fe645aa342d04916116c86116bf610042565b92839283610c83565b0390a190565b61161b61160a6115fa5f6116ff6116ef6116ea6080880161050a565b610bf4565b6116f96001610441565b90610c10565b6117096001610425565b176115f3565b61172d91506117286117205f61069c565b916007610b08565b610908565b61162a565b9361175d61174d61176e926117476016610abd565b906103cd565b6117576016610abd565b90610c10565b9161176860026103ad565b90610c10565b1792611564565b61178c611787602061179c930161050a565b610bf4565b6117966001610441565b90610c10565b6117a66001610425565b176114af565b506117b65f61069c565b906114b1565b509091926117cc6080840161050a565b6117de6117d85f61051a565b9161005b565b125f14611953576118146118046117ff6117fa6080870161050a565b61048d565b610bf4565b61180e6001610441565b90610c10565b5b91806118296118235f61069c565b916100ba565b145f1461189f57505f6118979261187f6118636118536118879561184d6034610bb9565b906103cd565b61185d6034610bb9565b90610c10565b61186d6002610b1e565b179161187960026103ad565b90610c10565b17930161068f565b6118916016610abd565b90610c10565b17905b61162b565b9392906118fb5f61194e946118f36118d76118c761190b966118c16052610c3a565b906103cd565b6118d16052610c3a565b90610c10565b6118e16002610b1e565b17916118ed60026103ad565b90610c10565b17930161068f565b6119056016610abd565b90610c10565b176119336119238561191d6001610425565b90610947565b61192d6034610bb9565b90610c10565b17926119496119415f61069c565b916007610b08565b610908565b61189a565b61197a61196a6119656080860161050a565b610bf4565b6119746001610441565b90610c10565b6119846001610425565b17611815565b6119a96119a46119ae9261199e6001610441565b906103cd565b61045d565b61048d565b61105d565b506119c86119c05f61069c565b5f8901610632565b6119dd6119d45f61069c565b60208901610632565b6119ee600160ff1b608089016104fc565b611067565b91611a6b611a16611a0660208a0161068f565b611a1060026103ad565b906103cd565b611a1e610413565b1680611a2a6001610425565b16611a3e611a386001610425565b916100ba565b145f14611a7057611a5c611a6191611a566001610441565b906103cd565b61045d565b5b608089016104fc565b611068565b611a8f611a8a611a9492611a846001610441565b906103cd565b61045d565b61048d565b611a62565b610ed8565b611abe611ab5611ab06080870161068f565b611e08565b60608501610632565b611b1a611b11611b01611ae7611ad66040890161050a565b611ae1610100610539565b906106b8565b611afb611af66060890161068f565b61045d565b906104c7565b611b0b60016104ab565b906105a2565b602086016104fc565b5b611b276020850161050a565b611b39611b338761005b565b9161005b565b1315611d8557611c66611b61611b5c6005611b566020890161050a565b906105f3565b610625565b611c21611c05611bdb611bae611b8185611b7b6019610704565b906103cd565b611b8961073f565b16611b9e81611b986008610756565b906103cd565b90611ba7610791565b16906107a2565b611bcd81611bc75f8c0191611bc28361068f565b6107c9565b90610632565b611bd561080d565b9061081d565b611bff611bfa611bf5611bf060208d0161050a565b610852565b610673565b611ef2565b9061086e565b611c1b6020880191611c168361068f565b6107c9565b90610632565b611c3b600191611c346301fffffe610893565b1691610425565b17611c4963020000006108b2565b17611c616005611c5b6020890161050a565b906105f3565b610908565b611cb0611ca7611c8c610101611c87611c816060890161068f565b9161092b565b610947565b611ca2611c9b6080890161068f565b82906107a2565b61096c565b60808601610632565b611cbc6080850161068f565b611cce611cc85f61069c565b916100ba565b14611d5457611cf3611cea611ce56080870161068f565b611e08565b60608501610632565b611d4f611d46611d36611d1c611d0b6040890161050a565b611d16610100610539565b906106b8565b611d30611d2b6060890161068f565b61045d565b906104c7565b611d4060016104ab565b906105a2565b602086016104fc565b611b1b565b5b611d80611d646080860161068f565b611d7b6004611d756040890161050a565b906105f3565b610908565b610e39565b611d55565b610ed8565b610dc6611db2611da16040860161050a565b611dac610100610539565b90610569565b610dbd565b611dde611dd9611dd4611dee93611dce6001610441565b906103cd565b61045d565b61048d565b611de860016104ab565b906104c7565b610d45565b90611e0591611e00610182565b610201565b90565b90611e11610182565b916fffffffffffffffffffffffffffffffff8111611ee3575b67ffffffffffffffff8111611ed6575b63ffffffff8111611ec9575b61ffff8111611ebc575b60ff8111611eaf575b600f8111611ea2575b60038111611e95575b60018111611e87575b5f10611e7d575b565b9060010190611e7b565b9160015f9101929050611e74565b600290811c920191611e6b565b600490811c920191611e62565b600890811c920191611e59565b601090811c920191611e50565b602090811c920191611e46565b604090811c920191611e3a565b90915060801c90608091611e2a565b611efa610182565b508060ff1d8160ff1d821803617fff811161217457600160801b906001811661215b575b6002811661213f575b60048116612123575b60088116612107575b601081166120eb575b602081166120cf575b604081166120b3575b60808116612097575b610100811661207b575b610200811661205f575b6104008116612043575b6108008116612027575b611000811661200c575b6120008116611fec575b61400016611fd6575b5f91600160ff1b1615611fb7575b60201c0190565b5f19046401000000008106611fcc575b611fb0565b9050600190611fc7565b6b17c45e641b6e95dee056ff100260801c611fa2565b906d4e009ae5519380809a02ca7aec77614000910260801c919050611f99565b906e8d4f70c9ff4924dac37612d1e2921e0260801c90611f8f565b906f0be32cbee48979763cf7247dd7bb539d0260801c90611f85565b906f372a3bfe0745d8b6b19d985d9a8b85bb0260801c90611f7b565b906f76d6461f27082d74e0feed3b388c0ca10260801c90611f71565b906fae6b7961714e20548d88ea5123f9a0ff0260801c90611f67565b906fd34f17a00ffa00a8309940a15930391a0260801c90611f5d565b906fe895615b5beb6386553757b0352bda900260801c90611f54565b906ff402d288133a85a17784a411f7aba0820260801c90611f4b565b906ff9ef02c4529258b057769680fc6601b30260801c90611f42565b906ffcf2d9987c9be178ad5bfeffaa1232730260801c90611f39565b906ffe78410fd6498b73cb96a6917f8532590260801c90611f30565b906fff3bd55f4488ad277531fa1c725a66d00260801c90611f27565b90506fff9dd7de423466c20352b1246ce4856f90611f1e565b5f80fd5b5f90565b90612186306101bc565b6121b86121b27f00000000000000000000000000000000000000000000000000000000000000006101c8565b916101c8565b146121ca576121c691612870565b9091565b6121f36121d56101f3565b6121dd610042565b9182916330090e6560e11b83526004830161013d565b0390fd5b60018060a01b031690565b61220e61221391610609565b6121f7565b90565b6122209054612202565b90565b90565b61223a61223561223f92612223565b610191565b6100ba565b90565b61224d617922612226565b90565b90565b61226761226261226c92612250565b610191565b6100ba565b90565b61227a617919612253565b90565b61228690610194565b90565b6122929061227d565b90565b61229e906101b0565b90565b60e01b90565b5f80fd5b6122b4816101c8565b036122bb57565b5f80fd5b905051906122cc826122ab565b565b6122d7816103a7565b036122de57565b5f80fd5b905051906122ef826122ce565b565b905051906122fe826100bd565b565b90565b61230c81612300565b0361231357565b5f80fd5b9050519061232482612303565b565b91906101a0838203126124325761242a906123426101a06102c3565b9361234f825f83016122bf565b5f86015261236082602083016122bf565b602086015261237282604083016122bf565b604086015261238482606083016122bf565b606086015261239682608083016122bf565b60808601526123a88260a083016122bf565b60a08601526123ba8260c083016122e2565b60c08601526123cc8260e083016122e2565b60e08601526123df8261010083016122f1565b6101008601526123f3826101208301612317565b610120860152612407826101408301612317565b61014086015261241b826101608301612317565b61016086015261018001612317565b610180830152565b6122a7565b906101a0828203126124515761244e915f01612326565b90565b610048565b5f0190565b612463610042565b3d5f823e3d90fd5b61247590516101c8565b90565b73eeeeeeeeeeeeeeeeeeeeeeeeeeeeeeeeeeeeeeee90565b151590565b90565b6124ac6124a76124b192612495565b610191565b6100ba565b90565b6124bf617936612498565b90565b6124cb90610194565b90565b6124d7906124c2565b90565b6124e460806102c3565b90565b6124ef6124da565b906020808080856124fe6102e5565b8152016125096102e5565b8152016125146102e5565b81520161251f6102e5565b81525050565b61252d6124e7565b90565b60808183031261257157612546825f83016122f1565b9261256e61255784602085016122f1565b9361256581604086016122f1565b936060016122f1565b90565b610048565b61257f906101b0565b90565b61258c9051612300565b90565b906020828203126125a8576125a5915f016122f1565b90565b610048565b6125b690612300565b9052565b91906125cd905f602085019401906125ad565b565b6125d96001610425565b90565b90565b6125f36125ee6125f8926125dc565b610191565b6100ba565b90565b61260964e8d4a510006125df565b90565b6126166001610425565b90565b90565b61263061262b61263592612619565b610191565b6103a7565b90565b61264c61264761265192610517565b610191565b610186565b90565b61265d90612638565b90565b67ffffffffffffffff811161267e5761267a60209161027c565b0190565b610286565b9061269561269083612660565b6102c3565b918252565b369037565b906126c46126ac83612683565b926020806126ba8693612660565b920191039061269a565b565b91906040838203126126ee57806126e26126eb925f86016122f1565b936020016122f1565b90565b610048565b6126fc906101c8565b9052565b6127099061051a565b9052565b5190565b60209181520190565b5f5b83811061272c575050905f910152565b80602091830151818501520161271c565b61275c61276560209361276a936127538161270d565b93848093612711565b9586910161271a565b61027c565b0190565b926127cb96946127aa6127b4926127a06127be9699959961279660c08a019b5f8b01906126f3565b602089019061005e565b6040870190612700565b60608501906126f3565b60808301906126f3565b60a081840391015261273d565b90565b91906127e1905f602085019401906126f3565b565b92612840969461281f612829926128156128339699959961280b60c08a019b5f8b01906126f3565b6020890190612700565b604087019061005e565b60608501906126f3565b60808301906126f3565b60a081840391015261273d565b90565b90565b61285a61285561285f92612843565b610191565b6100ba565b90565b61286d617937612846565b90565b90913361288e6128886128836009612216565b6101c8565b916101c8565b0361354c5761289c5f610625565b806128a76001610425565b166128ba6128b45f61069c565b916100ba565b145f1461351f576128d6816128cf6001610425565b175f610908565b61290b6101a06128f56128f06128eb306101bc565b612289565b612295565b63b7791bf290612903610042565b9384926122a1565b8252818061291b60048201612456565b03915afa90811561351a575f916134eb575b503461294161293b5f61069c565b916100ba565b118061347d575b6134505761295f61295a5f830161246b565b6124ce565b93612968612525565b6129b9608061298661298161297c306101bc565b612289565b612295565b6309f0d8cb906129ae6129996001610625565b926129a2610042565b958694859384936122a1565b83526004830161013d565b03915afa90811561344b57612a0b915f80808093919091613416575b612a05929394506129ff5f88019560208901936129f960408b019260608c01610632565b90610632565b90610632565b90610632565b612a4f6020612a1988612576565b63b5c736e490612a44612a2f6101608901612582565b92612a38610042565b958694859384936122a1565b8352600483016125ba565b03915afa90811561341157612aab612a7e612aca93612abc935f916133e3575b50612a786125cf565b9061096c565b612a8661073f565b16612a9b81612a956008610756565b906103cd565b90612aa4610791565b16906107a2565b612ab65f850161068f565b9061081d565b612ac46125fb565b9061086e565b612b0e6020612ad889612576565b63b5c736e490612b03612aee6101808a01612582565b92612af7610042565b958694859384936122a1565b8352600483016125ba565b03915afa9081156133de57612b6a612b3d612b8a93612b7c935f916133b0575b50612b3761260c565b9061096c565b612b4561073f565b16612b5a81612b546008610756565b906103cd565b90612b63610791565b16906107a2565b612b766020860161068f565b9061081d565b612b846125fb565b9061086e565b91612c60612c52612bfb612bed612bdb612bae8b612ba86052610c3a565b906103cd565b612bb661073f565b16612bcb81612bc56008610756565b906103cd565b90612bd4610791565b16906107a2565b612be76040870161068f565b9061081d565b612bf56125fb565b9061086e565b92612c4c6060612c45612c188c612c12609261261c565b906103cd565b612c2061073f565b16612c3581612c2f6008610756565b906103cd565b90612c3e610791565b16906107a2565b920161068f565b9061081d565b612c5a6125fb565b9061086e565b93612c69610182565b5081612c7d612c77856100ba565b916100ba565b115f14613225575090612c9b612c95612ca19361045d565b9161045d565b906105a2565b612cad6080850161246b565b612cc6612cc0612cbb612478565b6101c8565b916101c8565b145f146132165734612ce8612ce2612cdd84610bf4565b6100ba565b916100ba565b115f1461320e57612cf890610bf4565b96612d0e33612d08348b90610947565b906135c8565b5b612d188861045d565b975b6040612d2589612576565b9163ad967e159092909290612da0612d3f60808a0161246b565b928d95612dab612d7d5f612d525f612654565b612d5b5f612654565b91612d8c612d696009612216565b612d71610042565b958691602083016127ce565b6020820181038252038561029a565b612d94610042565b9b8c9a8b998a986122a1565b88526004880161276e565b03925af190816131e1575b50155f146131dc5760016131cb575b5b5b82612dda612dd4846100ba565b916100ba565b115f14612fec5750612dee60a0840161246b565b612e07612e01612dfc612478565b6101c8565b916101c8565b1480612fd2575b612fa557612e33612e3991612e2d612e2760409561045d565b9161045d565b906105a2565b95612576565b612e4a60a063ad967e15940161246b565b90612e8f5f8095612e9a8a612e5e84612654565b612e686009612216565b90612e7a612e758761069c565b61269f565b92612e83610042565b9b8c9a8b998a986122a1565b8852600488016127e3565b03925af19081612f78575b50155f14612f73576001612f62575b5b5b83612ec9612ec35f61051a565b9161005b565b1480612f48575b612f1b57612ede905f610908565b82827f9a85dfb89c634cdc63db5d8cedaf8f9cfa4926df888bad563d70b7314a33a0ae91612f16612f0d610042565b9283928361006b565b0390a1565b612f44612f26612862565b612f2e610042565b9182916330090e6560e11b83526004830161013d565b0390fd5b5082612f5c612f565f61051a565b9161005b565b14612ed0565b9150612f6d5f61051a565b91612eb4565b612eb5565b612f989060403d8111612f9e575b612f90818361029a565b8101906126c6565b50612ea5565b503d612f86565b612fce612fb06124b4565b612fb8610042565b9182916330090e6560e11b83526004830161013d565b0390fd5b5034612fe6612fe05f61069c565b916100ba565b11612e0e565b9592919080613003612ffd846100ba565b916100ba565b11613012575b50505050612eb6565b6130319293965061302561302b9161045d565b9161045d565b906105a2565b61303d60a0830161246b565b61305661305061304b612478565b6101c8565b916101c8565b145f146131b2573461307861307261306d84610bf4565b6100ba565b916100ba565b115f146131a85761308a604091610bf4565b916130a03361309a348690610947565b906135c8565b5b6130bc6130b66130b08561045d565b5b61048d565b96612576565b926131366130d560a063ad967e1593969396940161246b565b925f956131416131138b6130e85f612654565b6130f15f612654565b916131226130ff6009612216565b613107610042565b958691602083016127ce565b6020820181038252038561029a565b61312a610042565b9b8c9a8b998a986122a1565b8852600488016127e3565b03925af1908161317b575b50155f14613176576001613165575b5b5f808080613009565b91506131705f61051a565b9161315b565b61315c565b61319b9060403d81116131a1575b613193818361029a565b8101906126c6565b5061314c565b503d613189565b50604034916130a1565b906040906130bc6130b66131c55f61069c565b946130b1565b96506131d65f61051a565b96612dc5565b612dc6565b6132019060403d8111613207575b6131f9818361029a565b8101906126c6565b50612db6565b503d6131ef565b503496612d0f565b966132205f61069c565b612d1a565b98918061323a613234846100ba565b916100ba565b11613247575b5050612dc7565b909198506132576080860161246b565b61327061326a613265612478565b6101c8565b916101c8565b1480613396575b6133695761329061328a6132969361045d565b9161045d565b906105a2565b966132a087612576565b604063ad967e15916132b46080880161246b565b906132f95f8d95613304826132c96009612216565b6132d285612654565b906132e46132df8761069c565b61269f565b926132ed610042565b9b8c9a8b998a986122a1565b88526004880161276e565b03925af1908161333c575b50155f14613337576001613326575b5b5f80613240565b96506133315f61051a565b9661331e565b61331f565b61335c9060403d8111613362575b613354818361029a565b8101906126c6565b5061330f565b503d61334a565b6133926133746124b4565b61337c610042565b9182916330090e6560e11b83526004830161013d565b0390fd5b50346133aa6133a45f61069c565b916100ba565b11613277565b6133d1915060203d81116133d7575b6133c9818361029a565b81019061258f565b5f612b2e565b503d6133bf565b61245b565b613404915060203d811161340a575b6133fc818361029a565b81019061258f565b5f612a6f565b503d6133f2565b61245b565b5050505061343d612a059160803d8111613444575b613435818361029a565b810190612530565b92916129d5565b503d61342b565b61245b565b61347961345b6124b4565b613463610042565b9182916330090e6560e11b83526004830161013d565b0390fd5b5061348a6080820161246b565b6134a361349d613498612478565b6101c8565b916101c8565b1480156134ba575b6134b59015612490565b612948565b506134b56134ca60a0830161246b565b6134e36134dd6134d8612478565b6101c8565b916101c8565b1490506134ab565b61350d91506101a03d8111613513575b613505818361029a565b810190612437565b5f61292d565b503d6134fb565b61245b565b61354861352a61226f565b613532610042565b9182916330090e6560e11b83526004830161013d565b0390fd5b613575613557612242565b61355f610042565b9182916330090e6560e11b83526004830161013d565b0390fd5b613592613584612178565b61358c612178565b9061217c565b9091565b5f90565b90565b6135b16135ac6135b69261359a565b610191565b6100ba565b90565b6135c56201155a61359d565b90565b5f80806135e49481946135d9613596565b50614e20f115612490565b6135ea57565b6136136135f56135b9565b6135fd610042565b918291636f728d4560e11b83526004830161013d565b0390fdfea26469706673582212200ba691559f5735886d3705a137700ca2eb9e756aeb43528d59a4789eda94555e64736f6c63430008150033","linkReferences":{}},"methodIdentifiers":{"absorb(uint256,int256)":"9e3e4821","rebalance()":"7d7c2a1c"},"id":66}