{"abi":[{"type":"function","name":"readFromStorage","inputs":[{"name":"slot_","type":"bytes32","internalType":"bytes32"}],"outputs":[{"name":"result_","type":"uint256","internalType":"uint256"}],"stateMutability":"view"}],"bytecode":{"object":"0x60806040523461001f57610011610024565b61010a61002f823961010a90f35b61002a565b60405190565b5f80fdfe608060405260043610156011575b60c1565b60195f356026565b63b5c736e403600d576096565b60e01c90565b60405190565b5f80fd5b5f80fd5b90565b604481603a565b03604a57565b5f80fd5b90503590605982603d565b565b90602082820312607157606e915f01604e565b90565b6036565b90565b607f906075565b9052565b91906094905f602085019401906078565b565b3460bd5760b960ab60a7366004605b565b60c9565b60b1602c565b918291826083565b0390f35b6032565b5f80fd5b5f90565b60cf60c5565b50549056fea2646970667358221220fb04c0943c18127fdb5ada8e420d5e8b42acb090edea4dbbe5865c06a9d67bcc64736f6c63430008150033","linkReferences":{}},"methodIdentifiers":{"readFromStorage(bytes32)":"b5c736e4"},"id":15}