{"abi":[{"type":"constructor","inputs":[{"name":"admin_","type":"address","internalType":"address"},{"name":"dummyImplementation_","type":"address","internalType":"address"}],"stateMutability":"nonpayable"},{"type":"function","name":"addImplementation","inputs":[{"name":"implementation_","type":"address","internalType":"address"},{"name":"sigs_","type":"bytes4[]","internalType":"bytes4[]"}],"outputs":[],"stateMutability":"nonpayable"},{"type":"function","name":"readFromStorage","inputs":[{"name":"slot_","type":"bytes32","internalType":"bytes32"}],"outputs":[{"name":"result_","type":"uint256","internalType":"uint256"}],"stateMutability":"view"},{"type":"function","name":"removeImplementation","inputs":[{"name":"implementation_","type":"address","internalType":"address"}],"outputs":[],"stateMutability":"nonpayable"},{"type":"function","name":"setAdmin","inputs":[{"name":"newAdmin_","type":"address","internalType":"address"}],"outputs":[],"stateMutability":"nonpayable"},{"type":"function","name":"setDummyImplementation","inputs":[{"name":"newDummyImplementation_","type":"address","internalType":"address"}],"outputs":[],"stateMutability":"nonpayable"},{"type":"event","name":"LogRemoveImplementation","inputs":[{"name":"implementation","type":"address","indexed":true,"internalType":"address"}],"anonymous":false},{"type":"event","name":"LogSetAdmin","inputs":[{"name":"oldAdmin","type":"address","indexed":true,"internalType":"address"},{"name":"newAdmin","type":"address","indexed":true,"internalType":"address"}],"anonymous":false},{"type":"event","name":"LogSetDummyImplementation","inputs":[{"name":"oldDummyImplementation","type":"address","indexed":true,"internalType":"address"},{"name":"newDummyImplementation","type":"address","indexed":true,"internalType":"address"}],"anonymous":false},{"type":"event","name":"LogSetImplementation","inputs":[{"name":"implementation","type":"address","indexed":true,"internalType":"address"},{"name":"sigs","type":"bytes4[]","indexed":false,"internalType":"bytes4[]"}],"anonymous":false},{"type":"error","name":"FluidInfiniteProxyError","inputs":[{"name":"errorId_","type":"uint256","internalType":"uint256"}]}],"bytecode":{"object":"0x60806040523462000038576200001f6200001862000122565b9062000149565b620000296200003e565b611579620004b4823961157990f35b62000044565b60405190565b5f80fd5b601f801991011690565b634e487b7160e01b5f52604160045260245ffd5b90620000729062000048565b810190811060018060401b038211176200008b57604052565b62000052565b90620000a8620000a06200003e565b928362000066565b565b5f80fd5b60018060a01b031690565b620000c490620000ae565b90565b620000d281620000b9565b03620000da57565b5f80fd5b90505190620000ed82620000c7565b565b91906040838203126200011c57806200010f62000119925f8601620000de565b93602001620000de565b90565b620000aa565b6200014562001a2d80380380620001398162000091565b928339810190620000ef565b9091565b90620001596200015f92620002f1565b6200041d565b565b90565b90565b620001806200017a620001869262000161565b62000164565b620000ae565b90565b620001949062000167565b90565b60209181520190565b60207f6464726573730000000000000000000000000000000000000000000000000000917f455243313936373a206e65772061646d696e20697320746865207a65726f20615f8201520152565b620001fc602660409262000197565b6200020781620001a0565b0190565b620002229060208101905f818303910152620001ed565b90565b156200022d57565b620002376200003e565b62461bcd60e51b8152806200024f600482016200020b565b0390fd5b90565b90565b5f1b90565b62000277620002716200027d9262000253565b62000259565b62000256565b90565b620002ab7fb53127684a568b3173ae13b9f8a6016e243e63b6e8ee1178d6a717850b5d61036200025e565b90565b620002c7620002c1620002cd92620000ae565b62000164565b620000ae565b90565b620002db90620002ae565b90565b620002e990620002d0565b90565b5f0190565b620002fb62000399565b62000328826200032062000319620003135f62000189565b620000b9565b91620000b9565b141562000225565b6200033e6200033662000280565b839062000392565b90620003766200036f7fb2396a4169c0fac3eb0713eb7d54220cbe5e21e585a59578ec4de929657c073393620002de565b91620002de565b91620003816200003e565b806200038d81620002ec565b0390a3565b55565b5f90565b620003a362000395565b50620003b8620003b262000280565b620003bb565b90565b620003c562000395565b505490565b90565b620003e6620003e0620003ec92620003ca565b62000259565b62000256565b90565b6200041a7f360894a13ba1a3210667c828492db98dca3e2076cc3735a920a3ca505d382bbc620003cd565b90565b6200042762000491565b6200043d62000435620003ef565b839062000392565b90620004756200046e7f761380f4203cd2fcc7ee1ae32561463bc08bbf6761cb9d5caa925f99a6d5450293620002de565b91620002de565b91620004806200003e565b806200048c81620002ec565b0390a3565b6200049b62000395565b50620004b0620004aa620003ef565b620003bb565b9056fe60806040526004361015610013575b6102dd565b61001d5f3561006c565b806322175a3214610067578063704b6c0214610062578063b5c736e41461005d578063c39aa07d146100585763f0c01b420361000e576102a9565b6101e5565b6101b0565b610114565b6100e1565b60e01c90565b60405190565b5f80fd5b5f80fd5b5f80fd5b60018060a01b031690565b61009890610084565b90565b6100a48161008f565b036100ab57565b5f80fd5b905035906100bc8261009b565b565b906020828203126100d7576100d4915f016100af565b90565b61007c565b5f0190565b3461010f576100f96100f43660046100be565b611382565b610101610072565b8061010b816100dc565b0390f35b610078565b346101425761012c6101273660046100be565b6103a5565b610134610072565b8061013e816100dc565b0390f35b610078565b90565b61015381610147565b0361015a57565b5f80fd5b9050359061016b8261014a565b565b9060208282031261018657610183915f0161015e565b90565b61007c565b90565b6101979061018b565b9052565b91906101ae905f6020850194019061018e565b565b346101e0576101dc6101cb6101c636600461016d565b611536565b6101d3610072565b9182918261019b565b0390f35b610078565b34610213576101fd6101f83660046100be565b6105fe565b610205610072565b8061020f816100dc565b0390f35b610078565b5f80fd5b5f80fd5b5f80fd5b909182601f8301121561025e5781359167ffffffffffffffff831161025957602001926020830284011161025457565b610220565b61021c565b610218565b9190916040818403126102a45761027c835f83016100af565b92602082013567ffffffffffffffff811161029f5761029b9201610224565b9091565b610080565b61007c565b346102d8576102c26102bc366004610263565b91610829565b6102ca610072565b806102d4816100dc565b0390f35b610078565b5f80fd5b60209181520190565b5f7f6f6e6c792d61646d696e00000000000000000000000000000000000000000000910152565b61031e600a6020926102e1565b610327816102ea565b0190565b6103409060208101905f818303910152610311565b90565b1561034a57565b610352610072565b62461bcd60e51b8152806103686004820161032b565b0390fd5b610398906103933361038d610387610382610404565b61008f565b9161008f565b14610343565b61039a565b565b6103a390610537565b565b6103ae9061036c565b565b5f90565b90565b5f1b90565b6103d06103cb6103d5926103b4565b6103b7565b610147565b90565b6104017fb53127684a568b3173ae13b9f8a6016e243e63b6e8ee1178d6a717850b5d61036103bc565b90565b61040c6103b0565b5061041d6104186103d8565b610420565b90565b6104286103b0565b505490565b90565b90565b61044761044261044c9261042d565b610430565b610084565b90565b61045890610433565b90565b60207f6464726573730000000000000000000000000000000000000000000000000000917f455243313936373a206e65772061646d696e20697320746865207a65726f20615f8201520152565b6104b560266040926102e1565b6104be8161045b565b0190565b6104d79060208101905f8183039101526104a8565b90565b156104e157565b6104e9610072565b62461bcd60e51b8152806104ff600482016104c2565b0390fd5b61051761051261051c92610084565b610430565b610084565b90565b61052890610503565b90565b6105349061051f565b90565b61053f610404565b6105648261055d6105576105525f61044f565b61008f565b9161008f565b14156104da565b61057661056f6103d8565b83906105c2565b906105aa6105a47fb2396a4169c0fac3eb0713eb7d54220cbe5e21e585a59578ec4de929657c07339361052b565b9161052b565b916105b3610072565b806105bd816100dc565b0390a3565b55565b6105f1906105ec336105e66105e06105db610404565b61008f565b9161008f565b14610343565b6105f3565b565b6105fc90610654565b565b610607906105c5565b565b90565b61062061061b61062592610609565b6103b7565b610147565b90565b6106517f360894a13ba1a3210667c828492db98dca3e2076cc3735a920a3ca505d382bbc61060c565b90565b61065c6106ba565b61066e610667610628565b83906105c2565b906106a261069c7f761380f4203cd2fcc7ee1ae32561463bc08bbf6761cb9d5caa925f99a6d545029361052b565b9161052b565b916106ab610072565b806106b5816100dc565b0390a3565b6106c26103b0565b506106d36106ce610628565b610420565b90565b9061070492916106ff336106f96106f36106ee610404565b61008f565b9161008f565b14610343565b610813565b565b601f801991011690565b634e487b7160e01b5f52604160045260245ffd5b9061072e90610706565b810190811067ffffffffffffffff82111761074857604052565b610710565b90610760610759610072565b9283610724565b565b67ffffffffffffffff811161077a5760208091020190565b610710565b63ffffffff60e01b1690565b6107948161077f565b0361079b57565b5f80fd5b905035906107ac8261078b565b565b909291926107c36107be82610762565b61074d565b938185526020808601920283019281841161080057915b8383106107e75750505050565b602080916107f5848661079f565b8152019201916107da565b610220565b6108109136916107ae565b90565b610827926108219192610805565b90611105565b565b9061083492916106d6565b565b5190565b61084e6108496108539261042d565b610430565b61018b565b90565b5f7f6e6f2d7369677300000000000000000000000000000000000000000000000000910152565b61088a60076020926102e1565b61089381610856565b0190565b6108ac9060208101905f81830391015261087d565b90565b156108b657565b6108be610072565b62461bcd60e51b8152806108d460048201610897565b0390fd5b5490565b60209181520190565b5f5260205f2090565b6108f79061077f565b9052565b5f1c90565b60e01b90565b61090f90610900565b90565b61091e610923916108fb565b610906565b90565b60201c90565b61093861093d91610926565b610906565b90565b60401c90565b61095261095791610940565b610906565b90565b60601c90565b61096c6109719161095a565b610906565b90565b60801c90565b61098661098b91610974565b610906565b90565b60a01c90565b6109a06109a59161098e565b610906565b90565b60c01c90565b6109ba6109bf916109a8565b610906565b90565b6109ce6109d39161006c565b610906565b90565b906001906109f66109f06109e9856108d8565b80936108dc565b936108e5565b5f92610b60575b6001610a0a575b50505090565b5490808310610b3e575b808310610b1c575b808310610afa575b808310610ad8575b808310610ab6575b808310610a94575b808310610a72575b8210610a51575b80610a04565b82610a6960019394610a646020946109c2565b6108ee565b0191015f610a4b565b9192602081610a8b600193610a86866109ae565b6108ee565b01930191610a44565b9192602081610aad600193610aa886610994565b6108ee565b01930191610a3c565b9192602081610acf600193610aca8661097a565b6108ee565b01930191610a34565b9192602081610af1600193610aec86610960565b6108ee565b01930191610a2c565b9192602081610b13600193610b0e86610946565b6108ee565b01930191610a24565b9192602081610b35600193610b308661092c565b6108ee565b01930191610a1c565b9192602081610b57600193610b5286610912565b6108ee565b01930191610a14565b5b816001600803840110156109fd579260016020610c14610c19600894838080808080808f5497610b9981610b948b610912565b6108ee565b01610bac81610ba78a61092c565b6108ee565b01610bbf81610bba89610946565b6108ee565b01610bd281610bcd88610960565b6108ee565b01610be581610be08761097a565b6108ee565b01610bf881610bf386610994565b6108ee565b01610c0b81610c06856109ae565b6108ee565b019283916109c2565b6108ee565b019401920191610b61565b90610c2e916109d6565b90565b90610c51610c4a92610c41610072565b93848092610c24565b0383610724565b565b610c5c90610c31565b90565b5f7f696d706c656d656e746174696f6e2d616c72656164792d657869737400000000910152565b610c93601c6020926102e1565b610c9c81610c5f565b0190565b610cb59060208101905f818303910152610c86565b90565b15610cbf57565b610cc7610072565b62461bcd60e51b815280610cdd60048201610ca0565b0390fd5b5f90565b634e487b7160e01b5f52601160045260245ffd5b610d029061018b565b5f198114610d105760010190565b610ce5565b634e487b7160e01b5f52603260045260245ffd5b90610d3382610836565b811015610d44576020809102010190565b610d15565b610d53905161077f565b90565b5f7f7369672d616c72656164792d6578697374000000000000000000000000000000910152565b610d8a60116020926102e1565b610d9381610d56565b0190565b610dac9060208101905f818303910152610d7d565b90565b15610db657565b610dbe610072565b62461bcd60e51b815280610dd460048201610d97565b0390fd5b634e487b7160e01b5f525f60045260245ffd5b60089060018203010490565b1b90565b91906008610e16910291610e105f1984610df7565b92610df7565b9181191691161790565b610e34610e2f610e399261018b565b610430565b61018b565b90565b90565b9190610e55610e50610e5d93610e20565b610e3c565b908354610dfb565b9055565b610e7391610e6d610ce1565b91610e3f565b565b5b818110610e81575050565b80610e8e5f600193610e61565b01610e76565b1c90565b90610eab905f1990602003600802610e94565b8154169055565b919091828210610ec2575b505050565b60046008610ed2610efa95610deb565b610ee4610ede86610deb565b946108e5565b93840193019306025f8111610f02575b50610e75565b5f8080610ebd565b610f0f9060018303610e98565b5f610ef4565b90680100000000000000008111610f3e5781610f33610f3c936108d8565b90828155610eb2565b565b610710565b60200190565b91906008610f67910291610f6163ffffffff84610df7565b92610df7565b9181191691161790565b610f7a9061006c565b90565b90610f8781610836565b9067ffffffffffffffff821161106c57610fad610fb391610fa88486610f15565b610f43565b926108e5565b60088204915f5b83811061102357506008830290035f8111610fd6575b50505050565b925f935f5b818110610ff05750505001555f808080610fd0565b909194602061101760019261100c6110078a610d49565b610f71565b908560040290610f49565b96019101919091610fdb565b5f805b6008811061103d5750906001918185015501610fba565b9590602061106360019261105861105386610d49565b610f71565b908a60040290610f49565b92019601611026565b610710565b9061107b91610f7d565b565b60209181520190565b90611093816020936108ee565b0190565b60200190565b906110ba6110b46110ad84610836565b809361107d565b92610f43565b905f5b8181106110ca5750505090565b9091926110e36110dd6001928651611086565b94611097565b91019190916110bd565b6111029160208201915f81840391015261109d565b90565b91909161112d61111484610836565b6111266111205f61083a565b9161018b565b14156108af565b611136816112d3565b9161116d6111556111505f61114a87611346565b01610c53565b610836565b6111676111615f61083a565b9161018b565b14610cb8565b611175610ce1565b5b8061119161118b61118688610836565b61018b565b9161018b565b10156111f6576111f1906111ec6111b96111b46111af898590610d29565b610d49565b61131c565b6111e56111c582610420565b6111df6111d96111d45f61044f565b61008f565b9161008f565b14610daf565b85906105c2565b610cf9565b611176565b50929161120e905f6112088592611346565b01611071565b61124d61123b7fd613a4a18e567ee1f2db4d5b528a5fee09f7dff92d6fb708afd6c095070a9c6d9261052b565b92611244610072565b918291826110ed565b0390a2565b5f90565b5f7f656970313936372e70726f78792e696d706c656d656e746174696f6e00000000910152565b61128a601c6020926102e1565b61129381611256565b0190565b6112a09061008f565b9052565b91906112c79060206112bf604086018681035f88015261127d565b940190611297565b565b60200190565b5190565b6113066112f7916112e2611252565b506112eb610072565b928391602083016112a4565b60208201810382520382610724565b611318611312826112cf565b916112c9565b2090565b611324611252565b507b3ba1a3210667c828492db98dca3e2076cc3735a920a3ca505d382bbc1790565b90565b611375906113703361136a61136461135f610404565b61008f565b9161008f565b14610343565b611377565b565b61138090611432565b565b61138b90611349565b565b5f7f696d706c656d656e746174696f6e2d6e6f742d65786973740000000000000000910152565b6113c160186020926102e1565b6113ca8161138d565b0190565b6113e39060208101905f8183039101526113b4565b90565b156113ed57565b6113f5610072565b62461bcd60e51b81528061140b600482016113ce565b0390fd5b5f61141991610f15565b565b905f0361142d5761142b9061140f565b565b610dd8565b9061143c826112d3565b906114505f61144a84611346565b01610c53565b9261147661145d85610836565b61146f6114695f61083a565b9161018b565b14156113e6565b61147e610ce1565b5b8061149a61149461148f88610836565b61018b565b9161018b565b10156114db576114d6906114d16114c26114bd6114b8898590610d29565b610d49565b61131c565b6114cb5f61044f565b906105c2565b610cf9565b61147f565b50916114f49193505f6114ee8192611346565b0161141b565b61151e7fda53aaefabec4c3f8ba693a2e3c67fa0152fbd71c369d51f669e66b28a4a08649161052b565b90611527610072565b80611531816100dc565b0390a2565b61153e610ce1565b50549056fea26469706673582212206fa1c5b722ce6ee3140a4386ebdf1cbbf0bd9c7073a03514ee2b47ea4509371464736f6c63430008150033","linkReferences":{}},"methodIdentifiers":{"addImplementation(address,bytes4[])":"f0c01b42","readFromStorage(bytes32)":"b5c736e4","removeImplementation(address)":"22175a32","setAdmin(address)":"704b6c02","setDummyImplementation(address)":"c39aa07d"},"id":4}