{"abi":[{"type":"constructor","inputs":[{"name":"admin_","type":"address","internalType":"address"},{"name":"dummyImplementation_","type":"address","internalType":"address"}],"stateMutability":"nonpayable"},{"type":"fallback","stateMutability":"payable"},{"type":"receive","stateMutability":"payable"},{"type":"function","name":"addImplementation","inputs":[{"name":"implementation_","type":"address","internalType":"address"},{"name":"sigs_","type":"bytes4[]","internalType":"bytes4[]"}],"outputs":[],"stateMutability":"nonpayable"},{"type":"function","name":"getAdmin","inputs":[],"outputs":[{"name":"","type":"address","internalType":"address"}],"stateMutability":"view"},{"type":"function","name":"getDummyImplementation","inputs":[],"outputs":[{"name":"","type":"address","internalType":"address"}],"stateMutability":"view"},{"type":"function","name":"getImplementationSigs","inputs":[{"name":"impl_","type":"address","internalType":"address"}],"outputs":[{"name":"","type":"bytes4[]","internalType":"bytes4[]"}],"stateMutability":"view"},{"type":"function","name":"getSigsImplementation","inputs":[{"name":"sig_","type":"bytes4","internalType":"bytes4"}],"outputs":[{"name":"","type":"address","internalType":"address"}],"stateMutability":"view"},{"type":"function","name":"readFromStorage","inputs":[{"name":"slot_","type":"bytes32","internalType":"bytes32"}],"outputs":[{"name":"result_","type":"uint256","internalType":"uint256"}],"stateMutability":"view"},{"type":"function","name":"removeImplementation","inputs":[{"name":"implementation_","type":"address","internalType":"address"}],"outputs":[],"stateMutability":"nonpayable"},{"type":"function","name":"setAdmin","inputs":[{"name":"newAdmin_","type":"address","internalType":"address"}],"outputs":[],"stateMutability":"nonpayable"},{"type":"function","name":"setDummyImplementation","inputs":[{"name":"newDummyImplementation_","type":"address","internalType":"address"}],"outputs":[],"stateMutability":"nonpayable"},{"type":"event","name":"LogRemoveImplementation","inputs":[{"name":"implementation","type":"address","indexed":true,"internalType":"address"}],"anonymous":false},{"type":"event","name":"LogSetAdmin","inputs":[{"name":"oldAdmin","type":"address","indexed":true,"internalType":"address"},{"name":"newAdmin","type":"address","indexed":true,"internalType":"address"}],"anonymous":false},{"type":"event","name":"LogSetDummyImplementation","inputs":[{"name":"oldDummyImplementation","type":"address","indexed":true,"internalType":"address"},{"name":"newDummyImplementation","type":"address","indexed":true,"internalType":"address"}],"anonymous":false},{"type":"event","name":"LogSetImplementation","inputs":[{"name":"implementation","type":"address","indexed":true,"internalType":"address"},{"name":"sigs","type":"bytes4[]","indexed":false,"internalType":"bytes4[]"}],"anonymous":false},{"type":"error","name":"FluidInfiniteProxyError","inputs":[{"name":"errorId_","type":"uint256","internalType":"uint256"}]}],"bytecode":{"object":"0x60806040523462000038576200001f6200001862000122565b9062000149565b620000296200003e565b611833620004d0823961183390f35b62000044565b60405190565b5f80fd5b601f801991011690565b634e487b7160e01b5f52604160045260245ffd5b90620000729062000048565b810190811060018060401b038211176200008b57604052565b62000052565b90620000a8620000a06200003e565b928362000066565b565b5f80fd5b60018060a01b031690565b620000c490620000ae565b90565b620000d281620000b9565b03620000da57565b5f80fd5b90505190620000ed82620000c7565b565b91906040838203126200011c57806200010f62000119925f8601620000de565b93602001620000de565b90565b620000aa565b6200014562001d0380380380620001398162000091565b928339810190620000ef565b9091565b90620001559162000157565b565b90620001639162000165565b565b90620001756200017b926200030d565b62000439565b565b90565b90565b6200019c62000196620001a2926200017d565b62000180565b620000ae565b90565b620001b09062000183565b90565b60209181520190565b60207f6464726573730000000000000000000000000000000000000000000000000000917f455243313936373a206e65772061646d696e20697320746865207a65726f20615f8201520152565b620002186026604092620001b3565b6200022381620001bc565b0190565b6200023e9060208101905f81830391015262000209565b90565b156200024957565b620002536200003e565b62461bcd60e51b8152806200026b6004820162000227565b0390fd5b90565b90565b5f1b90565b620002936200028d62000299926200026f565b62000275565b62000272565b90565b620002c77fb53127684a568b3173ae13b9f8a6016e243e63b6e8ee1178d6a717850b5d61036200027a565b90565b620002e3620002dd620002e992620000ae565b62000180565b620000ae565b90565b620002f790620002ca565b90565b6200030590620002ec565b90565b5f0190565b62000317620003b5565b62000344826200033c620003356200032f5f620001a5565b620000b9565b91620000b9565b141562000241565b6200035a620003526200029c565b8390620003ae565b90620003926200038b7fb2396a4169c0fac3eb0713eb7d54220cbe5e21e585a59578ec4de929657c073393620002fa565b91620002fa565b916200039d6200003e565b80620003a98162000308565b0390a3565b55565b5f90565b620003bf620003b1565b50620003d4620003ce6200029c565b620003d7565b90565b620003e1620003b1565b505490565b90565b62000402620003fc6200040892620003e6565b62000275565b62000272565b90565b620004367f360894a13ba1a3210667c828492db98dca3e2076cc3735a920a3ca505d382bbc620003e9565b90565b62000443620004ad565b62000459620004516200040b565b8390620003ae565b90620004916200048a7f761380f4203cd2fcc7ee1ae32561463bc08bbf6761cb9d5caa925f99a6d5450293620002fa565b91620002fa565b916200049c6200003e565b80620004a88162000308565b0390a3565b620004b7620003b1565b50620004cc620004c66200040b565b620003d7565b9056fe60806040526004361015610015575b3661175257005b61001f5f356100ae565b806322175a32146100a95780636e9960c3146100a4578063704b6c021461009f57806389396dc81461009a578063908bfe5e14610095578063a5fcc8bc14610090578063b5c736e41461008b578063c39aa07d146100865763f0c01b420361000e576104dc565b610418565b6103e3565b610345565b6102cf565b61029a565b6101bc565b610187565b610123565b60e01c90565b60405190565b5f80fd5b5f80fd5b5f80fd5b60018060a01b031690565b6100da906100c6565b90565b6100e6816100d1565b036100ed57565b5f80fd5b905035906100fe826100dd565b565b9060208282031261011957610116915f016100f1565b90565b6100be565b5f0190565b346101515761013b610136366004610100565b6114d6565b6101436100b4565b8061014d8161011e565b0390f35b6100ba565b5f91031261016057565b6100be565b61016e906100d1565b9052565b9190610185905f60208501940190610165565b565b346101b757610197366004610156565b6101b36101a261168a565b6101aa6100b4565b91829182610172565b0390f35b6100ba565b346101ea576101d46101cf366004610100565b6105d4565b6101dc6100b4565b806101e68161011e565b0390f35b6100ba565b5190565b60209181520190565b60200190565b63ffffffff60e01b1690565b61021790610202565b9052565b906102288160209361020e565b0190565b60200190565b9061024f610249610242846101ef565b80936101f3565b926101fc565b905f5b81811061025f5750505090565b909192610278610272600192865161021b565b9461022c565b9101919091610252565b6102979160208201915f818403910152610232565b90565b346102ca576102c66102b56102b0366004610100565b6116b7565b6102bd6100b4565b91829182610282565b0390f35b6100ba565b346102ff576102df366004610156565b6102fb6102ea61169e565b6102f26100b4565b91829182610172565b0390f35b6100ba565b61030d81610202565b0361031457565b5f80fd5b9050359061032582610304565b565b906020828203126103405761033d915f01610318565b90565b6100be565b346103755761037161036061035b366004610327565b6116f3565b6103686100b4565b91829182610172565b0390f35b6100ba565b90565b6103868161037a565b0361038d57565b5f80fd5b9050359061039e8261037d565b565b906020828203126103b9576103b6915f01610391565b90565b6100be565b90565b6103ca906103be565b9052565b91906103e1905f602085019401906103c1565b565b346104135761040f6103fe6103f93660046103a0565b6117f0565b6104066100b4565b918291826103ce565b0390f35b6100ba565b346104465761043061042b366004610100565b61082d565b6104386100b4565b806104428161011e565b0390f35b6100ba565b5f80fd5b5f80fd5b5f80fd5b909182601f830112156104915781359167ffffffffffffffff831161048c57602001926020830284011161048757565b610453565b61044f565b61044b565b9190916040818403126104d7576104af835f83016100f1565b92602082013567ffffffffffffffff81116104d2576104ce9201610457565b9091565b6100c2565b6100be565b3461050b576104f56104ef366004610496565b91610a29565b6104fd6100b4565b806105078161011e565b0390f35b6100ba565b60209181520190565b5f7f6f6e6c792d61646d696e00000000000000000000000000000000000000000000910152565b61054d600a602092610510565b61055681610519565b0190565b61056f9060208101905f818303910152610540565b90565b1561057957565b6105816100b4565b62461bcd60e51b8152806105976004820161055a565b0390fd5b6105c7906105c2336105bc6105b66105b1610633565b6100d1565b916100d1565b14610572565b6105c9565b565b6105d290610766565b565b6105dd9061059b565b565b5f90565b90565b5f1b90565b6105ff6105fa610604926105e3565b6105e6565b61037a565b90565b6106307fb53127684a568b3173ae13b9f8a6016e243e63b6e8ee1178d6a717850b5d61036105eb565b90565b61063b6105df565b5061064c610647610607565b61064f565b90565b6106576105df565b505490565b90565b90565b61067661067161067b9261065c565b61065f565b6100c6565b90565b61068790610662565b90565b60207f6464726573730000000000000000000000000000000000000000000000000000917f455243313936373a206e65772061646d696e20697320746865207a65726f20615f8201520152565b6106e46026604092610510565b6106ed8161068a565b0190565b6107069060208101905f8183039101526106d7565b90565b1561071057565b6107186100b4565b62461bcd60e51b81528061072e600482016106f1565b0390fd5b61074661074161074b926100c6565b61065f565b6100c6565b90565b61075790610732565b90565b6107639061074e565b90565b61076e610633565b6107938261078c6107866107815f61067e565b6100d1565b916100d1565b1415610709565b6107a561079e610607565b83906107f1565b906107d96107d37fb2396a4169c0fac3eb0713eb7d54220cbe5e21e585a59578ec4de929657c07339361075a565b9161075a565b916107e26100b4565b806107ec8161011e565b0390a3565b55565b6108209061081b3361081561080f61080a610633565b6100d1565b916100d1565b14610572565b610822565b565b61082b90610883565b565b610836906107f4565b565b90565b61084f61084a61085492610838565b6105e6565b61037a565b90565b6108807f360894a13ba1a3210667c828492db98dca3e2076cc3735a920a3ca505d382bbc61083b565b90565b61088b6108e9565b61089d610896610857565b83906107f1565b906108d16108cb7f761380f4203cd2fcc7ee1ae32561463bc08bbf6761cb9d5caa925f99a6d545029361075a565b9161075a565b916108da6100b4565b806108e48161011e565b0390a3565b6108f16105df565b506109026108fd610857565b61064f565b90565b90610933929161092e3361092861092261091d610633565b6100d1565b916100d1565b14610572565b610a13565b565b601f801991011690565b634e487b7160e01b5f52604160045260245ffd5b9061095d90610935565b810190811067ffffffffffffffff82111761097757604052565b61093f565b9061098f6109886100b4565b9283610953565b565b67ffffffffffffffff81116109a95760208091020190565b61093f565b909291926109c36109be82610991565b61097c565b9381855260208086019202830192818411610a0057915b8383106109e75750505050565b602080916109f58486610318565b8152019201916109da565b610453565b610a109136916109ae565b90565b610a2792610a219192610a05565b90611266565b565b90610a349291610905565b565b610a4a610a45610a4f9261065c565b61065f565b6103be565b90565b5f7f6e6f2d7369677300000000000000000000000000000000000000000000000000910152565b610a866007602092610510565b610a8f81610a52565b0190565b610aa89060208101905f818303910152610a79565b90565b15610ab257565b610aba6100b4565b62461bcd60e51b815280610ad060048201610a93565b0390fd5b5490565b60209181520190565b5f5260205f2090565b5f1c90565b60e01b90565b610afe90610aef565b90565b610b0d610b1291610aea565b610af5565b90565b60201c90565b610b27610b2c91610b15565b610af5565b90565b60401c90565b610b41610b4691610b2f565b610af5565b90565b60601c90565b610b5b610b6091610b49565b610af5565b90565b60801c90565b610b75610b7a91610b63565b610af5565b90565b60a01c90565b610b8f610b9491610b7d565b610af5565b90565b60c01c90565b610ba9610bae91610b97565b610af5565b90565b610bbd610bc2916100ae565b610af5565b90565b90600190610be5610bdf610bd885610ad4565b8093610ad8565b93610ae1565b5f92610d4f575b6001610bf9575b50505090565b5490808310610d2d575b808310610d0b575b808310610ce9575b808310610cc7575b808310610ca5575b808310610c83575b808310610c61575b8210610c40575b80610bf3565b82610c5860019394610c53602094610bb1565b61020e565b0191015f610c3a565b9192602081610c7a600193610c7586610b9d565b61020e565b01930191610c33565b9192602081610c9c600193610c9786610b83565b61020e565b01930191610c2b565b9192602081610cbe600193610cb986610b69565b61020e565b01930191610c23565b9192602081610ce0600193610cdb86610b4f565b61020e565b01930191610c1b565b9192602081610d02600193610cfd86610b35565b61020e565b01930191610c13565b9192602081610d24600193610d1f86610b1b565b61020e565b01930191610c0b565b9192602081610d46600193610d4186610b01565b61020e565b01930191610c03565b5b81600160080384011015610bec579260016020610e03610e08600894838080808080808f5497610d8881610d838b610b01565b61020e565b01610d9b81610d968a610b1b565b61020e565b01610dae81610da989610b35565b61020e565b01610dc181610dbc88610b4f565b61020e565b01610dd481610dcf87610b69565b61020e565b01610de781610de286610b83565b61020e565b01610dfa81610df585610b9d565b61020e565b01928391610bb1565b61020e565b019401920191610d50565b90610e1d91610bc5565b90565b90610e40610e3992610e306100b4565b93848092610e13565b0383610953565b565b610e4b90610e20565b90565b5f7f696d706c656d656e746174696f6e2d616c72656164792d657869737400000000910152565b610e82601c602092610510565b610e8b81610e4e565b0190565b610ea49060208101905f818303910152610e75565b90565b15610eae57565b610eb66100b4565b62461bcd60e51b815280610ecc60048201610e8f565b0390fd5b5f90565b634e487b7160e01b5f52601160045260245ffd5b610ef1906103be565b5f198114610eff5760010190565b610ed4565b634e487b7160e01b5f52603260045260245ffd5b90610f22826101ef565b811015610f33576020809102010190565b610f04565b610f429051610202565b90565b5f7f7369672d616c72656164792d6578697374000000000000000000000000000000910152565b610f796011602092610510565b610f8281610f45565b0190565b610f9b9060208101905f818303910152610f6c565b90565b15610fa557565b610fad6100b4565b62461bcd60e51b815280610fc360048201610f86565b0390fd5b634e487b7160e01b5f525f60045260245ffd5b60089060018203010490565b1b90565b91906008611005910291610fff5f1984610fe6565b92610fe6565b9181191691161790565b61102361101e611028926103be565b61065f565b6103be565b90565b90565b919061104461103f61104c9361100f565b61102b565b908354610fea565b9055565b6110629161105c610ed0565b9161102e565b565b5b818110611070575050565b8061107d5f600193611050565b01611065565b1c90565b9061109a905f1990602003600802611083565b8154169055565b9190918282106110b1575b505050565b600460086110c16110e995610fda565b6110d36110cd86610fda565b94610ae1565b93840193019306025f81116110f1575b50611064565b5f80806110ac565b6110fe9060018303611087565b5f6110e3565b9068010000000000000000811161112d578161112261112b93610ad4565b908281556110a1565b565b61093f565b9190600861115091029161114a63ffffffff84610fe6565b92610fe6565b9181191691161790565b611163906100ae565b90565b90611170816101ef565b9067ffffffffffffffff82116112555761119661119c916111918486611104565b6101fc565b92610ae1565b60088204915f5b83811061120c57506008830290035f81116111bf575b50505050565b925f935f5b8181106111d95750505001555f8080806111b9565b90919460206112006001926111f56111f08a610f38565b61115a565b908560040290611132565b960191019190916111c4565b5f805b6008811061122657509060019181850155016111a3565b9590602061124c60019261124161123c86610f38565b61115a565b908a60040290611132565b9201960161120f565b61093f565b9061126491611166565b565b91909161128e611275846101ef565b6112876112815f610a36565b916103be565b1415610aab565b61129781611427565b916112ce6112b66112b15f6112ab8761149a565b01610e42565b6101ef565b6112c86112c25f610a36565b916103be565b14610ea7565b6112d6610ed0565b5b806112f26112ec6112e7886101ef565b6103be565b916103be565b1015611357576113529061134d61131a611315611310898590610f18565b610f38565b611470565b6113466113268261064f565b61134061133a6113355f61067e565b6100d1565b916100d1565b14610f9e565b85906107f1565b610ee8565b6112d7565b50929161136f905f611369859261149a565b0161125a565b6113ae61139c7fd613a4a18e567ee1f2db4d5b528a5fee09f7dff92d6fb708afd6c095070a9c6d9261075a565b926113a56100b4565b91829182610282565b0390a2565b5f90565b5f7f656970313936372e70726f78792e696d706c656d656e746174696f6e00000000910152565b6113eb601c602092610510565b6113f4816113b7565b0190565b919061141b906020611413604086018681035f8801526113de565b940190610165565b565b60200190565b5190565b61145a61144b916114366113b3565b5061143f6100b4565b928391602083016113f8565b60208201810382520382610953565b61146c61146682611423565b9161141d565b2090565b6114786113b3565b507b3ba1a3210667c828492db98dca3e2076cc3735a920a3ca505d382bbc1790565b90565b6114c9906114c4336114be6114b86114b3610633565b6100d1565b916100d1565b14610572565b6114cb565b565b6114d490611586565b565b6114df9061149d565b565b5f7f696d706c656d656e746174696f6e2d6e6f742d65786973740000000000000000910152565b6115156018602092610510565b61151e816114e1565b0190565b6115379060208101905f818303910152611508565b90565b1561154157565b6115496100b4565b62461bcd60e51b81528061155f60048201611522565b0390fd5b5f61156d91611104565b565b905f036115815761157f90611563565b565b610fc7565b9061159082611427565b906115a45f61159e8461149a565b01610e42565b926115ca6115b1856101ef565b6115c36115bd5f610a36565b916103be565b141561153a565b6115d2610ed0565b5b806115ee6115e86115e3886101ef565b6103be565b916103be565b101561162f5761162a9061162561161661161161160c898590610f18565b610f38565b611470565b61161f5f61067e565b906107f1565b610ee8565b6115d3565b50916116489193505f611642819261149a565b0161156f565b6116727fda53aaefabec4c3f8ba693a2e3c67fa0152fbd71c369d51f669e66b28a4a08649161075a565b9061167b6100b4565b806116858161011e565b0390a2565b6116926105df565b5061169b610633565b90565b6116a66105df565b506116af6108e9565b90565b606090565b6116c9906116c36116b2565b506116cc565b90565b5f6116ea6116e56116f0936116df6116b2565b50611427565b61149a565b01610e42565b90565b611705906116ff6105df565b50611708565b90565b61171d611722916117176105df565b50611470565b61064f565b90565b90565b61173c61173761174192611725565b61065f565b6103be565b90565b61174f61c351611728565b90565b61175a6105df565b5063ffffffff60e01b5f35167b3ba1a3210667c828492db98dca3e2076cc3735a920a3ca505d382bbc1754806117a061179a6117955f61067e565b6100d1565b916100d1565b146117c3575f808092368280378136915af43d82803e146117bf573d5ff35b3d5ffd5b6117ec6117ce611744565b6117d66100b4565b91829163c44f8d3b60e01b8352600483016103ce565b0390fd5b6117f8610ed0565b50549056fea26469706673582212203bf2a15ac320c6a09d4c7d4f625a1dd0c5cdc8774dfd4575772d8a6bbc6110be64736f6c63430008150033","linkReferences":{}},"methodIdentifiers":{"addImplementation(address,bytes4[])":"f0c01b42","getAdmin()":"6e9960c3","getDummyImplementation()":"908bfe5e","getImplementationSigs(address)":"89396dc8","getSigsImplementation(bytes4)":"a5fcc8bc","readFromStorage(bytes32)":"b5c736e4","removeImplementation(address)":"22175a32","setAdmin(address)":"704b6c02","setDummyImplementation(address)":"c39aa07d"},"id":25}