{"abi":[{"type":"constructor","inputs":[],"stateMutability":"nonpayable"},{"type":"function","name":"absorbDustDebt","inputs":[{"name":"nftIds_","type":"uint256[]","internalType":"uint256[]"}],"outputs":[],"stateMutability":"nonpayable"},{"type":"function","name":"rescueFunds","inputs":[{"name":"token_","type":"address","internalType":"address"}],"outputs":[],"stateMutability":"nonpayable"},{"type":"function","name":"updateBorrowFee","inputs":[{"name":"borrowFee_","type":"uint256","internalType":"uint256"}],"outputs":[],"stateMutability":"nonpayable"},{"type":"function","name":"updateBorrowRateMagnifier","inputs":[{"name":"borrowRateMagnifier_","type":"uint256","internalType":"uint256"}],"outputs":[],"stateMutability":"nonpayable"},{"type":"function","name":"updateCollateralFactor","inputs":[{"name":"collateralFactor_","type":"uint256","internalType":"uint256"}],"outputs":[],"stateMutability":"nonpayable"},{"type":"function","name":"updateCoreSettings","inputs":[{"name":"supplyRateMagnifier_","type":"uint256","internalType":"uint256"},{"name":"borrowRateMagnifier_","type":"uint256","internalType":"uint256"},{"name":"collateralFactor_","type":"uint256","internalType":"uint256"},{"name":"liquidationThreshold_","type":"uint256","internalType":"uint256"},{"name":"liquidationMaxLimit_","type":"uint256","internalType":"uint256"},{"name":"withdrawGap_","type":"uint256","internalType":"uint256"},{"name":"liquidationPenalty_","type":"uint256","internalType":"uint256"},{"name":"borrowFee_","type":"uint256","internalType":"uint256"}],"outputs":[],"stateMutability":"nonpayable"},{"type":"function","name":"updateLiquidationMaxLimit","inputs":[{"name":"liquidationMaxLimit_","type":"uint256","internalType":"uint256"}],"outputs":[],"stateMutability":"nonpayable"},{"type":"function","name":"updateLiquidationPenalty","inputs":[{"name":"liquidationPenalty_","type":"uint256","internalType":"uint256"}],"outputs":[],"stateMutability":"nonpayable"},{"type":"function","name":"updateLiquidationThreshold","inputs":[{"name":"liquidationThreshold_","type":"uint256","internalType":"uint256"}],"outputs":[],"stateMutability":"nonpayable"},{"type":"function","name":"updateOracle","inputs":[{"name":"newOracle_","type":"address","internalType":"address"}],"outputs":[],"stateMutability":"nonpayable"},{"type":"function","name":"updateRebalancer","inputs":[{"name":"newRebalancer_","type":"address","internalType":"address"}],"outputs":[],"stateMutability":"nonpayable"},{"type":"function","name":"updateSupplyRateMagnifier","inputs":[{"name":"supplyRateMagnifier_","type":"uint256","internalType":"uint256"}],"outputs":[],"stateMutability":"nonpayable"},{"type":"function","name":"updateWithdrawGap","inputs":[{"name":"withdrawGap_","type":"uint256","internalType":"uint256"}],"outputs":[],"stateMutability":"nonpayable"},{"type":"event","name":"LogAbsorbDustDebt","inputs":[{"name":"nftIds_","type":"uint256[]","indexed":false,"internalType":"uint256[]"},{"name":"absorbedDustDebt_","type":"uint256","indexed":false,"internalType":"uint256"}],"anonymous":false},{"type":"event","name":"LogRescueFunds","inputs":[{"name":"token_","type":"address","indexed":true,"internalType":"address"}],"anonymous":false},{"type":"event","name":"LogUpdateBorrowFee","inputs":[{"name":"borrowFee_","type":"uint256","indexed":false,"internalType":"uint256"}],"anonymous":false},{"type":"event","name":"LogUpdateBorrowRateMagnifier","inputs":[{"name":"borrowRateMagnifier_","type":"uint256","indexed":false,"internalType":"uint256"}],"anonymous":false},{"type":"event","name":"LogUpdateCollateralFactor","inputs":[{"name":"collateralFactor_","type":"uint256","indexed":false,"internalType":"uint256"}],"anonymous":false},{"type":"event","name":"LogUpdateCoreSettings","inputs":[{"name":"supplyRateMagnifier_","type":"uint256","indexed":false,"internalType":"uint256"},{"name":"borrowRateMagnifier_","type":"uint256","indexed":false,"internalType":"uint256"},{"name":"collateralFactor_","type":"uint256","indexed":false,"internalType":"uint256"},{"name":"liquidationThreshold_","type":"uint256","indexed":false,"internalType":"uint256"},{"name":"liquidationMaxLimit_","type":"uint256","indexed":false,"internalType":"uint256"},{"name":"withdrawGap_","type":"uint256","indexed":false,"internalType":"uint256"},{"name":"liquidationPenalty_","type":"uint256","indexed":false,"internalType":"uint256"},{"name":"borrowFee_","type":"uint256","indexed":false,"internalType":"uint256"}],"anonymous":false},{"type":"event","name":"LogUpdateLiquidationMaxLimit","inputs":[{"name":"liquidationMaxLimit_","type":"uint256","indexed":false,"internalType":"uint256"}],"anonymous":false},{"type":"event","name":"LogUpdateLiquidationPenalty","inputs":[{"name":"liquidationPenalty_","type":"uint256","indexed":false,"internalType":"uint256"}],"anonymous":false},{"type":"event","name":"LogUpdateLiquidationThreshold","inputs":[{"name":"liquidationThreshold_","type":"uint256","indexed":false,"internalType":"uint256"}],"anonymous":false},{"type":"event","name":"LogUpdateOracle","inputs":[{"name":"newOracle_","type":"address","indexed":true,"internalType":"address"}],"anonymous":false},{"type":"event","name":"LogUpdateRebalancer","inputs":[{"name":"newRebalancer_","type":"address","indexed":true,"internalType":"address"}],"anonymous":false},{"type":"event","name":"LogUpdateSupplyRateMagnifier","inputs":[{"name":"supplyRateMagnifier_","type":"uint256","indexed":false,"internalType":"uint256"}],"anonymous":false},{"type":"event","name":"LogUpdateWithdrawGap","inputs":[{"name":"withdrawGap_","type":"uint256","indexed":false,"internalType":"uint256"}],"anonymous":false},{"type":"error","name":"FluidLiquidateResult","inputs":[{"name":"colLiquidated","type":"uint256","internalType":"uint256"},{"name":"debtLiquidated","type":"uint256","internalType":"uint256"}]},{"type":"error","name":"FluidSafeTransferError","inputs":[{"name":"errorId_","type":"uint256","internalType":"uint256"}]},{"type":"error","name":"FluidVaultError","inputs":[{"name":"errorId_","type":"uint256","internalType":"uint256"}]}],"bytecode":{"object":"0x60a0604052346200008a5762000014620000e6565b6200001e62000090565b613a1a620000f782396080518181816107b701528181610a7701528181610cc001528181610fe70152818161127201528181611576015281816117c101528181611a3101528181611c58015281816120b00152818161237c015281816124d701526129310152613a1a90f35b62000096565b60405190565b5f80fd5b60018060a01b031690565b90565b620000c1620000bb620000c7926200009a565b620000a5565b6200009a565b90565b620000d590620000a8565b90565b620000e390620000ca565b90565b620000f130620000d8565b60805256fe60806040526004361015610013575b6105f7565b61001d5f356100ec565b806303f9923c146100e75780631cb44dfc146100e25780634a138a71146100dd578063509c21a4146100d857806354b04ef5146100d357806357917a11146100ce578063898e9628146100c9578063b046a449146100c4578063b8244f5f146100bf578063d3b5be1a146100ba578063d61b93fe146100b5578063e53b2017146100b05763f7a0a7e00361000e576105c4565b610591565b61055e565b6103fb565b6103c8565b610395565b610362565b61032f565b6102f2565b61023e565b61020b565b6101d8565b61014d565b60e01c90565b60405190565b5f80fd5b5f80fd5b5f80fd5b90565b61011081610104565b0361011757565b5f80fd5b9050359061012882610107565b565b9060208282031261014357610140915f0161011b565b90565b6100fc565b5f0190565b3461017b5761016561016036600461012a565b61170f565b61016d6100f2565b8061017781610148565b0390f35b6100f8565b60018060a01b031690565b61019490610180565b90565b6101a08161018b565b036101a757565b5f80fd5b905035906101b882610197565b565b906020828203126101d3576101d0915f016101ab565b90565b6100fc565b34610206576101f06101eb3660046101ba565b6122ca565b6101f86100f2565b8061020281610148565b0390f35b6100f8565b346102395761022361021e36600461012a565b6109c5565b61022b6100f2565b8061023581610148565b0390f35b6100f8565b3461026c5761025661025136600461012a565b610f35565b61025e6100f2565b8061026881610148565b0390f35b6100f8565b9190610100838203126102ed5761028a815f850161011b565b92610298826020830161011b565b926102a6836040840161011b565b926102b4816060850161011b565b926102c2826080830161011b565b926102ea6102d38460a0850161011b565b936102e18160c0860161011b565b9360e00161011b565b90565b6100fc565b3461032a57610314610305366004610271565b96959095949194939293611ff7565b61031c6100f2565b8061032681610148565b0390f35b6100f8565b3461035d5761034761034236600461012a565b61197f565b61034f6100f2565b8061035981610148565b0390f35b6100f8565b346103905761037a61037536600461012a565b61142e565b6103826100f2565b8061038c81610148565b0390f35b6100f8565b346103c3576103ad6103a83660046101ba565b6124bb565b6103b56100f2565b806103bf81610148565b0390f35b6100f8565b346103f6576103e06103db36600461012a565b611b98565b6103e86100f2565b806103f281610148565b0390f35b6100f8565b346104295761041361040e36600461012a565b6111c0565b61041b6100f2565b8061042581610148565b0390f35b6100f8565b5f80fd5b601f801991011690565b634e487b7160e01b5f52604160045260245ffd5b9061045a90610432565b810190811067ffffffffffffffff82111761047457604052565b61043c565b9061048c6104856100f2565b9283610450565b565b67ffffffffffffffff81116104a65760208091020190565b61043c565b5f80fd5b909291926104c46104bf8261048e565b610479565b938185526020808601920283019281841161050157915b8383106104e85750505050565b602080916104f6848661011b565b8152019201916104db565b6104ab565b9080601f8301121561052457816020610521933591016104af565b90565b61042e565b90602082820312610559575f82013567ffffffffffffffff8111610554576105519201610506565b90565b610100565b6100fc565b3461058c57610576610571366004610529565b61360f565b61057e6100f2565b8061058881610148565b0390f35b6100f8565b346105bf576105a96105a43660046101ba565b612811565b6105b16100f2565b806105bb81610148565b0390f35b6100f8565b346105f2576105dc6105d736600461012a565b610c0e565b6105e46100f2565b806105ee81610148565b0390f35b6100f8565b5f80fd5b90565b61061261060d61061792610180565b6105fb565b610180565b90565b610623906105fe565b90565b61062f9061061a565b90565b61063b906105fe565b90565b61064790610632565b90565b6106539061061a565b90565b60e01b90565b9050519061066982610107565b565b6080818303126106ac57610681825f830161065c565b926106a9610692846020850161065c565b936106a0816040860161065c565b9360600161065c565b90565b6100fc565b6106b96100f2565b3d5f823e3d90fd5b6106f69060806106e06106db6106d630610626565b61063e565b61064a565b6302161887906106ee6100f2565b948592610656565b8252815f8161070760048201610148565b03925af19182156107525761072192610723575b506107a6565b565b6107439060803d811161074b575b61073b8183610450565b81019061066b565b50505061071b565b503d610731565b6106b1565b90565b61076e61076961077392610757565b6105fb565b610104565b90565b6107816180ea61075a565b90565b61078d90610104565b9052565b91906107a4905f60208501940190610784565b565b6107af30610626565b6107e16107db7f000000000000000000000000000000000000000000000000000000000000000061018b565b9161018b565b146107f1576107ef9061091a565b565b61081a6107fc610776565b6108046100f2565b9182916330090e6560e11b835260048301610791565b0390fd5b90565b61083561083061083a9261081e565b6105fb565b610104565b90565b61084861ffff610821565b90565b90565b61086261085d6108679261084b565b6105fb565b610104565b90565b6108756180e961084e565b90565b5f1c90565b90565b61088c61089191610878565b61087d565b90565b61089e9054610880565b90565b90565b6108b86108b36108bd926108a1565b6105fb565b610104565b90565b5f1b90565b906108d15f19916108c0565b9181191691161790565b6108ef6108ea6108f492610104565b6105fb565b610104565b90565b90565b9061090f61090a610916926108db565b6108f7565b82546108c5565b9055565b806109517f06f8b08c94d657867f843433de70bed3628bbdc19b0c89413af75d30420ad3f3916109486100f2565b91829182610791565b0390a18061096e61096861096361083d565b610104565b91610104565b1161099857610996906109816001610894565b61098d61ffff196108a4565b161760016108fa565b565b6109c16109a361086a565b6109ab6100f2565b9182916330090e6560e11b835260048301610791565b0390fd5b6109ce906106c1565b565b610a059060806109ef6109ea6109e530610626565b61063e565b61064a565b6302161887906109fd6100f2565b948592610656565b8252815f81610a1660048201610148565b03925af1918215610a6157610a3092610a32575b50610a66565b565b610a529060803d8111610a5a575b610a4a8183610450565b81019061066b565b505050610a2a565b503d610a40565b6106b1565b610a6f30610626565b610aa1610a9b7f000000000000000000000000000000000000000000000000000000000000000061018b565b9161018b565b14610ab157610aaf90610b4d565b565b610ada610abc610776565b610ac46100f2565b9182916330090e6560e11b835260048301610791565b0390fd5b90565b610af5610af0610afa92610ade565b6105fb565b610104565b90565b90565b60ff1690565b610b1a610b15610b1f92610afd565b6105fb565b610b00565b90565b1b90565b610b4590610b3f610b39610b4a94610b00565b91610104565b90610b22565b610104565b90565b80610b847f8d6a11b15739c2d7a6d0a69b9d322262db8c1fb2e4b96239e4e4733df8a5164e91610b7b6100f2565b91829182610791565b0390a180610ba1610b9b610b9661083d565b610104565b91610104565b11610be157610bdf90610bd7610bb76001610894565b610bc563ffff000019610ae1565b1691610bd16010610b06565b90610b26565b1760016108fa565b565b610c0a610bec61086a565b610bf46100f2565b9182916330090e6560e11b835260048301610791565b0390fd5b610c17906109d0565b565b610c4e906080610c38610c33610c2e30610626565b61063e565b61064a565b630216188790610c466100f2565b948592610656565b8252815f81610c5f60048201610148565b03925af1918215610caa57610c7992610c7b575b50610caf565b565b610c9b9060803d8111610ca3575b610c938183610450565b81019061066b565b505050610c73565b503d610c89565b6106b1565b610cb830610626565b610cea610ce47f000000000000000000000000000000000000000000000000000000000000000061018b565b9161018b565b14610cfa57610cf890610e45565b565b610d23610d05610776565b610d0d6100f2565b9182916330090e6560e11b835260048301610791565b0390fd5b90565b610d3e610d39610d4392610d27565b6105fb565b610b00565b90565b1c90565b610d6990610d63610d5d610d6e94610b00565b91610104565b90610d46565b610104565b90565b90565b610d88610d83610d8d92610d71565b6105fb565b610104565b90565b610d9b6103ff610d74565b90565b90565b610db5610db0610dba92610d9e565b6105fb565b610104565b90565b634e487b7160e01b5f52601260045260245ffd5b634e487b7160e01b5f52601160045260245ffd5b610df1610df791610104565b91610104565b908115610e02570490565b610dbd565b90565b610e1e610e19610e2392610e07565b6105fb565b610104565b90565b90565b610e3d610e38610e4292610e26565b6105fb565b610b00565b90565b80610e7c7f0e8160f7246256e8f7eea7dc5ee9de8c9fa1d6057c30561f548e6a84defeef1591610e736100f2565b91829182610791565b0390a1610e896001610894565b90610ebb610ea183610e9b602a610d2a565b90610d4a565b610ea9610d90565b1691610eb5600a610da1565b90610de5565b90610ecf610ec98392610104565b91610104565b1015610f0857610efe610f0692610eec6503ff0000000019610e0a565b1691610ef86020610e29565b90610b26565b1760016108fa565b565b610f31610f1361086a565b610f1b6100f2565b9182916330090e6560e11b835260048301610791565b0390fd5b610f3e90610c19565b565b610f75906080610f5f610f5a610f5530610626565b61063e565b61064a565b630216188790610f6d6100f2565b948592610656565b8252815f81610f8660048201610148565b03925af1918215610fd157610fa092610fa2575b50610fd6565b565b610fc29060803d8111610fca575b610fba8183610450565b81019061066b565b505050610f9a565b503d610fb0565b6106b1565b610fdf30610626565b61101161100b7f000000000000000000000000000000000000000000000000000000000000000061018b565b9161018b565b146110215761101f9061108c565b565b61104a61102c610776565b6110346100f2565b9182916330090e6560e11b835260048301610791565b0390fd5b90565b61106561106061106a9261104e565b6105fb565b610b00565b90565b90565b61108461107f6110899261106d565b6105fb565b610104565b90565b806110c37f44a667dd6218a52f7ef808da1e39e9c8497db215eaff093c0c42ecf9bf2168f3916110ba6100f2565b91829182610791565b0390a16110d06001610894565b906110e5826110df6020610e29565b90610d4a565b6110ed610d90565b1690611120611106846111006034611051565b90610d4a565b61110e610d90565b169161111a600a610da1565b90610de5565b9161113361112d84610104565b91610104565b10159081156111a3575b506111765761116c6111749261115a660ffc000000000019611070565b1691611166602a610d2a565b90610b26565b1760016108fa565b565b61119f61118161086a565b6111896100f2565b9182916330090e6560e11b835260048301610791565b0390fd5b90506111b86111b28392610104565b91610104565b10155f61113d565b6111c990610f40565b565b6112009060806111ea6111e56111e030610626565b61063e565b61064a565b6302161887906111f86100f2565b948592610656565b8252815f8161121160048201610148565b03925af191821561125c5761122b9261122d575b50611261565b565b61124d9060803d8111611255575b6112458183610450565b81019061066b565b505050611225565b503d61123b565b6106b1565b61126a30610626565b61129c6112967f000000000000000000000000000000000000000000000000000000000000000061018b565b9161018b565b146112ac576112aa90611317565b565b6112d56112b7610776565b6112bf6100f2565b9182916330090e6560e11b835260048301610791565b0390fd5b90565b6112f06112eb6112f5926112d9565b6105fb565b610b00565b90565b90565b61130f61130a611314926112f8565b6105fb565b610104565b90565b8061134e7f5ac1492eb2009d4983693cc59b4ec4032b506a0f9cbefc19a7545af5945d26af916113456100f2565b91829182610791565b0390a161135b6001610894565b906113b36113738361136d602a610d2a565b90610d4a565b61137b610d90565b16916113a36113948561138e60486112dc565b90610d4a565b61139c610d90565b168261147d565b6113ad600a610da1565b90610de5565b906113c66113c083610104565b91610104565b1015611401576113f76113ff926113e5673ff0000000000000196112fb565b16916113f16034611051565b90610b26565b1760016108fa565b565b61142a61140c61086a565b6114146100f2565b9182916330090e6560e11b835260048301610791565b0390fd5b611437906111cb565b565b61144861144e91939293610104565b92610104565b820180921161145957565b610dd1565b90565b61147561147061147a9261145e565b6105fb565b610104565b90565b9061148791611439565b61149b6114956126f2611461565b91610104565b116114a257565b6114cb6114ad61086a565b6114b56100f2565b9182916330090e6560e11b835260048301610791565b0390fd5b6115049060806114ee6114e96114e430610626565b61063e565b61064a565b6302161887906114fc6100f2565b948592610656565b8252815f8161151560048201610148565b03925af19182156115605761152f92611531575b50611565565b565b6115519060803d8111611559575b6115498183610450565b81019061066b565b505050611529565b503d61153f565b6106b1565b61156e30610626565b6115a061159a7f000000000000000000000000000000000000000000000000000000000000000061018b565b9161018b565b146115b0576115ae9061163a565b565b6115d96115bb610776565b6115c36100f2565b9182916330090e6560e11b835260048301610791565b0390fd5b90565b6115f46115ef6115f9926115dd565b6105fb565b610104565b90565b90565b61161361160e611618926115fc565b6105fb565b610104565b90565b90565b61163261162d6116379261161b565b6105fb565b610b00565b90565b61168890806116757fba3aefe95d9bb126dd0e7885e76f453e72b0ee6efd457771f26fe0a7ca56cedc9161166c6100f2565b91829182610791565b0390a1611682600a610da1565b90610de5565b8061169d6116976103e86115e0565b91610104565b116116e2576116e0906116d86116b36001610894565b6116c668ffc000000000000000196115ff565b16916116d2603e61161e565b90610b26565b1760016108fa565b565b61170b6116ed61086a565b6116f56100f2565b9182916330090e6560e11b835260048301610791565b0390fd5b611718906114cf565b565b61174f90608061173961173461172f30610626565b61063e565b61064a565b6302161887906117476100f2565b948592610656565b8252815f8161176060048201610148565b03925af19182156117ab5761177a9261177c575b506117b0565b565b61179c9060803d81116117a4575b6117948183610450565b81019061066b565b505050611774565b503d61178a565b6106b1565b6117b930610626565b6117eb6117e57f000000000000000000000000000000000000000000000000000000000000000061018b565b9161018b565b146117fb576117f99061187c565b565b611824611806610776565b61180e6100f2565b9182916330090e6560e11b835260048301610791565b0390fd5b61183761183d91939293610104565b92610104565b91611849838202610104565b92818404149015171561185857565b610dd1565b90565b61187461186f6118799261185d565b6105fb565b610104565b90565b806118b37fd3d6bb99321a653b7fc969c9f2a1917bd9623cab8ecaa67a2e1bec34c3eb2e1c916118aa6100f2565b91829182610791565b0390a16118c06001610894565b906118fb6118f46118db846118d56034611051565b90610d4a565b6118e3610d90565b166118ee600a610da1565b90611828565b829061147d565b8061191561190f61190a610d90565b610104565b91610104565b1161195257611948611950926119366a03ff00000000000000000019611860565b169161194260486112dc565b90610b26565b1760016108fa565b565b61197b61195d61086a565b6119656100f2565b9182916330090e6560e11b835260048301610791565b0390fd5b6119889061171a565b565b6119bf9060806119a96119a461199f30610626565b61063e565b61064a565b6302161887906119b76100f2565b948592610656565b8252815f816119d060048201610148565b03925af1918215611a1b576119ea926119ec575b50611a20565b565b611a0c9060803d8111611a14575b611a048183610450565b81019061066b565b5050506119e4565b503d6119fa565b6106b1565b611a2930610626565b611a5b611a557f000000000000000000000000000000000000000000000000000000000000000061018b565b9161018b565b14611a6b57611a6990611ad6565b565b611a94611a76610776565b611a7e6100f2565b9182916330090e6560e11b835260048301610791565b0390fd5b90565b611aaf611aaa611ab492611a98565b6105fb565b610104565b90565b90565b611ace611ac9611ad392611ab7565b6105fb565b610b00565b90565b80611b0d7f06a28e5e1500bd478bd28b400a0fb46a9cc8748a5dac616b38bc91c29462c17f91611b046100f2565b91829182610791565b0390a180611b2a611b24611b1f610d90565b610104565b91610104565b11611b6b57611b6990611b61611b406001610894565b611b4f6103ff60521b19611a9b565b1691611b5b6052611aba565b90610b26565b1760016108fa565b565b611b94611b7661086a565b611b7e6100f2565b9182916330090e6560e11b835260048301610791565b0390fd5b611ba19061198a565b565b90611bdf979695949392916080611bc9611bc4611bbf30610626565b61063e565b61064a565b630216188790611bd76100f2565b9b8c92610656565b8252815f81611bf060048201610148565b03925af1988915611c3b57611c0a99611c0c575b50611c40565b565b611c2c9060803d8111611c34575b611c248183610450565b81019061066b565b505050611c04565b503d611c1a565b6106b1565b96959493929190611c5030610626565b611c82611c7c7f000000000000000000000000000000000000000000000000000000000000000061018b565b9161018b565b14611c9257611c9097611d56565b565b611cbb611c9d610776565b611ca56100f2565b9182916330090e6560e11b835260048301610791565b0390fd5b959391989796949290986101008701995f8801611cdb91610784565b60208701611ce891610784565b60408601611cf591610784565b60608501611d0291610784565b60808401611d0f91610784565b60a08301611d1c91610784565b60c08201611d2991610784565b60e001611d3591610784565b565b90565b611d4e611d49611d5392611d37565b6105fb565b610104565b90565b9695939491611df0611ddf611dce611e0193969496888b8d611db08d8c9386958d8d93909192937ff992c18e9b1aec434f456c32a556717f76f0f19cba16d430d4ba1be0813ab3e898611da76100f2565b98899889611cbf565b0390a1611dbe8a8a9061147d565b611dc8600a610da1565b90610de5565b93611dd9600a610da1565b90610de5565b96611dea600a610da1565b90610de5565b92611dfb600a610da1565b90610de5565b9187611e1c611e16611e1161083d565b610104565b91610104565b118015611fd6575b8015611fbb575b8015611fa0575b8015611f7f575b8015611f5e575b8015611f3d575b611f1057611ed0611f0696611ebe611ee294611eac611ef498611e9a611f0e9e611e716001610894565b611e876b0fffffffffffffffffffffff19611d3a565b161791611e946010610b06565b90610b26565b1791611ea66020610e29565b90610b26565b1791611eb8602a610d2a565b90610b26565b1791611eca6034611051565b90610b26565b1791611edc603e61161e565b90610b26565b1791611eee60486112dc565b90610b26565b1791611f006052611aba565b90610b26565b1760016108fa565b565b611f39611f1b61086a565b611f236100f2565b9182916330090e6560e11b835260048301610791565b0390fd5b5086611f58611f52611f4d610d90565b610104565b91610104565b11611e47565b5084611f79611f73611f6e610d90565b610104565b91610104565b11611e40565b5082611f9a611f94611f8f610d90565b610104565b91610104565b11611e39565b5085611fb4611fae83610104565b91610104565b1015611e32565b5081611fcf611fc988610104565b91610104565b1015611e2b565b5083611ff1611feb611fe661083d565b610104565b91610104565b11611e24565b9061200797969594939291611ba3565b565b61203e90608061202861202361201e30610626565b61063e565b61064a565b6302161887906120366100f2565b948592610656565b8252815f8161204f60048201610148565b03925af191821561209a576120699261206b575b5061209f565b565b61208b9060803d8111612093575b6120838183610450565b81019061066b565b505050612063565b503d612079565b6106b1565b6120a830610626565b6120da6120d47f000000000000000000000000000000000000000000000000000000000000000061018b565b9161018b565b146120ea576120e8906121f9565b565b6121136120f5610776565b6120fd6100f2565b9182916330090e6560e11b835260048301610791565b0390fd5b90565b61212e61212961213392612117565b6105fb565b610180565b90565b61213f9061211a565b90565b90565b61215961215461215e92612142565b6105fb565b610104565b90565b61216c6180f1612145565b90565b90565b61218661218161218b9261216f565b6105fb565b610104565b90565b6121a36bffffffffffffffffffffffff612172565b90565b6121af906105fe565b90565b6121c66121c16121cb92610180565b6105fb565b610104565b90565b90565b6121e56121e06121ea926121ce565b6105fb565b610b00565b90565b6121f69061061a565b90565b8061221461220e6122095f612136565b61018b565b9161018b565b1461229d5761225b6122266001610894565b61222e61218e565b1661225361224361223e856121a6565b6121b2565b61224d60606121d1565b90610b26565b1760016108fa565b6122857f7a46205dbf7cc57a79f474f580e08d7961ad634e14643486b8df2dc30c392b62916121ed565b9061228e6100f2565b8061229881610148565b0390a2565b6122c66122a8612161565b6122b06100f2565b9182916330090e6560e11b835260048301610791565b0390fd5b6122d390612009565b565b61230a9060806122f46122ef6122ea30610626565b61063e565b61064a565b6302161887906123026100f2565b948592610656565b8252815f8161231b60048201610148565b03925af19182156123665761233592612337575b5061236b565b565b6123579060803d811161235f575b61234f8183610450565b81019061066b565b50505061232f565b503d612345565b6106b1565b61237430610626565b6123a66123a07f000000000000000000000000000000000000000000000000000000000000000061018b565b9161018b565b146123b6576123b490612421565b565b6123df6123c1610776565b6123c96100f2565b9182916330090e6560e11b835260048301610791565b0390fd5b906123f460018060a01b03916108c0565b9181191691161790565b90565b9061241661241161241d926121ed565b6123fe565b82546123e3565b9055565b8061243c6124366124315f612136565b61018b565b9161018b565b1461248e5761244c816009612401565b6124767fdb94ee7fd8b5bbf8f6d59e76731ff4b4f5a02ab3af1d3e0c774862cf96ff613b916121ed565b9061247f6100f2565b8061248981610148565b0390a2565b6124b7612499612161565b6124a16100f2565b9182916330090e6560e11b835260048301610791565b0390fd5b6124c4906122d5565b565b6124cf30610626565b6125016124fb7f000000000000000000000000000000000000000000000000000000000000000061018b565b9161018b565b146125115761250f906125e7565b565b61253a61251c610776565b6125246100f2565b9182916330090e6560e11b835260048301610791565b0390fd5b73eeeeeeeeeeeeeeeeeeeeeeeeeeeeeeeeeeeeeeee90565b9050519061256382610197565b565b9060208282031261257e5761257b915f01612556565b90565b6100fc565b61258c906105fe565b90565b61259890612583565b90565b6125a49061061a565b90565b906020828203126125c0576125bd915f0161065c565b90565b6100fc565b6125ce9061018b565b9052565b91906125e5905f602085019401906125c5565b565b806126016125fb6125f661253e565b61018b565b9161018b565b145f146126e85761263c602061262661262161261c30610626565b61063e565b61064a565b632861c7d1906126346100f2565b938492610656565b8252818061264c60048201610148565b03915afa80156126e357612672915f916126b5575b5061266b30610626565b31906128d1565b5b61269d7fdff2a3947bcf9fc0807b142e7c8497066db9183428b7bdbfb1fcd0f55c27a3df916121ed565b906126a66100f2565b806126b081610148565b0390a2565b6126d6915060203d81116126dc575b6126ce8183610450565b810190612565565b5f612661565b503d6126c4565b6106b1565b61271d8160206127076127026126fd30610626565b61063e565b61064a565b632861c7d1906127156100f2565b948592610656565b8252818061272d60048201610148565b03915afa801561280c57612788925f916127de575b5060206127566127518661258f565b61259b565b6370a082319061277d61276830610626565b926127716100f2565b97889485938493610656565b8352600483016125d2565b03915afa9182156127d9576127a4935f936127a9575b50612853565b612673565b6127cb91935060203d81116127d2575b6127c38183610450565b8101906125a7565b915f61279e565b503d6127b9565b6106b1565b6127ff915060203d8111612805575b6127f78183610450565b810190612565565b5f612742565b503d6127ed565b6106b1565b61281a906124c6565b565b5f90565b151590565b90565b61283c61283761284192612825565b6105fb565b610104565b90565b6128506201155a612828565b90565b60446020925f809361289e9661286761281c565b506040519363a9059cbb60e01b855260018060a01b0316600485015260248401525af13d15601f3d1160015f511416171615612820565b6128a457565b6128cd6128af612844565b6128b76100f2565b918291636f728d4560e11b835260048301610791565b0390fd5b5f80806128ed9481946128e261281c565b50614e20f115612820565b6128f357565b61291c6128fe612844565b6129066100f2565b918291636f728d4560e11b835260048301610791565b0390fd5b61292930610626565b61295b6129557f000000000000000000000000000000000000000000000000000000000000000061018b565b9161018b565b1461296b5761296990612fcd565b565b612994612976610776565b61297e6100f2565b9182916330090e6560e11b835260048301610791565b0390fd5b90565b6129af6129aa6129b492612998565b6105fb565b610104565b90565b6129cb6129c66129d092612117565b6105fb565b610104565b90565b90565b6129ea6129e56129ef926129d3565b6105fb565b610104565b90565b6129fd6179196129d6565b90565b5f90565b5f90565b5190565b634e487b7160e01b5f52603260045260245ffd5b90612a2a82612a08565b811015612a3b576020809102010190565b612a0c565b612a4a9051610104565b90565b90565b612a64612a5f612a6992612a4d565b6105fb565b610104565b90565b612a776180eb612a50565b90565b90612a84906108db565b5f5260205260405f2090565b90565b612aa7612aa2612aac92612a90565b6105fb565b610104565b90565b612aba6180ec612a93565b90565b90565b612ad4612acf612ad992612abd565b6105fb565b610b00565b90565b90565b612af3612aee612af892612adc565b6105fb565b610104565b90565b612b0c67ffffffffffffffff612adf565b90565b90565b612b26612b21612b2b92612b0f565b6105fb565b610b00565b90565b90565b612b45612b40612b4a92612b2e565b6105fb565b610104565b90565b612b5760ff612b31565b90565b612b7990612b73612b6d612b7e94610104565b91610104565b90610b22565b610104565b90565b90565b612b98612b93612b9d92612b81565b6105fb565b610b00565b90565b90565b612bb7612bb2612bbc92612ba0565b6105fb565b610104565b90565b612bca6180ed612ba3565b90565b90565b612be4612bdf612be992612bcd565b6105fb565b610104565b90565b612c00612bfb612c0592612bcd565b6105fb565b610b00565b90565b90565b612c1f612c1a612c2492612c08565b6105fb565b610104565b90565b612c336207ffff612c0b565b90565b90565b612c4d612c48612c5292610104565b6105fb565b612c36565b90565b612c5e90612c36565b600160ff1b8114612c6e575f0390565b610dd1565b90565b612c8a612c85612c8f92612c73565b6105fb565b610b00565b90565b90565b612ca9612ca4612cae92612c92565b6105fb565b610104565b90565b612cbd62ffffff612c95565b90565b60020b90565b612cda612cd5612cdf92612c36565b6105fb565b612cc0565b90565b612cf6612cf1612cfb92612cc0565b6105fb565b612c36565b90565b612d12612d0d612d1792612c36565b6105fb565b612c36565b90565b90612d2490612cfe565b5f5260205260405f2090565b612d44612d3f612d4992612998565b6105fb565b610b00565b90565b90565b612d63612d5e612d6892612d4c565b6105fb565b610104565b90565b612d766180ef612d4f565b90565b612d8281612c36565b03612d8957565b5f80fd5b90505190612d9a82612d79565b565b919060a083820312612ded57612db4815f8501612d8d565b92612dc2826020830161065c565b92612dea612dd3846040850161065c565b93612de1816060860161065c565b9360800161065c565b90565b6100fc565b612dfb90612c36565b9052565b612e34612e3b94612e2a606094989795612e20608086019a5f870190612df2565b6020850190610784565b6040830190610784565b0190610784565b565b90565b612e54612e4f612e5992612e3d565b6105fb565b610104565b90565b612e676180ee612e40565b90565b6001612e769101610104565b90565b90565b612e90612e8b612e9592612e79565b6105fb565b610104565b90565b612ea36180f0612e7c565b90565b90565b612ebd612eb8612ec292612ea6565b6105fb565b610b00565b90565b600190565b90565b612ee1612edc612ee692612eca565b6105fb565b610104565b90565b612efd612ef8612f0292612b0f565b6105fb565b610104565b90565b90565b612f1c612f17612f2192612f05565b6105fb565b610104565b90565b60209181520190565b60200190565b612f3c90610104565b9052565b90612f4d81602093612f33565b0190565b60200190565b90612f74612f6e612f6784612a08565b8093612f24565b92612f2d565b905f5b818110612f845750505090565b909192612f9d612f976001928651612f40565b94612f51565b9101919091612f77565b92916020612fc3612fcb9360408701908782035f890152612f57565b940190610784565b565b612fd65f610894565b9081612fe2600161299b565b16612ff5612fef5f6129b7565b91610104565b145f146135e2576130118261300a600161299b565b175f6108fa565b613019612a00565b50613022612a00565b5061302b612a04565b50613034612a00565b5061303d612a00565b50613046612a00565b5061304f612a00565b50613058612a00565b50613063600a610894565b9261306d5f6129b7565b935b8461308a61308461307f86612a08565b610104565b91610104565b101561349e576130a361309e848790612a20565b612a40565b94856130b76130b15f6129b7565b91610104565b14613471576130d06130cb60038890612a7a565b610894565b806130e36130dd5f6129b7565b91610104565b146134445761312c6130ff826130f9602d612ac0565b90610d4a565b613107612afb565b1661311c816131166008612b12565b90610d4a565b90613125612b4d565b1690612b5a565b6131706131438361313d606d612b84565b90610d4a565b61314b612afb565b166131608161315a6008612b12565b90610d4a565b90613169612b4d565b1690612b5a565b918261318461317e5f6129b7565b91610104565b1461341757806131946002612bd0565b166131a86131a26002612bd0565b91610104565b145f146133dc576132276132176131ef6131dd6131cf856131c96002612bec565b90610d4a565b6131d7612c27565b16612c39565b5b936131e96015612c76565b90610d4a565b6131f7612cb1565b169361321261320d61320886612cc6565b612ce2565b61375e565b611828565b61322160606121d1565b90610d4a565b9161323c61323760058490612d1a565b610894565b80613247600161299b565b1661325b613255600161299b565b91610104565b1480156133a6575b5f14613379576132a860a0936132b361328b61328661328130610626565b61063e565b61064a565b936322348cc792959761329c6100f2565b98899788968796610656565b865260048601612dff565b03915afa908115613374575f80929050613343575b506132db6132d55f6129b7565b91610104565b11613316576132f061330b9161331094611439565b966133066132fe600161299b565b916003612a7a565b6108fa565b612e6a565b9361306f565b61333f613321612e5c565b6133296100f2565b9182916330090e6560e11b835260048301610791565b0390fd5b613364915060a03d811161336d575b61335c8183610450565b810190612d9c565b505050906132c8565b503d613352565b6106b1565b6133a2613384612d6b565b61338c6100f2565b9182916330090e6560e11b835260048301610791565b0390fd5b506133bb816133b56001612d30565b90610d4a565b6133c3612cb1565b166133d66133d084610104565b91610104565b11613263565b6132276132176131ef61341261340d6133ff866133f96002612bec565b90610d4a565b613407612c27565b16612c39565b612c55565b6131de565b613440613422612bbf565b61342a6100f2565b9182916330090e6560e11b835260048301610791565b0390fd5b61346d61344f612aaf565b6134576100f2565b9182916330090e6560e11b835260048301610791565b0390fd5b61349a61347c612a6c565b6134846100f2565b9182916330090e6560e11b835260048301610791565b0390fd5b92909350826134b56134af5f6129b7565b91610104565b146135b5578061355f61353761351261350b6134de613566966134d86092612ea9565b90610d4a565b6134e6612afb565b166134fb816134f56008612b12565b90610d4a565b90613504612b4d565b1690612b5a565b8790611439565b603890600861353161352b613525612ec5565b94612ecd565b91612ee9565b9161361a565b9161354d67ffffffffffffffff60921b19612f08565b16916135596092612ea9565b90610b26565b175f6108fa565b6135796135725f6129b7565b600a6108fa565b907fae8abcd7cc16d6da9fa7098d41cc4cdb3bd5ce892e46f15d904b44c9b156cb5e916135b06135a76100f2565b92839283612fa7565b0390a1565b6135de6135c0612e98565b6135c86100f2565b9182916330090e6560e11b835260048301610791565b0390fd5b61360b6135ed6129f2565b6135f56100f2565b9182916330090e6560e11b835260048301610791565b0390fd5b61361890612920565b565b929190613625612a00565b50805f856fffffffffffffffffffffffffffffffff8111613751575b67ffffffffffffffff8111613744575b63ffffffff8111613737575b61ffff811161372a575b60ff811161371d575b600f8111613710575b60038111613703575b600181116136f5575b5f106136ed575b8181106136e6575b0393841c925f8511166136bd575b506001811b8310156136b9571b0190565b5f80fd5b9160010191826001821b146136d2575b6136a8565b600180929493508091031b9101915f6136cd565b508061369a565b600101613692565b9060015f910191905061368b565b600290811c910190613682565b600490811c910190613679565b600890811c910190613670565b601090811c910190613667565b602090811c91019061365d565b604090811c910190613651565b905060801c608090613641565b613766612a00565b508060ff1d8160ff1d821803617fff81116139e057600160801b90600181166139c7575b600281166139ab575b6004811661398f575b60088116613973575b60108116613957575b6020811661393b575b6040811661391f575b60808116613903575b61010081166138e7575b61020081166138cb575b61040081166138af575b6108008116613893575b6110008116613878575b6120008116613858575b61400016613842575b5f91600160ff1b1615613823575b60201c0190565b5f19046401000000008106613838575b61381c565b9050600190613833565b6b17c45e641b6e95dee056ff100260801c61380e565b906d4e009ae5519380809a02ca7aec77614000910260801c919050613805565b906e8d4f70c9ff4924dac37612d1e2921e0260801c906137fb565b906f0be32cbee48979763cf7247dd7bb539d0260801c906137f1565b906f372a3bfe0745d8b6b19d985d9a8b85bb0260801c906137e7565b906f76d6461f27082d74e0feed3b388c0ca10260801c906137dd565b906fae6b7961714e20548d88ea5123f9a0ff0260801c906137d3565b906fd34f17a00ffa00a8309940a15930391a0260801c906137c9565b906fe895615b5beb6386553757b0352bda900260801c906137c0565b906ff402d288133a85a17784a411f7aba0820260801c906137b7565b906ff9ef02c4529258b057769680fc6601b30260801c906137ae565b906ffcf2d9987c9be178ad5bfeffaa1232730260801c906137a5565b906ffe78410fd6498b73cb96a6917f8532590260801c9061379c565b906fff3bd55f4488ad277531fa1c725a66d00260801c90613793565b90506fff9dd7de423466c20352b1246ce4856f9061378a565b5f80fdfea26469706673582212203f4c14053e69ec097257fe4055ff16b480e086a71b1b1de0c4c221b980f35bec64736f6c63430008150033","linkReferences":{}},"methodIdentifiers":{"absorbDustDebt(uint256[])":"d61b93fe","rescueFunds(address)":"e53b2017","updateBorrowFee(uint256)":"b8244f5f","updateBorrowRateMagnifier(uint256)":"f7a0a7e0","updateCollateralFactor(uint256)":"509c21a4","updateCoreSettings(uint256,uint256,uint256,uint256,uint256,uint256,uint256,uint256)":"54b04ef5","updateLiquidationMaxLimit(uint256)":"898e9628","updateLiquidationPenalty(uint256)":"57917a11","updateLiquidationThreshold(uint256)":"d3b5be1a","updateOracle(address)":"1cb44dfc","updateRebalancer(address)":"b046a449","updateSupplyRateMagnifier(uint256)":"4a138a71","updateWithdrawGap(uint256)":"03f9923c"},"id":60}