{"abi":[{"type":"constructor","inputs":[{"name":"nativeTokenMaxBorrowLimitCap_","type":"uint256","internalType":"uint256"}],"stateMutability":"nonpayable"},{"type":"function","name":"NATIVE_TOKEN_MAX_BORROW_LIMIT_CAP","inputs":[],"outputs":[{"name":"","type":"uint256","internalType":"uint256"}],"stateMutability":"view"},{"type":"function","name":"changeStatus","inputs":[{"name":"newStatus_","type":"uint256","internalType":"uint256"}],"outputs":[],"stateMutability":"nonpayable"},{"type":"function","name":"collectRevenue","inputs":[{"name":"tokens_","type":"address[]","internalType":"address[]"}],"outputs":[],"stateMutability":"nonpayable"},{"type":"function","name":"pauseUser","inputs":[{"name":"user_","type":"address","internalType":"address"},{"name":"supplyTokens_","type":"address[]","internalType":"address[]"},{"name":"borrowTokens_","type":"address[]","internalType":"address[]"}],"outputs":[],"stateMutability":"nonpayable"},{"type":"function","name":"unpauseUser","inputs":[{"name":"user_","type":"address","internalType":"address"},{"name":"supplyTokens_","type":"address[]","internalType":"address[]"},{"name":"borrowTokens_","type":"address[]","internalType":"address[]"}],"outputs":[],"stateMutability":"nonpayable"},{"type":"function","name":"updateAuths","inputs":[{"name":"authsStatus_","type":"tuple[]","internalType":"struct Structs.AddressBool[]","components":[{"name":"addr","type":"address","internalType":"address"},{"name":"value","type":"bool","internalType":"bool"}]}],"outputs":[],"stateMutability":"nonpayable"},{"type":"function","name":"updateExchangePrices","inputs":[{"name":"tokens_","type":"address[]","internalType":"address[]"}],"outputs":[{"name":"supplyExchangePrices_","type":"uint256[]","internalType":"uint256[]"},{"name":"borrowExchangePrices_","type":"uint256[]","internalType":"uint256[]"}],"stateMutability":"nonpayable"},{"type":"function","name":"updateGuardians","inputs":[{"name":"guardiansStatus_","type":"tuple[]","internalType":"struct Structs.AddressBool[]","components":[{"name":"addr","type":"address","internalType":"address"},{"name":"value","type":"bool","internalType":"bool"}]}],"outputs":[],"stateMutability":"nonpayable"},{"type":"function","name":"updateRateDataV1s","inputs":[{"name":"tokensRateData_","type":"tuple[]","internalType":"struct Structs.RateDataV1Params[]","components":[{"name":"token","type":"address","internalType":"address"},{"name":"kink","type":"uint256","internalType":"uint256"},{"name":"rateAtUtilizationZero","type":"uint256","internalType":"uint256"},{"name":"rateAtUtilizationKink","type":"uint256","internalType":"uint256"},{"name":"rateAtUtilizationMax","type":"uint256","internalType":"uint256"}]}],"outputs":[],"stateMutability":"nonpayable"},{"type":"function","name":"updateRateDataV2s","inputs":[{"name":"tokensRateData_","type":"tuple[]","internalType":"struct Structs.RateDataV2Params[]","components":[{"name":"token","type":"address","internalType":"address"},{"name":"kink1","type":"uint256","internalType":"uint256"},{"name":"kink2","type":"uint256","internalType":"uint256"},{"name":"rateAtUtilizationZero","type":"uint256","internalType":"uint256"},{"name":"rateAtUtilizationKink1","type":"uint256","internalType":"uint256"},{"name":"rateAtUtilizationKink2","type":"uint256","internalType":"uint256"},{"name":"rateAtUtilizationMax","type":"uint256","internalType":"uint256"}]}],"outputs":[],"stateMutability":"nonpayable"},{"type":"function","name":"updateRevenueCollector","inputs":[{"name":"revenueCollector_","type":"address","internalType":"address"}],"outputs":[],"stateMutability":"nonpayable"},{"type":"function","name":"updateTokenConfigs","inputs":[{"name":"tokenConfigs_","type":"tuple[]","internalType":"struct Structs.TokenConfig[]","components":[{"name":"token","type":"address","internalType":"address"},{"name":"fee","type":"uint256","internalType":"uint256"},{"name":"threshold","type":"uint256","internalType":"uint256"},{"name":"maxUtilization","type":"uint256","internalType":"uint256"}]}],"outputs":[],"stateMutability":"nonpayable"},{"type":"function","name":"updateUserBorrowConfigs","inputs":[{"name":"userBorrowConfigs_","type":"tuple[]","internalType":"struct Structs.UserBorrowConfig[]","components":[{"name":"user","type":"address","internalType":"address"},{"name":"token","type":"address","internalType":"address"},{"name":"mode","type":"uint8","internalType":"uint8"},{"name":"expandPercent","type":"uint256","internalType":"uint256"},{"name":"expandDuration","type":"uint256","internalType":"uint256"},{"name":"baseDebtCeiling","type":"uint256","internalType":"uint256"},{"name":"maxDebtCeiling","type":"uint256","internalType":"uint256"}]}],"outputs":[],"stateMutability":"nonpayable"},{"type":"function","name":"updateUserClasses","inputs":[{"name":"userClasses_","type":"tuple[]","internalType":"struct Structs.AddressUint256[]","components":[{"name":"addr","type":"address","internalType":"address"},{"name":"value","type":"uint256","internalType":"uint256"}]}],"outputs":[],"stateMutability":"nonpayable"},{"type":"function","name":"updateUserSupplyConfigs","inputs":[{"name":"userSupplyConfigs_","type":"tuple[]","internalType":"struct Structs.UserSupplyConfig[]","components":[{"name":"user","type":"address","internalType":"address"},{"name":"token","type":"address","internalType":"address"},{"name":"mode","type":"uint8","internalType":"uint8"},{"name":"expandPercent","type":"uint256","internalType":"uint256"},{"name":"expandDuration","type":"uint256","internalType":"uint256"},{"name":"baseWithdrawalLimit","type":"uint256","internalType":"uint256"}]}],"outputs":[],"stateMutability":"nonpayable"},{"type":"function","name":"updateUserWithdrawalLimit","inputs":[{"name":"user_","type":"address","internalType":"address"},{"name":"token_","type":"address","internalType":"address"},{"name":"newLimit_","type":"uint256","internalType":"uint256"}],"outputs":[],"stateMutability":"nonpayable"},{"type":"event","name":"BorrowRateMaxCap","inputs":[],"anonymous":false},{"type":"event","name":"LogChangeStatus","inputs":[{"name":"newStatus","type":"uint256","indexed":true,"internalType":"uint256"}],"anonymous":false},{"type":"event","name":"LogCollectRevenue","inputs":[{"name":"token","type":"address","indexed":true,"internalType":"address"},{"name":"amount","type":"uint256","indexed":true,"internalType":"uint256"}],"anonymous":false},{"type":"event","name":"LogPauseUser","inputs":[{"name":"user","type":"address","indexed":false,"internalType":"address"},{"name":"supplyTokens","type":"address[]","indexed":false,"internalType":"address[]"},{"name":"borrowTokens","type":"address[]","indexed":false,"internalType":"address[]"}],"anonymous":false},{"type":"event","name":"LogUnpauseUser","inputs":[{"name":"user","type":"address","indexed":false,"internalType":"address"},{"name":"supplyTokens","type":"address[]","indexed":false,"internalType":"address[]"},{"name":"borrowTokens","type":"address[]","indexed":false,"internalType":"address[]"}],"anonymous":false},{"type":"event","name":"LogUpdateAuths","inputs":[{"name":"authsStatus","type":"tuple[]","indexed":false,"internalType":"struct Structs.AddressBool[]","components":[{"name":"addr","type":"address","internalType":"address"},{"name":"value","type":"bool","internalType":"bool"}]}],"anonymous":false},{"type":"event","name":"LogUpdateExchangePrices","inputs":[{"name":"token","type":"address","indexed":true,"internalType":"address"},{"name":"supplyExchangePrice","type":"uint256","indexed":true,"internalType":"uint256"},{"name":"borrowExchangePrice","type":"uint256","indexed":true,"internalType":"uint256"},{"name":"borrowRate","type":"uint256","indexed":false,"internalType":"uint256"},{"name":"utilization","type":"uint256","indexed":false,"internalType":"uint256"}],"anonymous":false},{"type":"event","name":"LogUpdateGuardians","inputs":[{"name":"guardiansStatus","type":"tuple[]","indexed":false,"internalType":"struct Structs.AddressBool[]","components":[{"name":"addr","type":"address","internalType":"address"},{"name":"value","type":"bool","internalType":"bool"}]}],"anonymous":false},{"type":"event","name":"LogUpdateRateDataV1s","inputs":[{"name":"tokenRateDatas","type":"tuple[]","indexed":false,"internalType":"struct Structs.RateDataV1Params[]","components":[{"name":"token","type":"address","internalType":"address"},{"name":"kink","type":"uint256","internalType":"uint256"},{"name":"rateAtUtilizationZero","type":"uint256","internalType":"uint256"},{"name":"rateAtUtilizationKink","type":"uint256","internalType":"uint256"},{"name":"rateAtUtilizationMax","type":"uint256","internalType":"uint256"}]}],"anonymous":false},{"type":"event","name":"LogUpdateRateDataV2s","inputs":[{"name":"tokenRateDatas","type":"tuple[]","indexed":false,"internalType":"struct Structs.RateDataV2Params[]","components":[{"name":"token","type":"address","internalType":"address"},{"name":"kink1","type":"uint256","internalType":"uint256"},{"name":"kink2","type":"uint256","internalType":"uint256"},{"name":"rateAtUtilizationZero","type":"uint256","internalType":"uint256"},{"name":"rateAtUtilizationKink1","type":"uint256","internalType":"uint256"},{"name":"rateAtUtilizationKink2","type":"uint256","internalType":"uint256"},{"name":"rateAtUtilizationMax","type":"uint256","internalType":"uint256"}]}],"anonymous":false},{"type":"event","name":"LogUpdateRevenueCollector","inputs":[{"name":"revenueCollector","type":"address","indexed":true,"internalType":"address"}],"anonymous":false},{"type":"event","name":"LogUpdateTokenConfigs","inputs":[{"name":"tokenConfigs","type":"tuple[]","indexed":false,"internalType":"struct Structs.TokenConfig[]","components":[{"name":"token","type":"address","internalType":"address"},{"name":"fee","type":"uint256","internalType":"uint256"},{"name":"threshold","type":"uint256","internalType":"uint256"},{"name":"maxUtilization","type":"uint256","internalType":"uint256"}]}],"anonymous":false},{"type":"event","name":"LogUpdateUserBorrowConfigs","inputs":[{"name":"userBorrowConfigs","type":"tuple[]","indexed":false,"internalType":"struct Structs.UserBorrowConfig[]","components":[{"name":"user","type":"address","internalType":"address"},{"name":"token","type":"address","internalType":"address"},{"name":"mode","type":"uint8","internalType":"uint8"},{"name":"expandPercent","type":"uint256","internalType":"uint256"},{"name":"expandDuration","type":"uint256","internalType":"uint256"},{"name":"baseDebtCeiling","type":"uint256","internalType":"uint256"},{"name":"maxDebtCeiling","type":"uint256","internalType":"uint256"}]}],"anonymous":false},{"type":"event","name":"LogUpdateUserClasses","inputs":[{"name":"userClasses","type":"tuple[]","indexed":false,"internalType":"struct Structs.AddressUint256[]","components":[{"name":"addr","type":"address","internalType":"address"},{"name":"value","type":"uint256","internalType":"uint256"}]}],"anonymous":false},{"type":"event","name":"LogUpdateUserSupplyConfigs","inputs":[{"name":"userSupplyConfigs","type":"tuple[]","indexed":false,"internalType":"struct Structs.UserSupplyConfig[]","components":[{"name":"user","type":"address","internalType":"address"},{"name":"token","type":"address","internalType":"address"},{"name":"mode","type":"uint8","internalType":"uint8"},{"name":"expandPercent","type":"uint256","internalType":"uint256"},{"name":"expandDuration","type":"uint256","internalType":"uint256"},{"name":"baseWithdrawalLimit","type":"uint256","internalType":"uint256"}]}],"anonymous":false},{"type":"event","name":"LogUpdateUserWithdrawalLimit","inputs":[{"name":"user","type":"address","indexed":false,"internalType":"address"},{"name":"token","type":"address","indexed":false,"internalType":"address"},{"name":"newLimit","type":"uint256","indexed":false,"internalType":"uint256"}],"anonymous":false},{"type":"error","name":"FluidLiquidityCalcsError","inputs":[{"name":"errorId_","type":"uint256","internalType":"uint256"}]},{"type":"error","name":"FluidLiquidityError","inputs":[{"name":"errorId_","type":"uint256","internalType":"uint256"}]},{"type":"error","name":"FluidSafeTransferError","inputs":[{"name":"errorId_","type":"uint256","internalType":"uint256"}]}],"bytecode":{"object":"0x60a06040523462000047576200001e620000186200010a565b62000130565b620000286200004d565b6187dd6200035d8239608051818181610b3d0152617aee01526187dd90f35b62000053565b60405190565b5f80fd5b601f801991011690565b634e487b7160e01b5f52604160045260245ffd5b90620000819062000057565b810190811060018060401b038211176200009a57604052565b62000061565b90620000b7620000af6200004d565b928362000075565b565b5f80fd5b90565b620000cb81620000bd565b03620000d357565b5f80fd5b90505190620000e682620000c0565b565b90602082820312620001045762000101915f01620000d7565b90565b620000b9565b6200012d62008b3a803803806200012181620000a0565b928339810190620000e8565b90565b6200013b906200013d565b565b62000148906200014a565b565b620001559062000157565b565b6200016290620001e7565b565b90565b90565b620001836200017d620001899262000164565b62000167565b620000bd565b90565b90565b620001a8620001a2620001ae926200018c565b62000167565b620000bd565b90565b620001be6127166200018f565b90565b620001cc90620000bd565b9052565b9190620001e5905f60208501940190620001c1565b565b620001f162000246565b8062000208620002015f6200016a565b91620000bd565b146200021357608052565b6200024262000221620001b1565b6200022b6200004d565b918291636e55c17160e11b835260048301620001d0565b0390fd5b6200025062000252565b565b6200025c6200025e565b565b620002686200026a565b565b620002746200033a565b565b90565b60ff1690565b62000298620002926200029e9262000276565b62000167565b62000279565b90565b620002ad60026200027f565b90565b620002c9620002c3620002cf9262000279565b62000167565b620000bd565b90565b5f1b90565b90620002e55f1991620002d2565b9181191691161790565b62000308620003026200030e92620000bd565b62000167565b620000bd565b90565b90565b906200032e620003286200033692620002ef565b62000311565b8254620002d7565b9055565b6200035a620003526200034c620002a1565b620002b0565b600162000314565b56fe60806040526004361015610013575b610cd6565b61001d5f3561011c565b806301b88f861461011757806302c6bb6a146101125780633f66feff1461010d5780633fad77fc1461010857806354bb0c1d146101035780637f7b6002146100fe5780638f0c2916146100f95780639dde5977146100f4578063a5eb43ef146100ef578063ac862bfa146100ea578063c2da75f0146100e5578063dd4cbf6b146100e0578063e8025d77146100db578063eae2c8f1146100d6578063ec048401146100d15763f4bfa0000361000e57610c9f565b610bb6565b610b81565b610af9565b610aa4565b610a05565b61095c565b6108b3565b61087f565b6107d6565b610768565b6106c0565b61066e565b6105c5565b610519565b610391565b60e01c90565b60405190565b5f80fd5b5f80fd5b5f80fd5b5f80fd5b601f801991011690565b634e487b7160e01b5f52604160045260245ffd5b9061016090610138565b810190811067ffffffffffffffff82111761017a57604052565b610142565b9061019261018b610122565b9283610156565b565b67ffffffffffffffff81116101ac5760208091020190565b610142565b5f80fd5b5f80fd5b60018060a01b031690565b6101cd906101b9565b90565b6101d9816101c4565b036101e057565b5f80fd5b905035906101f1826101d0565b565b60ff1690565b610202816101f3565b0361020957565b5f80fd5b9050359061021a826101f9565b565b90565b6102288161021c565b0361022f57565b5f80fd5b905035906102408261021f565b565b919060e0838203126102d6576102cf9061025c60e061017f565b93610269825f83016101e4565b5f86015261027a82602083016101e4565b602086015261028c826040830161020d565b604086015261029e8260608301610233565b60608601526102b08260808301610233565b60808601526102c28260a08301610233565b60a086015260c001610233565b60c0830152565b6101b5565b909291926102f06102eb82610194565b61017f565b9381855260e060208601920283019281841161032f57915b8383106103155750505050565b602060e0916103248486610242565b815201920191610308565b6101b1565b9080601f830112156103525781602061034f933591016102db565b90565b610134565b90602082820312610387575f82013567ffffffffffffffff81116103825761037f9201610334565b90565b610130565b61012c565b5f0190565b346103bf576103a96103a4366004610357565b617cbd565b6103b1610122565b806103bb8161038c565b0390f35b610128565b67ffffffffffffffff81116103dc5760208091020190565b610142565b919060c0838203126104635761045c906103fb60c061017f565b93610408825f83016101e4565b5f86015261041982602083016101e4565b602086015261042b826040830161020d565b604086015261043d8260608301610233565b606086015261044f8260808301610233565b608086015260a001610233565b60a0830152565b6101b5565b9092919261047d610478826103c4565b61017f565b9381855260c06020860192028301928184116104bc57915b8383106104a25750505050565b602060c0916104b184866103e1565b815201920191610495565b6101b1565b9080601f830112156104df578160206104dc93359101610468565b90565b610134565b90602082820312610514575f82013567ffffffffffffffff811161050f5761050c92016104c1565b90565b610130565b61012c565b346105475761053161052c3660046104e4565b616c27565b610539610122565b806105438161038c565b0390f35b610128565b5f80fd5b909182601f8301121561058a5781359167ffffffffffffffff831161058557602001926040830284011161058057565b6101b1565b61054c565b610134565b906020828203126105c0575f82013567ffffffffffffffff81116105bb576105b79201610550565b9091565b610130565b61012c565b346105f4576105de6105d836600461058f565b906110f0565b6105e6610122565b806105f08161038c565b0390f35b610128565b909182601f830112156106335781359167ffffffffffffffff831161062e576020019260a0830284011161062957565b6101b1565b61054c565b610134565b90602082820312610669575f82013567ffffffffffffffff81116106645761066092016105f9565b9091565b610130565b61012c565b3461069d57610687610681366004610638565b90612ceb565b61068f610122565b806106998161038c565b0390f35b610128565b906020828203126106bb576106b8915f016101e4565b90565b61012c565b346106ee576106d86106d33660046106a2565b6113f3565b6106e0610122565b806106ea8161038c565b0390f35b610128565b909182601f8301121561072d5781359167ffffffffffffffff831161072857602001926080830284011161072357565b6101b1565b61054c565b610134565b90602082820312610763575f82013567ffffffffffffffff811161075e5761075a92016106f3565b9091565b610130565b61012c565b346107975761078161077b366004610732565b90615458565b610789610122565b806107938161038c565b0390f35b610128565b90916060828403126107d1576107ce6107b7845f85016101e4565b936107c581602086016101e4565b93604001610233565b90565b61012c565b34610805576107ef6107e936600461079c565b91615c6c565b6107f7610122565b806108018161038c565b0390f35b610128565b909182601f830112156108445781359167ffffffffffffffff831161083f576020019260e0830284011161083a57565b6101b1565b61054c565b610134565b9060208282031261087a575f82013567ffffffffffffffff811161087557610871920161080a565b9091565b610130565b61012c565b346108ae57610898610892366004610849565b906146ec565b6108a0610122565b806108aa8161038c565b0390f35b610128565b346108e2576108cc6108c636600461058f565b906112fd565b6108d4610122565b806108de8161038c565b0390f35b610128565b909182601f830112156109215781359167ffffffffffffffff831161091c57602001926020830284011161091757565b6101b1565b61054c565b610134565b90602082820312610957575f82013567ffffffffffffffff81116109525761094e92016108e7565b9091565b610130565b61012c565b3461098b5761097561096f366004610926565b9061193d565b61097d610122565b806109878161038c565b0390f35b610128565b909182601f830112156109ca5781359167ffffffffffffffff83116109c55760200192604083028401116109c057565b6101b1565b61054c565b610134565b90602082820312610a00575f82013567ffffffffffffffff81116109fb576109f79201610990565b9091565b610130565b61012c565b34610a3457610a1e610a183660046109cf565b9061571a565b610a26610122565b80610a308161038c565b0390f35b610128565b606081830312610a9f57610a4f825f83016101e4565b92602082013567ffffffffffffffff8111610a9a5783610a709184016108e7565b929093604082013567ffffffffffffffff8111610a9557610a9192016108e7565b9091565b610130565b610130565b61012c565b34610ad657610ac0610ab7366004610a39565b939290926181d1565b610ac8610122565b80610ad28161038c565b0390f35b610128565b90602082820312610af457610af1915f01610233565b90565b61012c565b34610b2757610b11610b0c366004610adb565b6128d6565b610b19610122565b80610b238161038c565b0390f35b610128565b5f910312610b3657565b61012c565b7f000000000000000000000000000000000000000000000000000000000000000090565b610b689061021c565b9052565b9190610b7f905f60208501940190610b5f565b565b34610bb157610b91366004610b2c565b610bad610b9c610b3b565b610ba4610122565b91829182610b6c565b0390f35b610128565b34610be857610bd2610bc9366004610a39565b939290926185d8565b610bda610122565b80610be48161038c565b0390f35b610128565b5190565b60209181520190565b60200190565b610c099061021c565b9052565b90610c1a81602093610c00565b0190565b60200190565b90610c41610c3b610c3484610bed565b8093610bf1565b92610bfa565b905f5b818110610c515750505090565b909192610c6a610c646001928651610c0d565b94610c1e565b9101919091610c44565b9091610c8e610c9c9360408401908482035f860152610c24565b916020818403910152610c24565b90565b34610cd157610cb8610cb2366004610926565b9061867a565b90610ccd610cc4610122565b92839283610c74565b0390f35b610128565b5f80fd5b90565b90565b610cf4610cef610cf992610cda565b610cdd565b61021c565b90565b610d07612712610ce0565b90565b90610d1361874c565b610d25610d1f336101c4565b916101c4565b03610d3557610d3391610fea565b565b610d5e610d40610cfc565b610d48610122565b918291636e55c17160e11b835260048301610b6c565b0390fd5b5090565b5f90565b634e487b7160e01b5f52603260045260245ffd5b9190811015610d8e576040020190565b610d6a565b35610d9d816101d0565b90565b151590565b610dae81610da0565b03610db557565b5f80fd5b35610dc381610da5565b90565b90565b610ddd610dd8610de292610dc6565b610cdd565b6101f3565b90565b90565b610dfc610df7610e0192610de5565b610cdd565b6101f3565b90565b610e18610e13610e1d926101f3565b610cdd565b61021c565b90565b610e34610e2f610e39926101b9565b610cdd565b6101b9565b90565b610e4590610e20565b90565b610e5190610e3c565b90565b90610e5e90610e48565b5f5260205260405f2090565b5f1b90565b90610e7b5f1991610e6a565b9181191691161790565b610e99610e94610e9e9261021c565b610cdd565b61021c565b90565b90565b90610eb9610eb4610ec092610e85565b610ea1565b8254610e6f565b9055565b6001610ed0910161021c565b90565b60209181520190565b90565b50610eee9060208101906101e4565b90565b610efa906101c4565b9052565b90503590610f0b82610da5565b565b50610f1c906020810190610efe565b90565b610f2890610da0565b9052565b906020610f57610f5f93610f4e610f455f830183610edf565b5f860190610ef1565b82810190610f0d565b910190610f1f565b565b90610f6e81604093610f2c565b0190565b5090565b60400190565b91610f8a82610f9092610ed3565b92610edc565b90815f905b828210610fa3575050505090565b90919293610fc5610fbf600192610fba8886610f72565b610f61565b95610f76565b920190929192610f95565b9091610fe79260208301925f818503910152610f7c565b90565b610ff5818390610d62565b92610ffe610d66565b5b8061101261100c8761021c565b9161021c565b10156110b1576110989061103a6110355f61102f87898691610d7e565b01610d93565b611151565b611051602061104b86888591610d7e565b01610db9565b5f1461109d5761109361106d6110676001610de8565b5b610e04565b61108e60026110885f6110828a8c8991610d7e565b01610d93565b90610e54565b610ea4565b610ec4565b610fff565b61109361106d6110ac5f610dc9565b611068565b509250907fb694cde8b4bf47e7f5845bb4374f98c5b29bbbaa5208ea679121cecb5d8fd3e0916110eb6110e2610122565b92839283610fd0565b0390a1565b906110fa91610d0a565b565b61111061110b61111592610dc6565b610cdd565b6101b9565b90565b611121906110fc565b90565b90565b61113b61113661114092611124565b610cdd565b61021c565b90565b61114e612711611127565b90565b61116b6111656111605f611118565b6101c4565b916101c4565b1461117257565b61119b61117d611143565b611185610122565b918291636e55c17160e11b835260048301610b6c565b0390fd5b906111a861874c565b6111ba6111b4336101c4565b916101c4565b036111ca576111c8916111f7565b565b6111f36111d5610cfc565b6111dd610122565b918291636e55c17160e11b835260048301610b6c565b0390fd5b611202818390610d62565b9261120b610d66565b5b8061121f6112198761021c565b9161021c565b10156112be576112a5906112476112425f61123c87898691610d7e565b01610d93565b611151565b61125e602061125886888591610d7e565b01610db9565b5f146112aa576112a061127a6112746001610de8565b5b610e04565b61129b60036112955f61128f8a8c8991610d7e565b01610d93565b90610e54565b610ea4565b610ec4565b61120c565b6112a061127a6112b95f610dc9565b611275565b509250907f530db3bf9b4b0c4f296fe1d9e21620b91db0a8bdcaca4cf1e6dc9844739405c1916112f86112ef610122565b92839283610fd0565b0390a1565b906113079161119f565b565b61131161874c565b61132361131d336101c4565b916101c4565b03611333576113319061139e565b565b61135c61133e610cfc565b611346610122565b918291636e55c17160e11b835260048301610b6c565b0390fd5b9061137160018060a01b0391610e6a565b9181191691161790565b90565b9061139361138e61139a92610e48565b61137b565b8254611360565b9055565b6113a781611151565b6113b1815f61137e565b6113db7fde3dd47a9a762713b4a9813a037ab6f57e36569d8b0ec4ddb285d8a61878b5b491610e48565b906113e4610122565b806113ee8161038c565b0390a2565b6113fc90611309565b565b5f1c90565b90565b611412611417916113fe565b611403565b90565b6114249054611406565b90565b61143b61143661144092610de5565b610cdd565b61021c565b90565b90565b61145a61145561145f92611443565b610cdd565b61021c565b90565b61146d612713611446565b90565b9061148561148060023390610e54565b61141a565b61148f6001611427565b166114a361149d6001611427565b9161021c565b1415806114e7575b6114ba576114b891611668565b565b6114e36114c5611462565b6114cd610122565b918291636e55c17160e11b835260048301610b6c565b0390fd5b506114f061874c565b6115026114fc336101c4565b916101c4565b14156114ab565b60018060a01b031690565b611520611525916113fe565b611509565b90565b6115329054611514565b90565b61153e90610e20565b90565b61154a90611535565b90565b61155690610e3c565b90565b90565b61157061156b61157592611559565b610cdd565b61021c565b90565b61158361271b61155c565b90565b5090565b919081101561159a576020020190565b610d6a565b73eeeeeeeeeeeeeeeeeeeeeeeeeeeeeeeeeeeeeeee90565b6115c090610e20565b90565b6115cc906115b7565b90565b6115d890610e3c565b90565b6115e490610e3c565b90565b60e01b90565b905051906115fa8261021f565b565b9060208282031261161557611612915f016115ed565b90565b61012c565b611623906101c4565b9052565b919061163a905f6020850194019061161a565b565b611644610122565b3d5f823e3d90fd5b61166061165b61166592610dc6565b610cdd565b61021c565b90565b919061167b6116765f611528565b611541565b908161169761169161168c5f611118565b6101c4565b9161154d565b14611910576116a7848290611586565b926116b0610d66565b5b806116c46116be8761021c565b9161021c565b1015611908576116e66116e16116dc8886859161158a565b610d93565b6126cb565b6116fa6116f58785849161158a565b610d93565b61171361170d61170861159f565b6101c4565b916101c4565b149061173c611737600761173161172c8b89879161158a565b610d93565b90610e54565b61141a565b9161176461175f60056117596117548c8a889161158a565b610d93565b90610e54565b61141a565b9288825f146118585750611787906118059461177f306115db565b31915b6119a7565b908161179b6117955f61164c565b9161021c565b1161180a575b506117b66117b18987859161158a565b610d93565b906117ea6117e47f7ded56fbc1e1a41c85fd5fb3d0ce91eafc72414b7f06ed356c1d921823d4c37c93610e48565b91610e85565b916117f3610122565b806117fd8161038c565b0390a3610ec4565b6116b1565b5f1461182a576118238661181e839161154d565b61264f565b5b5f6117a1565b61185361184161183c8a88869161158a565b610d93565b879061184d849261154d565b906125d1565b611824565b90602061188261187d6118786118736118b4968c8a9161158a565b610d93565b6115c3565b6115cf565b6370a08231906118a9611894306115db565b9261189d610122565b968794859384936115e7565b835260048301611627565b03915afa9485156119035761180595611787935f916118d5575b5091611782565b6118f6915060203d81116118fc575b6118ee8183610156565b8101906115fc565b5f6118ce565b503d6118e4565b61163c565b509350505050565b61193961191b611578565b611923610122565b918291636e55c17160e11b835260048301610b6c565b0390fd5b9061194791611470565b565b634e487b7160e01b5f52601160045260245ffd5b61196c6119729193929361021c565b9261021c565b820180921161197d57565b611949565b6119916119979193929361021c565b9261021c565b82039182116119a257565b611949565b6119bc6119c4926119b6610d66565b50611dce565b929082612403565b91826119d86119d25f61164c565b9161021c565b115f14611a2d576119ee906119f49394926124f9565b9061195d565b9081611a08611a028361021c565b9161021c565b115f14611a1d57611a1891611982565b5b905b565b5050611a285f61164c565b611a19565b50505090611a1b565b90565b611a4d611a48611a5292611a36565b610cdd565b61021c565b90565b611a5f605b611a39565b90565b1c90565b611a8590611a7f611a79611a8a9461021c565b9161021c565b90611a62565b61021c565b90565b90565b611aa4611a9f611aa992611a8d565b610cdd565b61021c565b90565b611abd67ffffffffffffffff611a90565b90565b90565b611ad7611ad2611adc92611ac0565b610cdd565b61021c565b90565b611ae9609b611ac3565b90565b90565b611b03611afe611b0892611aec565b610cdd565b61021c565b90565b611b1762011171611aef565b90565b90565b611b31611b2c611b3692611b1a565b610cdd565b61021c565b90565b611b4461ffff611b1d565b90565b90565b611b5e611b59611b6392611b47565b610cdd565b61021c565b90565b611b70603a611b4a565b90565b90565b611b8a611b85611b8f92611b73565b610cdd565b61021c565b90565b611ba06401ffffffff611b76565b90565b90611bae910361021c565b90565b90565b611bc8611bc3611bcd92611bb1565b610cdd565b61021c565b90565b611bda60ea611bb4565b90565b90565b611bf4611bef611bf992611bdd565b610cdd565b61021c565b90565b611c07617fff611be0565b90565b90611c15910261021c565b90565b90565b611c2f611c2a611c3492611c18565b610cdd565b61021c565b90565b611c446301e13380611c1b565b90565b90565b611c5e611c59611c6392611c47565b610cdd565b61021c565b90565b611c71612710611c4a565b90565b634e487b7160e01b5f52601260045260245ffd5b611c94611c9a9161021c565b9161021c565b908115611ca5570490565b611c74565b90611cb5910161021c565b90565b90565b611ccf611cca611cd492611cb8565b610cdd565b61021c565b90565b611ce160db611cbb565b90565b611d0390611cfd611cf7611d08946101f3565b9161021c565b90611a62565b61021c565b90565b90565b611d22611d1d611d2792611d0b565b610cdd565b61021c565b90565b611d34601e611d0e565b90565b90565b611d4e611d49611d5392611d37565b610cdd565b61021c565b90565b611d61613fff611d3a565b90565b90565b611d7b611d76611d8092611d64565b610cdd565b61021c565b90565b90565b611d9a611d95611d9f92611d83565b610cdd565b61021c565b90565b90565b611db9611db4611dbe92611da2565b610cdd565b61021c565b90565b611dcb6010611da5565b90565b611dd6610d66565b50611ddf610d66565b50611df281611dec611a55565b90611a66565b611dfa611aac565b16611e0d82611e07611adf565b90611a66565b611e15611aac565b1681611e29611e235f61164c565b9161021c565b1480156122b3575b6122865782611e3e611b39565b1692611e6542611e5683611e50611b66565b90611a66565b611e5e611b92565b1690611ba3565b91611e7882611e72611bd0565b90611a66565b611e80611bfc565b169483611e95611e8f5f61164c565b9161021c565b14801561226c575b8015612251575b6122475790611ee2611ec3611ebc611ee89484611c0a565b8690611c0a565b611edc611ece611c37565b611ed6611c66565b90611c0a565b90611c88565b90611caa565b93611efb82611ef5611cd7565b90611a66565b611f03611bfc565b1680611f18611f126001611427565b9161021c565b1461224057926120ef6120e9612135946120e36120b96120aa6120846120f49861207f8c61213b9e9d611f4b6001611427565b16611f5f611f596001611427565b9161021c565b145f146121b057611fed611fae611f83611ffb93611f7d6001610de8565b90611ce4565b611fa96b033b2e3c9fd0803ce8000000611fa4611f9e611c66565b91611d67565b611c0a565b611c88565b611fe7611fc38b611fbd611d2a565b90611a66565b611fcb611d56565b1691611fe26b033b2e3c9fd0803ce8000000611d67565b611caa565b90611c0a565b611ff5611c66565b90611c88565b915b806120086001611427565b1661201c6120166001611427565b9161021c565b145f1461213e5761203a612070916120346001610de8565b90611ce4565b61206a61205c826120566b033b2e3c9fd0803ce8000000611d67565b90611c0a565b91612065611c66565b611caa565b90611c88565b915b61207a611c66565b611c0a565b611c0a565b6120a4760a70c3c40a64e6c51999090b65f67d9240000000000000611d86565b90611c88565b836120b3611b39565b16611c0a565b916120d46120c5611c66565b916120ce611dc1565b90611a66565b6120dc611d56565b1690611ba3565b90611c0a565b85611c0a565b611c0a565b61212f612121612113612105611c37565b61210d611c66565b90611c0a565b61211b611c66565b90611c0a565b612129611c66565b90611c0a565b90611c88565b90611caa565b91565b6121556121aa9161214f6001610de8565b90611ce4565b6121a561219f6b033b2e3c9fd0803ce80000009261219961218b826121856b033b2e3c9fd0803ce8000000611d67565b90611c0a565b91612194611c66565b611caa565b90611c88565b91611d67565b611ba3565b91612072565b61221b6121ca61223a926121c46001610de8565b90611ce4565b6122156122078b6122026121f36b033b2e3c9fd0803ce8000000926121ed611d2a565b90611a66565b6121fb611d56565b1691611d67565b611c0a565b91612210611c66565b611caa565b90611c0a565b612234612226611c66565b61222e611c66565b90611c0a565b90611c88565b91611ffd565b5050505091565b5094935050509190565b50856122666122606001611427565b9161021c565b14611ea4565b508061228061227a5f61164c565b9161021c565b14611e9d565b6122af612291611b0b565b612299610122565b918291636a86ba8960e11b835260048301610b6c565b0390fd5b50806122c76122c15f61164c565b9161021c565b14611e31565b90565b6122e46122df6122e9926122cd565b610cdd565b61021c565b90565b6122f660406122d0565b90565b90565b61231061230b612315926122f9565b610cdd565b61021c565b90565b61232260086122fc565b90565b90565b61233c61233761234192612325565b610cdd565b61021c565b90565b61234e60ff612328565b90565b1b90565b6123749061236e6123686123799461021c565b9161021c565b90612351565b61021c565b90565b61238b6123919193929361021c565b9261021c565b9161239d83820261021c565b9281840414901517156123ac57565b611949565b90565b6123c86123c36123cd926123b1565b610cdd565b61021c565b90565b6123de64e8d4a510006123b4565b90565b6123ed6123f39161021c565b9161021c565b9081156123fe570490565b611c74565b61249861248a61249e93612415610d66565b5061248561245961242e866124286122ec565b90611a66565b612436611aac565b1661244981612443612318565b90611a66565b90612452612344565b1690612355565b94612462611aac565b166124758161246f612318565b90611a66565b9061247e612344565b1690612355565b61237c565b6124926123d0565b906123e1565b9061195d565b90565b90565b6124b86124b36124bd926124a1565b610cdd565b61021c565b90565b6124ca60c06124a4565b90565b90565b6124e46124df6124e9926124cd565b610cdd565b61021c565b90565b6124f660806124d0565b90565b61259661258861259c9361250b610d66565b50612583612558612549612527876125216124c0565b90611a66565b61253981612533612318565b90611a66565b90612542612344565b1690612355565b956125526124ec565b90611a66565b612560611aac565b166125738161256d612318565b90611a66565b9061257c612344565b1690612355565b61237c565b6125906123d0565b906123e1565b9061195d565b90565b5f90565b90565b6125ba6125b56125bf926125a3565b610cdd565b61021c565b90565b6125ce6201155a6125a6565b90565b60446020925f809361261c966125e561259f565b506040519363a9059cbb60e01b855260018060a01b0316600485015260248401525af13d15601f3d1160015f511416171615610da0565b61262257565b61264b61262d6125c2565b612635610122565b918291636f728d4560e11b835260048301610b6c565b0390fd5b5f808061266b94819461266061259f565b50614e20f115610da0565b61267157565b61269a61267c6125c2565b612684610122565b918291636f728d4560e11b835260048301610b6c565b0390fd5b90565b6126b56126b06126ba9261269e565b610cdd565b61021c565b90565b6126c861272a6126a1565b90565b803b6126df6126d95f61164c565b9161021c565b14908161271b575b506126ee57565b6127176126f96126bd565b612701610122565b918291636e55c17160e11b835260048301610b6c565b0390fd5b905061273661273061272b61159f565b6101c4565b916101c4565b14155f6126e7565b61275261274d60023390610e54565b61141a565b61275c6001611427565b1661277061276a6001611427565b9161021c565b1415806127b4575b6127875761278590612822565b565b6127b0612792611462565b61279a610122565b918291636e55c17160e11b835260048301610b6c565b0390fd5b506127bd61874c565b6127cf6127c9336101c4565b916101c4565b1415612778565b90565b6127ed6127e86127f2926127d6565b610cdd565b61021c565b90565b90565b61280c612807612811926127f5565b610cdd565b61021c565b90565b61281f6127166127f8565b90565b8061283561282f5f61164c565b9161021c565b1480156128bb575b61288e5761284c816001610ea4565b6128767fb33384c8a450936b9fba178db857f03fb9865a40d166aa2f9d439a9fdddfbe2291610e85565b9061287f610122565b806128898161038c565b0390a2565b6128b7612899612814565b6128a1610122565b918291636e55c17160e11b835260048301610b6c565b0390fd5b50806128d06128ca60026127d9565b9161021c565b1161283d565b6128df9061273e565b565b906128f66128f160023390610e54565b61141a565b6129006001611427565b1661291461290e6001611427565b9161021c565b141580612958575b61292b5761292991612b40565b565b612954612936611462565b61293e610122565b918291636e55c17160e11b835260048301610b6c565b0390fd5b5061296161874c565b61297361296d336101c4565b916101c4565b141561291c565b5090565b919081101561298e5760a0020190565b610d6a565b919060a083820312612a03576129fc906129ad60a061017f565b936129ba825f83016101e4565b5f8601526129cb8260208301610233565b60208601526129dd8260408301610233565b60408601526129ef8260608301610233565b6060860152608001610233565b6080830152565b6101b5565b612a13903690612993565b90565b60209181520190565b90565b50612a31906020810190610233565b90565b906080612aad612ab593612a56612a4d5f830183610edf565b5f860190610ef1565b612a70612a666020830183612a22565b6020860190610c00565b612a8a612a806040830183612a22565b6040860190610c00565b612aa4612a9a6060830183612a22565b6060860190610c00565b82810190612a22565b910190610c00565b565b90612ac48160a093612a34565b0190565b5090565b60a00190565b91612ae082612ae692612a16565b92612a1f565b90815f905b828210612af9575050505090565b90919293612b1b612b15600192612b108886612ac8565b612ab7565b95612acc565b920190929192612aeb565b9091612b3d9260208301925f818503910152612ad2565b90565b90612b4c82829061297a565b91612b55610d66565b50612b5e610d66565b5b80612b72612b6c8661021c565b9161021c565b1015612cab57612c5c90612b9a612b955f612b8f8688869161297e565b01610d93565b6126cb565b612bb8612bb35f612bad8688869161297e565b01610d93565b612dda565b612be1612bdc6006612bd65f612bd0888a889161297e565b01610d93565b90610e54565b61141a565b80612bf4612bee5f61164c565b9161021c565b03612c86575b612c3f612c19612c14612c0f8789879161297e565b612a08565b613065565b612c3a6006612c345f612c2e8a8c8a9161297e565b01610d93565b90610e54565b610ea4565b612c51612c4b5f61164c565b9161021c565b03612c61575b610ec4565b612b5f565b612c7f612c7a5f612c748688869161297e565b01610d93565b613572565b5050612c57565b612ca4612c9f5f612c998789879161297e565b01610d93565b613345565b5050612bfa565b50909150907f1f953465aa7f3f2478d38b6c2a9cfcfbda846398254e278f614d586d527d902c91612ce6612cdd610122565b92839283612b26565b0390a1565b90612cf5916128e1565b565b612d0090610e20565b90565b612d0c90612cf7565b90565b612d1890610e3c565b90565b90505190612d28826101f9565b565b90602082820312612d4357612d40915f01612d1b565b90565b61012c565b90565b612d5f612d5a612d6492612d48565b610cdd565b6101f3565b90565b612d716012612d4b565b90565b90565b612d8b612d86612d9092612d74565b610cdd565b6101f3565b90565b612d9d6006612d77565b90565b612daa6012612d4b565b90565b90565b612dc4612dbf612dc992612dad565b610cdd565b61021c565b90565b612dd761272c612db0565b90565b80612df4612dee612de961159f565b6101c4565b916101c4565b145f14612e7e5750612e04612d67565b5b80612e1f612e19612e14612d93565b6101f3565b916101f3565b10908115612e5c575b50612e2f57565b612e58612e3a612dcc565b612e42610122565b918291636e55c17160e11b835260048301610b6c565b0390fd5b9050612e77612e71612e6c612da0565b6101f3565b916101f3565b115f612e28565b6020612e94612e8f612eaa93612d03565b612d0f565b63313ce56790612ea2610122565b9384926115e7565b82528180612eba6004820161038c565b03915afa908115612f00575f91612ed2575b50612e05565b612ef3915060203d8111612ef9575b612eeb8183610156565b810190612d2a565b5f612ecc565b503d612ee1565b61163c565b612f0f905161021c565b90565b612f1d61ffff611b1d565b90565b90565b612f37612f32612f3c92612f20565b610cdd565b61021c565b90565b612f4a61271c612f23565b90565b90565b612f64612f5f612f6992612f4d565b610cdd565b61021c565b90565b612f7761271d612f50565b90565b90565b612f91612f8c612f9692612f7a565b610cdd565b61021c565b90565b612fa461271e612f7d565b90565b612fb2612710611c4a565b90565b90565b612fcc612fc7612fd192612fb5565b610cdd565b61021c565b90565b612fde6004612fb8565b90565b90565b612ff8612ff3612ffd92612fe1565b610cdd565b61021c565b90565b61300a6014612fe4565b90565b90565b61302461301f6130299261300d565b610cdd565b61021c565b90565b6130366024613010565b90565b90565b61305061304b61305592613039565b610cdd565b61021c565b90565b613062603461303c565b90565b61306d610d66565b5061307a60408201612f05565b61309361308d613088612f12565b61021c565b9161021c565b11613287576130a460608201612f05565b6130bd6130b76130b2612f12565b61021c565b9161021c565b1161325a576130ce60808201612f05565b6130e76130e16130dc612f12565b61021c565b9161021c565b1161322d576130f860208201612f05565b61310a6131045f61164c565b9161021c565b148015613200575b80156131d0575b6131a35761319f6131916080600161314d61314761313960408801612f05565b613141612fd4565b90612355565b91611427565b1761316b61315d60208701612f05565b613165613000565b90612355565b1761318961317b60608701612f05565b61318361302c565b90612355565b179301612f05565b613199613058565b90612355565b1790565b6131cc6131ae612814565b6131b6610122565b918291636e55c17160e11b835260048301610b6c565b0390fd5b506131dd60608201612f05565b6131fa6131f46131ef60808501612f05565b61021c565b9161021c565b11613119565b5061320d60208201612f05565b61322661322061321b612fa7565b61021c565b9161021c565b1015613112565b613256613238612f99565b613240610122565b918291636e55c17160e11b835260048301610b6c565b0390fd5b613283613265612f6c565b61326d610122565b918291636e55c17160e11b835260048301610b6c565b0390fd5b6132b0613292612f3f565b61329a610122565b918291636e55c17160e11b835260048301610b6c565b0390fd5b6132c567ffffffffffffffff611a90565b90565b90565b6132df6132da6132e4926132c8565b610cdd565b61021c565b90565b6132f26127286132cb565b90565b90565b61330c613307613311926132f5565b610cdd565b61021c565b90565b61331f613fff611d3a565b90565b91602061334392949361333c60408201965f830190610b5f565b0190610b5f565b565b9061334e610d66565b50613357610d66565b5061336c61336760058490610e54565b61141a565b9161337683611dce565b9390918261339361338d6133886132b4565b61021c565b9161021c565b1180156134b3575b61348657613406826133bb670400000000000000600160db1b03196132f8565b166133ce426133c8611b66565b90612355565b176133e1856133db611a55565b90612355565b176133f4876133ee611adf565b90612355565b1761340160058490610e54565b610ea4565b82859161342584613415612f12565b169461341f611d2a565b90611a66565b61342d613314565b1661346a61346461345e7f96c40bed7fc8d0ac41633a3bd47f254f0b0076e5df70975c51d23514bc49d3b894610e48565b94610e85565b94610e85565b9461347f613476610122565b92839283613322565b0390a49190565b6134af6134916132e7565b613499610122565b918291636e55c17160e11b835260048301610b6c565b0390fd5b50846134ce6134c86134c36132b4565b61021c565b9161021c565b1161339b565b6134de60086122fc565b90565b6134eb60ff612328565b90565b6134fc64e8d4a510006123b4565b90565b61351e90613518613512613523946101f3565b9161021c565b90612351565b61021c565b90565b90565b61353d61353861354292613526565b610cdd565b61021c565b90565b613550612729613529565b90565b90565b61356a61356561356f92613553565b610cdd565b61021c565b90565b9061357b610d66565b50613584610d66565b5061359961359460058490610e54565b61141a565b6135a281611dce565b9390916135b96135b460078490610e54565b61141a565b916135f86135ea6135e3856135cc6132b4565b166135d56134d4565b6135dd6134e1565b91613adb565b869061237c565b6135f26134ee565b906123e1565b6136476136396136326136138761360d6124ec565b90611a66565b61361b6132b4565b166136246134d4565b61362c6134e1565b91613adb565b899061237c565b6136416134ee565b906123e1565b6136a66136906136816136628861365c6122ec565b90611a66565b61366a6132b4565b166136736134d4565b61367b6134e1565b91613adb565b9661368a6124c0565b90611a66565b6136986134d4565b6136a06134e1565b91613adb565b916136b05f61164c565b95816136c46136be5f61164c565b9161021c565b118015613ac1575b613a89575b816136e46136de8361021c565b9161021c565b115f146139e45761371991613704613709926136fe612fa7565b9061237c565b6123e1565b6137136001610de8565b906134ff565b915b8161372e6137288361021c565b9161021c565b115f14613942576137639161374e61375392613748612fa7565b9061237c565b6123e1565b61375d6001610de8565b906134ff565b5b61378261377b61377660068690610e54565b61141a565b8690613b3b565b938661379d6137976137926132b4565b61021c565b9161021c565b118015613921575b6138f457856137c36137bd6137b8613314565b61021c565b9161021c565b116138c75761386a92613848613858926137ea6703fff0003fff0000607f60f91b01613556565b1687176137ff896137f9611d2a565b90612355565b176138124261380c611b66565b90612355565b176138258a61381f611a55565b90612355565b176138388c613832611adf565b90612355565b1791613842611cd7565b90612355565b1791613852611bd0565b90612355565b1761386560058490610e54565b610ea4565b83908692936138ab6138a561389f7f96c40bed7fc8d0ac41633a3bd47f254f0b0076e5df70975c51d23514bc49d3b894610e48565b94610e85565b94610e85565b946138c06138b7610122565b92839283613322565b0390a49190565b6138f06138d2613545565b6138da610122565b918291636e55c17160e11b835260048301610b6c565b0390fd5b61391d6138ff6132e7565b613907610122565b918291636e55c17160e11b835260048301610b6c565b0390fd5b508861393c6139366139316132b4565b61021c565b9161021c565b116137a5565b8161395561394f8361021c565b9161021c565b105f1461399b5761397a9061397561398a9361396f612fa7565b9061237c565b6123e1565b6139846001610de8565b906134ff565b6139946001611427565b175b613764565b506139ae6139a85f61164c565b9161021c565b115f146139d6576139d06139c0612fa7565b6139ca6001610de8565b906134ff565b5b613996565b6139df5f61164c565b6139d1565b816139f76139f18361021c565b9161021c565b105f14613a3e57613a1c90613a17613a2c93613a11612fa7565b9061237c565b6123e1565b613a266001610de8565b906134ff565b613a366001611427565b17915b61371b565b50613a51613a4b5f61164c565b9161021c565b115f14613a7a57613a73613a63612fa7565b613a6d6001610de8565b906134ff565b915b613a39565b613a835f61164c565b91613a75565b9550613abb613aaa613a9c84869061195d565b613aa4612fa7565b9061237c565b613ab583899061195d565b906123e1565b956136d1565b5080613ad5613acf5f61164c565b9161021c565b116136cc565b809291613ae6610d66565b501c91161b90565b90565b613b05613b00613b0a92613aee565b610cdd565b61021c565b90565b90565b613b24613b1f613b2992613b0d565b610cdd565b61021c565b90565b613b3862011172613b10565b90565b90613b44610d66565b5081613b50600f613af1565b1680613b65613b5f6001611427565b9161021c565b145f14613be05750613b7691613d1c565b905b81613b92613b8c613b87611b39565b61021c565b9161021c565b11613b9a575b565b9050613ba4611b39565b907fe41708b2641eb1f7442f6a1e760ae5098fd7ba9f85e0c101513add0fbb27bcd7613bce610122565b80613bd88161038c565b0390a1613b98565b613bf3613bed60026127d9565b9161021c565b145f14613c0957613c0391613fcf565b90613b78565b613c32613c14613b2c565b613c1c610122565b918291636a86ba8960e11b835260048301610b6c565b0390fd5b5f90565b90565b613c51613c4c613c569261021c565b610cdd565b613c3a565b90565b613c6764e8d4a510006123b4565b90565b90613c759102613c3a565b90565b613c84613c8a91613c3a565b91613c3a565b908115613c95570590565b611c74565b90613ca59103613c3a565b90565b90613cb39101613c3a565b90565b613cca613cc5613ccf92610dc6565b610cdd565b613c3a565b90565b90565b613ce9613ce4613cee92613cd2565b610cdd565b61021c565b90565b613cfd62011173613cd5565b90565b613d14613d0f613d1992613c3a565b610cdd565b61021c565b90565b90613d25610d66565b50613d2e610d66565b50613d37610d66565b50613d40610d66565b50613d49610d66565b50613d5c82613d56613000565b90611a66565b613d64611b39565b169181613d79613d738561021c565b9161021c565b105f14613ed35780613d89612fd4565b613d9291611a66565b613d9a611b39565b16918291613da661302c565b613daf91611a66565b613db7611b39565b165f613dc29061164c565b94613e7195613e59613e48613e43613e34613e5f95613e2e613e29613e21613e0b613e06613e6c9e613e669d5b613df7613c36565b50613e00613c36565b50611ba3565b613c3d565b613e1b613e16613c59565b613c3d565b90613c6a565b928890611ba3565b613c3d565b90613c78565b98613e3d613c59565b90611c0a565b613c3d565b91613e538891613c3d565b90613c6a565b90613c9a565b9391613c3d565b90613c6a565b613ca8565b80613e84613e7e5f613cb6565b91613c3a565b12613ea657613e95613ea391613d00565b613e9d613c59565b90611c88565b90565b613ecf613eb1613cf1565b613eb9610122565b918291636a86ba8960e11b835260048301610b6c565b0390fd5b80613edc61302c565b613ee591611a66565b613eed611b39565b16918291613ef9613058565b613f0291611a66565b613f0a611b39565b16613f13611c66565b613e7195613e59613e48613e43613e34613e5f95613e2e613e29613e21613e0b613e06613e6c9e613e669d613def565b613f4d6014612fe4565b90565b613f5a603461303c565b90565b90565b613f74613f6f613f7992613f5d565b610cdd565b61021c565b90565b613f866044613f60565b90565b90565b613fa0613f9b613fa592613f89565b610cdd565b61021c565b90565b613fb26054613f8c565b90565b613fbf6024613010565b90565b613fcc6004612fb8565b90565b90613fd8610d66565b50613fe1610d66565b50613fea610d66565b50613ff3610d66565b50613ffc610d66565b5061400f82614009613f43565b90611a66565b614017611b39565b16918161402c6140268561021c565b9161021c565b105f14614186578061403c613fc2565b61404591611a66565b61404d611b39565b16918291614059613fb5565b61406291611a66565b61406a611b39565b165f6140759061164c565b946141249561410c6140fb6140f66140e7614112956140e16140dc6140d46140be6140b961411f9e6141199d5b6140aa613c36565b506140b3613c36565b50611ba3565b613c3d565b6140ce6140c9613c59565b613c3d565b90613c6a565b928890611ba3565b613c3d565b90613c78565b986140f0613c59565b90611c0a565b613c3d565b916141068891613c3d565b90613c6a565b90613c9a565b9391613c3d565b90613c6a565b613ca8565b806141376141315f613cb6565b91613c3a565b126141595761414861415691613d00565b614150613c59565b90611c88565b90565b614182614164613cf1565b61416c610122565b918291636a86ba8960e11b835260048301610b6c565b0390fd5b61419b81939293614195613f50565b90611a66565b6141a3611b39565b1692806141b86141b28661021c565b9161021c565b105f1461422a57816141c8613fb5565b6141d191611a66565b6141d9611b39565b169283926141e5613f7c565b6141ee91611a66565b6141f6611b39565b1690946141249561410c6140fb6140f66140e7614112956140e16140dc6140d46140be6140b961411f9e6141199d5b6140a2565b915080614235613f7c565b61423e91611a66565b614246611b39565b16918291614252613fa8565b61425b91611a66565b614263611b39565b1661426c611c66565b6141249561410c6140fb6140f66140e7614112956140e16140dc6140d46140be6140b961411f9e6141199d614225565b906142b16142ac60023390610e54565b61141a565b6142bb6001611427565b166142cf6142c96001611427565b9161021c565b141580614313575b6142e6576142e491614541565b565b61430f6142f1611462565b6142f9610122565b918291636e55c17160e11b835260048301610b6c565b0390fd5b5061431c61874c565b61432e614328336101c4565b916101c4565b14156142d7565b5090565b91908110156143495760e0020190565b610d6a565b919060e0838203126143e2576143db9061436860e061017f565b93614375825f83016101e4565b5f8601526143868260208301610233565b60208601526143988260408301610233565b60408601526143aa8260608301610233565b60608601526143bc8260808301610233565b60808601526143ce8260a08301610233565b60a086015260c001610233565b60c0830152565b6101b5565b6143f290369061434e565b90565b60209181520190565b90565b9060c06144ae6144b69361442361441a5f830183610edf565b5f860190610ef1565b61443d6144336020830183612a22565b6020860190610c00565b61445761444d6040830183612a22565b6040860190610c00565b6144716144676060830183612a22565b6060860190610c00565b61448b6144816080830183612a22565b6080860190610c00565b6144a561449b60a0830183612a22565b60a0860190610c00565b82810190612a22565b910190610c00565b565b906144c58160e093614401565b0190565b5090565b60e00190565b916144e1826144e7926143f5565b926143fe565b90815f905b8282106144fa575050505090565b9091929361451c61451660019261451188866144c9565b6144b8565b956144cd565b9201909291926144ec565b909161453e9260208301925f8185039101526144d3565b90565b9061454d828290614335565b91614556610d66565b5061455f610d66565b5b8061457361456d8661021c565b9161021c565b10156146ac5761465d9061459b6145965f61459086888691614339565b01610d93565b6126cb565b6145b96145b45f6145ae86888691614339565b01610d93565b612dda565b6145e26145dd60066145d75f6145d1888a8891614339565b01610d93565b90610e54565b61141a565b806145f56145ef5f61164c565b9161021c565b03614687575b61464061461a61461561461087898791614339565b6143e7565b61477f565b61463b60066146355f61462f8a8c8a91614339565b01610d93565b90610e54565b610ea4565b61465261464c5f61164c565b9161021c565b03614662575b610ec4565b614560565b61468061467b5f61467586888691614339565b01610d93565b613572565b5050614658565b6146a56146a05f61469a87898791614339565b01610d93565b613345565b50506145fb565b50909150907ff96f9120f802331b6220bac68c2ab90cce6c8a8f9fed548d72dd092ad1899bf9916146e76146de610122565b92839283614527565b0390a1565b906146f69161429c565b565b90565b61470f61470a614714926146f8565b610cdd565b61021c565b90565b61472261271f6146fb565b90565b90565b61473c61473761474192614725565b610cdd565b61021c565b90565b61474f612720614728565b90565b90565b61476961476461476e92614752565b610cdd565b61021c565b90565b61477c612721614755565b90565b614787610d66565b5061479460608201612f05565b6147ad6147a76147a2612f12565b61021c565b9161021c565b11614aa0576147be60808201612f05565b6147d76147d16147cc612f12565b61021c565b9161021c565b11614a73576147e860a08201612f05565b6148016147fb6147f6612f12565b61021c565b9161021c565b11614a465761481260c08201612f05565b61482b614825614820612f12565b61021c565b9161021c565b11614a195761483c60208201612f05565b61484e6148485f61164c565b9161021c565b1480156149ec575b80156149bb575b801561498e575b801561495e575b6149315761492d61491f60c0600261489f61489961488b60608801612f05565b614893613fc2565b90612355565b916127d9565b176148bd6148af60208701612f05565b6148b7613f43565b90612355565b176148db6148cd60808701612f05565b6148d5613fb5565b90612355565b176148f96148eb60408701612f05565b6148f3613f50565b90612355565b1761491761490960a08701612f05565b614911613f7c565b90612355565b179301612f05565b614927613fa8565b90612355565b1790565b61495a61493c612814565b614944610122565b918291636e55c17160e11b835260048301610b6c565b0390fd5b5061496b60a08201612f05565b61498861498261497d60c08501612f05565b61021c565b9161021c565b1161486b565b5061499b60408201612f05565b6149b46149ae6149a9612fa7565b61021c565b9161021c565b1015614864565b506149c860208201612f05565b6149e56149df6149da60408501612f05565b61021c565b9161021c565b101561485d565b506149f960208201612f05565b614a12614a0c614a07612fa7565b61021c565b9161021c565b1015614856565b614a42614a24614771565b614a2c610122565b918291636e55c17160e11b835260048301610b6c565b0390fd5b614a6f614a51614744565b614a59610122565b918291636e55c17160e11b835260048301610b6c565b0390fd5b614a9c614a7e614717565b614a86610122565b918291636e55c17160e11b835260048301610b6c565b0390fd5b614ac9614aab612f3f565b614ab3610122565b918291636e55c17160e11b835260048301610b6c565b0390fd5b90614ae2614add60023390610e54565b61141a565b614aec6001611427565b16614b00614afa6001611427565b9161021c565b141580614b44575b614b1757614b1591614eba565b565b614b40614b22611462565b614b2a610122565b918291636e55c17160e11b835260048301610b6c565b0390fd5b50614b4d61874c565b614b5f614b59336101c4565b916101c4565b1415614b08565b5090565b9190811015614b7a576080020190565b610d6a565b90565b614b96614b91614b9b92614b7f565b610cdd565b61021c565b90565b614ba961271a614b82565b90565b35614bb68161021f565b90565b90565b614bd0614bcb614bd592614bb9565b610cdd565b61021c565b90565b614be3612722614bbc565b90565b90565b614bfd614bf8614c0292614be6565b610cdd565b61021c565b90565b614c1061272b614be9565b90565b90565b614c2a614c25614c2f92614c13565b610cdd565b61021c565b90565b614c3d6101f4614c16565b90565b90565b614c57614c52614c5c92614c40565b610cdd565b61021c565b90565b614c6a612723614c43565b90565b90565b5f5260205f2090565b5490565b614c8681614c79565b821015614ca057614c98600191614c70565b910201905f90565b610d6a565b91906008614cc5910291614cbf60018060a01b0384612351565b92612351565b9181191691161790565b9190614ce5614ce0614ced93610e48565b61137b565b908354614ca5565b9055565b9081549168010000000000000000831015614d215782614d19916001614d1f95018155614c7d565b90614ccf565b565b610142565b90565b614d3d614d38614d4292614d26565b610cdd565b61021c565b90565b90565b614d5c614d57614d6192614d45565b610cdd565b61021c565b90565b614d6e602c614d48565b90565b90565b614d88614d83614d8d92614d71565b610cdd565b61021c565b90565b614d9a60f9614d74565b90565b90565b614db4614daf614db992614d9d565b610cdd565b61021c565b90565b60209181520190565b90565b906060614e27614e2f93614dea614de15f830183610edf565b5f860190610ef1565b614e04614dfa6020830183612a22565b6020860190610c00565b614e1e614e146040830183612a22565b6040860190610c00565b82810190612a22565b910190610c00565b565b90614e3e81608093614dc8565b0190565b5090565b60800190565b91614e5a82614e6092614dbc565b92614dc5565b90815f905b828210614e73575050505090565b90919293614e95614e8f600192614e8a8886614e42565b614e31565b95614e46565b920190929192614e65565b9091614eb79260208301925f818503910152614e4c565b90565b919091614ec8818490614b66565b91614ed1610d66565b50614eda610d66565b50614ee3610d66565b50614eec610d66565b5b80614f00614efa8661021c565b9161021c565b101561541857614f24614f1f5f614f1986898691614b6a565b01610d93565b6126cb565b614f4d614f486006614f425f614f3c888b8891614b6a565b01610d93565b90610e54565b61141a565b614f5f614f595f61164c565b9161021c565b146153eb57614f7b6020614f7585888591614b6a565b01614bac565b614f94614f8e614f89612fa7565b61021c565b9161021c565b116153be57614fb06060614faa85888591614b6a565b01614bac565b614fc9614fc3614fbe612fa7565b61021c565b9161021c565b1161539157614fe56040614fdf85888591614b6a565b01614bac565b614ffe614ff8614ff3614c32565b61021c565b9161021c565b116153645761502c61502760056150215f61501b888b8891614b6a565b01610d93565b90610e54565b61141a565b9061503f82615039611a55565b90611a66565b6150476132b4565b1661505a83615054611adf565b90611a66565b6150626132b4565b16906150766150705f61164c565b9161021c565b119081615349575b505f146152e95761508e82611dce565b9092836150aa6150a461509f6132b4565b61021c565b9161021c565b1180156152c8575b61529b576151f261526f9261519d6152749661518d8a61516a61515c8f6151566040915b8d6150ee60606150e889858591614b6a565b01614bac565b6151076151016150fc612fa7565b61021c565b9161021c565b14159c615123650fffc000ffff641fbfffffff60db1b01614d29565b1661514c61513e60206151388b878791614b6a565b01614bac565b615146611dc1565b90612355565b1796919091614b6a565b01614bac565b615164614d64565b90612355565b1761517d42615177611b66565b90612355565b1791615187611a55565b90612355565b1791615197611adf565b90612355565b17825f14615287576151c96151bb6151b56001610de8565b5b610e04565b6151c3614d90565b90612355565b176151ed8a6151e75f6151e16005938d908b91614b6a565b01610d93565b90610e54565b610ea4565b61521c615217600b6152115f61520b8d8c908a91614b6a565b01610d93565b90610e54565b61141a565b615228613fff19614da0565b16905f14615279576152476060615241888b8791614b6a565b01614bac565b5b1761526a600b6152645f61525e8a8d8991614b6a565b01610d93565b90610e54565b610ea4565b610ec4565b614eed565b6152825f61164c565b615248565b6151c96151bb6152965f610dc9565b6151b6565b6152c46152a66132e7565b6152ae610122565b918291636e55c17160e11b835260048301610b6c565b0390fd5b50816152e36152dd6152d86132b4565b61021c565b9161021c565b116150b2565b61526f615274926151f28361519d8a61518d8a61516a61515c604061515661530f6134ee565b9661534461531b6134ee565b9a61533e5f61533861532d600a614c6d565b938b90879091614b6a565b01610d93565b90614cf1565b6150d6565b905061535d6153575f61164c565b9161021c565b115f61507e565b61538d61536f614c5f565b615377610122565b918291636e55c17160e11b835260048301610b6c565b0390fd5b6153ba61539c614c05565b6153a4610122565b918291636e55c17160e11b835260048301610b6c565b0390fd5b6153e76153c9614bd8565b6153d1610122565b918291636e55c17160e11b835260048301610b6c565b0390fd5b6154146153f6614b9e565b6153fe610122565b918291636e55c17160e11b835260048301610b6c565b0390fd5b50929150907fa9d5be7e168dc43b637b924e6cc22c262478dffd9d475fa170b6d4e4ba5764609161545361544a610122565b92839283614ea0565b0390a1565b9061546291614acd565b565b9061547961547460023390610e54565b61141a565b6154836001611427565b166154976154916001611427565b9161021c565b1415806154db575b6154ae576154ac916155e0565b565b6154d76154b9611462565b6154c1610122565b918291636e55c17160e11b835260048301610b6c565b0390fd5b506154e461874c565b6154f66154f0336101c4565b916101c4565b141561549f565b5090565b9190811015615511576040020190565b610d6a565b60209181520190565b90565b90602061554d6155559361554461553b5f830183610edf565b5f860190610ef1565b82810190612a22565b910190610c00565b565b9061556481604093615522565b0190565b5090565b60400190565b916155808261558692615516565b9261551f565b90815f905b828210615599575050505090565b909192936155bb6155b56001926155b08886615568565b615557565b9561556c565b92019092919261558b565b90916155dd9260208301925f818503910152615572565b90565b9190916155ee8184906154fd565b916155f85f61164c565b5b8061560c6156068661021c565b9161021c565b10156156da57615629602061562385888591615501565b01614bac565b61563c6156366001611427565b9161021c565b116156ad576156a89061566361565e5f615658878a8691615501565b01610d93565b615726565b6156a361567d6020615677878a8691615501565b01614bac565b61569e60046156985f6156928a8d8991615501565b01610d93565b90610e54565b610ea4565b610ec4565b6155f9565b6156d66156b8612814565b6156c0610122565b918291636e55c17160e11b835260048301610b6c565b0390fd5b50929150907f9ccbc3483d75ae36da94213ac30ac0a047e1226ef3435d004cd501608e5b388b9161571561570c610122565b928392836155c6565b0390a1565b9061572491615464565b565b3b6157396157335f61164c565b9161021c565b1461574057565b61576961574b6126bd565b615753610122565b918291636e55c17160e11b835260048301610b6c565b0390fd5b919061578361577e60023390610e54565b61141a565b61578d6001611427565b166157a161579b6001611427565b9161021c565b1415806157e5575b6157b8576157b6926159b6565b565b6157e16157c3611462565b6157cb610122565b918291636e55c17160e11b835260048301610b6c565b0390fd5b506157ee61874c565b6158006157fa336101c4565b916101c4565b14156157a9565b9061581190610e48565b5f5260205260405f2090565b90565b61583461582f6158399261581d565b610cdd565b61021c565b90565b615847612719615820565b90565b6158546001611427565b90565b90565b61586e61586961587392615857565b610cdd565b61021c565b90565b61588060a261585a565b90565b90565b61589a61589561589f92615883565b610cdd565b61021c565b90565b6158ac60c8615886565b90565b90565b6158c66158c16158cb926158af565b610cdd565b61021c565b90565b6158da6203ffff6158b2565b90565b90565b6158f46158ef6158f9926158dd565b610cdd565b61021c565b90565b90565b61591361590e615918926158fc565b610cdd565b61021c565b90565b61592560386158ff565b90565b5f90565b90565b61594361593e6159489261592c565b610cdd565b61021c565b90565b615955604161592f565b90565b90565b61596f61596a61597492615958565b610cdd565b61021c565b90565b615981608161595b565b90565b6040906159ad6159b494969593966159a360608401985f85019061161a565b602083019061161a565b0190610b5f565b565b9190916159c281615726565b6159cb836126cb565b6159e96159e46159dd60088490615807565b8590610e54565b61141a565b806159fc6159f65f61164c565b9161021c565b14615c3f57615a41615a1682615a1061584a565b90611a66565b615a1e6132b4565b16615a3181615a2b6134d4565b90611a66565b90615a3a6134e1565b1690612355565b92615a82615a5783615a51615876565b90611a66565b615a5f613314565b16615a7c615a6e87928861237c565b615a76612fa7565b906123e1565b90611982565b9080615a96615a905f61164c565b9161021c565b148015615c25575b5f14615bd95750925b615af8615af2615aed615ac285615abc6158a2565b90611a66565b615aca6158ce565b16615add81615ad76134d4565b90611a66565b90615ae66134e1565b1690612355565b61021c565b9161021c565b10615bc3575b615b8590615b217403fffffffffffffffffffffffe0000000000000000196158e0565b16615b56615b4885615b3161591b565b615b396134d4565b90615b42615928565b92615c79565b615b5061594b565b90612355565b17615b6942615b63615977565b90612355565b17615b80615b7960088590615807565b8690610e54565b610ea4565b919091615bbe7fbd618a42c279f25a1d0dd6144f1a1b2ded22549073604bb0774cff6a99ee842893615bb5610122565b93849384615984565b0390a1565b9150615b85615bd15f61164c565b929050615afe565b80949150615bf0615bea5f1961021c565b9161021c565b148015615c0b575b615c02575b615aa7565b80935092615bfd565b5083615c1f615c198361021c565b9161021c565b11615bf8565b5080615c39615c338461021c565b9161021c565b10615a9e565b615c68615c4a61583c565b615c52610122565b918291636e55c17160e11b835260048301610b6c565b0390fd5b90615c77929161576d565b565b929190615c84610d66565b50805f856fffffffffffffffffffffffffffffffff8111615db0575b67ffffffffffffffff8111615da3575b63ffffffff8111615d96575b61ffff8111615d89575b60ff8111615d7c575b600f8111615d6f575b60038111615d62575b60018111615d54575b5f10615d4c575b818110615d45575b0393841c925f851116615d1c575b506001811b831015615d18571b0190565b5f80fd5b9160010191826001821b14615d31575b615d07565b600180929493508091031b9101915f615d2c565b5080615cf9565b600101615cf1565b9060015f9101919050615cea565b600290811c910190615ce1565b600490811c910190615cd8565b600890811c910190615ccf565b601090811c910190615cc6565b602090811c910190615cbc565b604090811c910190615cb0565b905060801c608090615ca0565b615dd1615dcc60023390610e54565b61141a565b615ddb6001611427565b16615def615de96001611427565b9161021c565b141580615e33575b615e0657615e0490616104565b565b615e2f615e11611462565b615e19610122565b918291636e55c17160e11b835260048301610b6c565b0390fd5b50615e3c61874c565b615e4e615e48336101c4565b916101c4565b1415615df7565b5190565b90615e6382615e55565b811015615e74576020809102010190565b610d6a565b615e8390516101c4565b90565b615e9090516101f3565b90565b90565b615eaa615ea5615eaf92615e93565b610cdd565b61021c565b90565b615ebd612724615e96565b90565b90565b615ed7615ed2615edc92615ec0565b610cdd565b61021c565b90565b615eeb62ffffff615ec3565b90565b90565b615f05615f00615f0a92615eee565b610cdd565b61021c565b90565b615f18612725615ef1565b90565b90565b615f32615f2d615f3792615f1b565b610cdd565b61021c565b90565b615f45612715615f1e565b90565b90565b615f5f615f5a615f6492615f48565b610cdd565b61021c565b90565b90565b615f7e615f79615f8392615f67565b610cdd565b61021c565b90565b615f9060b0615f6a565b90565b90565b615faa615fa5615faf92615f93565b610cdd565b61021c565b90565b615fbc600a615f96565b90565b90565b615fd6615fd1615fdb92615fbf565b610cdd565b61021c565b90565b90565b615ff5615ff0615ffa92615fde565b610cdd565b61021c565b90565b60209181520190565b60200190565b616015906101f3565b9052565b9060a080616083936160315f8201515f860190610ef1565b61604360208201516020860190610ef1565b6160556040820151604086019061600c565b61606760608201516060860190610c00565b61607960808201516080860190610c00565b0151910190610c00565b565b906160928160c093616019565b0190565b60200190565b906160b96160b36160ac84615e55565b8093615ffd565b92616006565b905f5b8181106160c95750505090565b9091926160e26160dc6001928651616085565b94616096565b91019190916160bc565b6161019160208201915f81840391015261609c565b90565b9061610d610d66565b50616116610d66565b5061611f610d66565b50616128610d66565b50616131610d66565b5061613a610d66565b50616143610d66565b5061614c610d66565b5b8061616861616261615d86615e55565b61021c565b9161021c565b1015616bea5761618c6161875f616180868590615e59565b5101615e79565b615726565b6161ab6161a6602061619f868590615e59565b5101615e79565b6126cb565b6161d56161d060056161ca60206161c3888790615e59565b5101615e79565b90610e54565b61141a565b6161e76161e15f61164c565b9161021c565b14616bbd5761620360406161fc858490615e59565b5101615e86565b6162166162106001610de8565b916101f3565b118015616b8d575b616b60576162396060616232858490615e59565b5101612f05565b61625261624c616247612fa7565b61021c565b9161021c565b11616b335761626e6080616267858490615e59565b5101612f05565b61628761628161627c615edf565b61021c565b9161021c565b11616b06576162a360a061629c858490615e59565b5101612f05565b6162b56162af5f61164c565b9161021c565b14616ad9576163036162fe6162e160086162db5f6162d4898890615e59565b5101615e79565b90615807565b6162f860206162f1888790615e59565b5101615e79565b90610e54565b61141a565b90816163176163115f61164c565b9161021c565b148015616a7e575b8015616a21575b5f146164595761644e6164549261634a600166ffffffffffffff60a21b0119615fe1565b1661636a616365604061635e898790615e59565b5101615e86565b610e04565b17616393616385606061637e898790615e59565b5101612f05565b61638d615876565b90612355565b176163bc6163ae60806163a7898790615e59565b5101612f05565b6163b6615f86565b90612355565b176164076163f96163da60a06163d38a8890615e59565b5101612f05565b6163e2615fb2565b6163ea6134d4565b906163f3615928565b92615c79565b6164016158a2565b90612355565b1761644961642c60086164265f61641f8b8990615e59565b5101615e79565b90615807565b616443602061643c8a8890615e59565b5101615e79565b90610e54565b610ea4565b5b610ec4565b61614d565b616478616473602061646c878590615e59565b5101615e79565b613345565b5050836164ad6164a86164a3600561649d6020616496878990615e59565b5101615e79565b90610e54565b61141a565b611dce565b50926164d96164d460076164ce60206164c7878990615e59565b5101615e79565b90610e54565b61141a565b906164fd826164e66132b4565b166164ef6134d4565b6164f76134e1565b91613adb565b946165326165138461650d6122ec565b90611a66565b61651b6132b4565b166165246134d4565b61652c6134e1565b91613adb565b6165726165478461654161584a565b90611a66565b61654f6132b4565b166165628161655c6134d4565b90611a66565b9061656b6134e1565b1690612355565b916165b36165888561658261594b565b90611a66565b6165906132b4565b166165a38161659d6134d4565b90611a66565b906165ac6134e1565b1690612355565b91846165bf6001611427565b166165d26165cc5f61164c565b9161021c565b14806169f0575b5f146168bc5791879892918289936165f96165f38861021c565b9161021c565b115f146168ad5761660b908690611982565b5b946166156134ee565b61661e9161237c565b81616628916123e1565b916166316134ee565b61663a9161237c565b90616644916123e1565b928161664f9161195d565b90616454996167ef616887996167e960206167e261685f9b61671c6168339b61670c6168139c6166fc6166f760406166f06167f49f6166ab6166cb915b61669461591b565b61669c6134d4565b906166a5615928565b92615c79565b976166b461591b565b6166bc6134d4565b906166c5615928565b92615c79565b986166e86f7ffffffffe00000000000001ffffffff60811b615f4b565b16948d615e59565b5101615e86565b610e04565b179161670661584a565b90612355565b179161671661594b565b90612355565b176167456167376060616730888b90615e59565b5101612f05565b61673f615876565b90612355565b1761676e6167606080616759888b90615e59565b5101612f05565b616768615f86565b90612355565b176167b96167ab61678c60a0616785898c90615e59565b5101612f05565b616794615fb2565b61679c6134d4565b906167a5615928565b92615c79565b6167b36158a2565b90612355565b17956167dc60086167d65f6167cf898690615e59565b5101615e79565b90615807565b94615e59565b5101615e79565b90610e54565b610ea4565b6167fc61591b565b6168046134d4565b9061680d615928565b92615c79565b9161681c61591b565b6168246134d4565b9061682d615928565b92615c79565b9261684e6fffffffffffffffffffffffffffffffff19615fc2565b1617916168596122ec565b90612355565b17616882600761687c60206168758a8890615e59565b5101615e79565b90610e54565b610ea4565b6168a66168a1602061689a878590615e59565b5101615e79565b613572565b505061644f565b506168b75f61164c565b61660c565b979495939290836168cd6001611427565b166168e16168db6001611427565b9161021c565b14806169c0575b616931575b5061688795946167f4886167ef61685f976167e960206167e26164549f9a61671c6168339b61670c896166fc6166f76168139f6166f06166cb6166ab60409361668c565b90879892939496959182899361694f6169498561021c565b9161021c565b115f146169b157616961908390611982565b5b918161696d9161237c565b6169756134ee565b61697e916123e1565b94906169899161237c565b6169916134ee565b61699a916123e1565b92846169a59161195d565b985094959392906168ed565b506169bb5f61164c565b616962565b506169d860406169d1878b90615e59565b5101615e86565b6169ea6169e45f610dc9565b916101f3565b146168e8565b50616a086040616a01898b90615e59565b5101615e86565b616a1b616a156001610de8565b916101f3565b146165d9565b5081616a2d6001611427565b16616a41616a3b6001611427565b9161021c565b1480616a4d575b616326565b50616a656040616a5e868490615e59565b5101615e86565b616a78616a726001610de8565b916101f3565b14616a48565b5081616a8a6001611427565b16616a9d616a975f61164c565b9161021c565b1480616aa9575b61631f565b50616ac16040616aba868490615e59565b5101615e86565b616ad3616acd5f610dc9565b916101f3565b14616aa4565b616b02616ae4615f3a565b616aec610122565b918291636e55c17160e11b835260048301610b6c565b0390fd5b616b2f616b11615f0d565b616b19610122565b918291636e55c17160e11b835260048301610b6c565b0390fd5b616b5c616b3e615eb2565b616b46610122565b918291636e55c17160e11b835260048301610b6c565b0390fd5b616b89616b6b612814565b616b73610122565b918291636e55c17160e11b835260048301610b6c565b0390fd5b50616ba56080616b9e858490615e59565b5101612f05565b616bb7616bb15f61164c565b9161021c565b1461621e565b616be6616bc8614b9e565b616bd0610122565b918291636e55c17160e11b835260048301610b6c565b0390fd5b5090616c227f614e3525ec8c152da9319cd9038950346a4a042d3c6810a7f3ffddc34347bdb091616c19610122565b918291826160ec565b0390a1565b616c3090615dbd565b565b616c46616c4160023390610e54565b61141a565b616c506001611427565b16616c64616c5e6001611427565b9161021c565b141580616ca8575b616c7b57616c7990616f23565b565b616ca4616c86611462565b616c8e610122565b918291636e55c17160e11b835260048301610b6c565b0390fd5b50616cb161874c565b616cc3616cbd336101c4565b916101c4565b1415616c6c565b5190565b90616cd882616cca565b811015616ce9576020809102010190565b610d6a565b90565b616d05616d00616d0a92616cee565b610cdd565b61021c565b90565b616d18612726616cf1565b90565b90565b616d32616d2d616d3792616d1b565b610cdd565b61021c565b90565b616d45612727616d1e565b90565b616d526001611427565b90565b616d5f604161592f565b90565b600190565b90565b616d7e616d79616d8392616d67565b610cdd565b61021c565b90565b616d9060a261585a565b90565b616d9d60b0615f6a565b90565b616daa60c8615886565b90565b90565b616dc4616dbf616dc992616dad565b610cdd565b61021c565b90565b616dd660da616db0565b90565b90565b616df0616deb616df592616dd9565b610cdd565b61021c565b90565b90565b616e0f616e0a616e1492616df8565b610cdd565b61021c565b90565b60209181520190565b60200190565b9060c080616ea293616e3e5f8201515f860190610ef1565b616e5060208201516020860190610ef1565b616e626040820151604086019061600c565b616e7460608201516060860190610c00565b616e8660808201516080860190610c00565b616e9860a082015160a0860190610c00565b0151910190610c00565b565b90616eb18160e093616e26565b0190565b60200190565b90616ed8616ed2616ecb84616cca565b8093616e17565b92616e20565b905f5b818110616ee85750505090565b909192616f01616efb6001928651616ea4565b94616eb5565b9101919091616edb565b616f209160208201915f818403910152616ebb565b90565b90616f2c610d66565b50616f35610d66565b50616f3e610d66565b50616f47610d66565b50616f50610d66565b50616f59610d66565b50616f62610d66565b50616f6b610d66565b5b80616f87616f81616f7c86616cca565b61021c565b9161021c565b1015617c8057616fab616fa65f616f9f868590616cce565b5101615e79565b615726565b616fca616fc56020616fbe868590616cce565b5101615e79565b6126cb565b616ff4616fef6005616fe96020616fe2888790616cce565b5101615e79565b90610e54565b61141a565b6170066170005f61164c565b9161021c565b14617c5357617022604061701b858490616cce565b5101615e86565b61703561702f6001610de8565b916101f3565b118015617c0d575b8015617bdd575b8015617a97575b617a6a57617066606061705f858490616cce565b5101612f05565b61707f617079617074613314565b61021c565b9161021c565b11617a3d5761709b6080617094858490616cce565b5101612f05565b6170b46170ae6170a9615edf565b61021c565b9161021c565b11617a10576170d060a06170c9858490616cce565b5101612f05565b6170e26170dc5f61164c565b9161021c565b1480156179e0575b6179b357617137617132617115600961710f5f617108898890616cce565b5101615e79565b90615807565b61712c6020617125888790616cce565b5101615e79565b90610e54565b61141a565b908161714b6171455f61164c565b9161021c565b148015617958575b80156178fb575b5f146172dc576172d16172d79261718260026b3ffffc00000000000000000160a21b03616dfb565b166171a261719d6040617196898790616cce565b5101615e86565b610e04565b176171cb6171bd60606171b6898790616cce565b5101612f05565b6171c5616d86565b90612355565b176171f46171e660806171df898790616cce565b5101612f05565b6171ee616d93565b90612355565b1761723f61723161721260a061720b8a8890616cce565b5101612f05565b61721a615fb2565b6172226134d4565b9061722b615928565b92615c79565b617239616da0565b90612355565b1761728a61727c61725d60c06172568a8890616cce565b5101612f05565b617265615fb2565b61726d6134d4565b90617276615928565b92615c79565b617284616dcc565b90612355565b176172cc6172af60096172a95f6172a28b8990616cce565b5101615e79565b90615807565b6172c660206172bf8a8890616cce565b5101615e79565b90610e54565b610ea4565b5b610ec4565b616f6c565b6172fb6172f660206172ef878590616cce565b5101615e79565b613345565b50508361733061732b61732660056173206020617319878990616cce565b5101615e79565b90610e54565b61141a565b611dce565b90509261735d6173586007617352602061734b878990616cce565b5101615e79565b90610e54565b61141a565b906173926173738361736d6124ec565b90611a66565b61737b6132b4565b166173846134d4565b61738c6134e1565b91613adb565b946173be6173a8846173a26124c0565b90611a66565b6173b06134d4565b6173b86134e1565b91613adb565b6173fe6173d3846173cd616d48565b90611a66565b6173db6132b4565b166173ee816173e86134d4565b90611a66565b906173f76134e1565b1690612355565b9161743f6174148561740e616d55565b90611a66565b61741c6132b4565b1661742f816174296134d4565b90611a66565b906174386134e1565b1690612355565b918461744b6001611427565b1661745e6174585f61164c565b9161021c565b14806178ca575b5f1461779b57918798929182899361748561747f8861021c565b9161021c565b115f1461778c57617497908690611982565b5b946174a16134ee565b82906174ac9261877a565b916174b56134ee565b6174be9161237c565b906174c8916123e1565b92816174d39161195d565b6176c56172d79a6176c06177669a6176ba60206176b361773e9c6175a261772e9c6175926177049d61758261757d6176e49f6175766175516175316040935b61751a61591b565b6175226134d4565b9061752b616d62565b92615c79565b9761753a61591b565b6175426134d4565b9061754b615928565b92615c79565b9861756e6f7ffff8000000000000000001ffffffff60811b616d6a565b16948d616cce565b5101615e86565b610e04565b179161758c616d48565b90612355565b179161759c616d55565b90612355565b176175cb6175bd60606175b6888b90616cce565b5101612f05565b6175c5616d86565b90612355565b176175f46175e660806175df888b90616cce565b5101612f05565b6175ee616d93565b90612355565b1761763f61763161761260a061760b898c90616cce565b5101612f05565b61761a615fb2565b6176226134d4565b9061762b615928565b92615c79565b617639616da0565b90612355565b1761768a61767c61765d60c0617656898c90616cce565b5101612f05565b617665615fb2565b61766d6134d4565b90617676615928565b92615c79565b617684616dcc565b90612355565b17956176ad60096176a75f6176a0898690616cce565b5101615e79565b90615807565b94616cce565b5101615e79565b90610e54565b610ea4565b6176cd61591b565b6176d56134d4565b906176de616d62565b92615c79565b926176ed61591b565b6176f56134d4565b906176fe616d62565b92615c79565b9361771e6fffffffffffffffffffffffffffffffff616ddc565b16916177286124ec565b90612355565b17916177386124c0565b90612355565b17617761600761775b60206177548a8890616cce565b5101615e79565b90610e54565b610ea4565b6177856177806020617779878590616cce565b5101615e79565b613572565b50506172d2565b506177965f61164c565b617498565b949597939290836177ac6001611427565b166177c06177ba6001611427565b9161021c565b148061789a575b617813575b506176e461773e946176c5896176c06172d79c6176ba60206176b36177669e9d9b6175a261772e9c617592896175826177049f604061757661755161753161757d94617512565b918798969592858993959661783061782a8861021c565b9161021c565b115f1461788b57617842908690611982565b5b948161784d6134ee565b906178579261877a565b91906178629161237c565b61786a6134ee565b617873916123e1565b928161787e9161195d565b95969850909392936177cc565b506178955f61164c565b617843565b506178b260406178ab8b8b90616cce565b5101615e86565b6178c46178be5f610dc9565b916101f3565b146177c7565b506178e260406178db898b90616cce565b5101615e86565b6178f56178ef6001610de8565b916101f3565b14617465565b50816179076001611427565b1661791b6179156001611427565b9161021c565b1480617927575b61715a565b5061793f6040617938868490616cce565b5101615e86565b61795261794c6001610de8565b916101f3565b14617922565b50816179646001611427565b166179776179715f61164c565b9161021c565b1480617983575b617153565b5061799b6040617994868490616cce565b5101615e86565b6179ad6179a75f610dc9565b916101f3565b1461797e565b6179dc6179be615f3a565b6179c6610122565b918291636e55c17160e11b835260048301610b6c565b0390fd5b506179f860c06179f1858490616cce565b5101612f05565b617a0a617a045f61164c565b9161021c565b146170ea565b617a39617a1b616d3a565b617a23610122565b918291636e55c17160e11b835260048301610b6c565b0390fd5b617a66617a48616d0d565b617a50610122565b918291636e55c17160e11b835260048301610b6c565b0390fd5b617a93617a75612814565b617a7d610122565b918291636e55c17160e11b835260048301610b6c565b0390fd5b50617aaf60c0617aa8858490616cce565b5101612f05565b617ac66020617abf868590616cce565b5101615e79565b617adf617ad9617ad461159f565b6101c4565b916101c4565b145f14617b1f57617b19617b137f00000000000000000000000000000000000000000000000000000000000000005b61021c565b9161021c565b1161704b565b617b62600a6020617b4c617b47617b4283617b3b8b8a90616cce565b5101615e79565b6115c3565b6115cf565b6318160ddd90617b5a610122565b9485926115e7565b82528180617b726004820161038c565b03915afa918215617bd857617b1992617b1392617b9f925f92617ba4575b50617b9a90615f96565b61237c565b617b0e565b617b9a919250617bca9060203d8111617bd1575b617bc28183610156565b8101906115fc565b9190617b90565b503d617bb8565b61163c565b50617bf56080617bee858490616cce565b5101612f05565b617c07617c015f61164c565b9161021c565b14617044565b50617c2560a0617c1e858490616cce565b5101612f05565b617c4d617c47617c4260c0617c3b888790616cce565b5101612f05565b61021c565b9161021c565b1161703d565b617c7c617c5e614b9e565b617c66610122565b918291636e55c17160e11b835260048301610b6c565b0390fd5b5090617cb87f4a3d512075def8d38b63e79dacfdab217654f641be2b2f7d638b67b2515df7c091617caf610122565b91829182616f0b565b0390a1565b617cc690616c32565b565b90565b617cdf617cda617ce492617cc8565b610cdd565b61021c565b90565b617cf2612714617ccb565b90565b93929190617d0d617d0860033390610e54565b61141a565b617d176001611427565b16617d2b617d256001611427565b9161021c565b141580617d6f575b617d4257617d4094617e8a565b565b617d6b617d4d617ce7565b617d55610122565b918291636e55c17160e11b835260048301610b6c565b0390fd5b50617d7861874c565b617d8a617d84336101c4565b916101c4565b1415617d33565b90565b617da8617da3617dad92617d91565b610cdd565b61021c565b90565b617dbb612717617d94565b90565b617dc860ff612328565b90565b617dd560ff612328565b90565b60209181520190565b90565b90617df181602093610ef1565b0190565b60200190565b91617e0982617e0f92617dd8565b92617de1565b90815f905b828210617e22575050505090565b90919293617e44617e3e600192617e398886610edf565b617de4565b95617df5565b920190929192617e14565b939190617e879593617e7992617e6c60608801935f89019061161a565b8683036020880152617dfb565b926040818503910152617dfb565b90565b9390919293617e9881615726565b617eac617ea760048390610e54565b61141a565b617ebf617eb96001611427565b9161021c565b146181a457617ecc610d66565b50617ed8838590611586565b80617eeb617ee55f61164c565b9161021c565b11618081575b50617efd858390611586565b80617f10617f0a5f61164c565b9161021c565b11617f57575b5090617f52919293947f6686e5bb0cc56cbc9aa2b434eb18009891bf411d6d3f961fdfe70be336ca452895617f49610122565b95869586617e4f565b0390a1565b949591939092617f65610d66565b5b80617f79617f738961021c565b9161021c565b101561806e57617f9b617f96617f918a89859161158a565b610d93565b6126cb565b617fcc617fc7617fad60098890615807565b617fc1617fbc8c8b879161158a565b610d93565b90610e54565b61141a565b9081617fe0617fda5f61164c565b9161021c565b146180415761803761803c926180076001618002617ffc617dcb565b91611427565b612355565b176180328b61802c61802761801e60098d90615807565b928d889161158a565b610d93565b90610e54565b610ea4565b610ec4565b617f66565b61806a61804c61583c565b618054610122565b918291636e55c17160e11b835260048301610b6c565b0390fd5b5092617f52929695509390939091617f16565b949092959161808e610d66565b5b806180a261809c8961021c565b9161021c565b1015618197576180c46180bf6180ba8a89859161158a565b610d93565b6126cb565b6180f56180f06180d660088890615807565b6180ea6180e58c8b879161158a565b610d93565b90610e54565b61141a565b90816181096181035f61164c565b9161021c565b1461816a5761816061816592618130600161812b618125617dbe565b91611427565b612355565b1761815b8b61815561815061814760088d90615807565b928d889161158a565b610d93565b90610e54565b610ea4565b610ec4565b61808f565b61819361817561583c565b61817d610122565b918291636e55c17160e11b835260048301610b6c565b0390fd5b509195929094505f617ef1565b6181cd6181af617db0565b6181b7610122565b918291636e55c17160e11b835260048301610b6c565b0390fd5b906181de94939291617cf5565b565b939291906181f86181f360033390610e54565b61141a565b6182026001611427565b166182166182106001611427565b9161021c565b14158061825a575b61822d5761822b946182c8565b565b618256618238617ce7565b618240610122565b918291636e55c17160e11b835260048301610b6c565b0390fd5b5061826361874c565b61827561826f336101c4565b916101c4565b141561821e565b90565b61829361828e6182989261827c565b610cdd565b61021c565b90565b6182a661271861827f565b90565b90565b6182c06182bb6182c5926182a9565b610cdd565b61021c565b90565b93909192936182d681615726565b6182de610d66565b506182ea838590611586565b806182fd6182f75f61164c565b9161021c565b116184a4575b5061830f858390611586565b8061832261831c5f61164c565b9161021c565b11618369575b5090618364919293947facd30ef49b8fd1b51bbefff95071c5b0257180a7778c9c0fa4eb77a8842e290d9561835b610122565b95869586617e4f565b0390a1565b949591939092618377610d66565b5b8061838b6183858961021c565b9161021c565b1015618491576183ad6183a86183a38a89859161158a565b610d93565b6126cb565b6183de6183d96183bf60098890615807565b6183d36183ce8c8b879161158a565b610d93565b90610e54565b61141a565b906183f1826183eb617dcb565b90611a66565b6183fb6001611427565b1661840f6184096001611427565b9161021c565b036184645761845a61845f9261842a60018060ff1b036182ac565b166184558b61844f61844a61844160098d90615807565b928d889161158a565b610d93565b90610e54565b610ea4565b610ec4565b618378565b61848d61846f61829b565b618477610122565b918291636e55c17160e11b835260048301610b6c565b0390fd5b5092618364929695509390939091618328565b94909295916184b1610d66565b5b806184c56184bf8961021c565b9161021c565b10156185cb576184e76184e26184dd8a89859161158a565b610d93565b6126cb565b6185186185136184f960088890615807565b61850d6185088c8b879161158a565b610d93565b90610e54565b61141a565b9061852b82618525617dbe565b90611a66565b6185356001611427565b166185496185436001611427565b9161021c565b0361859e576185946185999261856460018060ff1b036182ac565b1661858f8b61858961858461857b60088d90615807565b928d889161158a565b610d93565b90610e54565b610ea4565b610ec4565b6184b2565b6185c76185a961829b565b6185b1610122565b918291636e55c17160e11b835260048301610b6c565b0390fd5b509195929094505f618303565b906185e5949392916181e0565b565b606090565b67ffffffffffffffff81116186045760208091020190565b610142565b9061861b618616836185ec565b61017f565b918252565b369037565b9061864a61863283618609565b9260208061864086936185ec565b9201910390618620565b565b9061865682610bed565b811015618667576020809102010190565b610d6a565b906186769061021c565b9052565b916186836185e7565b5061868c6185e7565b50618698838390611586565b916186a283618625565b936186ac84618625565b926186b5610d66565b5b806186c96186c38861021c565b9161021c565b10156187405761873b906186ef6186ea6186e58688859161158a565b610d93565b6126cb565b61873661873161871161870c618707888a879161158a565b610d93565b613572565b8b929161872b86926187268d9189909261864c565b61866c565b9261864c565b61866c565b610ec4565b6186b6565b509293505050565b5f90565b618754618748565b507fb53127684a568b3173ae13b9f8a6016e243e63b6e8ee1178d6a717850b5d61035490565b91618783610d66565b50815f190483118202158102156187a35781815f93850204930206110190565b5f80fdfea2646970667358221220d090befa4d4c94c6800fd4bf40a44bc78e5b6b0c9daedd860bb56a772c25b27964736f6c63430008150033","linkReferences":{}},"methodIdentifiers":{"NATIVE_TOKEN_MAX_BORROW_LIMIT_CAP()":"eae2c8f1","changeStatus(uint256)":"e8025d77","collectRevenue(address[])":"ac862bfa","pauseUser(address,address[],address[])":"dd4cbf6b","unpauseUser(address,address[],address[])":"ec048401","updateAuths((address,bool)[])":"3f66feff","updateExchangePrices(address[])":"f4bfa000","updateGuardians((address,bool)[])":"a5eb43ef","updateRateDataV1s((address,uint256,uint256,uint256,uint256)[])":"3fad77fc","updateRateDataV2s((address,uint256,uint256,uint256,uint256,uint256,uint256)[])":"9dde5977","updateRevenueCollector(address)":"54bb0c1d","updateTokenConfigs((address,uint256,uint256,uint256)[])":"7f7b6002","updateUserBorrowConfigs((address,address,uint8,uint256,uint256,uint256,uint256)[])":"01b88f86","updateUserClasses((address,uint256)[])":"c2da75f0","updateUserSupplyConfigs((address,address,uint8,uint256,uint256,uint256)[])":"02c6bb6a","updateUserWithdrawalLimit(address,address,uint256)":"8f0c2916"},"id":18}