{"abi":[{"type":"constructor","inputs":[{"name":"factory_","type":"address","internalType":"address"},{"name":"liquidityResolver_","type":"address","internalType":"address"}],"stateMutability":"nonpayable"},{"type":"function","name":"FACTORY","inputs":[],"outputs":[{"name":"","type":"address","internalType":"contract IFluidVaultFactory"}],"stateMutability":"view"},{"type":"function","name":"LIQUIDITY_RESOLVER","inputs":[],"outputs":[{"name":"","type":"address","internalType":"contract IFluidLiquidityResolver"}],"stateMutability":"view"},{"type":"function","name":"calculateDoubleIntUintMapping","inputs":[{"name":"slot_","type":"uint256","internalType":"uint256"},{"name":"key1_","type":"int256","internalType":"int256"},{"name":"key2_","type":"uint256","internalType":"uint256"}],"outputs":[{"name":"","type":"bytes32","internalType":"bytes32"}],"stateMutability":"pure"},{"type":"function","name":"calculateStorageSlotIntMapping","inputs":[{"name":"slot_","type":"uint256","internalType":"uint256"},{"name":"key_","type":"int256","internalType":"int256"}],"outputs":[{"name":"","type":"bytes32","internalType":"bytes32"}],"stateMutability":"pure"},{"type":"function","name":"calculateStorageSlotUintMapping","inputs":[{"name":"slot_","type":"uint256","internalType":"uint256"},{"name":"key_","type":"uint256","internalType":"uint256"}],"outputs":[{"name":"","type":"bytes32","internalType":"bytes32"}],"stateMutability":"pure"},{"type":"function","name":"getAbsorbedDustDebt","inputs":[{"name":"vault_","type":"address","internalType":"address"}],"outputs":[{"name":"","type":"uint256","internalType":"uint256"}],"stateMutability":"view"},{"type":"function","name":"getAbsorbedLiquidityRaw","inputs":[{"name":"vault_","type":"address","internalType":"address"}],"outputs":[{"name":"","type":"uint256","internalType":"uint256"}],"stateMutability":"view"},{"type":"function","name":"getAllVaultsAddresses","inputs":[],"outputs":[{"name":"vaults_","type":"address[]","internalType":"address[]"}],"stateMutability":"view"},{"type":"function","name":"getAllVaultsLiquidation","inputs":[],"outputs":[{"name":"liquidationsData_","type":"tuple[]","internalType":"struct Structs.LiquidationStruct[]","components":[{"name":"vault","type":"address","internalType":"address"},{"name":"token0In","type":"address","internalType":"address"},{"name":"token0Out","type":"address","internalType":"address"},{"name":"token1In","type":"address","internalType":"address"},{"name":"token1Out","type":"address","internalType":"address"},{"name":"inAmt","type":"uint256","internalType":"uint256"},{"name":"outAmt","type":"uint256","internalType":"uint256"},{"name":"inAmtWithAbsorb","type":"uint256","internalType":"uint256"},{"name":"outAmtWithAbsorb","type":"uint256","internalType":"uint256"},{"name":"absorbAvailable","type":"bool","internalType":"bool"}]}],"stateMutability":"nonpayable"},{"type":"function","name":"getBranchDataRaw","inputs":[{"name":"vault_","type":"address","internalType":"address"},{"name":"branch_","type":"uint256","internalType":"uint256"}],"outputs":[{"name":"","type":"uint256","internalType":"uint256"}],"stateMutability":"view"},{"type":"function","name":"getContractForDeployerIndex","inputs":[{"name":"vault_","type":"address","internalType":"address"},{"name":"index_","type":"uint256","internalType":"uint256"}],"outputs":[{"name":"","type":"address","internalType":"address"}],"stateMutability":"view"},{"type":"function","name":"getDexFromAddress","inputs":[{"name":"vault_","type":"address","internalType":"address"}],"outputs":[{"name":"","type":"address","internalType":"address"}],"stateMutability":"view"},{"type":"function","name":"getMultipleVaultsLiquidation","inputs":[{"name":"vaults_","type":"address[]","internalType":"address[]"},{"name":"tokensInAmt_","type":"uint256[]","internalType":"uint256[]"}],"outputs":[{"name":"liquidationsData_","type":"tuple[]","internalType":"struct Structs.LiquidationStruct[]","components":[{"name":"vault","type":"address","internalType":"address"},{"name":"token0In","type":"address","internalType":"address"},{"name":"token0Out","type":"address","internalType":"address"},{"name":"token1In","type":"address","internalType":"address"},{"name":"token1Out","type":"address","internalType":"address"},{"name":"inAmt","type":"uint256","internalType":"uint256"},{"name":"outAmt","type":"uint256","internalType":"uint256"},{"name":"inAmtWithAbsorb","type":"uint256","internalType":"uint256"},{"name":"outAmtWithAbsorb","type":"uint256","internalType":"uint256"},{"name":"absorbAvailable","type":"bool","internalType":"bool"}]}],"stateMutability":"nonpayable"},{"type":"function","name":"getPositionDataRaw","inputs":[{"name":"vault_","type":"address","internalType":"address"},{"name":"positionId_","type":"uint256","internalType":"uint256"}],"outputs":[{"name":"","type":"uint256","internalType":"uint256"}],"stateMutability":"view"},{"type":"function","name":"getRateRaw","inputs":[{"name":"vault_","type":"address","internalType":"address"}],"outputs":[{"name":"","type":"uint256","internalType":"uint256"}],"stateMutability":"view"},{"type":"function","name":"getRebalancer","inputs":[{"name":"vault_","type":"address","internalType":"address"}],"outputs":[{"name":"","type":"address","internalType":"address"}],"stateMutability":"view"},{"type":"function","name":"getTickDataRaw","inputs":[{"name":"vault_","type":"address","internalType":"address"},{"name":"tick_","type":"int256","internalType":"int256"}],"outputs":[{"name":"","type":"uint256","internalType":"uint256"}],"stateMutability":"view"},{"type":"function","name":"getTickHasDebtRaw","inputs":[{"name":"vault_","type":"address","internalType":"address"},{"name":"key_","type":"int256","internalType":"int256"}],"outputs":[{"name":"","type":"uint256","internalType":"uint256"}],"stateMutability":"view"},{"type":"function","name":"getTickIdDataRaw","inputs":[{"name":"vault_","type":"address","internalType":"address"},{"name":"tick_","type":"int256","internalType":"int256"},{"name":"id_","type":"uint256","internalType":"uint256"}],"outputs":[{"name":"","type":"uint256","internalType":"uint256"}],"stateMutability":"view"},{"type":"function","name":"getTokenConfig","inputs":[{"name":"nftId_","type":"uint256","internalType":"uint256"}],"outputs":[{"name":"","type":"uint256","internalType":"uint256"}],"stateMutability":"view"},{"type":"function","name":"getTotalVaults","inputs":[],"outputs":[{"name":"","type":"uint256","internalType":"uint256"}],"stateMutability":"view"},{"type":"function","name":"getVaultAbsorb","inputs":[{"name":"vault_","type":"address","internalType":"address"}],"outputs":[{"name":"absorbData_","type":"tuple","internalType":"struct Structs.AbsorbStruct","components":[{"name":"vault","type":"address","internalType":"address"},{"name":"absorbAvailable","type":"bool","internalType":"bool"}]}],"stateMutability":"nonpayable"},{"type":"function","name":"getVaultAddress","inputs":[{"name":"vaultId_","type":"uint256","internalType":"uint256"}],"outputs":[{"name":"vault_","type":"address","internalType":"address"}],"stateMutability":"view"},{"type":"function","name":"getVaultEntireData","inputs":[{"name":"vault_","type":"address","internalType":"address"}],"outputs":[{"name":"vaultData_","type":"tuple","internalType":"struct Structs.VaultEntireData","components":[{"name":"vault","type":"address","internalType":"address"},{"name":"isSmartCol","type":"bool","internalType":"bool"},{"name":"isSmartDebt","type":"bool","internalType":"bool"},{"name":"constantVariables","type":"tuple","internalType":"struct IFluidVault.ConstantViews","components":[{"name":"liquidity","type":"address","internalType":"address"},{"name":"factory","type":"address","internalType":"address"},{"name":"operateImplementation","type":"address","internalType":"address"},{"name":"adminImplementation","type":"address","internalType":"address"},{"name":"secondaryImplementation","type":"address","internalType":"address"},{"name":"deployer","type":"address","internalType":"address"},{"name":"supply","type":"address","internalType":"address"},{"name":"borrow","type":"address","internalType":"address"},{"name":"supplyToken","type":"tuple","internalType":"struct IFluidVault.Tokens","components":[{"name":"token0","type":"address","internalType":"address"},{"name":"token1","type":"address","internalType":"address"}]},{"name":"borrowToken","type":"tuple","internalType":"struct IFluidVault.Tokens","components":[{"name":"token0","type":"address","internalType":"address"},{"name":"token1","type":"address","internalType":"address"}]},{"name":"vaultId","type":"uint256","internalType":"uint256"},{"name":"vaultType","type":"uint256","internalType":"uint256"},{"name":"supplyExchangePriceSlot","type":"bytes32","internalType":"bytes32"},{"name":"borrowExchangePriceSlot","type":"bytes32","internalType":"bytes32"},{"name":"userSupplySlot","type":"bytes32","internalType":"bytes32"},{"name":"userBorrowSlot","type":"bytes32","internalType":"bytes32"}]},{"name":"configs","type":"tuple","internalType":"struct Structs.Configs","components":[{"name":"supplyRateMagnifier","type":"uint16","internalType":"uint16"},{"name":"borrowRateMagnifier","type":"uint16","internalType":"uint16"},{"name":"collateralFactor","type":"uint16","internalType":"uint16"},{"name":"liquidationThreshold","type":"uint16","internalType":"uint16"},{"name":"liquidationMaxLimit","type":"uint16","internalType":"uint16"},{"name":"withdrawalGap","type":"uint16","internalType":"uint16"},{"name":"liquidationPenalty","type":"uint16","internalType":"uint16"},{"name":"borrowFee","type":"uint16","internalType":"uint16"},{"name":"oracle","type":"address","internalType":"address"},{"name":"oraclePriceOperate","type":"uint256","internalType":"uint256"},{"name":"oraclePriceLiquidate","type":"uint256","internalType":"uint256"},{"name":"rebalancer","type":"address","internalType":"address"},{"name":"lastUpdateTimestamp","type":"uint256","internalType":"uint256"}]},{"name":"exchangePricesAndRates","type":"tuple","internalType":"struct Structs.ExchangePricesAndRates","components":[{"name":"lastStoredLiquiditySupplyExchangePrice","type":"uint256","internalType":"uint256"},{"name":"lastStoredLiquidityBorrowExchangePrice","type":"uint256","internalType":"uint256"},{"name":"lastStoredVaultSupplyExchangePrice","type":"uint256","internalType":"uint256"},{"name":"lastStoredVaultBorrowExchangePrice","type":"uint256","internalType":"uint256"},{"name":"liquiditySupplyExchangePrice","type":"uint256","internalType":"uint256"},{"name":"liquidityBorrowExchangePrice","type":"uint256","internalType":"uint256"},{"name":"vaultSupplyExchangePrice","type":"uint256","internalType":"uint256"},{"name":"vaultBorrowExchangePrice","type":"uint256","internalType":"uint256"},{"name":"supplyRateLiquidity","type":"uint256","internalType":"uint256"},{"name":"borrowRateLiquidity","type":"uint256","internalType":"uint256"},{"name":"supplyRateVault","type":"int256","internalType":"int256"},{"name":"borrowRateVault","type":"int256","internalType":"int256"},{"name":"rewardsOrFeeRateSupply","type":"int256","internalType":"int256"},{"name":"rewardsOrFeeRateBorrow","type":"int256","internalType":"int256"}]},{"name":"totalSupplyAndBorrow","type":"tuple","internalType":"struct Structs.TotalSupplyAndBorrow","components":[{"name":"totalSupplyVault","type":"uint256","internalType":"uint256"},{"name":"totalBorrowVault","type":"uint256","internalType":"uint256"},{"name":"totalSupplyLiquidityOrDex","type":"uint256","internalType":"uint256"},{"name":"totalBorrowLiquidityOrDex","type":"uint256","internalType":"uint256"},{"name":"absorbedSupply","type":"uint256","internalType":"uint256"},{"name":"absorbedBorrow","type":"uint256","internalType":"uint256"}]},{"name":"limitsAndAvailability","type":"tuple","internalType":"struct Structs.LimitsAndAvailability","components":[{"name":"withdrawLimit","type":"uint256","internalType":"uint256"},{"name":"withdrawableUntilLimit","type":"uint256","internalType":"uint256"},{"name":"withdrawable","type":"uint256","internalType":"uint256"},{"name":"borrowLimit","type":"uint256","internalType":"uint256"},{"name":"borrowableUntilLimit","type":"uint256","internalType":"uint256"},{"name":"borrowable","type":"uint256","internalType":"uint256"},{"name":"borrowLimitUtilization","type":"uint256","internalType":"uint256"},{"name":"minimumBorrowing","type":"uint256","internalType":"uint256"}]},{"name":"vaultState","type":"tuple","internalType":"struct Structs.VaultState","components":[{"name":"totalPositions","type":"uint256","internalType":"uint256"},{"name":"topTick","type":"int256","internalType":"int256"},{"name":"currentBranch","type":"uint256","internalType":"uint256"},{"name":"totalBranch","type":"uint256","internalType":"uint256"},{"name":"totalBorrow","type":"uint256","internalType":"uint256"},{"name":"totalSupply","type":"uint256","internalType":"uint256"},{"name":"currentBranchState","type":"tuple","internalType":"struct Structs.CurrentBranchState","components":[{"name":"status","type":"uint256","internalType":"uint256"},{"name":"minimaTick","type":"int256","internalType":"int256"},{"name":"debtFactor","type":"uint256","internalType":"uint256"},{"name":"partials","type":"uint256","internalType":"uint256"},{"name":"debtLiquidity","type":"uint256","internalType":"uint256"},{"name":"baseBranchId","type":"uint256","internalType":"uint256"},{"name":"baseBranchMinima","type":"int256","internalType":"int256"}]}]},{"name":"liquidityUserSupplyData","type":"tuple","internalType":"struct Structs.UserSupplyData","components":[{"name":"modeWithInterest","type":"bool","internalType":"bool"},{"name":"supply","type":"uint256","internalType":"uint256"},{"name":"withdrawalLimit","type":"uint256","internalType":"uint256"},{"name":"lastUpdateTimestamp","type":"uint256","internalType":"uint256"},{"name":"expandPercent","type":"uint256","internalType":"uint256"},{"name":"expandDuration","type":"uint256","internalType":"uint256"},{"name":"baseWithdrawalLimit","type":"uint256","internalType":"uint256"},{"name":"withdrawableUntilLimit","type":"uint256","internalType":"uint256"},{"name":"withdrawable","type":"uint256","internalType":"uint256"}]},{"name":"liquidityUserBorrowData","type":"tuple","internalType":"struct Structs.UserBorrowData","components":[{"name":"modeWithInterest","type":"bool","internalType":"bool"},{"name":"borrow","type":"uint256","internalType":"uint256"},{"name":"borrowLimit","type":"uint256","internalType":"uint256"},{"name":"lastUpdateTimestamp","type":"uint256","internalType":"uint256"},{"name":"expandPercent","type":"uint256","internalType":"uint256"},{"name":"expandDuration","type":"uint256","internalType":"uint256"},{"name":"baseBorrowLimit","type":"uint256","internalType":"uint256"},{"name":"maxBorrowLimit","type":"uint256","internalType":"uint256"},{"name":"borrowableUntilLimit","type":"uint256","internalType":"uint256"},{"name":"borrowable","type":"uint256","internalType":"uint256"},{"name":"borrowLimitUtilization","type":"uint256","internalType":"uint256"}]}]}],"stateMutability":"view"},{"type":"function","name":"getVaultId","inputs":[{"name":"vault_","type":"address","internalType":"address"}],"outputs":[{"name":"id_","type":"uint256","internalType":"uint256"}],"stateMutability":"view"},{"type":"function","name":"getVaultLiquidation","inputs":[{"name":"vault_","type":"address","internalType":"address"},{"name":"tokenInAmt_","type":"uint256","internalType":"uint256"}],"outputs":[{"name":"liquidationData_","type":"tuple","internalType":"struct Structs.LiquidationStruct","components":[{"name":"vault","type":"address","internalType":"address"},{"name":"token0In","type":"address","internalType":"address"},{"name":"token0Out","type":"address","internalType":"address"},{"name":"token1In","type":"address","internalType":"address"},{"name":"token1Out","type":"address","internalType":"address"},{"name":"inAmt","type":"uint256","internalType":"uint256"},{"name":"outAmt","type":"uint256","internalType":"uint256"},{"name":"inAmtWithAbsorb","type":"uint256","internalType":"uint256"},{"name":"outAmtWithAbsorb","type":"uint256","internalType":"uint256"},{"name":"absorbAvailable","type":"bool","internalType":"bool"}]}],"stateMutability":"nonpayable"},{"type":"function","name":"getVaultState","inputs":[{"name":"vault_","type":"address","internalType":"address"}],"outputs":[{"name":"vaultState_","type":"tuple","internalType":"struct Structs.VaultState","components":[{"name":"totalPositions","type":"uint256","internalType":"uint256"},{"name":"topTick","type":"int256","internalType":"int256"},{"name":"currentBranch","type":"uint256","internalType":"uint256"},{"name":"totalBranch","type":"uint256","internalType":"uint256"},{"name":"totalBorrow","type":"uint256","internalType":"uint256"},{"name":"totalSupply","type":"uint256","internalType":"uint256"},{"name":"currentBranchState","type":"tuple","internalType":"struct Structs.CurrentBranchState","components":[{"name":"status","type":"uint256","internalType":"uint256"},{"name":"minimaTick","type":"int256","internalType":"int256"},{"name":"debtFactor","type":"uint256","internalType":"uint256"},{"name":"partials","type":"uint256","internalType":"uint256"},{"name":"debtLiquidity","type":"uint256","internalType":"uint256"},{"name":"baseBranchId","type":"uint256","internalType":"uint256"},{"name":"baseBranchMinima","type":"int256","internalType":"int256"}]}]}],"stateMutability":"view"},{"type":"function","name":"getVaultType","inputs":[{"name":"vault_","type":"address","internalType":"address"}],"outputs":[{"name":"vaultType_","type":"uint256","internalType":"uint256"}],"stateMutability":"view"},{"type":"function","name":"getVaultVariables2Raw","inputs":[{"name":"vault_","type":"address","internalType":"address"}],"outputs":[{"name":"","type":"uint256","internalType":"uint256"}],"stateMutability":"view"},{"type":"function","name":"getVaultVariablesRaw","inputs":[{"name":"vault_","type":"address","internalType":"address"}],"outputs":[{"name":"","type":"uint256","internalType":"uint256"}],"stateMutability":"view"},{"type":"function","name":"getVaultsAbsorb","inputs":[],"outputs":[{"name":"absorbData_","type":"tuple[]","internalType":"struct Structs.AbsorbStruct[]","components":[{"name":"vault","type":"address","internalType":"address"},{"name":"absorbAvailable","type":"bool","internalType":"bool"}]}],"stateMutability":"nonpayable"},{"type":"function","name":"getVaultsAbsorb","inputs":[{"name":"vaults_","type":"address[]","internalType":"address[]"}],"outputs":[{"name":"absorbData_","type":"tuple[]","internalType":"struct Structs.AbsorbStruct[]","components":[{"name":"vault","type":"address","internalType":"address"},{"name":"absorbAvailable","type":"bool","internalType":"bool"}]}],"stateMutability":"nonpayable"},{"type":"function","name":"getVaultsEntireData","inputs":[{"name":"vaults_","type":"address[]","internalType":"address[]"}],"outputs":[{"name":"vaultsData_","type":"tuple[]","internalType":"struct Structs.VaultEntireData[]","components":[{"name":"vault","type":"address","internalType":"address"},{"name":"isSmartCol","type":"bool","internalType":"bool"},{"name":"isSmartDebt","type":"bool","internalType":"bool"},{"name":"constantVariables","type":"tuple","internalType":"struct IFluidVault.ConstantViews","components":[{"name":"liquidity","type":"address","internalType":"address"},{"name":"factory","type":"address","internalType":"address"},{"name":"operateImplementation","type":"address","internalType":"address"},{"name":"adminImplementation","type":"address","internalType":"address"},{"name":"secondaryImplementation","type":"address","internalType":"address"},{"name":"deployer","type":"address","internalType":"address"},{"name":"supply","type":"address","internalType":"address"},{"name":"borrow","type":"address","internalType":"address"},{"name":"supplyToken","type":"tuple","internalType":"struct IFluidVault.Tokens","components":[{"name":"token0","type":"address","internalType":"address"},{"name":"token1","type":"address","internalType":"address"}]},{"name":"borrowToken","type":"tuple","internalType":"struct IFluidVault.Tokens","components":[{"name":"token0","type":"address","internalType":"address"},{"name":"token1","type":"address","internalType":"address"}]},{"name":"vaultId","type":"uint256","internalType":"uint256"},{"name":"vaultType","type":"uint256","internalType":"uint256"},{"name":"supplyExchangePriceSlot","type":"bytes32","internalType":"bytes32"},{"name":"borrowExchangePriceSlot","type":"bytes32","internalType":"bytes32"},{"name":"userSupplySlot","type":"bytes32","internalType":"bytes32"},{"name":"userBorrowSlot","type":"bytes32","internalType":"bytes32"}]},{"name":"configs","type":"tuple","internalType":"struct Structs.Configs","components":[{"name":"supplyRateMagnifier","type":"uint16","internalType":"uint16"},{"name":"borrowRateMagnifier","type":"uint16","internalType":"uint16"},{"name":"collateralFactor","type":"uint16","internalType":"uint16"},{"name":"liquidationThreshold","type":"uint16","internalType":"uint16"},{"name":"liquidationMaxLimit","type":"uint16","internalType":"uint16"},{"name":"withdrawalGap","type":"uint16","internalType":"uint16"},{"name":"liquidationPenalty","type":"uint16","internalType":"uint16"},{"name":"borrowFee","type":"uint16","internalType":"uint16"},{"name":"oracle","type":"address","internalType":"address"},{"name":"oraclePriceOperate","type":"uint256","internalType":"uint256"},{"name":"oraclePriceLiquidate","type":"uint256","internalType":"uint256"},{"name":"rebalancer","type":"address","internalType":"address"},{"name":"lastUpdateTimestamp","type":"uint256","internalType":"uint256"}]},{"name":"exchangePricesAndRates","type":"tuple","internalType":"struct Structs.ExchangePricesAndRates","components":[{"name":"lastStoredLiquiditySupplyExchangePrice","type":"uint256","internalType":"uint256"},{"name":"lastStoredLiquidityBorrowExchangePrice","type":"uint256","internalType":"uint256"},{"name":"lastStoredVaultSupplyExchangePrice","type":"uint256","internalType":"uint256"},{"name":"lastStoredVaultBorrowExchangePrice","type":"uint256","internalType":"uint256"},{"name":"liquiditySupplyExchangePrice","type":"uint256","internalType":"uint256"},{"name":"liquidityBorrowExchangePrice","type":"uint256","internalType":"uint256"},{"name":"vaultSupplyExchangePrice","type":"uint256","internalType":"uint256"},{"name":"vaultBorrowExchangePrice","type":"uint256","internalType":"uint256"},{"name":"supplyRateLiquidity","type":"uint256","internalType":"uint256"},{"name":"borrowRateLiquidity","type":"uint256","internalType":"uint256"},{"name":"supplyRateVault","type":"int256","internalType":"int256"},{"name":"borrowRateVault","type":"int256","internalType":"int256"},{"name":"rewardsOrFeeRateSupply","type":"int256","internalType":"int256"},{"name":"rewardsOrFeeRateBorrow","type":"int256","internalType":"int256"}]},{"name":"totalSupplyAndBorrow","type":"tuple","internalType":"struct Structs.TotalSupplyAndBorrow","components":[{"name":"totalSupplyVault","type":"uint256","internalType":"uint256"},{"name":"totalBorrowVault","type":"uint256","internalType":"uint256"},{"name":"totalSupplyLiquidityOrDex","type":"uint256","internalType":"uint256"},{"name":"totalBorrowLiquidityOrDex","type":"uint256","internalType":"uint256"},{"name":"absorbedSupply","type":"uint256","internalType":"uint256"},{"name":"absorbedBorrow","type":"uint256","internalType":"uint256"}]},{"name":"limitsAndAvailability","type":"tuple","internalType":"struct Structs.LimitsAndAvailability","components":[{"name":"withdrawLimit","type":"uint256","internalType":"uint256"},{"name":"withdrawableUntilLimit","type":"uint256","internalType":"uint256"},{"name":"withdrawable","type":"uint256","internalType":"uint256"},{"name":"borrowLimit","type":"uint256","internalType":"uint256"},{"name":"borrowableUntilLimit","type":"uint256","internalType":"uint256"},{"name":"borrowable","type":"uint256","internalType":"uint256"},{"name":"borrowLimitUtilization","type":"uint256","internalType":"uint256"},{"name":"minimumBorrowing","type":"uint256","internalType":"uint256"}]},{"name":"vaultState","type":"tuple","internalType":"struct Structs.VaultState","components":[{"name":"totalPositions","type":"uint256","internalType":"uint256"},{"name":"topTick","type":"int256","internalType":"int256"},{"name":"currentBranch","type":"uint256","internalType":"uint256"},{"name":"totalBranch","type":"uint256","internalType":"uint256"},{"name":"totalBorrow","type":"uint256","internalType":"uint256"},{"name":"totalSupply","type":"uint256","internalType":"uint256"},{"name":"currentBranchState","type":"tuple","internalType":"struct Structs.CurrentBranchState","components":[{"name":"status","type":"uint256","internalType":"uint256"},{"name":"minimaTick","type":"int256","internalType":"int256"},{"name":"debtFactor","type":"uint256","internalType":"uint256"},{"name":"partials","type":"uint256","internalType":"uint256"},{"name":"debtLiquidity","type":"uint256","internalType":"uint256"},{"name":"baseBranchId","type":"uint256","internalType":"uint256"},{"name":"baseBranchMinima","type":"int256","internalType":"int256"}]}]},{"name":"liquidityUserSupplyData","type":"tuple","internalType":"struct Structs.UserSupplyData","components":[{"name":"modeWithInterest","type":"bool","internalType":"bool"},{"name":"supply","type":"uint256","internalType":"uint256"},{"name":"withdrawalLimit","type":"uint256","internalType":"uint256"},{"name":"lastUpdateTimestamp","type":"uint256","internalType":"uint256"},{"name":"expandPercent","type":"uint256","internalType":"uint256"},{"name":"expandDuration","type":"uint256","internalType":"uint256"},{"name":"baseWithdrawalLimit","type":"uint256","internalType":"uint256"},{"name":"withdrawableUntilLimit","type":"uint256","internalType":"uint256"},{"name":"withdrawable","type":"uint256","internalType":"uint256"}]},{"name":"liquidityUserBorrowData","type":"tuple","internalType":"struct Structs.UserBorrowData","components":[{"name":"modeWithInterest","type":"bool","internalType":"bool"},{"name":"borrow","type":"uint256","internalType":"uint256"},{"name":"borrowLimit","type":"uint256","internalType":"uint256"},{"name":"lastUpdateTimestamp","type":"uint256","internalType":"uint256"},{"name":"expandPercent","type":"uint256","internalType":"uint256"},{"name":"expandDuration","type":"uint256","internalType":"uint256"},{"name":"baseBorrowLimit","type":"uint256","internalType":"uint256"},{"name":"maxBorrowLimit","type":"uint256","internalType":"uint256"},{"name":"borrowableUntilLimit","type":"uint256","internalType":"uint256"},{"name":"borrowable","type":"uint256","internalType":"uint256"},{"name":"borrowLimitUtilization","type":"uint256","internalType":"uint256"}]}]}],"stateMutability":"view"},{"type":"function","name":"getVaultsEntireData","inputs":[],"outputs":[{"name":"vaultsData_","type":"tuple[]","internalType":"struct Structs.VaultEntireData[]","components":[{"name":"vault","type":"address","internalType":"address"},{"name":"isSmartCol","type":"bool","internalType":"bool"},{"name":"isSmartDebt","type":"bool","internalType":"bool"},{"name":"constantVariables","type":"tuple","internalType":"struct IFluidVault.ConstantViews","components":[{"name":"liquidity","type":"address","internalType":"address"},{"name":"factory","type":"address","internalType":"address"},{"name":"operateImplementation","type":"address","internalType":"address"},{"name":"adminImplementation","type":"address","internalType":"address"},{"name":"secondaryImplementation","type":"address","internalType":"address"},{"name":"deployer","type":"address","internalType":"address"},{"name":"supply","type":"address","internalType":"address"},{"name":"borrow","type":"address","internalType":"address"},{"name":"supplyToken","type":"tuple","internalType":"struct IFluidVault.Tokens","components":[{"name":"token0","type":"address","internalType":"address"},{"name":"token1","type":"address","internalType":"address"}]},{"name":"borrowToken","type":"tuple","internalType":"struct IFluidVault.Tokens","components":[{"name":"token0","type":"address","internalType":"address"},{"name":"token1","type":"address","internalType":"address"}]},{"name":"vaultId","type":"uint256","internalType":"uint256"},{"name":"vaultType","type":"uint256","internalType":"uint256"},{"name":"supplyExchangePriceSlot","type":"bytes32","internalType":"bytes32"},{"name":"borrowExchangePriceSlot","type":"bytes32","internalType":"bytes32"},{"name":"userSupplySlot","type":"bytes32","internalType":"bytes32"},{"name":"userBorrowSlot","type":"bytes32","internalType":"bytes32"}]},{"name":"configs","type":"tuple","internalType":"struct Structs.Configs","components":[{"name":"supplyRateMagnifier","type":"uint16","internalType":"uint16"},{"name":"borrowRateMagnifier","type":"uint16","internalType":"uint16"},{"name":"collateralFactor","type":"uint16","internalType":"uint16"},{"name":"liquidationThreshold","type":"uint16","internalType":"uint16"},{"name":"liquidationMaxLimit","type":"uint16","internalType":"uint16"},{"name":"withdrawalGap","type":"uint16","internalType":"uint16"},{"name":"liquidationPenalty","type":"uint16","internalType":"uint16"},{"name":"borrowFee","type":"uint16","internalType":"uint16"},{"name":"oracle","type":"address","internalType":"address"},{"name":"oraclePriceOperate","type":"uint256","internalType":"uint256"},{"name":"oraclePriceLiquidate","type":"uint256","internalType":"uint256"},{"name":"rebalancer","type":"address","internalType":"address"},{"name":"lastUpdateTimestamp","type":"uint256","internalType":"uint256"}]},{"name":"exchangePricesAndRates","type":"tuple","internalType":"struct Structs.ExchangePricesAndRates","components":[{"name":"lastStoredLiquiditySupplyExchangePrice","type":"uint256","internalType":"uint256"},{"name":"lastStoredLiquidityBorrowExchangePrice","type":"uint256","internalType":"uint256"},{"name":"lastStoredVaultSupplyExchangePrice","type":"uint256","internalType":"uint256"},{"name":"lastStoredVaultBorrowExchangePrice","type":"uint256","internalType":"uint256"},{"name":"liquiditySupplyExchangePrice","type":"uint256","internalType":"uint256"},{"name":"liquidityBorrowExchangePrice","type":"uint256","internalType":"uint256"},{"name":"vaultSupplyExchangePrice","type":"uint256","internalType":"uint256"},{"name":"vaultBorrowExchangePrice","type":"uint256","internalType":"uint256"},{"name":"supplyRateLiquidity","type":"uint256","internalType":"uint256"},{"name":"borrowRateLiquidity","type":"uint256","internalType":"uint256"},{"name":"supplyRateVault","type":"int256","internalType":"int256"},{"name":"borrowRateVault","type":"int256","internalType":"int256"},{"name":"rewardsOrFeeRateSupply","type":"int256","internalType":"int256"},{"name":"rewardsOrFeeRateBorrow","type":"int256","internalType":"int256"}]},{"name":"totalSupplyAndBorrow","type":"tuple","internalType":"struct Structs.TotalSupplyAndBorrow","components":[{"name":"totalSupplyVault","type":"uint256","internalType":"uint256"},{"name":"totalBorrowVault","type":"uint256","internalType":"uint256"},{"name":"totalSupplyLiquidityOrDex","type":"uint256","internalType":"uint256"},{"name":"totalBorrowLiquidityOrDex","type":"uint256","internalType":"uint256"},{"name":"absorbedSupply","type":"uint256","internalType":"uint256"},{"name":"absorbedBorrow","type":"uint256","internalType":"uint256"}]},{"name":"limitsAndAvailability","type":"tuple","internalType":"struct Structs.LimitsAndAvailability","components":[{"name":"withdrawLimit","type":"uint256","internalType":"uint256"},{"name":"withdrawableUntilLimit","type":"uint256","internalType":"uint256"},{"name":"withdrawable","type":"uint256","internalType":"uint256"},{"name":"borrowLimit","type":"uint256","internalType":"uint256"},{"name":"borrowableUntilLimit","type":"uint256","internalType":"uint256"},{"name":"borrowable","type":"uint256","internalType":"uint256"},{"name":"borrowLimitUtilization","type":"uint256","internalType":"uint256"},{"name":"minimumBorrowing","type":"uint256","internalType":"uint256"}]},{"name":"vaultState","type":"tuple","internalType":"struct Structs.VaultState","components":[{"name":"totalPositions","type":"uint256","internalType":"uint256"},{"name":"topTick","type":"int256","internalType":"int256"},{"name":"currentBranch","type":"uint256","internalType":"uint256"},{"name":"totalBranch","type":"uint256","internalType":"uint256"},{"name":"totalBorrow","type":"uint256","internalType":"uint256"},{"name":"totalSupply","type":"uint256","internalType":"uint256"},{"name":"currentBranchState","type":"tuple","internalType":"struct Structs.CurrentBranchState","components":[{"name":"status","type":"uint256","internalType":"uint256"},{"name":"minimaTick","type":"int256","internalType":"int256"},{"name":"debtFactor","type":"uint256","internalType":"uint256"},{"name":"partials","type":"uint256","internalType":"uint256"},{"name":"debtLiquidity","type":"uint256","internalType":"uint256"},{"name":"baseBranchId","type":"uint256","internalType":"uint256"},{"name":"baseBranchMinima","type":"int256","internalType":"int256"}]}]},{"name":"liquidityUserSupplyData","type":"tuple","internalType":"struct Structs.UserSupplyData","components":[{"name":"modeWithInterest","type":"bool","internalType":"bool"},{"name":"supply","type":"uint256","internalType":"uint256"},{"name":"withdrawalLimit","type":"uint256","internalType":"uint256"},{"name":"lastUpdateTimestamp","type":"uint256","internalType":"uint256"},{"name":"expandPercent","type":"uint256","internalType":"uint256"},{"name":"expandDuration","type":"uint256","internalType":"uint256"},{"name":"baseWithdrawalLimit","type":"uint256","internalType":"uint256"},{"name":"withdrawableUntilLimit","type":"uint256","internalType":"uint256"},{"name":"withdrawable","type":"uint256","internalType":"uint256"}]},{"name":"liquidityUserBorrowData","type":"tuple","internalType":"struct Structs.UserBorrowData","components":[{"name":"modeWithInterest","type":"bool","internalType":"bool"},{"name":"borrow","type":"uint256","internalType":"uint256"},{"name":"borrowLimit","type":"uint256","internalType":"uint256"},{"name":"lastUpdateTimestamp","type":"uint256","internalType":"uint256"},{"name":"expandPercent","type":"uint256","internalType":"uint256"},{"name":"expandDuration","type":"uint256","internalType":"uint256"},{"name":"baseBorrowLimit","type":"uint256","internalType":"uint256"},{"name":"maxBorrowLimit","type":"uint256","internalType":"uint256"},{"name":"borrowableUntilLimit","type":"uint256","internalType":"uint256"},{"name":"borrowable","type":"uint256","internalType":"uint256"},{"name":"borrowLimitUtilization","type":"uint256","internalType":"uint256"}]}]}],"stateMutability":"view"},{"type":"function","name":"normalSlot","inputs":[{"name":"slot_","type":"uint256","internalType":"uint256"}],"outputs":[{"name":"","type":"bytes32","internalType":"bytes32"}],"stateMutability":"pure"},{"type":"function","name":"positionByNftId","inputs":[{"name":"nftId_","type":"uint256","internalType":"uint256"}],"outputs":[{"name":"userPosition_","type":"tuple","internalType":"struct Structs.UserPosition","components":[{"name":"nftId","type":"uint256","internalType":"uint256"},{"name":"owner","type":"address","internalType":"address"},{"name":"isLiquidated","type":"bool","internalType":"bool"},{"name":"isSupplyPosition","type":"bool","internalType":"bool"},{"name":"tick","type":"int256","internalType":"int256"},{"name":"tickId","type":"uint256","internalType":"uint256"},{"name":"beforeSupply","type":"uint256","internalType":"uint256"},{"name":"beforeBorrow","type":"uint256","internalType":"uint256"},{"name":"beforeDustBorrow","type":"uint256","internalType":"uint256"},{"name":"supply","type":"uint256","internalType":"uint256"},{"name":"borrow","type":"uint256","internalType":"uint256"},{"name":"dustBorrow","type":"uint256","internalType":"uint256"}]},{"name":"vaultData_","type":"tuple","internalType":"struct Structs.VaultEntireData","components":[{"name":"vault","type":"address","internalType":"address"},{"name":"isSmartCol","type":"bool","internalType":"bool"},{"name":"isSmartDebt","type":"bool","internalType":"bool"},{"name":"constantVariables","type":"tuple","internalType":"struct IFluidVault.ConstantViews","components":[{"name":"liquidity","type":"address","internalType":"address"},{"name":"factory","type":"address","internalType":"address"},{"name":"operateImplementation","type":"address","internalType":"address"},{"name":"adminImplementation","type":"address","internalType":"address"},{"name":"secondaryImplementation","type":"address","internalType":"address"},{"name":"deployer","type":"address","internalType":"address"},{"name":"supply","type":"address","internalType":"address"},{"name":"borrow","type":"address","internalType":"address"},{"name":"supplyToken","type":"tuple","internalType":"struct IFluidVault.Tokens","components":[{"name":"token0","type":"address","internalType":"address"},{"name":"token1","type":"address","internalType":"address"}]},{"name":"borrowToken","type":"tuple","internalType":"struct IFluidVault.Tokens","components":[{"name":"token0","type":"address","internalType":"address"},{"name":"token1","type":"address","internalType":"address"}]},{"name":"vaultId","type":"uint256","internalType":"uint256"},{"name":"vaultType","type":"uint256","internalType":"uint256"},{"name":"supplyExchangePriceSlot","type":"bytes32","internalType":"bytes32"},{"name":"borrowExchangePriceSlot","type":"bytes32","internalType":"bytes32"},{"name":"userSupplySlot","type":"bytes32","internalType":"bytes32"},{"name":"userBorrowSlot","type":"bytes32","internalType":"bytes32"}]},{"name":"configs","type":"tuple","internalType":"struct Structs.Configs","components":[{"name":"supplyRateMagnifier","type":"uint16","internalType":"uint16"},{"name":"borrowRateMagnifier","type":"uint16","internalType":"uint16"},{"name":"collateralFactor","type":"uint16","internalType":"uint16"},{"name":"liquidationThreshold","type":"uint16","internalType":"uint16"},{"name":"liquidationMaxLimit","type":"uint16","internalType":"uint16"},{"name":"withdrawalGap","type":"uint16","internalType":"uint16"},{"name":"liquidationPenalty","type":"uint16","internalType":"uint16"},{"name":"borrowFee","type":"uint16","internalType":"uint16"},{"name":"oracle","type":"address","internalType":"address"},{"name":"oraclePriceOperate","type":"uint256","internalType":"uint256"},{"name":"oraclePriceLiquidate","type":"uint256","internalType":"uint256"},{"name":"rebalancer","type":"address","internalType":"address"},{"name":"lastUpdateTimestamp","type":"uint256","internalType":"uint256"}]},{"name":"exchangePricesAndRates","type":"tuple","internalType":"struct Structs.ExchangePricesAndRates","components":[{"name":"lastStoredLiquiditySupplyExchangePrice","type":"uint256","internalType":"uint256"},{"name":"lastStoredLiquidityBorrowExchangePrice","type":"uint256","internalType":"uint256"},{"name":"lastStoredVaultSupplyExchangePrice","type":"uint256","internalType":"uint256"},{"name":"lastStoredVaultBorrowExchangePrice","type":"uint256","internalType":"uint256"},{"name":"liquiditySupplyExchangePrice","type":"uint256","internalType":"uint256"},{"name":"liquidityBorrowExchangePrice","type":"uint256","internalType":"uint256"},{"name":"vaultSupplyExchangePrice","type":"uint256","internalType":"uint256"},{"name":"vaultBorrowExchangePrice","type":"uint256","internalType":"uint256"},{"name":"supplyRateLiquidity","type":"uint256","internalType":"uint256"},{"name":"borrowRateLiquidity","type":"uint256","internalType":"uint256"},{"name":"supplyRateVault","type":"int256","internalType":"int256"},{"name":"borrowRateVault","type":"int256","internalType":"int256"},{"name":"rewardsOrFeeRateSupply","type":"int256","internalType":"int256"},{"name":"rewardsOrFeeRateBorrow","type":"int256","internalType":"int256"}]},{"name":"totalSupplyAndBorrow","type":"tuple","internalType":"struct Structs.TotalSupplyAndBorrow","components":[{"name":"totalSupplyVault","type":"uint256","internalType":"uint256"},{"name":"totalBorrowVault","type":"uint256","internalType":"uint256"},{"name":"totalSupplyLiquidityOrDex","type":"uint256","internalType":"uint256"},{"name":"totalBorrowLiquidityOrDex","type":"uint256","internalType":"uint256"},{"name":"absorbedSupply","type":"uint256","internalType":"uint256"},{"name":"absorbedBorrow","type":"uint256","internalType":"uint256"}]},{"name":"limitsAndAvailability","type":"tuple","internalType":"struct Structs.LimitsAndAvailability","components":[{"name":"withdrawLimit","type":"uint256","internalType":"uint256"},{"name":"withdrawableUntilLimit","type":"uint256","internalType":"uint256"},{"name":"withdrawable","type":"uint256","internalType":"uint256"},{"name":"borrowLimit","type":"uint256","internalType":"uint256"},{"name":"borrowableUntilLimit","type":"uint256","internalType":"uint256"},{"name":"borrowable","type":"uint256","internalType":"uint256"},{"name":"borrowLimitUtilization","type":"uint256","internalType":"uint256"},{"name":"minimumBorrowing","type":"uint256","internalType":"uint256"}]},{"name":"vaultState","type":"tuple","internalType":"struct Structs.VaultState","components":[{"name":"totalPositions","type":"uint256","internalType":"uint256"},{"name":"topTick","type":"int256","internalType":"int256"},{"name":"currentBranch","type":"uint256","internalType":"uint256"},{"name":"totalBranch","type":"uint256","internalType":"uint256"},{"name":"totalBorrow","type":"uint256","internalType":"uint256"},{"name":"totalSupply","type":"uint256","internalType":"uint256"},{"name":"currentBranchState","type":"tuple","internalType":"struct Structs.CurrentBranchState","components":[{"name":"status","type":"uint256","internalType":"uint256"},{"name":"minimaTick","type":"int256","internalType":"int256"},{"name":"debtFactor","type":"uint256","internalType":"uint256"},{"name":"partials","type":"uint256","internalType":"uint256"},{"name":"debtLiquidity","type":"uint256","internalType":"uint256"},{"name":"baseBranchId","type":"uint256","internalType":"uint256"},{"name":"baseBranchMinima","type":"int256","internalType":"int256"}]}]},{"name":"liquidityUserSupplyData","type":"tuple","internalType":"struct Structs.UserSupplyData","components":[{"name":"modeWithInterest","type":"bool","internalType":"bool"},{"name":"supply","type":"uint256","internalType":"uint256"},{"name":"withdrawalLimit","type":"uint256","internalType":"uint256"},{"name":"lastUpdateTimestamp","type":"uint256","internalType":"uint256"},{"name":"expandPercent","type":"uint256","internalType":"uint256"},{"name":"expandDuration","type":"uint256","internalType":"uint256"},{"name":"baseWithdrawalLimit","type":"uint256","internalType":"uint256"},{"name":"withdrawableUntilLimit","type":"uint256","internalType":"uint256"},{"name":"withdrawable","type":"uint256","internalType":"uint256"}]},{"name":"liquidityUserBorrowData","type":"tuple","internalType":"struct Structs.UserBorrowData","components":[{"name":"modeWithInterest","type":"bool","internalType":"bool"},{"name":"borrow","type":"uint256","internalType":"uint256"},{"name":"borrowLimit","type":"uint256","internalType":"uint256"},{"name":"lastUpdateTimestamp","type":"uint256","internalType":"uint256"},{"name":"expandPercent","type":"uint256","internalType":"uint256"},{"name":"expandDuration","type":"uint256","internalType":"uint256"},{"name":"baseBorrowLimit","type":"uint256","internalType":"uint256"},{"name":"maxBorrowLimit","type":"uint256","internalType":"uint256"},{"name":"borrowableUntilLimit","type":"uint256","internalType":"uint256"},{"name":"borrowable","type":"uint256","internalType":"uint256"},{"name":"borrowLimitUtilization","type":"uint256","internalType":"uint256"}]}]}],"stateMutability":"view"},{"type":"function","name":"positionsByUser","inputs":[{"name":"user_","type":"address","internalType":"address"}],"outputs":[{"name":"userPositions_","type":"tuple[]","internalType":"struct Structs.UserPosition[]","components":[{"name":"nftId","type":"uint256","internalType":"uint256"},{"name":"owner","type":"address","internalType":"address"},{"name":"isLiquidated","type":"bool","internalType":"bool"},{"name":"isSupplyPosition","type":"bool","internalType":"bool"},{"name":"tick","type":"int256","internalType":"int256"},{"name":"tickId","type":"uint256","internalType":"uint256"},{"name":"beforeSupply","type":"uint256","internalType":"uint256"},{"name":"beforeBorrow","type":"uint256","internalType":"uint256"},{"name":"beforeDustBorrow","type":"uint256","internalType":"uint256"},{"name":"supply","type":"uint256","internalType":"uint256"},{"name":"borrow","type":"uint256","internalType":"uint256"},{"name":"dustBorrow","type":"uint256","internalType":"uint256"}]},{"name":"vaultsData_","type":"tuple[]","internalType":"struct Structs.VaultEntireData[]","components":[{"name":"vault","type":"address","internalType":"address"},{"name":"isSmartCol","type":"bool","internalType":"bool"},{"name":"isSmartDebt","type":"bool","internalType":"bool"},{"name":"constantVariables","type":"tuple","internalType":"struct IFluidVault.ConstantViews","components":[{"name":"liquidity","type":"address","internalType":"address"},{"name":"factory","type":"address","internalType":"address"},{"name":"operateImplementation","type":"address","internalType":"address"},{"name":"adminImplementation","type":"address","internalType":"address"},{"name":"secondaryImplementation","type":"address","internalType":"address"},{"name":"deployer","type":"address","internalType":"address"},{"name":"supply","type":"address","internalType":"address"},{"name":"borrow","type":"address","internalType":"address"},{"name":"supplyToken","type":"tuple","internalType":"struct IFluidVault.Tokens","components":[{"name":"token0","type":"address","internalType":"address"},{"name":"token1","type":"address","internalType":"address"}]},{"name":"borrowToken","type":"tuple","internalType":"struct IFluidVault.Tokens","components":[{"name":"token0","type":"address","internalType":"address"},{"name":"token1","type":"address","internalType":"address"}]},{"name":"vaultId","type":"uint256","internalType":"uint256"},{"name":"vaultType","type":"uint256","internalType":"uint256"},{"name":"supplyExchangePriceSlot","type":"bytes32","internalType":"bytes32"},{"name":"borrowExchangePriceSlot","type":"bytes32","internalType":"bytes32"},{"name":"userSupplySlot","type":"bytes32","internalType":"bytes32"},{"name":"userBorrowSlot","type":"bytes32","internalType":"bytes32"}]},{"name":"configs","type":"tuple","internalType":"struct Structs.Configs","components":[{"name":"supplyRateMagnifier","type":"uint16","internalType":"uint16"},{"name":"borrowRateMagnifier","type":"uint16","internalType":"uint16"},{"name":"collateralFactor","type":"uint16","internalType":"uint16"},{"name":"liquidationThreshold","type":"uint16","internalType":"uint16"},{"name":"liquidationMaxLimit","type":"uint16","internalType":"uint16"},{"name":"withdrawalGap","type":"uint16","internalType":"uint16"},{"name":"liquidationPenalty","type":"uint16","internalType":"uint16"},{"name":"borrowFee","type":"uint16","internalType":"uint16"},{"name":"oracle","type":"address","internalType":"address"},{"name":"oraclePriceOperate","type":"uint256","internalType":"uint256"},{"name":"oraclePriceLiquidate","type":"uint256","internalType":"uint256"},{"name":"rebalancer","type":"address","internalType":"address"},{"name":"lastUpdateTimestamp","type":"uint256","internalType":"uint256"}]},{"name":"exchangePricesAndRates","type":"tuple","internalType":"struct Structs.ExchangePricesAndRates","components":[{"name":"lastStoredLiquiditySupplyExchangePrice","type":"uint256","internalType":"uint256"},{"name":"lastStoredLiquidityBorrowExchangePrice","type":"uint256","internalType":"uint256"},{"name":"lastStoredVaultSupplyExchangePrice","type":"uint256","internalType":"uint256"},{"name":"lastStoredVaultBorrowExchangePrice","type":"uint256","internalType":"uint256"},{"name":"liquiditySupplyExchangePrice","type":"uint256","internalType":"uint256"},{"name":"liquidityBorrowExchangePrice","type":"uint256","internalType":"uint256"},{"name":"vaultSupplyExchangePrice","type":"uint256","internalType":"uint256"},{"name":"vaultBorrowExchangePrice","type":"uint256","internalType":"uint256"},{"name":"supplyRateLiquidity","type":"uint256","internalType":"uint256"},{"name":"borrowRateLiquidity","type":"uint256","internalType":"uint256"},{"name":"supplyRateVault","type":"int256","internalType":"int256"},{"name":"borrowRateVault","type":"int256","internalType":"int256"},{"name":"rewardsOrFeeRateSupply","type":"int256","internalType":"int256"},{"name":"rewardsOrFeeRateBorrow","type":"int256","internalType":"int256"}]},{"name":"totalSupplyAndBorrow","type":"tuple","internalType":"struct Structs.TotalSupplyAndBorrow","components":[{"name":"totalSupplyVault","type":"uint256","internalType":"uint256"},{"name":"totalBorrowVault","type":"uint256","internalType":"uint256"},{"name":"totalSupplyLiquidityOrDex","type":"uint256","internalType":"uint256"},{"name":"totalBorrowLiquidityOrDex","type":"uint256","internalType":"uint256"},{"name":"absorbedSupply","type":"uint256","internalType":"uint256"},{"name":"absorbedBorrow","type":"uint256","internalType":"uint256"}]},{"name":"limitsAndAvailability","type":"tuple","internalType":"struct Structs.LimitsAndAvailability","components":[{"name":"withdrawLimit","type":"uint256","internalType":"uint256"},{"name":"withdrawableUntilLimit","type":"uint256","internalType":"uint256"},{"name":"withdrawable","type":"uint256","internalType":"uint256"},{"name":"borrowLimit","type":"uint256","internalType":"uint256"},{"name":"borrowableUntilLimit","type":"uint256","internalType":"uint256"},{"name":"borrowable","type":"uint256","internalType":"uint256"},{"name":"borrowLimitUtilization","type":"uint256","internalType":"uint256"},{"name":"minimumBorrowing","type":"uint256","internalType":"uint256"}]},{"name":"vaultState","type":"tuple","internalType":"struct Structs.VaultState","components":[{"name":"totalPositions","type":"uint256","internalType":"uint256"},{"name":"topTick","type":"int256","internalType":"int256"},{"name":"currentBranch","type":"uint256","internalType":"uint256"},{"name":"totalBranch","type":"uint256","internalType":"uint256"},{"name":"totalBorrow","type":"uint256","internalType":"uint256"},{"name":"totalSupply","type":"uint256","internalType":"uint256"},{"name":"currentBranchState","type":"tuple","internalType":"struct Structs.CurrentBranchState","components":[{"name":"status","type":"uint256","internalType":"uint256"},{"name":"minimaTick","type":"int256","internalType":"int256"},{"name":"debtFactor","type":"uint256","internalType":"uint256"},{"name":"partials","type":"uint256","internalType":"uint256"},{"name":"debtLiquidity","type":"uint256","internalType":"uint256"},{"name":"baseBranchId","type":"uint256","internalType":"uint256"},{"name":"baseBranchMinima","type":"int256","internalType":"int256"}]}]},{"name":"liquidityUserSupplyData","type":"tuple","internalType":"struct Structs.UserSupplyData","components":[{"name":"modeWithInterest","type":"bool","internalType":"bool"},{"name":"supply","type":"uint256","internalType":"uint256"},{"name":"withdrawalLimit","type":"uint256","internalType":"uint256"},{"name":"lastUpdateTimestamp","type":"uint256","internalType":"uint256"},{"name":"expandPercent","type":"uint256","internalType":"uint256"},{"name":"expandDuration","type":"uint256","internalType":"uint256"},{"name":"baseWithdrawalLimit","type":"uint256","internalType":"uint256"},{"name":"withdrawableUntilLimit","type":"uint256","internalType":"uint256"},{"name":"withdrawable","type":"uint256","internalType":"uint256"}]},{"name":"liquidityUserBorrowData","type":"tuple","internalType":"struct Structs.UserBorrowData","components":[{"name":"modeWithInterest","type":"bool","internalType":"bool"},{"name":"borrow","type":"uint256","internalType":"uint256"},{"name":"borrowLimit","type":"uint256","internalType":"uint256"},{"name":"lastUpdateTimestamp","type":"uint256","internalType":"uint256"},{"name":"expandPercent","type":"uint256","internalType":"uint256"},{"name":"expandDuration","type":"uint256","internalType":"uint256"},{"name":"baseBorrowLimit","type":"uint256","internalType":"uint256"},{"name":"maxBorrowLimit","type":"uint256","internalType":"uint256"},{"name":"borrowableUntilLimit","type":"uint256","internalType":"uint256"},{"name":"borrowable","type":"uint256","internalType":"uint256"},{"name":"borrowLimitUtilization","type":"uint256","internalType":"uint256"}]}]}],"stateMutability":"view"},{"type":"function","name":"positionsNftIdOfUser","inputs":[{"name":"user_","type":"address","internalType":"address"}],"outputs":[{"name":"nftIds_","type":"uint256[]","internalType":"uint256[]"}],"stateMutability":"view"},{"type":"function","name":"tickHelper","inputs":[{"name":"tickRaw_","type":"uint256","internalType":"uint256"}],"outputs":[{"name":"tick","type":"int256","internalType":"int256"}],"stateMutability":"pure"},{"type":"function","name":"totalPositions","inputs":[],"outputs":[{"name":"","type":"uint256","internalType":"uint256"}],"stateMutability":"view"},{"type":"function","name":"vaultByNftId","inputs":[{"name":"nftId_","type":"uint256","internalType":"uint256"}],"outputs":[{"name":"vault_","type":"address","internalType":"address"}],"stateMutability":"view"}],"bytecode":{"object":"0x60c06040523462000090576200001f620000186200017a565b90620001a1565b6200002962000096565b61a025620002478239608051818181611699015281816125dd01528181612ff4015281816139970152818161843c01528181618e5801528181618eeb01528181619000015261921b015260a051818181611a5f01528181615562015261567e015261a02590f35b6200009c565b60405190565b5f80fd5b601f801991011690565b634e487b7160e01b5f52604160045260245ffd5b90620000ca90620000a0565b810190811060018060401b03821117620000e357604052565b620000aa565b9062000100620000f862000096565b9283620000be565b565b5f80fd5b60018060a01b031690565b6200011c9062000106565b90565b6200012a8162000111565b036200013257565b5f80fd5b9050519062000145826200011f565b565b91906040838203126200017457806200016762000171925f860162000136565b9360200162000136565b90565b62000102565b6200019d6200a26c803803806200019181620000e9565b92833981019062000147565b9091565b90620001ad91620001af565b565b90620001bb91620001bd565b565b90620001c99162000228565b565b90565b620001e7620001e1620001ed9262000106565b620001cb565b62000106565b90565b620001fb90620001ce565b90565b6200020990620001f0565b90565b6200021790620001ce565b90565b62000225906200020c565b90565b90620002386200024192620001fe565b6080526200021a565b60a05256fe60806040526004361015610013575b612164565b61001d5f356102ac565b806303e883e0146102a757806309c062e2146102a2578063144128e81461029d5780631579a46c14610298578063168a11c2146102935780631949138e1461028e5780631ef8986d146102895780631f51fd93146102845780631fcd36491461027f57806320ee1e441461027a5780632404a3f9146102755780632c44e1d1146102705780632dd310001461026b5780632f2612cf14610266578063344bd72214610261578063347ca8bb1461025c57806351971bf7146102575780635486f100146102525780636463e94c1461024d5780636902f79f146102485780637955fffd146102435780637bbede431461023e578063816022b8146102395780638530330414610234578063890a13911461022f5780638a0038881461022a5780638bfbeda6146102255780638f8b81f0146102205780639d7aeeb41461021b578063a8bc069314610216578063a8d9f49314610211578063bf518f5f1461020c578063c67b509314610207578063cbc7be6514610202578063dd19c0fe146101fd578063e06a7b71146101f8578063e6bd26a2146101f3578063ea19ba11146101ee578063eb1db018146101e9578063f70b198c146101e45763fda1fa5f0361000e5761212f565b6120fa565b6120c5565b612090565b61205b565b612026565b611ff1565b611fbb565b611f86565b611ebe565b611e89565b611dc1565b611d8c565b611d57565b611cff565b611c90565b611c5b565b611bec565b611b7c565b611b46565b611ae4565b611aaf565b611a28565b6119f3565b6119be565b611988565b6117ce565b611798565b611714565b611661565b6113ee565b6112f4565b61122a565b6110fb565b6110c6565b610dfd565b610da5565b610d20565b610cea565b610b70565b610341565b60e01c90565b60405190565b5f80fd5b5f80fd5b5f80fd5b60018060a01b031690565b6102d8906102c4565b90565b6102e4816102cf565b036102eb57565b5f80fd5b905035906102fc826102db565b565b9060208282031261031757610314915f016102ef565b90565b6102bc565b90565b6103289061031c565b9052565b919061033f905f6020850194019061031f565b565b346103715761036d61035c6103573660046102fe565b61309c565b6103646102b2565b9182918261032c565b0390f35b6102b8565b61037f906102cf565b9052565b151590565b61039190610383565b9052565b906020806103b7936103ad5f8201515f860190610376565b0151910190610376565b565b6103c29061031c565b9052565b90565b6103d2906103c6565b9052565b906102206101e0610503936103f15f8201515f860190610376565b61040360208201516020860190610376565b61041560408201516040860190610376565b61042760608201516060860190610376565b61043960808201516080860190610376565b61044b60a082015160a0860190610376565b61045d60c082015160c0860190610376565b61046f60e082015160e0860190610376565b610483610100820151610100860190610395565b610497610120820151610140860190610395565b6104ab6101408201516101808601906103b9565b6104bf6101608201516101a08601906103b9565b6104d36101808201516101c08601906103c9565b6104e56101a0820151838601906103c9565b6104f96101c08201516102008601906103c9565b01519101906103c9565b565b61ffff1690565b61051590610505565b9052565b906101808061060a936105325f8201515f86019061050c565b6105446020820151602086019061050c565b6105566040820151604086019061050c565b6105686060820151606086019061050c565b61057a6080820151608086019061050c565b61058c60a082015160a086019061050c565b61059e60c082015160c086019061050c565b6105b060e082015160e086019061050c565b6105c4610100820151610100860190610376565b6105d86101208201516101208601906103b9565b6105ec6101408201516101408601906103b9565b610600610160820151610160860190610376565b01519101906103b9565b565b90565b6106189061060c565b9052565b906101a080610721936106355f8201515f8601906103b9565b610647602082015160208601906103b9565b610659604082015160408601906103b9565b61066b606082015160608601906103b9565b61067d608082015160808601906103b9565b61068f60a082015160a08601906103b9565b6106a160c082015160c08601906103b9565b6106b360e082015160e08601906103b9565b6106c76101008201516101008601906103b9565b6106db6101208201516101208601906103b9565b6106ef61014082015161014086019061060f565b61070361016082015161016086019061060f565b61071761018082015161018086019061060f565b015191019061060f565b565b9060a08061078d9361073b5f8201515f8601906103b9565b61074d602082015160208601906103b9565b61075f604082015160408601906103b9565b610771606082015160608601906103b9565b610783608082015160808601906103b9565b01519101906103b9565b565b9060e08061081d936107a75f8201515f8601906103b9565b6107b9602082015160208601906103b9565b6107cb604082015160408601906103b9565b6107dd606082015160608601906103b9565b6107ef608082015160808601906103b9565b61080160a082015160a08601906103b9565b61081360c082015160c08601906103b9565b01519101906103b9565b565b9060c08061089b936108375f8201515f8601906103b9565b6108496020820151602086019061060f565b61085b604082015160408601906103b9565b61086d606082015160608601906103b9565b61087f608082015160808601906103b9565b61089160a082015160a08601906103b9565b015191019061060f565b565b9060c080610919936108b55f8201515f8601906103b9565b6108c76020820151602086019061060f565b6108d9604082015160408601906103b9565b6108eb606082015160608601906103b9565b6108fd608082015160808601906103b9565b61090f60a082015160a08601906103b9565b015191019061081f565b565b90610100806109bc936109345f8201515f860190610388565b610946602082015160208601906103b9565b610958604082015160408601906103b9565b61096a606082015160608601906103b9565b61097c608082015160808601906103b9565b61098e60a082015160a08601906103b9565b6109a060c082015160c08601906103b9565b6109b260e082015160e08601906103b9565b01519101906103b9565b565b9061014080610a87936109d75f8201515f860190610388565b6109e9602082015160208601906103b9565b6109fb604082015160408601906103b9565b610a0d606082015160608601906103b9565b610a1f608082015160808601906103b9565b610a3160a082015160a08601906103b9565b610a4360c082015160c08601906103b9565b610a5560e082015160e08601906103b9565b610a696101008201516101008601906103b9565b610a7d6101208201516101208601906103b9565b01519101906103b9565b565b90610a80610140610b5893610aa45f8201515f860190610376565b610ab660208201516020860190610388565b610ac860408201516040860190610388565b610ada606082015160608601906103d6565b610aed60808201516102a0860190610519565b610b0060a082015161044086019061061c565b610b1360c0820151610600860190610723565b610b2660e08201516106c086019061078f565b610b3a6101008201516107c086019061089d565b610b4e61012082015161096086019061091b565b01519101906109be565b565b9190610b6e905f610be08501940190610a89565b565b34610ba057610b9c610b8b610b863660046102fe565b615375565b610b936102b2565b91829182610b5a565b0390f35b6102b8565b610bae8161031c565b03610bb557565b5f80fd5b90503590610bc682610ba5565b565b90602082820312610be157610bde915f01610bb9565b90565b6102bc565b9061016080610cc393610bff5f8201515f8601906103b9565b610c1160208201516020860190610376565b610c2360408201516040860190610388565b610c3560608201516060860190610388565b610c476080820151608086019061060f565b610c5960a082015160a08601906103b9565b610c6b60c082015160c08601906103b9565b610c7d60e082015160e08601906103b9565b610c916101008201516101008601906103b9565b610ca56101208201516101208601906103b9565b610cb96101408201516101408601906103b9565b01519101906103b9565b565b91610180610ce8929493610ce1610d608201965f830190610be6565b0190610a89565b565b34610d1b57610d02610cfd366004610bc8565b6183ce565b90610d17610d0e6102b2565b92839283610cc5565b0390f35b6102b8565b34610d5057610d4c610d3b610d363660046102fe565b613677565b610d436102b2565b9182918261032c565b0390f35b6102b8565b610d5e8161060c565b03610d6557565b5f80fd5b90503590610d7682610d55565b565b9190604083820312610da05780610d94610d9d925f86016102ef565b93602001610d69565b90565b6102bc565b34610dd657610dd2610dc1610dbb366004610d78565b90613366565b610dc96102b2565b9182918261032c565b0390f35b6102b8565b610de4906102cf565b9052565b9190610dfb905f60208501940190610ddb565b565b34610e2d57610e29610e18610e13366004610bc8565b618fe4565b610e206102b2565b91829182610de8565b0390f35b6102b8565b5f80fd5b601f801991011690565b634e487b7160e01b5f52604160045260245ffd5b90610e5e90610e36565b810190811067ffffffffffffffff821117610e7857604052565b610e40565b90610e90610e896102b2565b9283610e54565b565b67ffffffffffffffff8111610eaa5760208091020190565b610e40565b5f80fd5b90929192610ec8610ec382610e92565b610e7d565b9381855260208086019202830192818411610f0557915b838310610eec5750505050565b60208091610efa84866102ef565b815201920191610edf565b610eaf565b9080601f83011215610f2857816020610f2593359101610eb3565b90565b610e32565b90602082820312610f5d575f82013567ffffffffffffffff8111610f5857610f559201610f0a565b90565b6102c0565b6102bc565b5190565b60209181520190565b60200190565b90610a8061014061104493610f905f8201515f860190610376565b610fa260208201516020860190610388565b610fb460408201516040860190610388565b610fc6606082015160608601906103d6565b610fd960808201516102a0860190610519565b610fec60a082015161044086019061061c565b610fff60c0820151610600860190610723565b61101260e08201516106c086019061078f565b6110266101008201516107c086019061089d565b61103a61012082015161096086019061091b565b01519101906109be565b565b9061105481610be093610f75565b0190565b60200190565b9061107b61107561106e84610f62565b8093610f66565b92610f6f565b905f5b81811061108b5750505090565b9091926110a461109e6001928651611046565b94611058565b910191909161107e565b6110c39160208201915f81840391015261105e565b90565b346110f6576110f26110e16110dc366004610f2d565b618082565b6110e96102b2565b918291826110ae565b0390f35b6102b8565b3461112b576111276111166111113660046102fe565b612e2d565b61111e6102b2565b9182918261032c565b0390f35b6102b8565b9190604083820312611158578061114c611155925f86016102ef565b93602001610bb9565b90565b6102bc565b9061012080611212936111765f8201515f860190610376565b61118860208201516020860190610376565b61119a60408201516040860190610376565b6111ac60608201516060860190610376565b6111be60808201516080860190610376565b6111d060a082015160a08601906103b9565b6111e260c082015160c08601906103b9565b6111f460e082015160e08601906103b9565b6112086101008201516101008601906103b9565b0151910190610388565b565b9190611228905f610140850194019061115d565b565b3461125b57611257611246611240366004611130565b9061950a565b61124e6102b2565b91829182611214565b0390f35b6102b8565b9060c0806112dc936112785f8201515f8601906103b9565b61128a6020820151602086019061060f565b61129c604082015160408601906103b9565b6112ae606082015160608601906103b9565b6112c0608082015160808601906103b9565b6112d260a082015160a08601906103b9565b015191019061081f565b565b91906112f2905f6101a08501940190611260565b565b346113245761132061130f61130a3660046102fe565b6146cb565b6113176102b2565b918291826112de565b0390f35b6102b8565b5f91031261133357565b6102bc565b5190565b60209181520190565b60200190565b9060208061136d936113635f8201515f860190610376565b0151910190610388565b565b9061137c8160409361134b565b0190565b60200190565b906113a361139d61139684611338565b809361133c565b92611345565b905f5b8181106113b35750505090565b9091926113cc6113c6600192865161136f565b94611380565b91019190916113a6565b6113eb9160208201915f818403910152611386565b90565b3461141e576113fe366004611329565b61141a611409619fd3565b6114116102b2565b918291826113d6565b0390f35b6102b8565b67ffffffffffffffff811161143b5760208091020190565b610e40565b9092919261145561145082611423565b610e7d565b938185526020808601920283019281841161149257915b8383106114795750505050565b602080916114878486610bb9565b81520192019161146c565b610eaf565b9080601f830112156114b5578160206114b293359101611440565b90565b610e32565b919091604081840312611512575f81013567ffffffffffffffff811161150d57836114e6918301610f0a565b92602082013567ffffffffffffffff8111611508576115059201611497565b90565b6102c0565b6102c0565b6102bc565b5190565b60209181520190565b60200190565b90610120806115df936115435f8201515f860190610376565b61155560208201516020860190610376565b61156760408201516040860190610376565b61157960608201516060860190610376565b61158b60808201516080860190610376565b61159d60a082015160a08601906103b9565b6115af60c082015160c08601906103b9565b6115c160e082015160e08601906103b9565b6115d56101008201516101008601906103b9565b0151910190610388565b565b906115ef816101409361152a565b0190565b60200190565b9061161661161061160984611517565b809361151b565b92611524565b905f5b8181106116265750505090565b90919261163f61163960019286516115e1565b946115f3565b9101919091611619565b61165e9160208201915f8184039101526115f9565b90565b346116925761168e61167d6116773660046114ba565b90619c02565b6116856102b2565b91829182611649565b0390f35b6102b8565b7f000000000000000000000000000000000000000000000000000000000000000090565b90565b6116d26116cd6116d7926102c4565b6116bb565b6102c4565b90565b6116e3906116be565b90565b6116ef906116da565b90565b6116fb906116e6565b9052565b9190611712905f602085019401906116f2565b565b3461174457611724366004611329565b61174061172f611697565b6117376102b2565b918291826116ff565b0390f35b6102b8565b9190604083820312611771578061176561176e925f8601610bb9565b93602001610d69565b90565b6102bc565b61177f906103c6565b9052565b9190611796905f60208501940190611776565b565b346117c9576117c56117b46117ae366004611749565b9061223c565b6117bc6102b2565b91829182611783565b0390f35b6102b8565b346117fe576117fa6117e96117e43660046102fe565b612f33565b6117f16102b2565b9182918261032c565b0390f35b6102b8565b5190565b60209181520190565b60200190565b90610160806118f39361182f5f8201515f8601906103b9565b61184160208201516020860190610376565b61185360408201516040860190610388565b61186560608201516060860190610388565b6118776080820151608086019061060f565b61188960a082015160a08601906103b9565b61189b60c082015160c08601906103b9565b6118ad60e082015160e08601906103b9565b6118c16101008201516101008601906103b9565b6118d56101208201516101208601906103b9565b6118e96101408201516101408601906103b9565b01519101906103b9565b565b906119038161018093611816565b0190565b60200190565b9061192a61192461191d84611803565b8093611807565b92611810565b905f5b81811061193a5750505090565b90919261195361194d60019286516118f5565b94611907565b910191909161192d565b90916119776119859360408401908482035f86015261190d565b91602081840391015261105e565b90565b346119b9576119a061199b3660046102fe565b619160565b906119b56119ac6102b2565b9283928361195d565b0390f35b6102b8565b346119ee576119ea6119d96119d43660046102fe565b61380d565b6119e16102b2565b9182918261032c565b0390f35b6102b8565b34611a2357611a03366004611329565b611a1f611a0e613984565b611a166102b2565b9182918261032c565b0390f35b6102b8565b34611a5857611a54611a43611a3e3660046102fe565b613739565b611a4b6102b2565b91829182610de8565b0390f35b6102b8565b7f000000000000000000000000000000000000000000000000000000000000000090565b611a8a906116da565b90565b611a9690611a81565b9052565b9190611aad905f60208501940190611a8d565b565b34611adf57611abf366004611329565b611adb611aca611a5d565b611ad26102b2565b91829182611a9a565b0390f35b6102b8565b34611b1457611b10611aff611afa3660046102fe565b6138cf565b611b076102b2565b91829182610de8565b0390f35b6102b8565b9190604083820312611b415780611b35611b3e925f8601610bb9565b93602001610bb9565b90565b6102bc565b34611b7757611b73611b62611b5c366004611b19565b906121cf565b611b6a6102b2565b91829182611783565b0390f35b6102b8565b34611bad57611ba9611b98611b92366004611130565b90613b84565b611ba06102b2565b91829182610de8565b0390f35b6102b8565b9091606082840312611be757611be4611bcd845f85016102ef565b93611bdb8160208601610d69565b93604001610bb9565b90565b6102bc565b34611c1d57611c19611c08611c02366004611bb2565b916134ec565b611c106102b2565b9182918261032c565b0390f35b6102b8565b90602080611c4493611c3a5f8201515f860190610376565b0151910190610388565b565b9190611c59905f60408501940190611c22565b565b34611c8b57611c87611c76611c713660046102fe565b619d76565b611c7e6102b2565b91829182611c46565b0390f35b6102b8565b34611cc057611cbc611cab611ca6366004610bc8565b612fe0565b611cb36102b2565b9182918261032c565b0390f35b6102b8565b9091606082840312611cfa57611cf7611ce0845f8501610bb9565b93611cee8160208601610d69565b93604001610bb9565b90565b6102bc565b34611d3057611d2c611d1b611d15366004611cc5565b916122a9565b611d236102b2565b91829182611783565b0390f35b6102b8565b611d3e9061060c565b9052565b9190611d55905f60208501940190611d35565b565b34611d8757611d83611d72611d6d366004610bc8565b6124f3565b611d7a6102b2565b91829182611d42565b0390f35b6102b8565b34611dbc57611db8611da7611da2366004610bc8565b61218d565b611daf6102b2565b91829182611783565b0390f35b6102b8565b34611df257611dee611ddd611dd7366004610d78565b90613429565b611de56102b2565b9182918261032c565b0390f35b6102b8565b5190565b60209181520190565b60200190565b90611e1781602093610376565b0190565b60200190565b90611e3e611e38611e3184611df7565b8093611dfb565b92611e04565b905f5b818110611e4e5750505090565b909192611e67611e616001928651611e0a565b94611e1b565b9101919091611e41565b611e869160208201915f818403910152611e21565b90565b34611eb957611e99366004611329565b611eb5611ea4613af5565b611eac6102b2565b91829182611e71565b0390f35b6102b8565b34611eef57611eeb611eda611ed4366004611130565b906135b4565b611ee26102b2565b9182918261032c565b0390f35b6102b8565b5190565b60209181520190565b60200190565b90611f14816020936103b9565b0190565b60200190565b90611f3b611f35611f2e84611ef4565b8093611ef8565b92611f01565b905f5b818110611f4b5750505090565b909192611f64611f5e6001928651611f07565b94611f18565b9101919091611f3e565b611f839160208201915f818403910152611f1e565b90565b34611fb657611fb2611fa1611f9c3660046102fe565b618e45565b611fa96102b2565b91829182611f6e565b0390f35b6102b8565b34611fec57611fe8611fd7611fd1366004611130565b906132a3565b611fdf6102b2565b9182918261032c565b0390f35b6102b8565b3461202157612001366004611329565b61201d61200c619c9f565b6120146102b2565b91829182611649565b0390f35b6102b8565b3461205657612036366004611329565b612052612041618108565b6120496102b2565b918291826110ae565b0390f35b6102b8565b3461208b57612087612076612071366004610bc8565b6125cb565b61207e6102b2565b91829182610de8565b0390f35b6102b8565b346120c0576120bc6120ab6120a6366004610f2d565b619f4c565b6120b36102b2565b918291826113d6565b0390f35b6102b8565b346120f5576120f16120e06120db3660046102fe565b61313e565b6120e86102b2565b9182918261032c565b0390f35b6102b8565b3461212a576121266121156121103660046102fe565b613200565b61211d6102b2565b9182918261032c565b0390f35b6102b8565b3461215f5761213f366004611329565b61215b61214a619208565b6121526102b2565b9182918261032c565b0390f35b6102b8565b5f80fd5b5f90565b5f1b90565b61218561218061218a9261031c565b61216c565b6103c6565b90565b61219f90612199612168565b50612171565b90565b9160206121c39294936121bc60408201965f83019061031f565b019061031f565b565b60200190565b5190565b90612203906121dc612168565b506121f46121e86102b2565b938492602084016121a2565b60208201810382520382610e54565b61221561220f826121cb565b916121c5565b2090565b91602061223a92949361223360408201965f830190611d35565b019061031f565b565b9061227090612249612168565b506122616122556102b2565b93849260208401612219565b60208201810382520382610e54565b61228261227c826121cb565b916121c5565b2090565b9160206122a79294936122a060408201965f83019061031f565b0190611776565b565b6122df612319926122b8612168565b506122d06122c46102b2565b93849260208401612219565b60208201810382520382610e54565b6122f16122eb826121cb565b916121c5565b209161230a6122fe6102b2565b93849260208401612286565b60208201810382520382610e54565b61232b612325826121cb565b916121c5565b2090565b5f90565b90565b61234a61234561234f92612333565b6116bb565b61031c565b90565b61235e620fffff612336565b90565b60209181520190565b5f7f696e76616c69642d6e756d626572000000000000000000000000000000000000910152565b61239e600e602092612361565b6123a78161236a565b0190565b6123c09060208101905f818303910152612391565b90565b156123ca57565b6123d26102b2565b62461bcd60e51b8152806123e8600482016123ab565b0390fd5b90565b6124036123fe612408926123ec565b6116bb565b61031c565b90565b90565b61242261241d6124279261240b565b6116bb565b61031c565b90565b60ff1690565b61244461243f6124499261240b565b6116bb565b61242a565b90565b1c90565b61246f906124696124636124749461242a565b9161031c565b9061244c565b61031c565b90565b90565b61248e61248961249392612477565b6116bb565b61031c565b90565b6124a26207ffff61247a565b90565b6124b96124b46124be9261031c565b6116bb565b61060c565b90565b634e487b7160e01b5f52601160045260245ffd5b6124de9061060c565b600160ff1b81146124ee575f0390565b6124c1565b6124fb61232f565b5061251f8161251961251361250e612352565b61031c565b9161031c565b106123c3565b8061253261252c5f6123ef565b9161031c565b115f146125bb5780612544600161240e565b16612558612552600161240e565b9161031c565b145f1461258957612576612584916125706001612430565b90612450565b61257e612496565b166124a5565b5b905b565b6125b16125a36125b69261259d6001612430565b90612450565b6125ab612496565b166124a5565b6124d5565b612585565b50600160ff1b90612587565b5f90565b612606906125d76125c7565b506126017f00000000000000000000000000000000000000000000000000000000000000006116e6565b612aff565b90565b606090565b90565b61262561262061262a9261260e565b6116bb565b61031c565b90565b90565b61264461263f6126499261262d565b6116bb565b61031c565b90565b90565b61266361265e6126689261264c565b6116bb565b61031c565b90565b90565b61268261267d6126879261266b565b6116bb565b61031c565b90565b90565b60ff60f81b1690565b60f81b90565b6126b06126ab6126b59261268a565b612696565b61268d565b90565b90565b6126cf6126ca6126d4926126b8565b612696565b61268d565b90565b90565b6126ee6126e96126f3926126d7565b612696565b61268d565b90565b63ffffffff1690565b61271361270e6127189261031c565b6116bb565b6126f6565b90565b90565b61272a61272f9161268d565b61271b565b9052565b60601b90565b61274290612733565b90565b61274e90612739565b90565b61275d612762916102cf565b612745565b9052565b60e01b90565b61277590612766565b90565b612784612789916126f6565b61276c565b9052565b60146127d0946127c0600180966127b882876127b06127c89960049f9e9b61271e565b01809261271e565b018092612751565b01809261271e565b018092612778565b0190565b90565b6127eb6127e66127f0926127d4565b612696565b61268d565b90565b90565b61280a61280561280f926127f3565b612696565b61268d565b90565b62ffffff1690565b61282e6128296128339261031c565b6116bb565b612812565b90565b60e81b90565b61284590612836565b90565b61285461285991612812565b61283c565b9052565b60146128a0946128906001809661288882876128806128989960039f9e9b61271e565b01809261271e565b018092612751565b01809261271e565b018092612848565b0190565b90565b6128bb6128b66128c0926128a4565b612696565b61268d565b90565b90565b6128da6128d56128df926128c3565b612696565b61268d565b90565b6128f66128f16128fb9261031c565b6116bb565b610505565b90565b60f01b90565b61290d906128fe565b90565b61291c61292191610505565b612904565b9052565b6014612968946129586001809661295082876129486129609960029f9e9b61271e565b01809261271e565b018092612751565b01809261271e565b018092612910565b0190565b90565b61298361297e6129889261296c565b612696565b61268d565b90565b90565b6129a261299d6129a79261298b565b612696565b61268d565b90565b6129be6129b96129c39261031c565b6116bb565b61242a565b90565b6129cf90612696565b90565b6129de6129e39161242a565b6129c6565b9052565b6014612a2a94612a1a60018099989596612a128287612a0a612a2299839c61271e565b01809261271e565b018092612751565b01809261271e565b0180926129d2565b0190565b90565b612a45612a40612a4a92612a2e565b612696565b61268d565b90565b92612a7a6001612a8294612a728288612a6a829b9a60149961271e565b01809261271e565b018092612751565b0180926129d2565b0190565b612a9a612a95612a9f926123ec565b6116bb565b6102c4565b90565b612aab90612a86565b90565b5f1c90565b612ac7612ac2612acc9261031c565b6116bb565b61031c565b90565b612adb612ae091612aae565b612ab3565b90565b612af7612af2612afc9261031c565b6116bb565b6102c4565b90565b612b076125c7565b50612b10612609565b5081612b24612b1e5f6123ef565b9161031c565b145f14612b39575050612b365f612aa2565b90565b612bc3612bc89183612bcd94612b58612b52607f612611565b9161031c565b11155f14612bd057612baa90612b9b612b7160d6612a31565b91612b86612b7f60946126bb565b95916129aa565b90612b8f6102b2565b95869460208601612a4d565b60208201810382520382610e54565b5b612bbd612bb7826121cb565b916121c5565b20612acf565b612ae3565b6116da565b90565b80612be4612bde60ff612630565b9161031c565b11155f14612c4757612c4190612c32612bfd60d761296f565b91612c0860946126bb565b9490612c1d612c17608161298e565b916129aa565b91612c266102b2565b968795602087016129e7565b60208201810382520382610e54565b5b612bab565b80612c5c612c5661ffff61264f565b9161031c565b11155f14612cbf57612cb990612caa612c7560d86128a7565b91612c8060946126bb565b9490612c95612c8f60826128c6565b916128e2565b91612c9e6102b2565b96879560208701612925565b60208201810382520382610e54565b5b612c42565b80612cd5612ccf62ffffff61266e565b9161031c565b11155f14612d3857612d3290612d23612cee60d96127d7565b91612cf960946126bb565b9490612d0e612d0860836127f6565b9161281a565b91612d176102b2565b9687956020870161285d565b60208201810382520382610e54565b5b612cba565b612d8d90612d7e612d4960da61269c565b91612d5460946126bb565b9490612d69612d6360846126da565b916126ff565b91612d726102b2565b9687956020870161278d565b60208201810382520382610e54565b612d33565b5f90565b612d9f906116be565b90565b612dab90612d96565b90565b612db7906116da565b90565b5f80fd5b90505190612dcb82610ba5565b565b90602082820312612de657612de3915f01612dbe565b90565b6102bc565b5f0190565b612df86102b2565b3d5f823e3d90fd5b90565b612e17612e12612e1c92612e00565b6116bb565b61031c565b90565b612e2a612710612e03565b90565b90612e36612d92565b91803b612e4b612e455f6123ef565b9161031c565b14612f2457612e7c6020612e66612e6184612da2565b612dae565b63bb24fe8a90612e746102b2565b938492612766565b82528180612e8c60048201612deb565b03915afa80915f92612ef4575b50155f14612eed57506001612eab5750565b909150612ed1612ecb612ec5612ec084612f33565b6125cb565b926102cf565b916102cf565b03612ee157612ede612e1f565b90565b612eea5f6123ef565b90565b9192505090565b612f1691925060203d8111612f1d575b612f0e8183610e54565b810190612dcd565b905f612e99565b503d612f04565b509050612f305f6123ef565b90565b6020612f52612f4d612f6893612f47612d92565b50612da2565b612dae565b63540acabc90612f606102b2565b938492612766565b82528180612f7860048201612deb565b03915afa908115612fbc575f91612f8e575b5090565b612faf915060203d8111612fb5575b612fa78183610e54565b810190612dcd565b5f612f8a565b503d612f9d565b612df0565b90565b612fd8612fd3612fdd92612fc1565b6116bb565b61031c565b90565b602061305391612fee612d92565b506130187f00000000000000000000000000000000000000000000000000000000000000006116e6565b61304861303363b5c736e49361302e6003612fc4565b6121cf565b9261303c6102b2565b95869485938493612766565b835260048301611783565b03915afa908115613097575f91613069575b5090565b61308a915060203d8111613090575b6130828183610e54565b810190612dcd565b5f613065565b503d613078565b612df0565b60206130bb6130b66130f5936130b0612d92565b50612da2565b612dae565b63b5c736e4906130ea6130d56130d05f6123ef565b61218d565b926130de6102b2565b95869485938493612766565b835260048301611783565b03915afa908115613139575f9161310b575b5090565b61312c915060203d8111613132575b6131248183610e54565b810190612dcd565b5f613107565b503d61311a565b612df0565b602061315d61315861319893613152612d92565b50612da2565b612dae565b63b5c736e49061318d613178613173600161240e565b61218d565b926131816102b2565b95869485938493612766565b835260048301611783565b03915afa9081156131dc575f916131ae575b5090565b6131cf915060203d81116131d5575b6131c78183610e54565b810190612dcd565b5f6131aa565b503d6131bd565b612df0565b90565b6131f86131f36131fd926131e1565b6116bb565b61031c565b90565b602061321f61321a61325a93613214612d92565b50612da2565b612dae565b63b5c736e49061324f61323a61323560026131e4565b61218d565b926132436102b2565b95869485938493612766565b835260048301611783565b03915afa90811561329e575f91613270575b5090565b613291915060203d8111613297575b6132898183610e54565b810190612dcd565b5f61326c565b503d61327f565b612df0565b6132fe916132c36132be6020936132b8612d92565b50612da2565b612dae565b6132f36132de63b5c736e4936132d96003612fc4565b6121cf565b926132e76102b2565b95869485938493612766565b835260048301611783565b03915afa908115613342575f91613314575b5090565b613335915060203d811161333b575b61332d8183610e54565b810190612dcd565b5f613310565b503d613323565b612df0565b90565b61335e61335961336392613347565b6116bb565b61031c565b90565b6133c19161338661338160209361337b612d92565b50612da2565b612dae565b6133b66133a163b5c736e49361339c600561334a565b61223c565b926133aa6102b2565b95869485938493612766565b835260048301611783565b03915afa908115613405575f916133d7575b5090565b6133f8915060203d81116133fe575b6133f08183610e54565b810190612dcd565b5f6133d3565b503d6133e6565b612df0565b90565b61342161341c6134269261340a565b6116bb565b61031c565b90565b6134849161344961344460209361343e612d92565b50612da2565b612dae565b61347961346463b5c736e49361345f600461340d565b61223c565b9261346d6102b2565b95869485938493612766565b835260048301611783565b03915afa9081156134c8575f9161349a575b5090565b6134bb915060203d81116134c1575b6134b38183610e54565b810190612dcd565b5f613496565b503d6134a9565b612df0565b90565b6134e46134df6134e9926134cd565b6116bb565b61031c565b90565b9160209161354161352c61351361350e61354c97613508612d92565b50612da2565b612dae565b9263b5c736e49461352760069291926134d0565b6122a9565b926135356102b2565b95869485938493612766565b835260048301611783565b03915afa908115613590575f91613562575b5090565b613583915060203d8111613589575b61357b8183610e54565b810190612dcd565b5f61355e565b503d613571565b612df0565b90565b6135ac6135a76135b192613595565b6116bb565b61031c565b90565b61360f916135d46135cf6020936135c9612d92565b50612da2565b612dae565b6136046135ef63b5c736e4936135ea6007613598565b6121cf565b926135f86102b2565b95869485938493612766565b835260048301611783565b03915afa908115613653575f91613625575b5090565b613646915060203d811161364c575b61363e8183610e54565b810190612dcd565b5f613621565b503d613634565b612df0565b90565b61366f61366a61367492613658565b6116bb565b61031c565b90565b60206136966136916136d19361368b612d92565b50612da2565b612dae565b63b5c736e4906136c66136b16136ac600861365b565b61218d565b926136ba6102b2565b95869485938493612766565b835260048301611783565b03915afa908115613715575f916136e7575b5090565b613708915060203d811161370e575b6137008183610e54565b810190612dcd565b5f6136e3565b503d6136f6565b612df0565b90565b61373161372c6137369261371a565b6116bb565b61031c565b90565b60206137586137536137939361374d6125c7565b50612da2565b612dae565b63b5c736e49061378861377361376e600961371d565b61218d565b9261377c6102b2565b95869485938493612766565b835260048301611783565b03915afa9081156137e9576137b8916137b3915f916137bb575b50612ae3565b6116da565b90565b6137dc915060203d81116137e2575b6137d48183610e54565b810190612dcd565b5f6137ad565b503d6137ca565b612df0565b90565b61380561380061380a926137ee565b6116bb565b61031c565b90565b602061382c61382761386793613821612d92565b50612da2565b612dae565b63b5c736e49061385c613847613842600a6137f1565b61218d565b926138506102b2565b95869485938493612766565b835260048301611783565b03915afa9081156138ab575f9161387d575b5090565b61389e915060203d81116138a4575b6138968183610e54565b810190612dcd565b5f613879565b503d61388c565b612df0565b90565b6138c76138c26138cc926138b0565b6116bb565b61031c565b90565b60206138ee6138e9613929936138e36125c7565b50612da2565b612dae565b63b5c736e49061391e613909613904600b6138b3565b61218d565b926139126102b2565b95869485938493612766565b835260048301611783565b03915afa90811561397f5761394e91613949915f91613951575b50612ae3565b6116da565b90565b613972915060203d8111613978575b61396a8183610e54565b810190612dcd565b5f613943565b503d613960565b612df0565b61398c612d92565b506139d160206139bb7f00000000000000000000000000000000000000000000000000000000000000006116e6565b638d654023906139c96102b2565b938492612766565b825281806139e160048201612deb565b03915afa908115613a25575f916139f7575b5090565b613a18915060203d8111613a1e575b613a108183610e54565b810190612dcd565b5f6139f3565b503d613a06565b612df0565b606090565b90613a41613a3c83610e92565b610e7d565b918252565b369037565b90613a70613a5883613a2f565b92602080613a668693610e92565b9201910390613a46565b565b613a7b9061031c565b5f198114613a895760010190565b6124c1565b613a9d613aa39193929361031c565b9261031c565b8201809211613aae57565b6124c1565b634e487b7160e01b5f52603260045260245ffd5b90613ad182611df7565b811015613ae2576020809102010190565b613ab3565b90613af1906102cf565b9052565b613afd613a2a565b50613b06613984565b613b0f81613a4b565b91613b195f6123ef565b5b80613b2d613b278561031c565b9161031c565b1015613b725780613b68613b56613b51613b6d94613b4b600161240e565b90613a8e565b6125cb565b613b638791849092613ac7565b613ae7565b613a72565b613b1a565b509050565b613b8190516102cf565b90565b613ba090613b906125c7565b50613b9a81612e2d565b906140dd565b90613bad60a08301613b77565b613bc7613bc1613bbc5f612aa2565b6102cf565b916102cf565b148015613bf8575b613bea57613be260a0613be79301613b77565b612aff565b90565b5050613bf55f612aa2565b90565b5080613c0c613c065f6123ef565b9161031c565b14613bcf565b613c1d610200610e7d565b90565b5f90565b613c2e6040610e7d565b90565b613c39613c24565b9060208083613c46613c20565b815201613c51613c20565b81525050565b613c5f613c31565b90565b5f90565b5f90565b613c72613c12565b9081613c7c613c20565b8152602001613c89613c20565b8152602001613c96613c20565b8152602001613ca3613c20565b8152602001613cb0613c20565b8152602001613cbd613c20565b8152602001613cca613c20565b8152602001613cd7613c20565b8152602001613ce4613c57565b8152602001613cf1613c57565b8152602001613cfe613c62565b8152602001613d0b613c62565b8152602001613d18613c66565b8152602001613d25613c66565b8152602001613d32613c66565b8152602001613d3f613c66565b815250565b613d4c613c6a565b90565b5f80fd5b90505190613d60826102db565b565b9190604083820312613d9c57613d9590613d7c6040610e7d565b93613d89825f8301613d53565b5f860152602001613d53565b6020830152565b613d4f565b613daa816103c6565b03613db157565b5f80fd5b90505190613dc282613da1565b565b919061024083820312613f0c57613f0490613de0610200610e7d565b93613ded825f8301613d53565b5f860152613dfe8260208301613d53565b6020860152613e108260408301613d53565b6040860152613e228260608301613d53565b6060860152613e348260808301613d53565b6080860152613e468260a08301613d53565b60a0860152613e588260c08301613d53565b60c0860152613e6a8260e08301613d53565b60e0860152613e7d826101008301613d62565b610100860152613e91826101408301613d62565b610120860152613ea5826101808301612dbe565b610140860152613eb9826101a08301612dbe565b610160860152613ecd826101c08301613db5565b610180860152613ee1826101e08301613db5565b6101a0860152613ef5826102008301613db5565b6101c086015261022001613db5565b6101e0830152565b613d4f565b9061024082820312613f2b57613f28915f01613dc4565b90565b6102bc565b613f39906116be565b90565b613f4590613f30565b90565b613f51906116da565b90565b613f5d8161242a565b03613f6457565b5f80fd5b90505190613f7582613f54565b565b91906101a0838203126140835761407b90613f936101a0610e7d565b93613fa0825f8301613d53565b5f860152613fb18260208301613d53565b6020860152613fc38260408301613d53565b6040860152613fd58260608301613d53565b6060860152613fe78260808301613d53565b6080860152613ff98260a08301613d53565b60a086015261400b8260c08301613f68565b60c086015261401d8260e08301613f68565b60e0860152614030826101008301612dbe565b610100860152614044826101208301613db5565b610120860152614058826101408301613db5565b61014086015261406c826101608301613db5565b61016086015261018001613db5565b610180830152565b613d4f565b906101a0828203126140a25761409f915f01613f77565b90565b6102bc565b6140b1905161031c565b90565b906140be9061031c565b9052565b6140cc90516103c6565b90565b906140d9906103c6565b9052565b9190916140e8613d44565b926141026140fc6140f7612e1f565b61031c565b9161031c565b145f1461435457806101a061412161411c61413794613f3c565b613f48565b63b7791bf29061412f6102b2565b948592612766565b8252818061414760048201612deb565b03915afa80925f93614323575b50155f1461416e5750506001614169575b5b5b565b614165565b610180614314916141b461431e949161419361418b5f8501613b77565b5f8a01613ae7565b6141ab6141a260208501613b77565b60208a01613ae7565b60408801613ae7565b6141cc6141c360408301613b77565b60608801613ae7565b6141e46141db60608301613b77565b60808801613ae7565b6141f96141f05f612aa2565b60a08801613ae7565b6142106142075f8301613b77565b60c08801613ae7565b61422761421e5f8301613b77565b60e08801613ae7565b61424361423660808301613b77565b5f61010089015101613ae7565b61425d61424f5f612aa2565b602061010089015101613ae7565b61427961426c60a08301613b77565b5f61012089015101613ae7565b6142936142855f612aa2565b602061012089015101613ae7565b6142ad6142a361010083016140a7565b61014088016140b4565b6142c26142b8612e1f565b61016088016140b4565b6142da6142d261012083016140c2565b8388016140cf565b6142f46142ea61014083016140c2565b6101a088016140cf565b61430e61430461016083016140c2565b6101c088016140cf565b016140c2565b6101e084016140cf565b614166565b6143469193506101a03d811161434d575b61433e8183610e54565b810190614088565b915f614154565b503d614334565b61438491925061436e61436961024092612da2565b612dae565b63b7791bf29061437c6102b2565b938492612766565b8252818061439460048201612deb565b03915afa9081156143dc575f916143ad575b5090614167565b6143cf91506102403d81116143d5575b6143c78183610e54565b810190613f11565b5f6143a6565b503d6143bd565b612df0565b6143eb60e0610e7d565b90565b5f90565b6143fc60e0610e7d565b90565b6144076143f2565b90602080808080808088614419613c62565b8152016144246143ee565b81520161442f613c62565b81520161443a613c62565b815201614445613c62565b815201614450613c62565b81520161445b6143ee565b81525050565b6144696143ff565b90565b6144746143e1565b90602080808080808088614486613c62565b8152016144916143ee565b81520161449c613c62565b8152016144a7613c62565b8152016144b2613c62565b8152016144bd613c62565b8152016144c8614461565b81525050565b6144d661446c565b90565b6144ed6144e86144f2926131e1565b6116bb565b61242a565b90565b906144ff9061060c565b9052565b90565b61451a61451561451f92614503565b6116bb565b61242a565b90565b90565b61453961453461453e92614522565b6116bb565b61031c565b90565b61454e633fffffff614525565b90565b90565b61456861456361456d92614551565b6116bb565b61242a565b90565b90565b61458761458261458c92614570565b6116bb565b61242a565b90565b90565b6145a66145a16145ab9261458f565b6116bb565b61031c565b90565b6145bf67ffffffffffffffff614592565b90565b6145cc60ff612630565b90565b90565b6145e66145e16145eb926145cf565b6116bb565b61242a565b90565b90565b61460561460061460a926145ee565b6116bb565b61242a565b90565b90565b61462461461f6146299261460d565b6116bb565b61031c565b90565b61463963ffffffff614610565b90565b90565b61465361464e6146589261463c565b6116bb565b61242a565b90565b90565b61467261466d6146779261465b565b6116bb565b61031c565b90565b61468a6603ffffffffffff61465e565b90565b90565b6146a461469f6146a99261468d565b6116bb565b61242a565b90565b90565b6146c36146be6146c8926146ac565b6116bb565b61242a565b90565b9061497d6149716149636148326146e06144ce565b9561482061480f6146f08361309c565b61472161471861470a8361470460026144d9565b90612450565b614712612352565b166124f3565b60208c016144f5565b61474a614738826147326016614506565b90612450565b614740614541565b1660408c016140b4565b6147736147618261475b6034614554565b90612450565b614769614541565b1660608c016140b4565b6147b96147b061478d836147876052614573565b90612450565b6147956145ae565b166008906147aa6147a46145c2565b9261365b565b9061497f565b60a08c016140b4565b6147ff6147f66147d3836147cd60926145d2565b90612450565b6147db6145ae565b166008906147f06147ea6145c2565b9261365b565b9061497f565b60808c016140b4565b61480960d26145f1565b90612450565b61481761462c565b165f89016140b4565b61482c604088016140a7565b906135b4565b61484d816148406003612fc4565b165f60c0890151016140b4565b6148826148756148678361486160026144d9565b90612450565b61486f612352565b166124f3565b602060c0890151016144f5565b6148af61489982614893607461463f565b90612450565b6148a161467a565b16604060c0890151016140b4565b6148dc6148c6826148c06016614506565b90612450565b6148ce614541565b16606060c0890151016140b4565b6149266149196148f6836148f06034614554565b90612450565b6148fe6145ae565b1660089061491361490d6145c2565b9261365b565b9061497f565b608060c0890151016140b4565b61495361493d8261493760a6614690565b90612450565b614945614541565b1660a060c0890151016140b4565b61495d60c46146af565b90612450565b61496b612352565b166124f3565b60c080850151016144f5565b565b80929161498a612d92565b501c91161b90565b61499d610160610e7d565b90565b5f90565b6149ac613c6a565b90565b6149ba6101a0610e7d565b90565b5f90565b6020908180808080808080808080806149d86149af565b9d8e6149e26149bd565b8152016149ed6149bd565b8152016149f86149bd565b815201614a036149bd565b815201614a0e6149bd565b815201614a196149bd565b815201614a246149bd565b815201614a2f6149bd565b815201614a3a613c20565b815201614a45613c62565b815201614a50613c62565b815201614a5b613c20565b815201614a66613c62565b81525050565b614a746149c1565b90565b614a826101c0610e7d565b90565b60209081808080808080808080808080614a9d614a77565b9e8f614aa7613c62565b815201614ab2613c62565b815201614abd613c62565b815201614ac8613c62565b815201614ad3613c62565b815201614ade613c62565b815201614ae9613c62565b815201614af4613c62565b815201614aff613c62565b815201614b0a613c62565b815201614b156143ee565b815201614b206143ee565b815201614b2b6143ee565b815201614b366143ee565b81525050565b614b44614a85565b90565b614b5160c0610e7d565b90565b614b5c614b47565b906020808080808087614b6d613c62565b815201614b78613c62565b815201614b83613c62565b815201614b8e613c62565b815201614b99613c62565b815201614ba4613c62565b81525050565b614bb2614b54565b90565b614bc0610100610e7d565b90565b614bcb614bb5565b9060208080808080808089614bde613c62565b815201614be9613c62565b815201614bf4613c62565b815201614bff613c62565b815201614c0a613c62565b815201614c15613c62565b815201614c20613c62565b815201614c2b613c62565b81525050565b614c39614bc3565b90565b614c4461446c565b90565b614c52610120610e7d565b90565b614c5d614c47565b90602080808080808080808a614c716149a0565b815201614c7c613c62565b815201614c87613c62565b815201614c92613c62565b815201614c9d613c62565b815201614ca8613c62565b815201614cb3613c62565b815201614cbe613c62565b815201614cc9613c62565b81525050565b614cd7614c55565b90565b614ce5610160610e7d565b90565b614cf0614cda565b906020808080808080808080808c614d066149a0565b815201614d11613c62565b815201614d1c613c62565b815201614d27613c62565b815201614d32613c62565b815201614d3d613c62565b815201614d48613c62565b815201614d53613c62565b815201614d5e613c62565b815201614d69613c62565b815201614d74613c62565b81525050565b614d82614ce8565b90565b614d8d614992565b906020808080808080808080808c614da3613c20565b815201614dae6149a0565b815201614db96149a0565b815201614dc46149a4565b815201614dcf614a6c565b815201614dda614b3c565b815201614de5614baa565b815201614df0614c31565b815201614dfb614c3c565b815201614e06614ccf565b815201614e11614d7a565b81525050565b614e1f614d85565b90565b90614e2c90610383565b9052565b614e3a9051610383565b90565b614e4681610383565b03614e4d57565b5f80fd5b90505190614e5e82614e3d565b565b919061012083820312614f1c57614f1490614e7c610120610e7d565b93614e89825f8301614e51565b5f860152614e9a8260208301612dbe565b6020860152614eac8260408301612dbe565b6040860152614ebe8260608301612dbe565b6060860152614ed08260808301612dbe565b6080860152614ee28260a08301612dbe565b60a0860152614ef48260c08301612dbe565b60c0860152614f068260e08301612dbe565b60e086015261010001612dbe565b610100830152565b613d4f565b919060a083820312614f9157614f8a90614f3b60a0610e7d565b93614f48825f8301613d53565b5f860152614f598260208301612dbe565b6020860152614f6b8260408301612dbe565b6040860152614f7d8260608301612dbe565b6060860152608001612dbe565b6080830152565b613d4f565b919060e08382031261502a5761502390614fb060e0610e7d565b93614fbd825f8301613d53565b5f860152614fce8260208301612dbe565b6020860152614fe08260408301612dbe565b6040860152614ff28260608301612dbe565b60608601526150048260808301612dbe565b60808601526150168260a08301612dbe565b60a086015260c001612dbe565b60c0830152565b613d4f565b91906101a08382031261507c576150759061504a6060610e7d565b93615057825f8301612dbe565b5f8601526150688260208301614f21565b602086015260c001614f96565b6040830152565b613d4f565b91906103a0838203126151dd576151d59061509d610220610e7d565b936150aa825f8301612dbe565b5f8601526150bb8260208301612dbe565b60208601526150cd8260408301612dbe565b60408601526150df8260608301612dbe565b60608601526150f18260808301612dbe565b60808601526151038260a08301612dbe565b60a08601526151158260c08301612dbe565b60c08601526151278260e08301612dbe565b60e086015261513a826101008301612dbe565b61010086015261514e826101208301612dbe565b610120860152615162826101408301612dbe565b610140860152615176826101608301612dbe565b61016086015261518a826101808301612dbe565b61018086015261519e826101a08301612dbe565b6101a08601526151b2826101c08301612dbe565b6101c08601526151c6826101e08301612dbe565b6101e08601526102000161502f565b610200830152565b613d4f565b91906104c08382031261520c57806151ff615209925f8601614e60565b9361012001615081565b90565b6102bc565b91602061523292949361522b60408201965f830190610ddb565b0190610ddb565b565b9190610160838203126153185761531090615250610160610e7d565b9361525d825f8301614e51565b5f86015261526e8260208301612dbe565b60208601526152808260408301612dbe565b60408601526152928260608301612dbe565b60608601526152a48260808301612dbe565b60808601526152b68260a08301612dbe565b60a08601526152c88260c08301612dbe565b60c08601526152da8260e08301612dbe565b60e08601526152ed826101008301612dbe565b610100860152615301826101208301612dbe565b61012086015261014001612dbe565b610140830152565b613d4f565b919061050083820312615347578061533a615344925f8601615234565b9361016001615081565b90565b6102bc565b6153569051610505565b90565b61536d61536861537292610505565b6116bb565b61031c565b90565b9061537e614e17565b9161538b815f8501613ae7565b61539481612e2d565b90816153a86153a25f6123ef565b9161031c565b036153b2575b5050565b6153bd8183906140dd565b60608501526153ff6153da60206101006060880151015101613b77565b6153f46153ee6153e95f612aa2565b6102cf565b916102cf565b141560208601614e22565b61543c61541760206101206060880151015101613b77565b61543161542b6154265f612aa2565b6102cf565b916102cf565b141560408601614e22565b615444612d92565b61544c612d92565b615454612d92565b61545c612d92565b94615465612d92565b61547a61547460208b01614e30565b15610383565b615677575b61549461548e60408b01614e30565b15610383565b615558575b615532949392916154d89161554b986154c48c6154be61016060608d930151016140a7565b90615933565b60808d0152889260808d0151919293616081565b60a08901526154f18560a08a015160608b015191616667565b60c089015260a08801519060608901519261551260a060808c01510161534c565b949091926101208b01519461552c6101408d015197615359565b91616e23565b9060e087019161012088019061014089015252526146cb565b6101008301525f806153ae565b50925050506155867f0000000000000000000000000000000000000000000000000000000000000000611a81565b9061050063967915d69284906155c16155a95f61012060608d0151015101613b77565b956155cc6155b56102b2565b97889586948594612766565b845260048401615211565b03915afa9182156156725761554b94615532935f80939091615636575b506156005f6154d89294856101408d0152016140a7565b9361560d604085016140a7565b9461562861010061562161014088016140a7565b96016140a7565b949596509150919650615499565b5f93506154d89150615662615600916105003d811161566b575b61565a8183610e54565b81019061531d565b945091506155e9565b503d615650565b612df0565b95506156a27f0000000000000000000000000000000000000000000000000000000000000000611a81565b6104c08963e72ef91b926156dc6156c45f61010060608d960151015101613b77565b946156e76156d06102b2565b96879586948594612766565b845260048401615211565b03915afa80156157475761570f916020915f80929091615715575b506101208c0152016140a7565b9561547f565b905061573991506104c03d8111615740575b6157318183610e54565b8101906151e2565b905f615702565b503d615727565b612df0565b6157546149c1565b90565b61576261ffff61264f565b90565b9061576f90610505565b9052565b90565b61578a61578561578f92615773565b6116bb565b61242a565b90565b90565b6157a96157a46157ae92615792565b6116bb565b61242a565b90565b90565b6157c86157c36157cd926157b1565b6116bb565b61031c565b90565b6157db6103ff6157b4565b90565b6157f26157ed6157f7926137ee565b6116bb565b610505565b90565b61580661580c91610505565b91610505565b029061581782610505565b91820361582057565b6124c1565b90565b61583c61583761584192615825565b6116bb565b61242a565b90565b90565b61585b61585661586092615844565b6116bb565b61242a565b90565b90565b61587a61587561587f92615863565b6116bb565b61242a565b90565b90565b61589961589461589e92615882565b6116bb565b61242a565b90565b90565b6158b86158b36158bd926158a1565b6116bb565b61242a565b90565b90565b6158d76158d26158dc926158c0565b6116bb565b61031c565b90565b6158ed6401ffffffff6158c3565b90565b90565b61590761590261590c926158f0565b6116bb565b61242a565b90565b615918906116be565b90565b6159249061590f565b90565b615930906116da565b90565b91909161593e61574c565b926159488261313e565b9061596661595e83615958615757565b166128e2565b5f8701615765565b61599761598e6159808461597a6010615776565b90612450565b615988615757565b166128e2565b60208701615765565b6159db6159d26159c26159b4856159ae6020615795565b90612450565b6159bc6157d0565b166128e2565b6159cc600a6157de565b906157fa565b60408701615765565b615a1f615a16615a066159f8856159f2602a615828565b90612450565b615a006157d0565b166128e2565b615a10600a6157de565b906157fa565b60608701615765565b615a63615a5a615a4a615a3c85615a366034614554565b90612450565b615a446157d0565b166128e2565b615a54600a6157de565b906157fa565b60808701615765565b615aa7615a9e615a8e615a8085615a7a603e615847565b90612450565b615a886157d0565b166128e2565b615a98600a6157de565b906157fa565b60a08701615765565b615ad8615acf615ac184615abb6048615866565b90612450565b615ac96157d0565b166128e2565b60c08701615765565b615b09615b00615af284615aec6052614573565b90612450565b615afa6157d0565b166128e2565b60e08701615765565b615b22615b1c615b17612e1f565b61031c565b9161031c565b145f14615dc257615b50615b4b615b46615b5a93615b4060606158f3565b90612450565b612ae3565b6116da565b6101008501613ae7565b5b615b686101008401613b77565b615b82615b7c615b775f612aa2565b6102cf565b916102cf565b03615ba0575b615b94615b9e91613739565b6101608401613ae7565b565b615bd86020615bc2615bbd615bb86101008801613b77565b61591b565b615927565b638e7bfbc090615bd06102b2565b938492612766565b82528180615be860048201612deb565b03915afa80915f92615d92575b50155f14615cdb57506001615c15575b615b94615b9e915b915050615b88565b615c4e906020615c38615c33615c2e6101008801613b77565b61591b565b615927565b63e6aa216c90615c466102b2565b948592612766565b82528180615c5e60048201612deb565b03915afa908115615cd657615c86615b9492615b9e945f91615ca8575b5061012087016140b4565b615ca0615c9661012087016140a7565b61014087016140b4565b915050615c05565b615cc9915060203d8111615ccf575b615cc18183610e54565b810190612dcd565b5f615c7b565b503d615cb7565b612df0565b90615ced615d229261012086016140b4565b6020615d0c615d07615d026101008801613b77565b61591b565b615927565b63f3190c8990615d1a6102b2565b948592612766565b82528180615d3260048201612deb565b03915afa908115615d8d57615d5a615b9492615b9e945f91615d5f575b5061014087016140b4565b615c0d565b615d80915060203d8111615d86575b615d788183610e54565b810190612dcd565b5f615d4f565b503d615d6e565b612df0565b615db491925060203d8111615dbb575b615dac8183610e54565b810190612dcd565b905f615bf5565b503d615da2565b615e1081615ddd615e2393615dd7605c615885565b90612450565b615de5614541565b1680615df9615df35f6123ef565b9161031c565b11615e28575b50615e0a607a6158a4565b90612450565b615e186158df565b1661018085016140b4565b615b5b565b615e35615e3f9186613b84565b6101008801613ae7565b5f615dff565b615e4d614a85565b90565b90565b615e67615e62615e6c92615e50565b6116bb565b61242a565b90565b90565b615e86615e81615e8b92615e6f565b6116bb565b61242a565b90565b90565b615ea5615ea0615eaa92615e8e565b6116bb565b61242a565b90565b608081830312615eee57615ec3825f8301612dbe565b92615eeb615ed48460208501612dbe565b93615ee28160408601612dbe565b93606001612dbe565b90565b6102bc565b90565b615f0a615f05615f0f92615ef3565b6116bb565b61031c565b90565b615f1d614e20615ef6565b90565b90565b615f37615f32615f3c92615f20565b6116bb565b61031c565b90565b615f4a619c40615f23565b90565b90615f58910261031c565b90565b634e487b7160e01b5f52601260045260245ffd5b615f7b615f819161031c565b9161031c565b908115615f8c570490565b615f5b565b615fa5615fa0615faa92612e00565b6116bb565b61060c565b90565b90615fb8910361060c565b90565b615fda90615fd4615fce615fdf9461242a565b91610505565b9061244c565b610505565b90565b90565b615ff9615ff4615ffe92615fe2565b6116bb565b61031c565b90565b61600c617fff615fe5565b90565b61602361601e6160289261240b565b6116bb565b610505565b90565b61603f61603a616044926123ec565b6116bb565b610505565b90565b616051905161060c565b90565b90565b61606b61606661607092616054565b6116bb565b61031c565b90565b61607e617530616057565b90565b9493919261616f6080616092615e45565b9761612d61611b6160a283613677565b6160b88c5f836160b06145ae565b1691016140b4565b6160e28c60206160d2846160cc6040615e53565b90612450565b6160da6145ae565b1691016140b4565b61610b8c60406160fb846160f58a615e72565b90612450565b6161036145ae565b1691016140b4565b61611560c0615e91565b90612450565b6161236145ae565b1660608b016140b4565b61613e61613982612da2565b612dae565b61616461614f6309f0d8cb9361313e565b926161586102b2565b95869485938493612766565b83526004830161032c565b03915afa908115616526576161c1915f8080809190936164f0575b6161bb929394506161b58c60808101966161af60a083019560e060c0850194016140b4565b906140b4565b906140b4565b906140b4565b6161cf8161010088016140b4565b6161dd8361012088016140b4565b816161f76161f16161ec615f12565b61031c565b9161031c565b1480156164cf575b5f14616448575061624b61624161622a61621a5f870161534c565b6162246001612430565b90615fbb565b61623b616235616001565b91615359565b166124a5565b61014087016144f5565b6162565f840161534c565b616260600161600f565b1661627361626d5f61602b565b91610505565b14616421575b6162936162896101408701616047565b61018087016144f5565b5b806162ae6162a86162a3616073565b61031c565b9161031c565b149081156163ff575b505f14616377575060208161630a6163006162e96162d985616310970161534c565b6162e36001612430565b90615fbb565b6162fa6162f4616001565b91615359565b166124a5565b61016087016144f5565b0161534c565b61631a600161600f565b1661632d6163275f61602b565b91610505565b14616350575b61634d6163436101608401616047565b6101a084016144f5565b5b565b6163726163686163636101608501616047565b6124d5565b61016084016144f5565b616333565b6163df6163da6163d560206163fa956163cf6163c56163c06163af6163f0996163a96163a488880161534c565b615359565b90615f4d565b6163ba612710612e03565b90615f6f565b6124a5565b6101608b016144f5565b0161534c565b615359565b6124a5565b6163ea612710615f91565b90615fad565b6101a084016144f5565b61634e565b905061641a61641461640f615f3f565b61031c565b9161031c565b145f6162b7565b6164436164396164346101408801616047565b6124d5565b61014087016144f5565b616279565b61648461647f61646e61648e936164686164635f8a0161534c565b615359565b90615f4d565b616479612710612e03565b90615f6f565b6124a5565b61014087016144f5565b6164ca6164c06164af6164aa6164a55f880161534c565b615359565b6124a5565b6164ba612710615f91565b90615fad565b61018087016144f5565b616294565b50816164ea6164e46164df615f3f565b61031c565b9161031c565b146161ff565b505050506165176161bb9160803d811161651f575b61650f8183610e54565b810190615ead565b90929161618a565b503d616505565b612df0565b616533614b54565b90565b61653f906116be565b90565b61654b90616536565b90565b616557906116da565b90565b616564600161240e565b90565b6165869061658061657a61658b9461031c565b9161031c565b9061244c565b61031c565b90565b616598600161240e565b90565b6165af6165aa6165b492613658565b6116bb565b61242a565b90565b1b90565b6165da906165d46165ce6165df9461031c565b9161031c565b906165b7565b61031c565b90565b6165ec600161240e565b90565b6165f9600161240e565b90565b90565b61661361660e616618926165fc565b6116bb565b61031c565b90565b6166346fffffffffffffffffffffffffffffffff6165ff565b90565b90565b61664e61664961665392616637565b6116bb565b61031c565b90565b61666464e8d4a5100061663a565b90565b92919261667261652b565b9361668561667f8361309c565b92613200565b926166dd60206166a76166a261669d60c08701613b77565b616542565b61654e565b63b5c736e4906166d26166bd6101c088016140c2565b926166c66102b2565b95869485938493612766565b835260048301611783565b03915afa8015616b8b57616765915f91616b5d575b50616704602061010086015101613b77565b61671e6167186167135f612aa2565b6102cf565b916102cf565b145f14616b3d576167379061673161658e565b90616567565b61673f6145ae565b165b6167558161674f600861659b565b90612450565b9061675e6145c2565b16906165bb565b6167bc602061678661678161677c60e08801613b77565b616542565b61654e565b63b5c736e4906167b161679c6101e089016140c2565b926167a56102b2565b95869485938493612766565b835260048301611783565b03915afa958615616b3857616951616ae096616948616980956168f78d60206168e7616868616ae99f9d616807616ad29f61012086916169779f5f91616b0b575b5093015101613b77565b61682161681b6168165f612aa2565b6102cf565b916102cf565b145f14616aeb5761683a906168346165ef565b90616567565b6168426145ae565b165b61685881616852600861659b565b90612450565b906168616145c2565b16906165bb565b966168916168808261687a6052614573565b90612450565b6168886145ae565b165f86016140b4565b6168d76168cf6168b56168a55f88016140a7565b6168af600861659b565b90612450565b6168c05f88016140a7565b6168c86145c2565b16906165bb565b5f86016140b4565b6168e160926145d2565b90612450565b6168ef6145ae565b1691016140b4565b61693f8d602061693861691e61690e8385016140a7565b616918600861659b565b90612450565b6169298385016140a7565b6169316145c2565b16906165bb565b91016140b4565b60408d016140b4565b60608b016140b4565b6169678161695d61661b565b1660a08b016140b4565b6169716080615e72565b90612450565b608088016140b4565b6169bc6169b46169a66169945f8a016140a7565b6169a060c086016140a7565b90615f4d565b6169ae616656565b90615f6f565b5f88016140b4565b6169fa6169f16169e36169d160208a016140a7565b6169dd60e086016140a7565b90615f4d565b6169eb616656565b90615f6f565b602088016140b4565b616a38616a2f616a21616a0f60408a016140a7565b616a1b608086016140a7565b90615f4d565b616a29616656565b90615f6f565b604088016140b4565b616a76616a6d616a5f616a4d60608a016140a7565b616a5960a086016140a7565b90615f4d565b616a67616656565b90615f6f565b606088016140b4565b616ab4616aab616a9d616a8b60808a016140a7565b616a9760c086016140a7565b90615f4d565b616aa5616656565b90615f6f565b608088016140b4565b616acc60e0616ac560a089016140a7565b92016140a7565b90615f4d565b616ada616656565b90615f6f565b60a084016140b4565b565b616afd90616af76165e2565b90616567565b616b056145ae565b16616844565b616b2b9150833d8111616b31575b616b238183610e54565b810190612dcd565b5f6167fd565b503d616b19565b612df0565b616b4f90616b4961655a565b90616567565b616b576145ae565b16616741565b616b7e915060203d8111616b84575b616b768183610e54565b810190612dcd565b5f6166f2565b503d616b6c565b612df0565b616b98614bc3565b90565b616ba3614c55565b90565b616bae614ce8565b90565b616bc5616bc0616bca9261298b565b6116bb565b61031c565b90565b616bd76081616bb1565b90565b90565b616bf1616bec616bf692616bda565b6116bb565b61031c565b90565b616c0360a2616bdd565b90565b90565b616c1d616c18616c2292616c06565b6116bb565b61031c565b90565b616c30613fff616c09565b90565b90565b616c4a616c45616c4f92616c33565b6116bb565b61031c565b90565b616c5c60b0616c36565b90565b616c6b62ffffff61266e565b90565b616c7d616c839193929361031c565b9261031c565b91616c8f83820261031c565b928184041490151715616c9e57565b6124c1565b616caf616cb59161031c565b9161031c565b908115616cc0570490565b615f5b565b90616cd0910361031c565b90565b90565b616cea616ce5616cef92616cd3565b6116bb565b61031c565b90565b616cfc60c8616cd6565b90565b90565b616d16616d11616d1b92616cff565b6116bb565b61031c565b90565b616d2a6203ffff616d02565b90565b90565b616d44616d3f616d4992616d2d565b6116bb565b61031c565b90565b90565b616d63616d5e616d6892616d4c565b6116bb565b61031c565b90565b73eeeeeeeeeeeeeeeeeeeeeeeeeeeeeeeeeeeeeeee90565b616d8c906116be565b90565b616d9890616d83565b90565b616da4906116da565b90565b616db16081616bb1565b90565b616dbe60a2616bdd565b90565b616dcb60b0616c36565b90565b616dd860c8616cd6565b90565b616def616dea616df49261268a565b6116bb565b61031c565b90565b616e0160da616ddb565b90565b90565b616e1b616e16616e2092616e04565b6116bb565b61031c565b90565b92939795969794909194616e35616b90565b95616e3e616b9b565b50616e47616ba6565b50616e9f6020616e69616e64616e5f60c08901613b77565b616542565b61654e565b63b5c736e490616e94616e7f6101c08a016140c2565b92616e886102b2565b95869485938493612766565b835260048301611783565b03915afa9081156179a6575f91617978575b5080616ec5616ebf5f6123ef565b9161031c565b11617434575b5050616f246020616eee616ee9616ee460e08801613b77565b616542565b61654e565b63b5c736e490616f19616f046101e089016140c2565b92616f0d6102b2565b95869485938493612766565b835260048301611783565b03915afa90811561742f575f91617401575b509485616f4b616f455f6123ef565b9161031c565b11616f9d575b50505050616f959150616f7e616f8c91616f79616f7360e061271193016140a7565b91616e07565b616c6e565b616f86616656565b90616ca3565b60e083016140b4565b919291929190565b616fae602061012086015101613b77565b616fc8616fc2616fbd5f612aa2565b6102cf565b916102cf565b145f14617175576170249394955091616ff761700992616fee61701b9560608b016140b4565b60c089016140b4565b617003620f423f616d30565b90615f4d565b617015620f4240616d4f565b90615f6f565b608085016140b4565b61702c612d92565b5061703d5f61012083015101613b77565b61705661705061704b616d6b565b6102cf565b916102cf565b145f146170c557616f7e616f95926170725f616f8c9401613b77565b315b8061709261708c61708760808a016140a7565b61031c565b9161031c565b115f146170bc57506170b36170a9608087016140a7565b5b60a087016140b4565b5b915f80616f51565b6170b3906170aa565b6020816170eb6170e66170e15f61012061711e97015101613b77565b616d8f565b616d9b565b6171136170fe5f6370a082319401613b77565b926171076102b2565b95869485938493612766565b835260048301610de8565b03915afa90811561717057616f9592616f8c92616f7e925f91617142575b50617074565b617163915060203d8111617169575b61715b8183610e54565b810190612dcd565b5f61713c565b503d617151565b612df0565b50505050616f7e616f8c916173e76173de6173bb866172a38c60208b6171f860606171db6171ae616f959f6171a86165e2565b90616567565b6171b66145ae565b166171cb816171c5600861659b565b90612450565b906171d46145c2565b16906165bb565b926171f26171ea898690617bdf565b8383016140b4565b016140a7565b61720a6172048361031c565b9161031c565b115f146173ec576172358d608061722d617226606084016140a7565b8590616cc5565b915b016140b4565b6172778d608061727061725e61724c8385016140a7565b617258620f423f616d30565b90615f4d565b61726a620f4240616d4f565b90615f6f565b91016140b4565b6172908d60a0617289608083016140a7565b91016140b4565b61729c5f808501614e22565b91016140b4565b6172bc8c60406172b560608d016140a7565b91016140b4565b6172d68c6101006172cf60808d016140a7565b91016140b4565b6172f08c6101206172e960a08d016140a7565b91016140b4565b6173188c606061730884617302616da7565b90616567565b6173106158df565b1691016140b4565b6173408c60806173308461732a616db4565b90616567565b617338616c25565b1691016140b4565b6173688c60a061735884617352616dc1565b90616567565b617360616c5f565b1691016140b4565b6173ad8c60c06173a66173838561737d616dce565b90616567565b61738b616d1e565b166008906173a061739a6145c2565b9261365b565b9061497f565b91016140b4565b6173b5616df7565b90616567565b6173c3616d1e565b166008906173d86173d26145c2565b9261365b565b9061497f565b60e08a016140b4565b6170b4565b6172358d60806173fb5f6123ef565b9161722f565b617422915060203d8111617428575b61741a8183610e54565b810190612dcd565b5f616f36565b503d617410565b612df0565b61743c612d92565b50617445612d92565b5061745260c08601613b77565b61746e6174686174635f8901613b77565b6102cf565b916102cf565b145f1461788c576174b761748a8261748461658e565b90616567565b6174926145ae565b166174a7816174a1600861659b565b90612450565b906174b06145c2565b16906165bb565b9061751e6175166175086174f46174e68b6174e060806174d8898b90617e60565b9992016140a7565b90616c6e565b6174ee616656565b90616ca3565b945b61750260808c016140a7565b90615f4d565b617510616656565b90615f6f565b5f8b016140b4565b8161753b6175356175305f8d016140a7565b61031c565b9161031c565b115f1461787b5761756461755a836175545f8d016140a7565b90616cc5565b5b60208b016140b4565b888b61757760206101008a015101613b77565b61759161758b6175865f612aa2565b6102cf565b916102cf565b036177e6575b506175a491505f016140a7565b6175b66175b05f6123ef565b9161031c565b145f146177c35750506175c85f6123ef565b5b6175d5602088016140a7565b6175e76175e18361031c565b9161031c565b115f146177b15761763061761e61760c61763a9361760760208c016140a7565b616cc5565b617618620f423f616d30565b90615f4d565b61762a620f4240616d4f565b90615f6f565b5b602088016140b4565b617652617649602088016140a7565b604088016140b4565b617663602061010085015101613b77565b61767d6176776176725f612aa2565b6102cf565b916102cf565b1461768a575b5f80616ecb565b617692612d92565b506176a35f61010085015101613b77565b6176bc6176b66176b1616d6b565b6102cf565b916102cf565b145f1461770d576176ce5f8401613b77565b315b806176ee6176e86176e360208b016140a7565b61031c565b9161031c565b106176fa575b50617683565b61770790604088016140b4565b5f6176f4565b617766602061773261772d6177285f61010089015101613b77565b616d8f565b616d9b565b6370a082319061775b6177465f8901613b77565b9261774f6102b2565b95869485938493612766565b835260048301610de8565b03915afa9081156177ac575f9161777e575b506176d0565b61779f915060203d81116177a5575b6177978183610e54565b810190612dcd565b5f617778565b503d61778d565b612df0565b5061763a6177be5f6123ef565b617631565b6177e1916177d091615f4d565b6177db612710612e03565b90615f6f565b6175c9565b617842926178086178169260406178015f61783997016140a7565b91016140b4565b617810616cf2565b90616567565b61781e616d1e565b1660089061783361782d6145c2565b9261365b565b9061497f565b60c08c016140b4565b61785a61785160208a016140a7565b60e08c016140b4565b61787361786960208a016140a7565b6101008c016140b4565b5f888b617597565b6175646178875f6123ef565b61755b565b6178ce6178a18261789b61655a565b90616567565b6178a96145ae565b166178be816178b8600861659b565b90612450565b906178c76145c2565b16906165bb565b9061751e6175166175088d6179736178e7868890617a41565b916178f45f808301614e22565b61790188602083016140b4565b61792861791688617910616bcd565b90616567565b61791e6158df565b16606083016140b4565b61794f61793d88617937616bf9565b90616567565b617945616c25565b16608083016140b4565b60a06179638861795d616c52565b90616567565b61796b616c5f565b1691016140b4565b6174f6565b617999915060203d811161799f575b6179918183610e54565b810190612dcd565b5f616eb1565b503d617987565b612df0565b90565b6179c26179bd6179c7926179ab565b6116bb565b61031c565b90565b6179d460416179ae565b90565b6179e867ffffffffffffffff614592565b90565b6179f5600861365b565b90565b617a0260ff612630565b90565b617a10613fff616c09565b90565b617a1e612710612e03565b90565b617a2f6401ffffffff6158c3565b90565b617a3e62ffffff61266e565b90565b919091617a4c612d92565b50617a8d617a6282617a5c6179ca565b90616567565b617a6a6179d7565b16617a7d81617a776179eb565b90616567565b90617a866179f8565b16906165bb565b80617aa0617a9a5f6123ef565b9161031c565b14617ba55790617b6f91617ab2612d92565b50617abb612d92565b50617b45617af5617ae7617ad785617ad1616bf9565b90616567565b617adf617a05565b168890615f4d565b617aef617a13565b90615f6f565b92617b36617b27617b2142617b1285617b0c616bcd565b90616567565b617b1a617a21565b1690616cc5565b86616c6e565b91617b30616c52565b90616567565b617b3e617a32565b1690616ca3565b81617b58617b528361031c565b9161031c565b115f14617b9557617b6891616cc5565b5b93616cc5565b80617b82617b7c8561031c565b9161031c565b11617b8b575b50565b909150905f617b88565b5050617ba05f6123ef565b617b69565b50509050617bb25f6123ef565b90565b90617bc0910161031c565b90565b617bcf6203ffff616d02565b90565b617bdc60416179ae565b90565b919091617bea612d92565b50617c3d617c35617c27617c0684617c00616db4565b90616567565b617c0e617a05565b16617c17612d92565b50617c20612d92565b5086615f4d565b617c2f617a13565b90615f6f565b938490617bb5565b92617c7e617c5383617c4d616dce565b90616567565b617c5b617bc3565b16617c6e81617c686179eb565b90616567565b90617c776179f8565b16906165bb565b84617c91617c8b8361031c565b9161031c565b10617dba5750617ced617ccc617d2792617cc642617cb787617cb1616da7565b90616567565b617cbf617a21565b1690616cc5565b90616c6e565b617cde84617cd8616dc1565b90616567565b617ce6617a32565b1690616ca3565b617d21617d0284617cfc617bd2565b90616567565b617d0a6179d7565b16617d136179eb565b617d1b6179f8565b9161497f565b90613a8e565b9283617d3b617d358361031c565b9161031c565b11617da8575b50617d57617d8291617d51616df7565b90616567565b617d5f617bc3565b16617d7281617d6c6179eb565b90616567565b90617d7b6179f8565b16906165bb565b82617d95617d8f8361031c565b9161031c565b11617d9e575b50565b909150905f617d9b565b617d82919350617d5790939150617d41565b929350505090565b617dcc60416179ae565b90565b617de067ffffffffffffffff614592565b90565b617ded600861365b565b90565b617dfa60ff612630565b90565b617e0760a2616bdd565b90565b617e15613fff616c09565b90565b617e23612710612e03565b90565b617e306081616bb1565b90565b617e416401ffffffff6158c3565b90565b617e4e60b0616c36565b90565b617e5d62ffffff61266e565b90565b919091617e6b612d92565b50617eac617e8182617e7b617dc2565b90616567565b617e89617dcf565b16617e9c81617e96617de3565b90616567565b90617ea5617df0565b16906165bb565b80617ebf617eb95f6123ef565b9161031c565b14617fc45790617f8e91617ed1612d92565b50617eda612d92565b50617f64617f14617f06617ef685617ef0617dfd565b90616567565b617efe617e0a565b168890615f4d565b617f0e617e18565b90615f6f565b92617f55617f46617f4042617f3185617f2b617e26565b90616567565b617f39617e33565b1690616cc5565b86616c6e565b91617f4f617e44565b90616567565b617f5d617e51565b1690616ca3565b81617f77617f718361031c565b9161031c565b115f14617fb457617f8791616cc5565b5b93616cc5565b80617fa1617f9b8561031c565b9161031c565b11617faa575b50565b909150905f617fa7565b5050617fbf5f6123ef565b617f88565b50509050617fd15f6123ef565b90565b606090565b67ffffffffffffffff8111617ff15760208091020190565b610e40565b9061800861800383617fd9565b610e7d565b918252565b618015614d85565b90565b5f5b82811061802657505050565b60209061803161800d565b818401520161801a565b9061806061804883617ff6565b926020806180568693617fd9565b9201910390618018565b565b9061806c82610f62565b81101561807d576020809102010190565b613ab3565b61808a617fd4565b5061809481611df7565b9061809e8261803b565b926180a7612d92565b5b806180bb6180b58661031c565b9161031c565b1015618102576180fd906180f66180e36180de6180d9878590613ac7565b613b77565b615375565b8783916180f08383618062565b52618062565b5150613a72565b6180a8565b50915050565b618110617fd4565b50618119613af5565b61812281611df7565b9061812c8261803b565b92618135612d92565b5b806181496181438661031c565b9161031c565b10156181905761818b9061818461817161816c618167878590613ac7565b613b77565b615375565b87839161817e8383618062565b52618062565b5150613a72565b618136565b50915050565b6181a1610180610e7d565b90565b6181ac618196565b90602080808080808080808080808d6181c3613c62565b8152016181ce613c20565b8152016181d96149a0565b8152016181e46149a0565b8152016181ef6143ee565b8152016181fa613c62565b815201618205613c62565b815201618210613c62565b81520161821b613c62565b815201618226613c62565b815201618231613c62565b81520161823c613c62565b81525050565b61824a6181a4565b90565b9060208282031261826657618263915f01613d53565b90565b6102bc565b90565b61828261827d6182879261826b565b6116bb565b61242a565b90565b90565b6182a161829c6182a69261828a565b6116bb565b61242a565b90565b90565b6182c06182bb6182c5926182a9565b6116bb565b61242a565b90565b60020b90565b6182e26182dd6182e79261060c565b6116bb565b6182c8565b90565b6182fe6182f9618303926182c8565b6116bb565b61060c565b90565b61831561831b9193929361031c565b9261031c565b820391821161832657565b6124c1565b9050519061833882610d55565b565b919060a08382031261838b57618352815f850161832b565b926183608260208301612dbe565b926183886183718460408501612dbe565b9361837f8160608601612dbe565b93608001612dbe565b90565b6102bc565b6183c56183cc946183bb6060949897956183b1608086019a5f870190611d35565b602085019061031f565b604083019061031f565b019061031f565b565b6183d6618242565b916183df614e17565b916183ec815f86016140b4565b6183f581618fe4565b8061841061840a6184055f612aa2565b6102cf565b916102cf565b0361841a575b5050565b9092506184288184906132a3565b618487602061843684615375565b956184607f00000000000000000000000000000000000000000000000000000000000000006116e6565b61847c636352211e6184706102b2565b95869485938493612766565b83526004830161032c565b03915afa8015618b2f576184a6915f91618b01575b5060208701613ae7565b6184d2816184b4600161240e565b166184c86184c2600161240e565b9161031c565b1460608701614e22565b6184fc6184e9826184e3602d61826e565b90612450565b6184f16145ae565b1661012087016140b4565b61854861853e61852261851261012089016140a7565b61851c600861659b565b90612450565b61852f61012089016140a7565b6185376145c2565b16906165bb565b61012087016140b4565b61856161855861012087016140a7565b60c087016140b4565b61858b61857882618572606d61828d565b90612450565b6185806145ae565b1661016087016140b4565b6185d76185cd6185b16185a161016089016140a7565b6185ab600861659b565b90612450565b6185be61016089016140a7565b6185c66145c2565b16906165bb565b61016087016140b4565b6185f16185e761016087016140a7565b61010087016140b4565b61860661860060608701614e30565b15610383565b6187a8575b505061864f61864661863861862260c087016140a7565b61863260c060a0880151016140a7565b90616c6e565b618640616656565b90616ca3565b60c085016140b4565b61869161868861867a61866460e087016140a7565b61867460e060a0880151016140a7565b90616c6e565b618682616656565b90616ca3565b60e085016140b4565b6186d56186cb6186bd6186a761010087016140a7565b6186b760e060a0880151016140a7565b90616c6e565b6186c5616656565b90616ca3565b61010085016140b4565b61871961870f6187016186eb61012087016140a7565b6186fb60c060a0880151016140a7565b90616c6e565b618709616656565b90616ca3565b61012085016140b4565b61875d61875361874561872f61014087016140a7565b61873f60e060a0880151016140a7565b90616c6e565b61874d616656565b90616ca3565b61014085016140b4565b6187a161879761878961877361016087016140a7565b61878360e060a0880151016140a7565b90616c6e565b618791616656565b90616ca3565b61016085016140b4565b5f80618416565b61881781618829926187ba60026131e4565b166187ce6187c860026131e4565b9161031c565b145f14618acc576188076187fd6187ef836187e960026144d9565b90612450565b6187f7612496565b166124a5565b5b608089016144f5565b61881160156182ac565b90612450565b61881f616c5f565b1660a086016140b4565b61888361887961886961885661885161884c61884760808b01616047565b6182ce565b6182ea565b618b34565b61886361012089016140a7565b90616c6e565b61887360606158f3565b90612450565b61014086016140b4565b6188b26188a961889661014087016140a7565b6188a361010088016140a7565b90618306565b60e086016140b4565b6188c8816188c260808701616047565b90613366565b90816188d4600161240e565b166188e86188e2600161240e565b9161031c565b148015618a8b575b618992575b505061890461014084016140a7565b61892261891c61891761016087016140a7565b61031c565b9161031c565b115f146189615761895961894f61893c61014086016140a7565b61894961016087016140a7565b90618306565b61014085016140b4565b5b5f8061860b565b61897761896d5f6123ef565b61014085016140b4565b61898d6189835f6123ef565b61016085016140b4565b61895a565b6189b36189ae60a0926189a9600160408a01614e22565b612da2565b612dae565b6322348cc7906189f96189c860808901616047565b92618a046189d7868b016140a7565b966189e56101408c016140a7565b6189ed6102b2565b98899788968796612766565b865260048601618390565b03915afa8015618a8657618a47915f808091929093618a4e575b50618a41906080880193618a3b6101408a01926101208b016140b4565b906140b4565b906144f5565b5f806188f5565b9050618a419250618a76915060a03d8111618a7f575b618a6e8183610e54565b81019061833a565b50509092618a1e565b503d618a64565b612df0565b50618aa082618a9a6001612430565b90612450565b618aa8616c5f565b16618ac6618ac0618abb60a089016140a7565b61031c565b9161031c565b116188f0565b618807618afc618af7618ae984618ae360026144d9565b90612450565b618af1612496565b166124a5565b6124d5565b6187fe565b618b22915060203d8111618b28575b618b1a8183610e54565b81019061824d565b5f61849c565b503d618b10565b612df0565b618b3c612d92565b508060ff1d8160ff1d821803617fff8111618db657600160801b9060018116618d9d575b60028116618d81575b60048116618d65575b60088116618d49575b60108116618d2d575b60208116618d11575b60408116618cf5575b60808116618cd9575b6101008116618cbd575b6102008116618ca1575b6104008116618c85575b6108008116618c69575b6110008116618c4e575b6120008116618c2e575b61400016618c18575b5f91600160ff1b1615618bf9575b60201c0190565b5f19046401000000008106618c0e575b618bf2565b9050600190618c09565b6b17c45e641b6e95dee056ff100260801c618be4565b906d4e009ae5519380809a02ca7aec77614000910260801c919050618bdb565b906e8d4f70c9ff4924dac37612d1e2921e0260801c90618bd1565b906f0be32cbee48979763cf7247dd7bb539d0260801c90618bc7565b906f372a3bfe0745d8b6b19d985d9a8b85bb0260801c90618bbd565b906f76d6461f27082d74e0feed3b388c0ca10260801c90618bb3565b906fae6b7961714e20548d88ea5123f9a0ff0260801c90618ba9565b906fd34f17a00ffa00a8309940a15930391a0260801c90618b9f565b906fe895615b5beb6386553757b0352bda900260801c90618b96565b906ff402d288133a85a17784a411f7aba0820260801c90618b8d565b906ff9ef02c4529258b057769680fc6601b30260801c90618b84565b906ffcf2d9987c9be178ad5bfeffaa1232730260801c90618b7b565b906ffe78410fd6498b73cb96a6917f8532590260801c90618b72565b906fff3bd55f4488ad277531fa1c725a66d00260801c90618b69565b90506fff9dd7de423466c20352b1246ce4856f90618b60565b5f80fd5b606090565b90618dd1618dcc83611423565b610e7d565b918252565b369037565b90618e00618de883618dbf565b92602080618df68693611423565b9201910390618dd6565b565b916020618e23929493618e1c60408201965f830190610ddb565b019061031f565b565b90618e2f82611ef4565b811015618e40576020809102010190565b613ab3565b618e4d618dba565b50618ea66020618e7c7f00000000000000000000000000000000000000000000000000000000000000006116e6565b6370a0823190618e9b8592618e8f6102b2565b95869485938493612766565b835260048301610de8565b03915afa908115618fdf575f91618fb1575b5090618ec382618ddb565b92618ecc612d92565b5b80618ee0618eda8661031c565b9161031c565b1015618fab57618f0f7f00000000000000000000000000000000000000000000000000000000000000006116e6565b906020632f745c59928590618f368495618f41618f2a6102b2565b97889586948594612766565b845260048401618e02565b03915afa918215618fa657618f7392618f6e915f91618f78575b50618f698891849092618e25565b6140b4565b613a72565b618ecd565b618f99915060203d8111618f9f575b618f918183610e54565b810190612dcd565b5f618f5b565b503d618f87565b612df0565b50915050565b618fd2915060203d8111618fd8575b618fca8183610e54565b810190612dcd565b5f618eb8565b503d618fc0565b612df0565b6020618ffb61906992618ff56125c7565b50612fe0565b6190247f00000000000000000000000000000000000000000000000000000000000000006116e6565b61905e61904063e6bd26a29361903a60c0615e91565b90612450565b61904861462c565b16926190526102b2565b95869485938493612766565b83526004830161032c565b03915afa9081156190ad575f9161907f575b5090565b6190a0915060203d81116190a6575b6190988183610e54565b81019061824d565b5f61907b565b503d61908e565b612df0565b606090565b67ffffffffffffffff81116190cf5760208091020190565b610e40565b906190e66190e1836190b7565b610e7d565b918252565b6190f36181a4565b90565b5f5b82811061910457505050565b60209061910f6190eb565b81840152016190f8565b9061913e619126836190d4565b9260208061913486936190b7565b92019103906190f6565b565b9061914a82611803565b81101561915b576020809102010190565b613ab3565b61917b9061916c6190b2565b50619175617fd4565b50618e45565b9061918582611ef4565b9061918f82619119565b926191998361803b565b916191a35f6123ef565b5b806191b76191b18761031c565b9161031c565b1015619201576191fc906191f66191df6191da6191d5878590618e25565b6140a7565b6183ce565b8992919284916191f08a8790618062565b52619140565b52613a72565b6191a4565b5091925050565b619210612d92565b50619255602061923f7f00000000000000000000000000000000000000000000000000000000000000006116e6565b6318160ddd9061924d6102b2565b938492612766565b8252818061926560048201612deb565b03915afa9081156192a9575f9161927b575b5090565b61929c915060203d81116192a2575b6192948183610e54565b810190612dcd565b5f619277565b503d61928a565b612df0565b6192b9610140610e7d565b90565b6192c46192ae565b9060208080808080808080808b6192d9613c20565b8152016192e4613c20565b8152016192ef613c20565b8152016192fa613c20565b815201619305613c20565b815201619310613c62565b81520161931b613c62565b815201619326613c62565b815201619331613c62565b81520161933c6149a0565b81525050565b61934a6192bc565b90565b5f91031261935757565b6102bc565b619365906123ef565b9052565b61937290610383565b9052565b91602061939792949361939060408201965f83019061935c565b0190619369565b565b5f9060033d116193a6575b565b905060045f803e6193b75f516102ac565b906193a4565b5f9060443d1061943a576193cf6102b2565b60043d036004823e8051903d602483011167ffffffffffffffff8311176194365781810191825167ffffffffffffffff81116194305780602085010160043d0384011061942a57619427939495506020010190610e54565b90565b50505050565b50505050565b5050565b565b67ffffffffffffffff811161945a57619456602091610e36565b0190565b610e40565b9061947161946c8361943c565b610e7d565b918252565b3d5f14619491576194863d61945f565b903d5f602084013e5b565b619499612609565b9061948f565b91906040838203126194c757806194bb6194c4925f8601612dbe565b93602001612dbe565b90565b6102bc565b619501619508946194f76060949897956194ed608086019a5f87019061031f565b602085019061935c565b6040830190610ddb565b0190619369565b565b919091619515619342565b92806195296195235f6123ef565b9161031c565b145f14619aa1575061953961661b565b5b9061954481612e2d565b806195576195515f6123ef565b9161031c565b03619562575b505050565b61957890619572835f8801613ae7565b826140dd565b61958561016082016140a7565b61959e619598619593612e1f565b61031c565b9161031c565b145f1461983c576196606040926195e66195de5f610100866195d68c60206195cf866101206196659d015101613b77565b9101613ae7565b015101613b77565b858901613ae7565b6195f76195f282613f3c565b613f48565b84638433ea229187906196225f809561962d61dead83906196166102b2565b998a9889978896612766565b8652600486016194cc565b03925af19081619810575b50155f1461980b57600161964a619399565b6308c379a0146197f2575b6197c2575b5b613f3c565b613f48565b638433ea22929061968f5f809561969a61dead6001906196836102b2565b998a9889978896612766565b8652600486016194cc565b03925af19081619795575b50155f146197905760016196b7619399565b6308c379a014619777575b619746575b5b5b6196d560e083016140a7565b6196f26196ec6196e760a086016140a7565b61031c565b9161031c565b118015619710575b619708906101208401614e22565b5f808061955d565b5061970861972161010084016140a7565b61973e61973861973360c087016140a7565b61031c565b9161031c565b1190506196fa565b619772619759619754619476565b619ad5565b9061976c60e086019261010087016140b4565b906140b4565b6196c7565b61977f6193bd565b619789575b6196c2565b505f619784565b6196c8565b6197b59060403d81116197bb575b6197ad8183610e54565b81019061949f565b506196a5565b503d6197a3565b6197ed6197d56197d0619476565b619ad5565b906197e760a08b019260c08c016140b4565b906140b4565b61965a565b6197fa6193bd565b619804575b619655565b505f6197ff565b61965b565b61982f90863d8111619835575b6198278183610e54565b81019061949f565b50619638565b503d61981d565b6198ad91925060206101008261986661985e5f6101206198a497015101613b77565b848a01613ae7565b6198806198775f8484015101613b77565b60408a01613ae7565b61989c6198938461012084015101613b77565b60608a01613ae7565b015101613b77565b60808501613ae7565b6198be6198b982612da2565b612dae565b633202937e915f925f90833b15619a9c5761993794619932946198f45f80946198ff6198e86102b2565b97889687958694612766565b845260048401619376565b03925af19081619a70575b50155f14619a6b57600161991c619399565b6308c379a014619a52575b619a22575b5b612da2565b612dae565b633202937e5f600192803b15619a1d576199645f809461996f6199586102b2565b97889687958694612766565b845260048401619376565b03925af190816199f1575b50155f146199ec57600161998c619399565b6308c379a0146199d3575b6199a2575b5b6196c9565b6199ce6199b56199b0619476565b619ad5565b906199c860e086019261010087016140b4565b906140b4565b61999c565b6199db6193bd565b6199e5575b619997565b505f6199e0565b61999d565b619a10905f3d8111619a16575b619a088183610e54565b81019061934d565b5f61997a565b503d6199fe565b612dba565b619a4d619a35619a30619476565b619ad5565b90619a4760a089019260c08a016140b4565b906140b4565b61992c565b619a5a6193bd565b619a64575b619927565b505f619a5f565b61992d565b619a8f905f3d8111619a95575b619a878183610e54565b81019061934d565b5f61990a565b503d619a7d565b612dba565b61953a565b90565b619abd619ab8619ac292619aa6565b6116bb565b61031c565b90565b5f90565b63ffffffff60e01b1690565b619add612d92565b91619ae6612d92565b91619af0816121cb565b619b03619afd6044619aa9565b9161031c565b1015619b0d575b50565b619b15619ac5565b506020810151619b34619b2e63330daa9160e21b619ac9565b91619ac9565b14619b3f575b619b0a565b9150915060446024820151910151915f619b3a565b606090565b67ffffffffffffffff8111619b715760208091020190565b610e40565b90619b88619b8383619b59565b610e7d565b918252565b619b956192bc565b90565b5f5b828110619ba657505050565b602090619bb1619b8d565b8184015201619b9a565b90619be0619bc883619b76565b92602080619bd68693619b59565b9201910390619b98565b565b90619bec82611517565b811015619bfd576020809102010190565b613ab3565b90619c0b619b54565b50619c1582611df7565b91619c1f83619bbb565b93619c295f6123ef565b5b80619c3d619c378761031c565b9161031c565b1015619c9857619c9390619c8c619c79619c60619c5b878590613ac7565b613b77565b619c73619c6e898690618e25565b6140a7565b9061950a565b888391619c868383619be2565b52619be2565b5150613a72565b619c2a565b5092505050565b619ca7619b54565b50619cb0613af5565b619cb981611df7565b90619cc382619bbb565b92619ccd5f6123ef565b5b80619ce1619cdb8661031c565b9161031c565b1015619d3257619d2d90619d26619d13619d04619cff878590613ac7565b613b77565b619d0d5f6123ef565b9061950a565b878391619d208383619be2565b52619be2565b5150613a72565b619cce565b50915050565b619d426040610e7d565b90565b619d4d619d38565b9060208083619d5a613c20565b815201619d656149a0565b81525050565b619d73619d45565b90565b90619d7f619d6b565b91619d8c815f8501613ae7565b619d9581613200565b90619da7619da282613f3c565b613f48565b63ebd93ac690803b15619e9957619dca915f91619dc26102b2565b938492612766565b8252818381619ddb60048201612deb565b03925af19081619e6d575b50155f14619e345750506001619dfa619399565b6308c379a014619e1b575b619e0d575b5b565b619e15619476565b50619e0a565b619e236193bd565b619e2d575b619e05565b505f619e28565b619e49619e43619e4f92613200565b9261031c565b9161031c565b03619e5a575b619e0b565b619e68600160208401614e22565b619e55565b619e8c905f3d8111619e92575b619e848183610e54565b81019061934d565b5f619de6565b503d619e7a565b612dba565b606090565b67ffffffffffffffff8111619ebb5760208091020190565b610e40565b90619ed2619ecd83619ea3565b610e7d565b918252565b619edf619d45565b90565b5f5b828110619ef057505050565b602090619efb619ed7565b8184015201619ee4565b90619f2a619f1283619ec0565b92602080619f208693619ea3565b9201910390619ee2565b565b90619f3682611338565b811015619f47576020809102010190565b613ab3565b619f54619e9e565b50619f5e81611df7565b90619f6882619f05565b92619f725f6123ef565b5b80619f86619f808661031c565b9161031c565b1015619fcd57619fc890619fc1619fae619fa9619fa4878590613ac7565b613b77565b619d76565b878391619fbb8383619f2c565b52619f2c565b5150613a72565b619f73565b50915050565b619fdb619e9e565b50619fec619fe7613af5565b619f4c565b9056fea2646970667358221220a692c047b82aaa39c00db405d1359042dd8ac97ec5855246320603c008771f1d64736f6c63430008150033","linkReferences":{}},"methodIdentifiers":{"FACTORY()":"2dd31000","LIQUIDITY_RESOLVER()":"6902f79f","calculateDoubleIntUintMapping(uint256,int256,uint256)":"8bfbeda6","calculateStorageSlotIntMapping(uint256,int256)":"2f2612cf","calculateStorageSlotUintMapping(uint256,uint256)":"7bbede43","getAbsorbedDustDebt(address)":"51971bf7","getAbsorbedLiquidityRaw(address)":"f70b198c","getAllVaultsAddresses()":"a8d9f493","getAllVaultsLiquidation()":"dd19c0fe","getBranchDataRaw(address,uint256)":"bf518f5f","getContractForDeployerIndex(address,uint256)":"816022b8","getDexFromAddress(address)":"7955fffd","getMultipleVaultsLiquidation(address[],uint256[])":"2c44e1d1","getPositionDataRaw(address,uint256)":"cbc7be65","getRateRaw(address)":"1579a46c","getRebalancer(address)":"6463e94c","getTickDataRaw(address,int256)":"168a11c2","getTickHasDebtRaw(address,int256)":"a8bc0693","getTickIdDataRaw(address,int256,uint256)":"85303304","getTokenConfig(uint256)":"8a003888","getTotalVaults()":"5486f100","getVaultAbsorb(address)":"890a1391","getVaultAddress(uint256)":"e6bd26a2","getVaultEntireData(address)":"09c062e2","getVaultId(address)":"344bd722","getVaultLiquidation(address,uint256)":"1fcd3649","getVaultState(address)":"20ee1e44","getVaultType(address)":"1f51fd93","getVaultVariables2Raw(address)":"eb1db018","getVaultVariablesRaw(address)":"03e883e0","getVaultsAbsorb()":"2404a3f9","getVaultsAbsorb(address[])":"ea19ba11","getVaultsEntireData()":"e06a7b71","getVaultsEntireData(address[])":"1ef8986d","normalSlot(uint256)":"9d7aeeb4","positionByNftId(uint256)":"144128e8","positionsByUser(address)":"347ca8bb","positionsNftIdOfUser(address)":"c67b5093","tickHelper(uint256)":"8f8b81f0","totalPositions()":"fda1fa5f","vaultByNftId(uint256)":"1949138e"},"id":41}