{"abi":[{"type":"constructor","inputs":[{"name":"liquidity_","type":"address","internalType":"contract IFluidLiquidity"}],"stateMutability":"nonpayable"},{"type":"function","name":"LIQUIDITY","inputs":[],"outputs":[{"name":"","type":"address","internalType":"contract IFluidLiquidity"}],"stateMutability":"view"},{"type":"function","name":"getAllOverallTokensData","inputs":[],"outputs":[{"name":"overallTokensData_","type":"tuple[]","internalType":"struct Structs.OverallTokenData[]","components":[{"name":"borrowRate","type":"uint256","internalType":"uint256"},{"name":"supplyRate","type":"uint256","internalType":"uint256"},{"name":"fee","type":"uint256","internalType":"uint256"},{"name":"lastStoredUtilization","type":"uint256","internalType":"uint256"},{"name":"storageUpdateThreshold","type":"uint256","internalType":"uint256"},{"name":"lastUpdateTimestamp","type":"uint256","internalType":"uint256"},{"name":"supplyExchangePrice","type":"uint256","internalType":"uint256"},{"name":"borrowExchangePrice","type":"uint256","internalType":"uint256"},{"name":"supplyRawInterest","type":"uint256","internalType":"uint256"},{"name":"supplyInterestFree","type":"uint256","internalType":"uint256"},{"name":"borrowRawInterest","type":"uint256","internalType":"uint256"},{"name":"borrowInterestFree","type":"uint256","internalType":"uint256"},{"name":"totalSupply","type":"uint256","internalType":"uint256"},{"name":"totalBorrow","type":"uint256","internalType":"uint256"},{"name":"revenue","type":"uint256","internalType":"uint256"},{"name":"maxUtilization","type":"uint256","internalType":"uint256"},{"name":"rateData","type":"tuple","internalType":"struct Structs.RateData","components":[{"name":"version","type":"uint256","internalType":"uint256"},{"name":"rateDataV1","type":"tuple","internalType":"struct Structs.RateDataV1Params","components":[{"name":"token","type":"address","internalType":"address"},{"name":"kink","type":"uint256","internalType":"uint256"},{"name":"rateAtUtilizationZero","type":"uint256","internalType":"uint256"},{"name":"rateAtUtilizationKink","type":"uint256","internalType":"uint256"},{"name":"rateAtUtilizationMax","type":"uint256","internalType":"uint256"}]},{"name":"rateDataV2","type":"tuple","internalType":"struct Structs.RateDataV2Params","components":[{"name":"token","type":"address","internalType":"address"},{"name":"kink1","type":"uint256","internalType":"uint256"},{"name":"kink2","type":"uint256","internalType":"uint256"},{"name":"rateAtUtilizationZero","type":"uint256","internalType":"uint256"},{"name":"rateAtUtilizationKink1","type":"uint256","internalType":"uint256"},{"name":"rateAtUtilizationKink2","type":"uint256","internalType":"uint256"},{"name":"rateAtUtilizationMax","type":"uint256","internalType":"uint256"}]}]}]}],"stateMutability":"view"},{"type":"function","name":"getConfigs2","inputs":[{"name":"token_","type":"address","internalType":"address"}],"outputs":[{"name":"","type":"uint256","internalType":"uint256"}],"stateMutability":"view"},{"type":"function","name":"getExchangePricesAndConfig","inputs":[{"name":"token_","type":"address","internalType":"address"}],"outputs":[{"name":"","type":"uint256","internalType":"uint256"}],"stateMutability":"view"},{"type":"function","name":"getOverallTokenData","inputs":[{"name":"token_","type":"address","internalType":"address"}],"outputs":[{"name":"overallTokenData_","type":"tuple","internalType":"struct Structs.OverallTokenData","components":[{"name":"borrowRate","type":"uint256","internalType":"uint256"},{"name":"supplyRate","type":"uint256","internalType":"uint256"},{"name":"fee","type":"uint256","internalType":"uint256"},{"name":"lastStoredUtilization","type":"uint256","internalType":"uint256"},{"name":"storageUpdateThreshold","type":"uint256","internalType":"uint256"},{"name":"lastUpdateTimestamp","type":"uint256","internalType":"uint256"},{"name":"supplyExchangePrice","type":"uint256","internalType":"uint256"},{"name":"borrowExchangePrice","type":"uint256","internalType":"uint256"},{"name":"supplyRawInterest","type":"uint256","internalType":"uint256"},{"name":"supplyInterestFree","type":"uint256","internalType":"uint256"},{"name":"borrowRawInterest","type":"uint256","internalType":"uint256"},{"name":"borrowInterestFree","type":"uint256","internalType":"uint256"},{"name":"totalSupply","type":"uint256","internalType":"uint256"},{"name":"totalBorrow","type":"uint256","internalType":"uint256"},{"name":"revenue","type":"uint256","internalType":"uint256"},{"name":"maxUtilization","type":"uint256","internalType":"uint256"},{"name":"rateData","type":"tuple","internalType":"struct Structs.RateData","components":[{"name":"version","type":"uint256","internalType":"uint256"},{"name":"rateDataV1","type":"tuple","internalType":"struct Structs.RateDataV1Params","components":[{"name":"token","type":"address","internalType":"address"},{"name":"kink","type":"uint256","internalType":"uint256"},{"name":"rateAtUtilizationZero","type":"uint256","internalType":"uint256"},{"name":"rateAtUtilizationKink","type":"uint256","internalType":"uint256"},{"name":"rateAtUtilizationMax","type":"uint256","internalType":"uint256"}]},{"name":"rateDataV2","type":"tuple","internalType":"struct Structs.RateDataV2Params","components":[{"name":"token","type":"address","internalType":"address"},{"name":"kink1","type":"uint256","internalType":"uint256"},{"name":"kink2","type":"uint256","internalType":"uint256"},{"name":"rateAtUtilizationZero","type":"uint256","internalType":"uint256"},{"name":"rateAtUtilizationKink1","type":"uint256","internalType":"uint256"},{"name":"rateAtUtilizationKink2","type":"uint256","internalType":"uint256"},{"name":"rateAtUtilizationMax","type":"uint256","internalType":"uint256"}]}]}]}],"stateMutability":"view"},{"type":"function","name":"getOverallTokensData","inputs":[{"name":"tokens_","type":"address[]","internalType":"address[]"}],"outputs":[{"name":"overallTokensData_","type":"tuple[]","internalType":"struct Structs.OverallTokenData[]","components":[{"name":"borrowRate","type":"uint256","internalType":"uint256"},{"name":"supplyRate","type":"uint256","internalType":"uint256"},{"name":"fee","type":"uint256","internalType":"uint256"},{"name":"lastStoredUtilization","type":"uint256","internalType":"uint256"},{"name":"storageUpdateThreshold","type":"uint256","internalType":"uint256"},{"name":"lastUpdateTimestamp","type":"uint256","internalType":"uint256"},{"name":"supplyExchangePrice","type":"uint256","internalType":"uint256"},{"name":"borrowExchangePrice","type":"uint256","internalType":"uint256"},{"name":"supplyRawInterest","type":"uint256","internalType":"uint256"},{"name":"supplyInterestFree","type":"uint256","internalType":"uint256"},{"name":"borrowRawInterest","type":"uint256","internalType":"uint256"},{"name":"borrowInterestFree","type":"uint256","internalType":"uint256"},{"name":"totalSupply","type":"uint256","internalType":"uint256"},{"name":"totalBorrow","type":"uint256","internalType":"uint256"},{"name":"revenue","type":"uint256","internalType":"uint256"},{"name":"maxUtilization","type":"uint256","internalType":"uint256"},{"name":"rateData","type":"tuple","internalType":"struct Structs.RateData","components":[{"name":"version","type":"uint256","internalType":"uint256"},{"name":"rateDataV1","type":"tuple","internalType":"struct Structs.RateDataV1Params","components":[{"name":"token","type":"address","internalType":"address"},{"name":"kink","type":"uint256","internalType":"uint256"},{"name":"rateAtUtilizationZero","type":"uint256","internalType":"uint256"},{"name":"rateAtUtilizationKink","type":"uint256","internalType":"uint256"},{"name":"rateAtUtilizationMax","type":"uint256","internalType":"uint256"}]},{"name":"rateDataV2","type":"tuple","internalType":"struct Structs.RateDataV2Params","components":[{"name":"token","type":"address","internalType":"address"},{"name":"kink1","type":"uint256","internalType":"uint256"},{"name":"kink2","type":"uint256","internalType":"uint256"},{"name":"rateAtUtilizationZero","type":"uint256","internalType":"uint256"},{"name":"rateAtUtilizationKink1","type":"uint256","internalType":"uint256"},{"name":"rateAtUtilizationKink2","type":"uint256","internalType":"uint256"},{"name":"rateAtUtilizationMax","type":"uint256","internalType":"uint256"}]}]}]}],"stateMutability":"view"},{"type":"function","name":"getRateConfig","inputs":[{"name":"token_","type":"address","internalType":"address"}],"outputs":[{"name":"","type":"uint256","internalType":"uint256"}],"stateMutability":"view"},{"type":"function","name":"getRevenue","inputs":[{"name":"token_","type":"address","internalType":"address"}],"outputs":[{"name":"revenueAmount_","type":"uint256","internalType":"uint256"}],"stateMutability":"view"},{"type":"function","name":"getRevenueCollector","inputs":[],"outputs":[{"name":"","type":"address","internalType":"address"}],"stateMutability":"view"},{"type":"function","name":"getStatus","inputs":[],"outputs":[{"name":"","type":"uint256","internalType":"uint256"}],"stateMutability":"view"},{"type":"function","name":"getTokenRateData","inputs":[{"name":"token_","type":"address","internalType":"address"}],"outputs":[{"name":"rateData_","type":"tuple","internalType":"struct Structs.RateData","components":[{"name":"version","type":"uint256","internalType":"uint256"},{"name":"rateDataV1","type":"tuple","internalType":"struct Structs.RateDataV1Params","components":[{"name":"token","type":"address","internalType":"address"},{"name":"kink","type":"uint256","internalType":"uint256"},{"name":"rateAtUtilizationZero","type":"uint256","internalType":"uint256"},{"name":"rateAtUtilizationKink","type":"uint256","internalType":"uint256"},{"name":"rateAtUtilizationMax","type":"uint256","internalType":"uint256"}]},{"name":"rateDataV2","type":"tuple","internalType":"struct Structs.RateDataV2Params","components":[{"name":"token","type":"address","internalType":"address"},{"name":"kink1","type":"uint256","internalType":"uint256"},{"name":"kink2","type":"uint256","internalType":"uint256"},{"name":"rateAtUtilizationZero","type":"uint256","internalType":"uint256"},{"name":"rateAtUtilizationKink1","type":"uint256","internalType":"uint256"},{"name":"rateAtUtilizationKink2","type":"uint256","internalType":"uint256"},{"name":"rateAtUtilizationMax","type":"uint256","internalType":"uint256"}]}]}],"stateMutability":"view"},{"type":"function","name":"getTokensRateData","inputs":[{"name":"tokens_","type":"address[]","internalType":"address[]"}],"outputs":[{"name":"rateDatas_","type":"tuple[]","internalType":"struct Structs.RateData[]","components":[{"name":"version","type":"uint256","internalType":"uint256"},{"name":"rateDataV1","type":"tuple","internalType":"struct Structs.RateDataV1Params","components":[{"name":"token","type":"address","internalType":"address"},{"name":"kink","type":"uint256","internalType":"uint256"},{"name":"rateAtUtilizationZero","type":"uint256","internalType":"uint256"},{"name":"rateAtUtilizationKink","type":"uint256","internalType":"uint256"},{"name":"rateAtUtilizationMax","type":"uint256","internalType":"uint256"}]},{"name":"rateDataV2","type":"tuple","internalType":"struct Structs.RateDataV2Params","components":[{"name":"token","type":"address","internalType":"address"},{"name":"kink1","type":"uint256","internalType":"uint256"},{"name":"kink2","type":"uint256","internalType":"uint256"},{"name":"rateAtUtilizationZero","type":"uint256","internalType":"uint256"},{"name":"rateAtUtilizationKink1","type":"uint256","internalType":"uint256"},{"name":"rateAtUtilizationKink2","type":"uint256","internalType":"uint256"},{"name":"rateAtUtilizationMax","type":"uint256","internalType":"uint256"}]}]}],"stateMutability":"view"},{"type":"function","name":"getTotalAmounts","inputs":[{"name":"token_","type":"address","internalType":"address"}],"outputs":[{"name":"","type":"uint256","internalType":"uint256"}],"stateMutability":"view"},{"type":"function","name":"getUserBorrow","inputs":[{"name":"user_","type":"address","internalType":"address"},{"name":"token_","type":"address","internalType":"address"}],"outputs":[{"name":"","type":"uint256","internalType":"uint256"}],"stateMutability":"view"},{"type":"function","name":"getUserBorrowData","inputs":[{"name":"user_","type":"address","internalType":"address"},{"name":"token_","type":"address","internalType":"address"}],"outputs":[{"name":"userBorrowData_","type":"tuple","internalType":"struct Structs.UserBorrowData","components":[{"name":"modeWithInterest","type":"bool","internalType":"bool"},{"name":"borrow","type":"uint256","internalType":"uint256"},{"name":"borrowLimit","type":"uint256","internalType":"uint256"},{"name":"lastUpdateTimestamp","type":"uint256","internalType":"uint256"},{"name":"expandPercent","type":"uint256","internalType":"uint256"},{"name":"expandDuration","type":"uint256","internalType":"uint256"},{"name":"baseBorrowLimit","type":"uint256","internalType":"uint256"},{"name":"maxBorrowLimit","type":"uint256","internalType":"uint256"},{"name":"borrowableUntilLimit","type":"uint256","internalType":"uint256"},{"name":"borrowable","type":"uint256","internalType":"uint256"},{"name":"borrowLimitUtilization","type":"uint256","internalType":"uint256"}]},{"name":"overallTokenData_","type":"tuple","internalType":"struct Structs.OverallTokenData","components":[{"name":"borrowRate","type":"uint256","internalType":"uint256"},{"name":"supplyRate","type":"uint256","internalType":"uint256"},{"name":"fee","type":"uint256","internalType":"uint256"},{"name":"lastStoredUtilization","type":"uint256","internalType":"uint256"},{"name":"storageUpdateThreshold","type":"uint256","internalType":"uint256"},{"name":"lastUpdateTimestamp","type":"uint256","internalType":"uint256"},{"name":"supplyExchangePrice","type":"uint256","internalType":"uint256"},{"name":"borrowExchangePrice","type":"uint256","internalType":"uint256"},{"name":"supplyRawInterest","type":"uint256","internalType":"uint256"},{"name":"supplyInterestFree","type":"uint256","internalType":"uint256"},{"name":"borrowRawInterest","type":"uint256","internalType":"uint256"},{"name":"borrowInterestFree","type":"uint256","internalType":"uint256"},{"name":"totalSupply","type":"uint256","internalType":"uint256"},{"name":"totalBorrow","type":"uint256","internalType":"uint256"},{"name":"revenue","type":"uint256","internalType":"uint256"},{"name":"maxUtilization","type":"uint256","internalType":"uint256"},{"name":"rateData","type":"tuple","internalType":"struct Structs.RateData","components":[{"name":"version","type":"uint256","internalType":"uint256"},{"name":"rateDataV1","type":"tuple","internalType":"struct Structs.RateDataV1Params","components":[{"name":"token","type":"address","internalType":"address"},{"name":"kink","type":"uint256","internalType":"uint256"},{"name":"rateAtUtilizationZero","type":"uint256","internalType":"uint256"},{"name":"rateAtUtilizationKink","type":"uint256","internalType":"uint256"},{"name":"rateAtUtilizationMax","type":"uint256","internalType":"uint256"}]},{"name":"rateDataV2","type":"tuple","internalType":"struct Structs.RateDataV2Params","components":[{"name":"token","type":"address","internalType":"address"},{"name":"kink1","type":"uint256","internalType":"uint256"},{"name":"kink2","type":"uint256","internalType":"uint256"},{"name":"rateAtUtilizationZero","type":"uint256","internalType":"uint256"},{"name":"rateAtUtilizationKink1","type":"uint256","internalType":"uint256"},{"name":"rateAtUtilizationKink2","type":"uint256","internalType":"uint256"},{"name":"rateAtUtilizationMax","type":"uint256","internalType":"uint256"}]}]}]}],"stateMutability":"view"},{"type":"function","name":"getUserClass","inputs":[{"name":"user_","type":"address","internalType":"address"}],"outputs":[{"name":"","type":"uint256","internalType":"uint256"}],"stateMutability":"view"},{"type":"function","name":"getUserMultipleBorrowData","inputs":[{"name":"user_","type":"address","internalType":"address"},{"name":"tokens_","type":"address[]","internalType":"address[]"}],"outputs":[{"name":"userBorrowingsData_","type":"tuple[]","internalType":"struct Structs.UserBorrowData[]","components":[{"name":"modeWithInterest","type":"bool","internalType":"bool"},{"name":"borrow","type":"uint256","internalType":"uint256"},{"name":"borrowLimit","type":"uint256","internalType":"uint256"},{"name":"lastUpdateTimestamp","type":"uint256","internalType":"uint256"},{"name":"expandPercent","type":"uint256","internalType":"uint256"},{"name":"expandDuration","type":"uint256","internalType":"uint256"},{"name":"baseBorrowLimit","type":"uint256","internalType":"uint256"},{"name":"maxBorrowLimit","type":"uint256","internalType":"uint256"},{"name":"borrowableUntilLimit","type":"uint256","internalType":"uint256"},{"name":"borrowable","type":"uint256","internalType":"uint256"},{"name":"borrowLimitUtilization","type":"uint256","internalType":"uint256"}]},{"name":"overallTokensData_","type":"tuple[]","internalType":"struct Structs.OverallTokenData[]","components":[{"name":"borrowRate","type":"uint256","internalType":"uint256"},{"name":"supplyRate","type":"uint256","internalType":"uint256"},{"name":"fee","type":"uint256","internalType":"uint256"},{"name":"lastStoredUtilization","type":"uint256","internalType":"uint256"},{"name":"storageUpdateThreshold","type":"uint256","internalType":"uint256"},{"name":"lastUpdateTimestamp","type":"uint256","internalType":"uint256"},{"name":"supplyExchangePrice","type":"uint256","internalType":"uint256"},{"name":"borrowExchangePrice","type":"uint256","internalType":"uint256"},{"name":"supplyRawInterest","type":"uint256","internalType":"uint256"},{"name":"supplyInterestFree","type":"uint256","internalType":"uint256"},{"name":"borrowRawInterest","type":"uint256","internalType":"uint256"},{"name":"borrowInterestFree","type":"uint256","internalType":"uint256"},{"name":"totalSupply","type":"uint256","internalType":"uint256"},{"name":"totalBorrow","type":"uint256","internalType":"uint256"},{"name":"revenue","type":"uint256","internalType":"uint256"},{"name":"maxUtilization","type":"uint256","internalType":"uint256"},{"name":"rateData","type":"tuple","internalType":"struct Structs.RateData","components":[{"name":"version","type":"uint256","internalType":"uint256"},{"name":"rateDataV1","type":"tuple","internalType":"struct Structs.RateDataV1Params","components":[{"name":"token","type":"address","internalType":"address"},{"name":"kink","type":"uint256","internalType":"uint256"},{"name":"rateAtUtilizationZero","type":"uint256","internalType":"uint256"},{"name":"rateAtUtilizationKink","type":"uint256","internalType":"uint256"},{"name":"rateAtUtilizationMax","type":"uint256","internalType":"uint256"}]},{"name":"rateDataV2","type":"tuple","internalType":"struct Structs.RateDataV2Params","components":[{"name":"token","type":"address","internalType":"address"},{"name":"kink1","type":"uint256","internalType":"uint256"},{"name":"kink2","type":"uint256","internalType":"uint256"},{"name":"rateAtUtilizationZero","type":"uint256","internalType":"uint256"},{"name":"rateAtUtilizationKink1","type":"uint256","internalType":"uint256"},{"name":"rateAtUtilizationKink2","type":"uint256","internalType":"uint256"},{"name":"rateAtUtilizationMax","type":"uint256","internalType":"uint256"}]}]}]}],"stateMutability":"view"},{"type":"function","name":"getUserMultipleBorrowSupplyData","inputs":[{"name":"user_","type":"address","internalType":"address"},{"name":"supplyTokens_","type":"address[]","internalType":"address[]"},{"name":"borrowTokens_","type":"address[]","internalType":"address[]"}],"outputs":[{"name":"userSuppliesData_","type":"tuple[]","internalType":"struct Structs.UserSupplyData[]","components":[{"name":"modeWithInterest","type":"bool","internalType":"bool"},{"name":"supply","type":"uint256","internalType":"uint256"},{"name":"withdrawalLimit","type":"uint256","internalType":"uint256"},{"name":"lastUpdateTimestamp","type":"uint256","internalType":"uint256"},{"name":"expandPercent","type":"uint256","internalType":"uint256"},{"name":"expandDuration","type":"uint256","internalType":"uint256"},{"name":"baseWithdrawalLimit","type":"uint256","internalType":"uint256"},{"name":"withdrawableUntilLimit","type":"uint256","internalType":"uint256"},{"name":"withdrawable","type":"uint256","internalType":"uint256"}]},{"name":"overallSupplyTokensData_","type":"tuple[]","internalType":"struct Structs.OverallTokenData[]","components":[{"name":"borrowRate","type":"uint256","internalType":"uint256"},{"name":"supplyRate","type":"uint256","internalType":"uint256"},{"name":"fee","type":"uint256","internalType":"uint256"},{"name":"lastStoredUtilization","type":"uint256","internalType":"uint256"},{"name":"storageUpdateThreshold","type":"uint256","internalType":"uint256"},{"name":"lastUpdateTimestamp","type":"uint256","internalType":"uint256"},{"name":"supplyExchangePrice","type":"uint256","internalType":"uint256"},{"name":"borrowExchangePrice","type":"uint256","internalType":"uint256"},{"name":"supplyRawInterest","type":"uint256","internalType":"uint256"},{"name":"supplyInterestFree","type":"uint256","internalType":"uint256"},{"name":"borrowRawInterest","type":"uint256","internalType":"uint256"},{"name":"borrowInterestFree","type":"uint256","internalType":"uint256"},{"name":"totalSupply","type":"uint256","internalType":"uint256"},{"name":"totalBorrow","type":"uint256","internalType":"uint256"},{"name":"revenue","type":"uint256","internalType":"uint256"},{"name":"maxUtilization","type":"uint256","internalType":"uint256"},{"name":"rateData","type":"tuple","internalType":"struct Structs.RateData","components":[{"name":"version","type":"uint256","internalType":"uint256"},{"name":"rateDataV1","type":"tuple","internalType":"struct Structs.RateDataV1Params","components":[{"name":"token","type":"address","internalType":"address"},{"name":"kink","type":"uint256","internalType":"uint256"},{"name":"rateAtUtilizationZero","type":"uint256","internalType":"uint256"},{"name":"rateAtUtilizationKink","type":"uint256","internalType":"uint256"},{"name":"rateAtUtilizationMax","type":"uint256","internalType":"uint256"}]},{"name":"rateDataV2","type":"tuple","internalType":"struct Structs.RateDataV2Params","components":[{"name":"token","type":"address","internalType":"address"},{"name":"kink1","type":"uint256","internalType":"uint256"},{"name":"kink2","type":"uint256","internalType":"uint256"},{"name":"rateAtUtilizationZero","type":"uint256","internalType":"uint256"},{"name":"rateAtUtilizationKink1","type":"uint256","internalType":"uint256"},{"name":"rateAtUtilizationKink2","type":"uint256","internalType":"uint256"},{"name":"rateAtUtilizationMax","type":"uint256","internalType":"uint256"}]}]}]},{"name":"userBorrowingsData_","type":"tuple[]","internalType":"struct Structs.UserBorrowData[]","components":[{"name":"modeWithInterest","type":"bool","internalType":"bool"},{"name":"borrow","type":"uint256","internalType":"uint256"},{"name":"borrowLimit","type":"uint256","internalType":"uint256"},{"name":"lastUpdateTimestamp","type":"uint256","internalType":"uint256"},{"name":"expandPercent","type":"uint256","internalType":"uint256"},{"name":"expandDuration","type":"uint256","internalType":"uint256"},{"name":"baseBorrowLimit","type":"uint256","internalType":"uint256"},{"name":"maxBorrowLimit","type":"uint256","internalType":"uint256"},{"name":"borrowableUntilLimit","type":"uint256","internalType":"uint256"},{"name":"borrowable","type":"uint256","internalType":"uint256"},{"name":"borrowLimitUtilization","type":"uint256","internalType":"uint256"}]},{"name":"overallBorrowTokensData_","type":"tuple[]","internalType":"struct Structs.OverallTokenData[]","components":[{"name":"borrowRate","type":"uint256","internalType":"uint256"},{"name":"supplyRate","type":"uint256","internalType":"uint256"},{"name":"fee","type":"uint256","internalType":"uint256"},{"name":"lastStoredUtilization","type":"uint256","internalType":"uint256"},{"name":"storageUpdateThreshold","type":"uint256","internalType":"uint256"},{"name":"lastUpdateTimestamp","type":"uint256","internalType":"uint256"},{"name":"supplyExchangePrice","type":"uint256","internalType":"uint256"},{"name":"borrowExchangePrice","type":"uint256","internalType":"uint256"},{"name":"supplyRawInterest","type":"uint256","internalType":"uint256"},{"name":"supplyInterestFree","type":"uint256","internalType":"uint256"},{"name":"borrowRawInterest","type":"uint256","internalType":"uint256"},{"name":"borrowInterestFree","type":"uint256","internalType":"uint256"},{"name":"totalSupply","type":"uint256","internalType":"uint256"},{"name":"totalBorrow","type":"uint256","internalType":"uint256"},{"name":"revenue","type":"uint256","internalType":"uint256"},{"name":"maxUtilization","type":"uint256","internalType":"uint256"},{"name":"rateData","type":"tuple","internalType":"struct Structs.RateData","components":[{"name":"version","type":"uint256","internalType":"uint256"},{"name":"rateDataV1","type":"tuple","internalType":"struct Structs.RateDataV1Params","components":[{"name":"token","type":"address","internalType":"address"},{"name":"kink","type":"uint256","internalType":"uint256"},{"name":"rateAtUtilizationZero","type":"uint256","internalType":"uint256"},{"name":"rateAtUtilizationKink","type":"uint256","internalType":"uint256"},{"name":"rateAtUtilizationMax","type":"uint256","internalType":"uint256"}]},{"name":"rateDataV2","type":"tuple","internalType":"struct Structs.RateDataV2Params","components":[{"name":"token","type":"address","internalType":"address"},{"name":"kink1","type":"uint256","internalType":"uint256"},{"name":"kink2","type":"uint256","internalType":"uint256"},{"name":"rateAtUtilizationZero","type":"uint256","internalType":"uint256"},{"name":"rateAtUtilizationKink1","type":"uint256","internalType":"uint256"},{"name":"rateAtUtilizationKink2","type":"uint256","internalType":"uint256"},{"name":"rateAtUtilizationMax","type":"uint256","internalType":"uint256"}]}]}]}],"stateMutability":"view"},{"type":"function","name":"getUserMultipleSupplyData","inputs":[{"name":"user_","type":"address","internalType":"address"},{"name":"tokens_","type":"address[]","internalType":"address[]"}],"outputs":[{"name":"userSuppliesData_","type":"tuple[]","internalType":"struct Structs.UserSupplyData[]","components":[{"name":"modeWithInterest","type":"bool","internalType":"bool"},{"name":"supply","type":"uint256","internalType":"uint256"},{"name":"withdrawalLimit","type":"uint256","internalType":"uint256"},{"name":"lastUpdateTimestamp","type":"uint256","internalType":"uint256"},{"name":"expandPercent","type":"uint256","internalType":"uint256"},{"name":"expandDuration","type":"uint256","internalType":"uint256"},{"name":"baseWithdrawalLimit","type":"uint256","internalType":"uint256"},{"name":"withdrawableUntilLimit","type":"uint256","internalType":"uint256"},{"name":"withdrawable","type":"uint256","internalType":"uint256"}]},{"name":"overallTokensData_","type":"tuple[]","internalType":"struct Structs.OverallTokenData[]","components":[{"name":"borrowRate","type":"uint256","internalType":"uint256"},{"name":"supplyRate","type":"uint256","internalType":"uint256"},{"name":"fee","type":"uint256","internalType":"uint256"},{"name":"lastStoredUtilization","type":"uint256","internalType":"uint256"},{"name":"storageUpdateThreshold","type":"uint256","internalType":"uint256"},{"name":"lastUpdateTimestamp","type":"uint256","internalType":"uint256"},{"name":"supplyExchangePrice","type":"uint256","internalType":"uint256"},{"name":"borrowExchangePrice","type":"uint256","internalType":"uint256"},{"name":"supplyRawInterest","type":"uint256","internalType":"uint256"},{"name":"supplyInterestFree","type":"uint256","internalType":"uint256"},{"name":"borrowRawInterest","type":"uint256","internalType":"uint256"},{"name":"borrowInterestFree","type":"uint256","internalType":"uint256"},{"name":"totalSupply","type":"uint256","internalType":"uint256"},{"name":"totalBorrow","type":"uint256","internalType":"uint256"},{"name":"revenue","type":"uint256","internalType":"uint256"},{"name":"maxUtilization","type":"uint256","internalType":"uint256"},{"name":"rateData","type":"tuple","internalType":"struct Structs.RateData","components":[{"name":"version","type":"uint256","internalType":"uint256"},{"name":"rateDataV1","type":"tuple","internalType":"struct Structs.RateDataV1Params","components":[{"name":"token","type":"address","internalType":"address"},{"name":"kink","type":"uint256","internalType":"uint256"},{"name":"rateAtUtilizationZero","type":"uint256","internalType":"uint256"},{"name":"rateAtUtilizationKink","type":"uint256","internalType":"uint256"},{"name":"rateAtUtilizationMax","type":"uint256","internalType":"uint256"}]},{"name":"rateDataV2","type":"tuple","internalType":"struct Structs.RateDataV2Params","components":[{"name":"token","type":"address","internalType":"address"},{"name":"kink1","type":"uint256","internalType":"uint256"},{"name":"kink2","type":"uint256","internalType":"uint256"},{"name":"rateAtUtilizationZero","type":"uint256","internalType":"uint256"},{"name":"rateAtUtilizationKink1","type":"uint256","internalType":"uint256"},{"name":"rateAtUtilizationKink2","type":"uint256","internalType":"uint256"},{"name":"rateAtUtilizationMax","type":"uint256","internalType":"uint256"}]}]}]}],"stateMutability":"view"},{"type":"function","name":"getUserSupply","inputs":[{"name":"user_","type":"address","internalType":"address"},{"name":"token_","type":"address","internalType":"address"}],"outputs":[{"name":"","type":"uint256","internalType":"uint256"}],"stateMutability":"view"},{"type":"function","name":"getUserSupplyData","inputs":[{"name":"user_","type":"address","internalType":"address"},{"name":"token_","type":"address","internalType":"address"}],"outputs":[{"name":"userSupplyData_","type":"tuple","internalType":"struct Structs.UserSupplyData","components":[{"name":"modeWithInterest","type":"bool","internalType":"bool"},{"name":"supply","type":"uint256","internalType":"uint256"},{"name":"withdrawalLimit","type":"uint256","internalType":"uint256"},{"name":"lastUpdateTimestamp","type":"uint256","internalType":"uint256"},{"name":"expandPercent","type":"uint256","internalType":"uint256"},{"name":"expandDuration","type":"uint256","internalType":"uint256"},{"name":"baseWithdrawalLimit","type":"uint256","internalType":"uint256"},{"name":"withdrawableUntilLimit","type":"uint256","internalType":"uint256"},{"name":"withdrawable","type":"uint256","internalType":"uint256"}]},{"name":"overallTokenData_","type":"tuple","internalType":"struct Structs.OverallTokenData","components":[{"name":"borrowRate","type":"uint256","internalType":"uint256"},{"name":"supplyRate","type":"uint256","internalType":"uint256"},{"name":"fee","type":"uint256","internalType":"uint256"},{"name":"lastStoredUtilization","type":"uint256","internalType":"uint256"},{"name":"storageUpdateThreshold","type":"uint256","internalType":"uint256"},{"name":"lastUpdateTimestamp","type":"uint256","internalType":"uint256"},{"name":"supplyExchangePrice","type":"uint256","internalType":"uint256"},{"name":"borrowExchangePrice","type":"uint256","internalType":"uint256"},{"name":"supplyRawInterest","type":"uint256","internalType":"uint256"},{"name":"supplyInterestFree","type":"uint256","internalType":"uint256"},{"name":"borrowRawInterest","type":"uint256","internalType":"uint256"},{"name":"borrowInterestFree","type":"uint256","internalType":"uint256"},{"name":"totalSupply","type":"uint256","internalType":"uint256"},{"name":"totalBorrow","type":"uint256","internalType":"uint256"},{"name":"revenue","type":"uint256","internalType":"uint256"},{"name":"maxUtilization","type":"uint256","internalType":"uint256"},{"name":"rateData","type":"tuple","internalType":"struct Structs.RateData","components":[{"name":"version","type":"uint256","internalType":"uint256"},{"name":"rateDataV1","type":"tuple","internalType":"struct Structs.RateDataV1Params","components":[{"name":"token","type":"address","internalType":"address"},{"name":"kink","type":"uint256","internalType":"uint256"},{"name":"rateAtUtilizationZero","type":"uint256","internalType":"uint256"},{"name":"rateAtUtilizationKink","type":"uint256","internalType":"uint256"},{"name":"rateAtUtilizationMax","type":"uint256","internalType":"uint256"}]},{"name":"rateDataV2","type":"tuple","internalType":"struct Structs.RateDataV2Params","components":[{"name":"token","type":"address","internalType":"address"},{"name":"kink1","type":"uint256","internalType":"uint256"},{"name":"kink2","type":"uint256","internalType":"uint256"},{"name":"rateAtUtilizationZero","type":"uint256","internalType":"uint256"},{"name":"rateAtUtilizationKink1","type":"uint256","internalType":"uint256"},{"name":"rateAtUtilizationKink2","type":"uint256","internalType":"uint256"},{"name":"rateAtUtilizationMax","type":"uint256","internalType":"uint256"}]}]}]}],"stateMutability":"view"},{"type":"function","name":"isAuth","inputs":[{"name":"auth_","type":"address","internalType":"address"}],"outputs":[{"name":"","type":"uint256","internalType":"uint256"}],"stateMutability":"view"},{"type":"function","name":"isGuardian","inputs":[{"name":"guardian_","type":"address","internalType":"address"}],"outputs":[{"name":"","type":"uint256","internalType":"uint256"}],"stateMutability":"view"},{"type":"function","name":"listedTokens","inputs":[],"outputs":[{"name":"listedTokens_","type":"address[]","internalType":"address[]"}],"stateMutability":"view"},{"type":"error","name":"FluidLiquidityCalcsError","inputs":[{"name":"errorId_","type":"uint256","internalType":"uint256"}]},{"type":"error","name":"FluidLiquidityResolver__AddressZero","inputs":[]}],"bytecode":{"object":"0x60a060405234620000c5576200001e62000018620001ac565b6200024b565b62000028620000cb565b615537620002c3823960805181818161086d015281816115e401528181611720015281816117b201528181612514015281816125fa0152818161275b015281816128410152818161292701528181612a0d01528181612af301528181612bd901528181612ca701528181612e3b01528181612ff9015281816130ed015281816144d60152818161457001528181614e100152614eac015261553790f35b620000d1565b60405190565b5f80fd5b601f801991011690565b634e487b7160e01b5f52604160045260245ffd5b90620000ff90620000d5565b810190811060018060401b038211176200011857604052565b620000df565b90620001356200012d620000cb565b9283620000f3565b565b5f80fd5b60018060a01b031690565b62000151906200013b565b90565b6200015f9062000146565b90565b6200016d8162000154565b036200017557565b5f80fd5b90505190620001888262000162565b565b90602082820312620001a657620001a3915f0162000179565b90565b62000137565b620001cf620057fa80380380620001c3816200011e565b9283398101906200018a565b90565b90565b620001ee620001e8620001f4926200013b565b620001d2565b6200013b565b90565b6200020290620001d5565b90565b6200021090620001f7565b90565b90565b6200022f62000229620002359262000213565b620001d2565b6200013b565b90565b620002439062000216565b90565b5f0190565b62000261906200025b81620002b0565b62000205565b620002816200027a620002745f62000238565b62000146565b9162000146565b146200028957565b62000293620000cb565b630dd6e9eb60e41b815280620002ac6004820162000246565b0390fd5b620002bb90620002bd565b565b60805256fe60806040526004361015610013575b61150d565b61001d5f3561019c565b80630c68ba211461019757806314c0ac36146101925780631dacf0371461018d5780631f735227146101885780632520e7ff146101835780632861c7d11461017e57806329e04fbf146101795780632b001833146101745780632b66fc051461016f57806334a2e6591461016a57806336ebf76c146101655780634a3d6bda146101605780634e69d5601461015b57806360fed05f1461015657806367269489146101515780636e9384061461014c57806385b6709514610147578063967915d614610142578063b3fc48bc1461013d578063b505b75014610138578063cd4a7e1414610133578063cdb596441461012e578063e72ef91b146101295763ee9e836d0361000e576114d7565b6114a0565b6113a2565b61136d565b61120e565b6111a6565b610f70565b610e1e565b610de9565b610db4565b610d7f565b610d4a565b610d15565b610c4e565b610c01565b610ba9565b610aab565b610a76565b6108e8565b610827565b6107f2565b6107bd565b610739565b610231565b60e01c90565b60405190565b5f80fd5b5f80fd5b5f80fd5b60018060a01b031690565b6101c8906101b4565b90565b6101d4816101bf565b036101db57565b5f80fd5b905035906101ec826101cb565b565b9060208282031261020757610204915f016101df565b90565b6101ac565b90565b6102189061020c565b9052565b919061022f905f6020850194019061020f565b565b346102615761025d61024c6102473660046101ee565b612747565b6102546101a2565b9182918261021c565b0390f35b6101a8565b5f80fd5b5f80fd5b5f80fd5b909182601f830112156102ac5781359167ffffffffffffffff83116102a75760200192602083028401116102a257565b61026e565b61026a565b610266565b9190916040818403126102f2576102ca835f83016101df565b92602082013567ffffffffffffffff81116102ed576102e99201610272565b9091565b6101b0565b6101ac565b5190565b60209181520190565b60200190565b151590565b6103189061030a565b9052565b6103259061020c565b9052565b90610100806103ca936103425f8201515f86019061030f565b6103546020820151602086019061031c565b6103666040820151604086019061031c565b6103786060820151606086019061031c565b61038a6080820151608086019061031c565b61039c60a082015160a086019061031c565b6103ae60c082015160c086019061031c565b6103c060e082015160e086019061031c565b015191019061031c565b565b906103da8161012093610329565b0190565b60200190565b906104016103fb6103f4846102f7565b80936102fb565b92610304565b905f5b8181106104115750505090565b90919261042a61042460019286516103cc565b946103de565b9101919091610404565b5190565b60209181520190565b60200190565b610450906101bf565b9052565b906080806104ac9361046c5f8201515f860190610447565b61047e6020820151602086019061031c565b6104906040820151604086019061031c565b6104a26060820151606086019061031c565b015191019061031c565b565b9060c08061052a936104c65f8201515f860190610447565b6104d86020820151602086019061031c565b6104ea6040820151604086019061031c565b6104fc6060820151606086019061031c565b61050e6080820151608086019061031c565b61052060a082015160a086019061031c565b015191019061031c565b565b9060c06040610561936105455f8201515f86019061031c565b61055760208201516020860190610454565b01519101906104ae565b565b90610200806106a49361057c5f8201515f86019061031c565b61058e6020820151602086019061031c565b6105a06040820151604086019061031c565b6105b26060820151606086019061031c565b6105c46080820151608086019061031c565b6105d660a082015160a086019061031c565b6105e860c082015160c086019061031c565b6105fa60e082015160e086019061031c565b61060e61010082015161010086019061031c565b61062261012082015161012086019061031c565b61063661014082015161014086019061031c565b61064a61016082015161016086019061031c565b61065e61018082015161018086019061031c565b6106726101a08201516101a086019061031c565b6106866101c08201516101c086019061031c565b61069a6101e08201516101e086019061031c565b015191019061052c565b565b906106b4816103a093610563565b0190565b60200190565b906106db6106d56106ce84610434565b8093610438565b92610441565b905f5b8181106106eb5750505090565b9091926107046106fe60019286516106a6565b946106b8565b91019190916106de565b90916107286107369360408401908482035f8601526103e4565b9160208184039101526106be565b90565b3461076b5761075261074c3660046102b1565b9161493f565b9061076761075e6101a2565b9283928361070e565b0390f35b6101a8565b9060c060406107a5936107895f8201515f86019061031c565b61079b60208201516020860190610454565b01519101906104ae565b565b91906107bb905f6101a08501940190610770565b565b346107ed576107e96107d86107d33660046101ee565b6134f5565b6107e06101a2565b918291826107a7565b0390f35b6101a8565b346108225761081e61080d6108083660046101ee565b61282d565b6108156101a2565b9182918261021c565b0390f35b6101a8565b346108575761085361084261083d3660046101ee565b6125e6565b61084a6101a2565b9182918261021c565b0390f35b6101a8565b5f91031261086657565b6101ac565b7f000000000000000000000000000000000000000000000000000000000000000090565b90565b6108a66108a16108ab926101b4565b61088f565b6101b4565b90565b6108b790610892565b90565b6108c3906108ae565b90565b6108cf906108ba565b9052565b91906108e6905f602085019401906108c6565b565b34610918576108f836600461085c565b61091461090361086b565b61090b6101a2565b918291826108d3565b0390f35b6101a8565b9061020080610a5e936109365f8201515f86019061031c565b6109486020820151602086019061031c565b61095a6040820151604086019061031c565b61096c6060820151606086019061031c565b61097e6080820151608086019061031c565b61099060a082015160a086019061031c565b6109a260c082015160c086019061031c565b6109b460e082015160e086019061031c565b6109c861010082015161010086019061031c565b6109dc61012082015161012086019061031c565b6109f061014082015161014086019061031c565b610a0461016082015161016086019061031c565b610a1861018082015161018086019061031c565b610a2c6101a08201516101a086019061031c565b610a406101c08201516101c086019061031c565b610a546101e08201516101e086019061031c565b015191019061052c565b565b9190610a74905f6103a0850194019061091d565b565b34610aa657610aa2610a91610a8c3660046101ee565b613aa9565b610a996101a2565b91829182610a60565b0390f35b6101a8565b34610adb57610ad7610ac6610ac13660046101ee565b612913565b610ace6101a2565b9182918261021c565b0390f35b6101a8565b90602082820312610b11575f82013567ffffffffffffffff8111610b0c57610b089201610272565b9091565b6101b0565b6101ac565b5190565b60209181520190565b60200190565b90610b37816101a09361052c565b0190565b60200190565b90610b5e610b58610b5184610b16565b8093610b1a565b92610b23565b905f5b818110610b6e5750505090565b909192610b87610b816001928651610b29565b94610b3b565b9101919091610b61565b610ba69160208201915f818403910152610b41565b90565b34610bda57610bd6610bc5610bbf366004610ae0565b9061385a565b610bcd6101a2565b91829182610b91565b0390f35b6101a8565b610be8906101bf565b9052565b9190610bff905f60208501940190610bdf565b565b34610c3157610c1136600461085c565b610c2d610c1c6115d1565b610c246101a2565b91829182610bec565b0390f35b6101a8565b610c4b9160208201915f8184039101526106be565b90565b34610c7e57610c5e36600461085c565b610c7a610c696140af565b610c716101a2565b91829182610c36565b0390f35b6101a8565b5190565b60209181520190565b60200190565b90610ca381602093610447565b0190565b60200190565b90610cca610cc4610cbd84610c83565b8093610c87565b92610c90565b905f5b818110610cda5750505090565b909192610cf3610ced6001928651610c96565b94610ca7565b9101919091610ccd565b610d129160208201915f818403910152610cad565b90565b34610d4557610d2536600461085c565b610d41610d30612fe6565b610d386101a2565b91829182610cfd565b0390f35b6101a8565b34610d7a57610d5a36600461085c565b610d76610d65612501565b610d6d6101a2565b9182918261021c565b0390f35b6101a8565b34610daf57610dab610d9a610d953660046101ee565b6129f9565b610da26101a2565b9182918261021c565b0390f35b6101a8565b34610de457610de0610dcf610dca3660046101ee565b612bc5565b610dd76101a2565b9182918261021c565b0390f35b6101a8565b34610e1957610e15610e04610dff3660046101ee565b612adf565b610e0c6101a2565b9182918261021c565b0390f35b6101a8565b34610e4e57610e4a610e39610e343660046101ee565b6116f1565b610e416101a2565b9182918261021c565b0390f35b6101a8565b9190604083820312610e7b5780610e6f610e78925f86016101df565b936020016101df565b90565b6101ac565b9061014080610f4993610e995f8201515f86019061030f565b610eab6020820151602086019061031c565b610ebd6040820151604086019061031c565b610ecf6060820151606086019061031c565b610ee16080820151608086019061031c565b610ef360a082015160a086019061031c565b610f0560c082015160c086019061031c565b610f1760e082015160e086019061031c565b610f2b61010082015161010086019061031c565b610f3f61012082015161012086019061031c565b015191019061031c565b565b91610160610f6e929493610f676105008201965f830190610e80565b019061091d565b565b34610fa257610f89610f83366004610e53565b90614afd565b90610f9e610f956101a2565b92839283610f4b565b0390f35b6101a8565b60608183031261100d57610fbd825f83016101df565b92602082013567ffffffffffffffff81116110085783610fde918401610272565b929093604082013567ffffffffffffffff811161100357610fff9201610272565b9091565b6101b0565b6101b0565b6101ac565b5190565b60209181520190565b60200190565b90610140806110ee9361103e5f8201515f86019061030f565b6110506020820151602086019061031c565b6110626040820151604086019061031c565b6110746060820151606086019061031c565b6110866080820151608086019061031c565b61109860a082015160a086019061031c565b6110aa60c082015160c086019061031c565b6110bc60e082015160e086019061031c565b6110d061010082015161010086019061031c565b6110e461012082015161012086019061031c565b015191019061031c565b565b906110fe8161016093611025565b0190565b60200190565b9061112561111f61111884611012565b8093611016565b9261101f565b905f5b8181106111355750505090565b90919261114e61114860019286516110f0565b94611102565b9101919091611128565b926111876111a395936111796111959460808801908882035f8a01526103e4565b9086820360208801526106be565b908482036040860152611108565b9160608184039101526106be565b90565b346111de576111da6111c56111bc366004610fa7565b939290926153b1565b906111d19492946101a2565b94859485611158565b0390f35b6101a8565b90916111fd61120b9360408401908482035f860152611108565b9160208184039101526106be565b90565b34611240576112276112213660046102b1565b9161530b565b9061123c6112336101a2565b928392836111e3565b0390f35b6101a8565b601f801991011690565b634e487b7160e01b5f52604160045260245ffd5b9061126d90611245565b810190811067ffffffffffffffff82111761128757604052565b61124f565b9061129f6112986101a2565b9283611263565b565b67ffffffffffffffff81116112b95760208091020190565b61124f565b909291926112d36112ce826112a1565b61128c565b938185526020808601920283019281841161131057915b8383106112f75750505050565b6020809161130584866101df565b8152019201916112ea565b61026e565b9080601f8301121561133357816020611330933591016112be565b90565b610266565b90602082820312611368575f82013567ffffffffffffffff8111611363576113609201611315565b90565b6101b0565b6101ac565b3461139d57611399611388611383366004611338565b614029565b6113906101a2565b91829182610c36565b0390f35b6101a8565b346113d3576113cf6113be6113b8366004610e53565b90612e20565b6113c66101a2565b9182918261021c565b0390f35b6101a8565b9061010080611479936113f15f8201515f86019061030f565b6114036020820151602086019061031c565b6114156040820151604086019061031c565b6114276060820151606086019061031c565b6114396080820151608086019061031c565b61144b60a082015160a086019061031c565b61145d60c082015160c086019061031c565b61146f60e082015160e086019061031c565b015191019061031c565b565b9161012061149e9294936114976104c08201965f8301906113d8565b019061091d565b565b346114d2576114b96114b3366004610e53565b906142ba565b906114ce6114c56101a2565b9283928361147b565b0390f35b6101a8565b34611508576115046114f36114ed366004610e53565b90612c8c565b6114fb6101a2565b9182918261021c565b0390f35b6101a8565b5f80fd5b5f90565b90565b90565b5f1b90565b61153461152f61153992611515565b61151b565b611518565b90565b60e01b90565b61154b8161020c565b0361155257565b5f80fd5b9050519061156382611542565b565b9060208282031261157e5761157b915f01611556565b90565b6101ac565b61158c90611518565b9052565b91906115a3905f60208501940190611583565b565b6115ad6101a2565b3d5f823e3d90fd5b6115c96115c46115ce9261020c565b61088f565b6101b4565b90565b6115d9611511565b5061163a60206116087f00000000000000000000000000000000000000000000000000000000000000006108ba565b63b5c736e49061162f61161a5f611520565b926116236101a2565b9586948593849361153c565b835260048301611590565b03915afa9081156116905761165f9161165a915f91611662575b506115b5565b6108ae565b90565b611683915060203d8111611689575b61167b8183611263565b810190611565565b5f611654565b503d611671565b6115a5565b5f90565b73eeeeeeeeeeeeeeeeeeeeeeeeeeeeeeeeeeeeeeee90565b6116ba90610892565b90565b6116c6906116b1565b90565b6116d2906108ae565b90565b6116e96116e46116ee92611515565b61088f565b61020c565b90565b6116f9611695565b508061171461170e611709611699565b6101bf565b916101bf565b145f1461178e576117447f00000000000000000000000000000000000000000000000000000000000000006108ba565b315b61174f82612913565b908161176361175d5f6116d5565b9161020c565b1461177f5761177461177c93612adf565b91909161189f565b90565b50505061178b5f6116d5565b90565b6117f660206117a461179f846116bd565b6116c9565b6370a08231906117eb6117d67f00000000000000000000000000000000000000000000000000000000000000006108ba565b926117df6101a2565b9586948593849361153c565b835260048301610bec565b03915afa90811561183c575f9161180e575b50611746565b61182f915060203d8111611835575b6118278183611263565b810190611565565b5f611808565b503d61181d565b6115a5565b634e487b7160e01b5f52601160045260245ffd5b61186461186a9193929361020c565b9261020c565b820180921161187557565b611841565b61188961188f9193929361020c565b9261020c565b820391821161189a57565b611841565b6118b46118bc926118ae611695565b50611d07565b92908261233c565b91826118d06118ca5f6116d5565b9161020c565b115f14611925576118e6906118ec939492612432565b90611855565b90816119006118fa8361020c565b9161020c565b115f14611915576119109161187a565b5b905b565b50506119205f6116d5565b611911565b50505090611913565b90565b61194561194061194a9261192e565b61088f565b61020c565b90565b611957605b611931565b90565b1c90565b61197d906119776119716119829461020c565b9161020c565b9061195a565b61020c565b90565b90565b61199c6119976119a192611985565b61088f565b61020c565b90565b6119b567ffffffffffffffff611988565b90565b90565b6119cf6119ca6119d4926119b8565b61088f565b61020c565b90565b6119e1609b6119bb565b90565b90565b6119fb6119f6611a00926119e4565b61088f565b61020c565b90565b611a0f620111716119e7565b90565b90565b611a29611a24611a2e92611a12565b61088f565b61020c565b90565b611a3c61ffff611a15565b90565b90565b611a56611a51611a5b92611a3f565b61088f565b61020c565b90565b611a68603a611a42565b90565b90565b611a82611a7d611a8792611a6b565b61088f565b61020c565b90565b611a986401ffffffff611a6e565b90565b90611aa6910361020c565b90565b90565b611ac0611abb611ac592611aa9565b61088f565b61020c565b90565b611ad260ea611aac565b90565b90565b611aec611ae7611af192611ad5565b61088f565b61020c565b90565b611aff617fff611ad8565b90565b90565b611b19611b14611b1e92611b02565b61088f565b61020c565b90565b90611b2c910261020c565b90565b90565b611b46611b41611b4b92611b2f565b61088f565b61020c565b90565b611b5b6301e13380611b32565b90565b90565b611b75611b70611b7a92611b5e565b61088f565b61020c565b90565b611b88612710611b61565b90565b634e487b7160e01b5f52601260045260245ffd5b611bab611bb19161020c565b9161020c565b908115611bbc570490565b611b8b565b90611bcc910161020c565b90565b90565b611be6611be1611beb92611bcf565b61088f565b61020c565b90565b611bf860db611bd2565b90565b60ff1690565b611c15611c10611c1a92611b02565b61088f565b611bfb565b90565b611c3c90611c36611c30611c4194611bfb565b9161020c565b9061195a565b61020c565b90565b90565b611c5b611c56611c6092611c44565b61088f565b61020c565b90565b611c6d601e611c47565b90565b90565b611c87611c82611c8c92611c70565b61088f565b61020c565b90565b611c9a613fff611c73565b90565b90565b611cb4611caf611cb992611c9d565b61088f565b61020c565b90565b90565b611cd3611cce611cd892611cbc565b61088f565b61020c565b90565b90565b611cf2611ced611cf792611cdb565b61088f565b61020c565b90565b611d046010611cde565b90565b611d0f611695565b50611d18611695565b50611d2b81611d2561194d565b9061195e565b611d336119a4565b16611d4682611d406119d7565b9061195e565b611d4e6119a4565b1681611d62611d5c5f6116d5565b9161020c565b1480156121ec575b6121bf5782611d77611a31565b1692611d9e42611d8f83611d89611a5e565b9061195e565b611d97611a8a565b1690611a9b565b91611db182611dab611ac8565b9061195e565b611db9611af4565b169483611dce611dc85f6116d5565b9161020c565b1480156121a5575b801561218a575b6121805790611e1b611dfc611df5611e219484611b21565b8690611b21565b611e15611e07611b4e565b611e0f611b7d565b90611b21565b90611b9f565b90611bc1565b93611e3482611e2e611bee565b9061195e565b611e3c611af4565b1680611e51611e4b6001611b05565b9161020c565b14612179579261202861202261206e9461201c611ff2611fe3611fbd61202d98611fb88c6120749e9d611e846001611b05565b16611e98611e926001611b05565b9161020c565b145f146120e957611f26611ee7611ebc611f3493611eb66001611c01565b90611c1d565b611ee26b033b2e3c9fd0803ce8000000611edd611ed7611b7d565b91611ca0565b611b21565b611b9f565b611f20611efc8b611ef6611c63565b9061195e565b611f04611c8f565b1691611f1b6b033b2e3c9fd0803ce8000000611ca0565b611bc1565b90611b21565b611f2e611b7d565b90611b9f565b915b80611f416001611b05565b16611f55611f4f6001611b05565b9161020c565b145f1461207757611f73611fa991611f6d6001611c01565b90611c1d565b611fa3611f9582611f8f6b033b2e3c9fd0803ce8000000611ca0565b90611b21565b91611f9e611b7d565b611bc1565b90611b9f565b915b611fb3611b7d565b611b21565b611b21565b611fdd760a70c3c40a64e6c51999090b65f67d9240000000000000611cbf565b90611b9f565b83611fec611a31565b16611b21565b9161200d611ffe611b7d565b91612007611cfa565b9061195e565b612015611c8f565b1690611a9b565b90611b21565b85611b21565b611b21565b61206861205a61204c61203e611b4e565b612046611b7d565b90611b21565b612054611b7d565b90611b21565b612062611b7d565b90611b21565b90611b9f565b90611bc1565b91565b61208e6120e3916120886001611c01565b90611c1d565b6120de6120d86b033b2e3c9fd0803ce8000000926120d26120c4826120be6b033b2e3c9fd0803ce8000000611ca0565b90611b21565b916120cd611b7d565b611bc1565b90611b9f565b91611ca0565b611a9b565b91611fab565b612154612103612173926120fd6001611c01565b90611c1d565b61214e6121408b61213b61212c6b033b2e3c9fd0803ce800000092612126611c63565b9061195e565b612134611c8f565b1691611ca0565b611b21565b91612149611b7d565b611bc1565b90611b21565b61216d61215f611b7d565b612167611b7d565b90611b21565b90611b9f565b91611f36565b5050505091565b5094935050509190565b508561219f6121996001611b05565b9161020c565b14611ddd565b50806121b96121b35f6116d5565b9161020c565b14611dd6565b6121e86121ca611a03565b6121d26101a2565b918291636a86ba8960e11b83526004830161021c565b0390fd5b50806122006121fa5f6116d5565b9161020c565b14611d6a565b90565b61221d61221861222292612206565b61088f565b61020c565b90565b61222f6040612209565b90565b90565b61224961224461224e92612232565b61088f565b61020c565b90565b61225b6008612235565b90565b90565b61227561227061227a9261225e565b61088f565b61020c565b90565b61228760ff612261565b90565b1b90565b6122ad906122a76122a16122b29461020c565b9161020c565b9061228a565b61020c565b90565b6122c46122ca9193929361020c565b9261020c565b916122d683820261020c565b9281840414901517156122e557565b611841565b90565b6123016122fc612306926122ea565b61088f565b61020c565b90565b61231764e8d4a510006122ed565b90565b61232661232c9161020c565b9161020c565b908115612337570490565b611b8b565b6123d16123c36123d79361234e611695565b506123be61239261236786612361612225565b9061195e565b61236f6119a4565b166123828161237c612251565b9061195e565b9061238b61227d565b169061228e565b9461239b6119a4565b166123ae816123a8612251565b9061195e565b906123b761227d565b169061228e565b6122b5565b6123cb612309565b9061231a565b90611855565b90565b90565b6123f16123ec6123f6926123da565b61088f565b61020c565b90565b61240360c06123dd565b90565b90565b61241d61241861242292612406565b61088f565b61020c565b90565b61242f6080612409565b90565b6124cf6124c16124d593612444611695565b506124bc6124916124826124608761245a6123f9565b9061195e565b6124728161246c612251565b9061195e565b9061247b61227d565b169061228e565b9561248b612425565b9061195e565b6124996119a4565b166124ac816124a6612251565b9061195e565b906124b561227d565b169061228e565b6122b5565b6124c9612309565b9061231a565b90611855565b90565b6124e26001611b05565b90565b6124f96124f46124fe9261020c565b61151b565b611518565b90565b612509611695565b5061257160206125387f00000000000000000000000000000000000000000000000000000000000000006108ba565b63b5c736e49061256661255161254c6124d8565b6124e5565b9261255a6101a2565b9586948593849361153c565b835260048301611590565b03915afa9081156125b5575f91612587575b5090565b6125a8915060203d81116125ae575b6125a08183611263565b810190611565565b5f612583565b503d612596565b6115a5565b90565b6125d16125cc6125d6926125ba565b61088f565b61020c565b90565b6125e360026125bd565b90565b6020612657916125f4611695565b5061261e7f00000000000000000000000000000000000000000000000000000000000000006108ba565b61264c61263763b5c736e4936126326125d9565b6126d1565b926126406101a2565b9586948593849361153c565b835260048301611590565b03915afa90811561269b575f9161266d575b5090565b61268e915060203d8111612694575b6126868183611263565b810190611565565b5f612669565b503d61267c565b6115a5565b5f90565b9160206126c59294936126be60408201965f830190610bdf565b019061020f565b565b60200190565b5190565b90612705906126de6126a0565b506126f66126ea6101a2565b938492602084016126a4565b60208201810382520382611263565b612717612711826126cd565b916126c7565b2090565b90565b61273261272d6127379261271b565b61088f565b61020c565b90565b612744600361271e565b90565b60206127b891612755611695565b5061277f7f00000000000000000000000000000000000000000000000000000000000000006108ba565b6127ad61279863b5c736e49361279361273a565b6126d1565b926127a16101a2565b9586948593849361153c565b835260048301611590565b03915afa9081156127fc575f916127ce575b5090565b6127ef915060203d81116127f5575b6127e78183611263565b810190611565565b5f6127ca565b503d6127dd565b6115a5565b90565b61281861281361281d92612801565b61088f565b61020c565b90565b61282a6004612804565b90565b602061289e9161283b611695565b506128657f00000000000000000000000000000000000000000000000000000000000000006108ba565b61289361287e63b5c736e493612879612820565b6126d1565b926128876101a2565b9586948593849361153c565b835260048301611590565b03915afa9081156128e2575f916128b4575b5090565b6128d5915060203d81116128db575b6128cd8183611263565b810190611565565b5f6128b0565b503d6128c3565b6115a5565b90565b6128fe6128f9612903926128e7565b61088f565b61020c565b90565b61291060056128ea565b90565b602061298491612921611695565b5061294b7f00000000000000000000000000000000000000000000000000000000000000006108ba565b61297961296463b5c736e49361295f612906565b6126d1565b9261296d6101a2565b9586948593849361153c565b835260048301611590565b03915afa9081156129c8575f9161299a575b5090565b6129bb915060203d81116129c1575b6129b38183611263565b810190611565565b5f612996565b503d6129a9565b6115a5565b90565b6129e46129df6129e9926129cd565b61088f565b61020c565b90565b6129f660066129d0565b90565b6020612a6a91612a07611695565b50612a317f00000000000000000000000000000000000000000000000000000000000000006108ba565b612a5f612a4a63b5c736e493612a456129ec565b6126d1565b92612a536101a2565b9586948593849361153c565b835260048301611590565b03915afa908115612aae575f91612a80575b5090565b612aa1915060203d8111612aa7575b612a998183611263565b810190611565565b5f612a7c565b503d612a8f565b6115a5565b90565b612aca612ac5612acf92612ab3565b61088f565b61020c565b90565b612adc6007612ab6565b90565b6020612b5091612aed611695565b50612b177f00000000000000000000000000000000000000000000000000000000000000006108ba565b612b45612b3063b5c736e493612b2b612ad2565b6126d1565b92612b396101a2565b9586948593849361153c565b835260048301611590565b03915afa908115612b94575f91612b66575b5090565b612b87915060203d8111612b8d575b612b7f8183611263565b810190611565565b5f612b62565b503d612b75565b6115a5565b90565b612bb0612bab612bb592612b99565b61088f565b61020c565b90565b612bc2600b612b9c565b90565b6020612c3691612bd3611695565b50612bfd7f00000000000000000000000000000000000000000000000000000000000000006108ba565b612c2b612c1663b5c736e493612c11612bb8565b6126d1565b92612c1f6101a2565b9586948593849361153c565b835260048301611590565b03915afa908115612c7a575f91612c4c575b5090565b612c6d915060203d8111612c73575b612c658183611263565b810190611565565b5f612c48565b503d612c5b565b6115a5565b612c896008612235565b90565b612d0291602091612c9b611695565b50612cf7612ce2612ccb7f00000000000000000000000000000000000000000000000000000000000000006108ba565b9263b5c736e494612cda612c7f565b919091612d6e565b92612ceb6101a2565b9586948593849361153c565b835260048301611590565b03915afa908115612d46575f91612d18575b5090565b612d39915060203d8111612d3f575b612d318183611263565b810190611565565b5f612d14565b503d612d27565b6115a5565b916020612d6c929493612d6560408201965f830190610bdf565b0190611583565b565b612da4612dde92612d7d6126a0565b50612d95612d896101a2565b938492602084016126a4565b60208201810382520382611263565b612db6612db0826126cd565b916126c7565b2091612dcf612dc36101a2565b93849260208401612d4b565b60208201810382520382611263565b612df0612dea826126cd565b916126c7565b2090565b90565b612e0b612e06612e1092612df4565b61088f565b61020c565b90565b612e1d6009612df7565b90565b612e9691602091612e2f611695565b50612e8b612e76612e5f7f00000000000000000000000000000000000000000000000000000000000000006108ba565b9263b5c736e494612e6e612e13565b919091612d6e565b92612e7f6101a2565b9586948593849361153c565b835260048301611590565b03915afa908115612eda575f91612eac575b5090565b612ecd915060203d8111612ed3575b612ec58183611263565b810190611565565b5f612ea8565b503d612ebb565b6115a5565b606090565b90565b612efb612ef6612f0092612ee4565b61088f565b61020c565b90565b612f0d600a612ee7565b90565b90612f22612f1d836112a1565b61128c565b918252565b369037565b90612f51612f3983612f10565b92602080612f4786936112a1565b9201910390612f27565b565b5f1c90565b612f6c612f67612f719261020c565b61088f565b61020c565b90565b612f80612f8591612f53565b612f58565b90565b612f919061020c565b5f198114612f9f5760010190565b611841565b634e487b7160e01b5f52603260045260245ffd5b90612fc282610c83565b811015612fd3576020809102010190565b612fa4565b90612fe2906101bf565b9052565b612fee612edf565b50613056602061301d7f00000000000000000000000000000000000000000000000000000000000000006108ba565b63b5c736e49061304b613036613031612f03565b6124e5565b9261303f6101a2565b9586948593849361153c565b835260048301611590565b03915afa9081156131fb575f916131cd575b5061307281612f2c565b916130bf6130986130a7613084612f03565b61308c6101a2565b9283916020830161021c565b60208201810382520382611263565b6130b96130b3826126cd565b916126c7565b20612f74565b906130c8611695565b5b806130dc6130d68661020c565b9161020c565b10156131c75761314d9060206131117f00000000000000000000000000000000000000000000000000000000000000006108ba565b63b5c736e49061314261312d613128898790611855565b6124e5565b926131366101a2565b9687948593849361153c565b835260048301611590565b03915afa9182156131c25761317861317361318f9461318a935f91613194575b506115b5565b6108ae565b6131858891849092612fb8565b612fd8565b612f88565b6130c9565b6131b5915060203d81116131bb575b6131ad8183611263565b810190611565565b5f61316d565b503d6131a3565b6115a5565b50915050565b6131ee915060203d81116131f4575b6131e68183611263565b810190611565565b5f613068565b503d6131dc565b6115a5565b61320a606061128c565b90565b5f90565b61321b60a061128c565b90565b5f90565b61322a613211565b906020808080808661323a61321e565b81520161324561320d565b81520161325061320d565b81520161325b61320d565b81520161326661320d565b81525050565b613274613222565b90565b61328160e061128c565b90565b61328c613277565b9060208080808080808861329e61321e565b8152016132a961320d565b8152016132b461320d565b8152016132bf61320d565b8152016132ca61320d565b8152016132d561320d565b8152016132e061320d565b81525050565b6132ee613284565b90565b6132f9613200565b90602080808461330761320d565b81520161331261326c565b81520161331d6132e6565b81525050565b61332b6132f1565b90565b90565b61334561334061334a9261332e565b61088f565b61020c565b90565b906133579061020c565b9052565b613365905161020c565b90565b60209181520190565b5f7f6e6f742d76616c69642d726174652d76657273696f6e00000000000000000000910152565b6133a56016602092613368565b6133ae81613371565b0190565b6133c79060208101905f818303910152613398565b90565b6133d46004612804565b90565b6133e261ffff611a15565b90565b90565b6133fc6133f7613401926133e5565b61088f565b61020c565b90565b61340e60146133e8565b90565b90565b61342861342361342d92613411565b61088f565b61020c565b90565b61343a6024613414565b90565b90565b61345461344f6134599261343d565b61088f565b61020c565b90565b6134666034613440565b90565b90565b61348061347b61348592613469565b61088f565b61020c565b90565b613492604461346c565b90565b90565b6134ac6134a76134b192613495565b61088f565b61020c565b90565b6134be6054613498565b90565b6134cb6004612804565b90565b6134d860146133e8565b90565b6134e56024613414565b90565b6134f26034613440565b90565b906134fe613323565b91613508816129f9565b9061352082613517600f613331565b165f860161334d565b61352b5f850161335b565b61353e6135386001611b05565b9161020c565b145f14613603576136009161355c6135ea925f602088015101612fd8565b6135876135718261356b6134c1565b9061195e565b6135796133d7565b16604060208801510161334d565b6135b161359c826135966134ce565b9061195e565b6135a46133d7565b166020808801510161334d565b6135dc6135c6826135c06134db565b9061195e565b6135ce6133d7565b16606060208801510161334d565b6135e46134e8565b9061195e565b6135f26133d7565b16608060208501510161334d565b5b565b61360e5f850161335b565b61362161361b60026125bd565b9161020c565b145f1461373f576137399161363f613723925f604088015101612fd8565b61366a6136548261364e6133ca565b9061195e565b61365c6133d7565b16606060408801510161334d565b61369561367f82613679613404565b9061195e565b6136876133d7565b16602060408801510161334d565b6136c06136aa826136a4613430565b9061195e565b6136b26133d7565b16608060408801510161334d565b6136ea6136d5826136cf61345c565b9061195e565b6136dd6133d7565b166040808801510161334d565b6137156136ff826136f9613488565b9061195e565b6137076133d7565b1660a060408801510161334d565b61371d6134b4565b9061195e565b61372b6133d7565b1660c060408501510161334d565b5b613601565b505061374c5f830161335b565b61375e6137585f6116d5565b9161020c565b111561373a5761376c6101a2565b62461bcd60e51b815280613782600482016133b2565b0390fd5b606090565b5090565b67ffffffffffffffff81116137a75760208091020190565b61124f565b906137be6137b98361378f565b61128c565b918252565b6137cb6132f1565b90565b5f5b8281106137dc57505050565b6020906137e76137c3565b81840152016137d0565b906138166137fe836137ac565b9260208061380c869361378f565b92019103906137ce565b565b9190811015613828576020020190565b612fa4565b35613837816101cb565b90565b9061384482610b16565b811015613855576020809102010190565b612fa4565b90613863613786565b5061386f82829061378b565b91613879836137f1565b93613882611695565b5b806138966138908761020c565b9161020c565b10156138de576138d9906138d26138bf6138ba6138b587898691613818565b61382d565b6134f5565b8883916138cc838361383a565b5261383a565b5150612f88565b613883565b5092505050565b6138f061022061128c565b90565b6138fb6138e5565b908161390561320d565b815260200161391261320d565b815260200161391f61320d565b815260200161392c61320d565b815260200161393961320d565b815260200161394661320d565b815260200161395361320d565b815260200161396061320d565b815260200161396d61320d565b815260200161397a61320d565b815260200161398761320d565b815260200161399461320d565b81526020016139a161320d565b81526020016139ae61320d565b81526020016139bb61320d565b81526020016139c861320d565b81526020016139d56137c3565b815250565b6139e26138f3565b90565b6139f0613fff611c73565b90565b90565b613a0a613a05613a0f926139f3565b61088f565b61020c565b90565b613a1c602c6139f6565b90565b613a2d6401ffffffff611a6e565b90565b613a3b612710611b61565b90565b90565b613a55613a50613a5a92613a3e565b61088f565b61020c565b90565b613a6760f9613a41565b90565b613a7b67ffffffffffffffff611988565b90565b613a886008612235565b90565b613a9560ff612261565b90565b613aa664e8d4a510006122ed565b90565b90613ab26139da565b91613abc816134f5565b610200840152613acb81612913565b80613ade613ad85f6116d5565b9161020c565b11613ae8575b5050565b81613e1d91613d34613d2a613d08613b02613e2797612adf565b613b288a613b22613b1288611d07565b60e060c08594939401940161334d565b9061334d565b613b3d85613b346133d7565b165f8c0161334d565b613b64613b5286613b4c611cfa565b9061195e565b613b5a6139e5565b1660408c0161334d565b613b8b613b7986613b73611c63565b9061195e565b613b816139e5565b1660608c0161334d565b613bb2613ba086613b9a613a12565b9061195e565b613ba86139e5565b1660808c0161334d565b613bd9613bc786613bc1611a5e565b9061195e565b613bcf613a1f565b1660a08c0161334d565b613bee613be4613a30565b6101e08c0161334d565b613c0085613bfa613a5d565b9061195e565b613c0a6001611b05565b16613c1e613c186001611b05565b9161020c565b14613f4a575b613c60613c5682613c33613a6a565b16613c4681613c40613a7e565b9061195e565b90613c4f613a8b565b169061228e565b6101008c0161334d565b613cad613ca3613c7883613c72612225565b9061195e565b613c80613a6a565b16613c9381613c8d613a7e565b9061195e565b90613c9c613a8b565b169061228e565b6101208c0161334d565b613cfa613cf0613cc583613cbf612425565b9061195e565b613ccd613a6a565b16613ce081613cda613a7e565b9061195e565b90613ce9613a8b565b169061228e565b6101408c0161334d565b613d026123f9565b9061195e565b613d1a81613d14613a7e565b9061195e565b90613d23613a8b565b169061228e565b610160880161334d565b613d3c611695565b50613d45611695565b50613d53610100870161335b565b613d65613d5f5f6116d5565b9161020c565b11613e2e575b50613dc2613db8613da5613d97613d856101008a0161335b565b613d9160c08b0161335b565b906122b5565b613d9f613a98565b9061231a565b613db2610120890161335b565b90611855565b610180870161334d565b613e18613e0e613dfb613ded613ddb6101408a0161335b565b613de760e08b0161335b565b906122b5565b613df5613a98565b9061231a565b613e08610160890161335b565b90611855565b6101a0870161334d565b6116f1565b6101c0840161334d565b5f80613ae4565b613eb3613ea5613e76613e68613e476101008b0161335b565b613e5986613e5361194d565b9061195e565b613e61613a6a565b16906122b5565b613e70613a98565b9061231a565b92613e96613e876101408b0161335b565b91613e906119d7565b9061195e565b613e9e613a6a565b16906122b5565b613ead613a98565b9061231a565b81613ec6613ec05f6116d5565b9161020c565b145f14613eeb575050613ee5613edb5f6116d5565b5b6020870161334d565b5f613d6b565b613ee591613f3f613f30613f4593613f2b613f075f8d0161335b565b613f258d613f1f6040613f18613a30565b920161335b565b9061187a565b906122b5565b6122b5565b91613f39613a30565b906122b5565b9061231a565b613edc565b613f69613f5687612bc5565b613f5e6139e5565b166101e08c0161334d565b613c24565b606090565b67ffffffffffffffff8111613f8b5760208091020190565b61124f565b90613fa2613f9d83613f73565b61128c565b918252565b613faf6138f3565b90565b5f5b828110613fc057505050565b602090613fcb613fa7565b8184015201613fb4565b90613ffa613fe283613f90565b92602080613ff08693613f73565b9201910390613fb2565b565b61400690516101bf565b90565b9061401382610434565b811015614024576020809102010190565b612fa4565b614031613f6e565b5061403b81610c83565b9061404582613fd5565b9261404e611695565b5b8061406261405c8661020c565b9161020c565b10156140a9576140a49061409d61408a614085614080878590612fb8565b613ffc565b613aa9565b8783916140978383614009565b52614009565b5150612f88565b61404f565b50915050565b6140b7613f6e565b506140c86140c3612fe6565b614029565b90565b6140d661012061128c565b90565b5f90565b6140e56140cb565b90602080808080808080808a6140f96140d9565b81520161410461320d565b81520161410f61320d565b81520161411a61320d565b81520161412561320d565b81520161413061320d565b81520161413b61320d565b81520161414661320d565b81520161415161320d565b81525050565b61415f6140dd565b90565b9061416c9061030a565b9052565b61417a6001611b05565b90565b90565b61419461418f6141999261417d565b61088f565b61020c565b90565b6141a66081614180565b90565b90565b6141c06141bb6141c5926141a9565b61088f565b61020c565b90565b6141d260a26141ac565b90565b90565b6141ec6141e76141f1926141d5565b61088f565b61020c565b90565b6141fe60b06141d8565b90565b90565b61421861421361421d92614201565b61088f565b61020c565b90565b61422c62ffffff614204565b90565b90565b61424661424161424b9261422f565b61088f565b61020c565b90565b61425860c8614232565b90565b90565b61427261426d6142779261425b565b61088f565b61020c565b90565b6142866203ffff61425e565b90565b614293905161030a565b90565b61429f90610892565b90565b6142ab90614296565b90565b6142b7906108ae565b90565b90916142c4614157565b926142cd6139da565b506142e26142da82613aa9565b938290612c8c565b806142f56142ef5f6116d5565b9161020c565b116142ff575b5050565b61443861441982614334614441946143176001611b05565b1661432b6143256001611b05565b9161020c565b145f8a01614162565b61437461436b61434c83614346614170565b9061195e565b614354613a6a565b1661435d613a7e565b614365613a8b565b916146cf565b60208a0161334d565b61439661438d8261438760208c0161335b565b9061471d565b60408a0161334d565b6143bd6143ab826143a561419c565b9061195e565b6143b3613a1f565b1660608a0161334d565b6143e46143d2826143cc6141c8565b9061195e565b6143da6139e5565b1660808a0161334d565b61440b6143f9826143f36141f4565b9061195e565b614401614220565b1660a08a0161334d565b61441361424e565b9061195e565b61442161427a565b1661442a613a7e565b614432613a8b565b916146cf565b60c0860161334d565b61444c5f8501614289565b614610575b61445d6020850161335b565b61447a61447461446f6040880161335b565b61020c565b9161020c565b115f146145ff576144af6144a56144936020870161335b565b61449f6040880161335b565b9061187a565b5b60e0860161334d565b806144c96144c36144be611699565b6101bf565b916101bf565b145f1461454c57506144fa7f00000000000000000000000000000000000000000000000000000000000000006108ba565b315b8061451a61451461450f60e0880161335b565b61020c565b9161020c565b115f14614543575061453c61453160e0850161335b565b5b610100850161334d565b5f806142fb565b61453c90614532565b602061456261455d6145b4936142a2565b6142ae565b6370a08231906145a96145947f00000000000000000000000000000000000000000000000000000000000000006108ba565b9261459d6101a2565b9586948593849361153c565b835260048301610bec565b03915afa9081156145fa575f916145cc575b506144fc565b6145ed915060203d81116145f3575b6145e58183611263565b810190611565565b5f6145c6565b503d6145db565b6115a5565b6144af61460b5f6116d5565b6144a6565b61464e6146456146376146256020880161335b565b61463160c0880161335b565b906122b5565b61463f613a98565b9061231a565b6020860161334d565b61468c6146836146756146636040880161335b565b61466f60c0880161335b565b906122b5565b61467d613a98565b9061231a565b6040860161334d565b6146ca6146c16146b36146a160c0880161335b565b6146ad60c0880161335b565b906122b5565b6146bb613a98565b9061231a565b60c0860161334d565b614451565b8092916146da611695565b501c91161b90565b90565b6146f96146f46146fe926146e2565b61088f565b61020c565b90565b61470b60416146e5565b90565b61471a62ffffff614204565b90565b919091614728611695565b5061476961473e82614738614701565b9061195e565b6147466119a4565b1661475981614753612251565b9061195e565b9061476261227d565b169061228e565b8061477c6147765f6116d5565b9161020c565b14614881579061484b9161478e611695565b50614797611695565b506148216147d16147c36147b3856147ad6141c8565b9061195e565b6147bb611c8f565b168890611b21565b6147cb611b7d565b90611b9f565b926148126148036147fd426147ee856147e861419c565b9061195e565b6147f6611a8a565b1690611a9b565b866122b5565b9161480c6141f4565b9061195e565b61481a61470e565b169061231a565b8161483461482e8361020c565b9161020c565b115f146148715761484491611a9b565b5b93611a9b565b8061485e6148588561020c565b9161020c565b11614867575b50565b909150905f614864565b505061487c5f6116d5565b614845565b5050905061488e5f6116d5565b90565b606090565b67ffffffffffffffff81116148ae5760208091020190565b61124f565b906148c56148c083614896565b61128c565b918252565b6148d26140dd565b90565b5f5b8281106148e357505050565b6020906148ee6148ca565b81840152016148d7565b9061491d614905836148b3565b926020806149138693614896565b92019103906148d5565b565b90614929826102f7565b81101561493a576020809102010190565b612fa4565b9290614949614891565b50614952613f6e565b5061495e81849061378b565b92614968846148f8565b9461497285613fd5565b9361497b611695565b5b8061498f6149898961020c565b9161020c565b10156149dc576149d7906149d16149ba856149b46149af8a8a8791613818565b61382d565b906142ba565b8b92919284916149cb8c8790614009565b5261491f565b52612f88565b61497c565b50939450505050565b6149f061016061128c565b90565b6149fb6149e5565b906020808080808080808080808c614a116140d9565b815201614a1c61320d565b815201614a2761320d565b815201614a3261320d565b815201614a3d61320d565b815201614a4861320d565b815201614a5361320d565b815201614a5e61320d565b815201614a6961320d565b815201614a7461320d565b815201614a7f61320d565b81525050565b614a8d6149f3565b90565b614a9a6001611b05565b90565b614aa76081614180565b90565b614ab460a26141ac565b90565b614ac160b06141d8565b90565b614ace60c8614232565b90565b90565b614ae8614ae3614aed92614ad1565b61088f565b61020c565b90565b614afa60da614ad4565b90565b9091614b07614a85565b92614b106139da565b50614b25614b1d82613aa9565b938290612e20565b80614b38614b325f6116d5565b9161020c565b11614b42575b5050565b614cbb614c9c82614b77614cc494614b5a6001611b05565b16614b6e614b686001611b05565b9161020c565b145f8a01614162565b614bb7614bae614b8f83614b89614a90565b9061195e565b614b97613a6a565b16614ba0613a7e565b614ba8613a8b565b916146cf565b60208a0161334d565b614bd9614bd082614bca60208c0161335b565b9061507a565b60408a0161334d565b614c00614bee82614be8614a9d565b9061195e565b614bf6613a1f565b1660608a0161334d565b614c27614c1582614c0f614aaa565b9061195e565b614c1d6139e5565b1660808a0161334d565b614c4e614c3c82614c36614ab7565b9061195e565b614c44614220565b1660a08a0161334d565b614c8e614c85614c6683614c60614ac4565b9061195e565b614c6e61427a565b16614c77613a7e565b614c7f613a8b565b916146cf565b60c08a0161334d565b614c96614af0565b9061195e565b614ca461427a565b16614cad613a7e565b614cb5613a8b565b916146cf565b60e0860161334d565b614ccf5f8501614289565b614f61575b614d18614d0e614cfd614cea6101e0870161335b565b614cf7610180880161335b565b906122b5565b614d08612710611b61565b9061231a565b610140860161334d565b614d25610140850161335b565b614d43614d3d614d386101a0870161335b565b61020c565b9161020c565b115f14614f5057614de9614d70614d5d610140870161335b565b614d6a6101a0870161335b565b9061187a565b5b614d7d6040870161335b565b614d9a614d94614d8f60208a0161335b565b61020c565b9161020c565b115f14614f4257614dc2614db06040880161335b565b614dbc6020890161335b565b9061187a565b5b80614dd6614dd08461020c565b9161020c565b115f14614f3b57505b610100860161334d565b80614e03614dfd614df8611699565b6101bf565b916101bf565b145f14614e885750614e347f00000000000000000000000000000000000000000000000000000000000000006108ba565b315b80614e55614e4f614e4a610100880161335b565b61020c565b9161020c565b115f14614e7f5750614e78614e6d610100850161335b565b5b610120850161334d565b5f80614b3e565b614e7890614e6e565b6020614e9e614e99614ef0936142a2565b6142ae565b6370a0823190614ee5614ed07f00000000000000000000000000000000000000000000000000000000000000006108ba565b92614ed96101a2565b9586948593849361153c565b835260048301610bec565b03915afa908115614f36575f91614f08575b50614e36565b614f29915060203d8111614f2f575b614f218183611263565b810190611565565b5f614f02565b503d614f17565b6115a5565b9050614ddf565b614f4b5f6116d5565b614dc3565b614de9614f5c5f6116d5565b614d71565b614f9f614f96614f88614f766020880161335b565b614f8260e0880161335b565b906122b5565b614f90613a98565b9061231a565b6020860161334d565b614fdd614fd4614fc6614fb46040880161335b565b614fc060e0880161335b565b906122b5565b614fce613a98565b9061231a565b6040860161334d565b61501b615012615004614ff260c0880161335b565b614ffe60e0880161335b565b906122b5565b61500c613a98565b9061231a565b60c0860161334d565b61505961505061504261503060e0880161335b565b61503c60e0880161335b565b906122b5565b61504a613a98565b9061231a565b60e0860161334d565b614cd4565b61506a6203ffff61425e565b90565b61507760416146e5565b90565b919091615085611695565b506150d86150d06150c26150a18461509b614aaa565b9061195e565b6150a9611c8f565b166150b2611695565b506150bb611695565b5086611b21565b6150ca611b7d565b90611b9f565b938490611bc1565b926151196150ee836150e8614ac4565b9061195e565b6150f661505e565b1661510981615103612251565b9061195e565b9061511261227d565b169061228e565b8461512c6151268361020c565b9161020c565b1061525557506151886151676151c292615161426151528761514c614a9d565b9061195e565b61515a611a8a565b1690611a9b565b906122b5565b61517984615173614ab7565b9061195e565b61518161470e565b169061231a565b6151bc61519d8461519761506d565b9061195e565b6151a56119a4565b166151ae612251565b6151b661227d565b916146cf565b90611855565b92836151d66151d08361020c565b9161020c565b11615243575b506151f261521d916151ec614af0565b9061195e565b6151fa61505e565b1661520d81615207612251565b9061195e565b9061521661227d565b169061228e565b8261523061522a8361020c565b9161020c565b11615239575b50565b909150905f615236565b61521d9193506151f2909391506151dc565b929350505090565b606090565b67ffffffffffffffff811161527a5760208091020190565b61124f565b9061529161528c83615262565b61128c565b918252565b61529e6149f3565b90565b5f5b8281106152af57505050565b6020906152ba615296565b81840152016152a3565b906152e96152d18361527f565b926020806152df8693615262565b92019103906152a1565b565b906152f582611012565b811015615306576020809102010190565b612fa4565b929061531561525d565b5061531e613f6e565b5061532a81849061378b565b92615334846152c4565b9461533e85613fd5565b93615347611695565b5b8061535b6153558961020c565b9161020c565b10156153a8576153a39061539d6153868561538061537b8a8a8791613818565b61382d565b90614afd565b8b92919284916153978c8790614009565b526152eb565b52612f88565b615348565b50939450505050565b949392949190916153c0614891565b506153c9613f6e565b506153d261525d565b506153db613f6e565b506153e783839061378b565b956153f1876148f8565b956153fb88613fd5565b95615404611695565b5b806154186154128c61020c565b9161020c565b101561546657615461908861545b6154448861543e6154398d8d8891613818565b61382d565b906142ba565b8d9391939061545586938790614009565b5261491f565b52612f88565b615405565b5093509350955061547886839061378b565b94615482866152c4565b9461548c87613fd5565b94615495611695565b5b806154a96154a38b61020c565b9161020c565b10156154f7576154f2906154ec6154d58c6154cf6154ca8a928c8791613818565b61382d565b90614afd565b8b92919284916154e68d8790614009565b526152eb565b52612f88565b615496565b509350955095505056fea26469706673582212205360a838c974bd78767517964cedc3177cd6c12ce46c3090d7ccd7b0e9acf9be64736f6c63430008150033","linkReferences":{}},"methodIdentifiers":{"LIQUIDITY()":"2861c7d1","getAllOverallTokensData()":"36ebf76c","getConfigs2(address)":"67269489","getExchangePricesAndConfig(address)":"2b001833","getOverallTokenData(address)":"29e04fbf","getOverallTokensData(address[])":"cd4a7e14","getRateConfig(address)":"60fed05f","getRevenue(address)":"85b67095","getRevenueCollector()":"34a2e659","getStatus()":"4e69d560","getTokenRateData(address)":"1dacf037","getTokensRateData(address[])":"2b66fc05","getTotalAmounts(address)":"6e938406","getUserBorrow(address,address)":"cdb59644","getUserBorrowData(address,address)":"967915d6","getUserClass(address)":"1f735227","getUserMultipleBorrowData(address,address[])":"b505b750","getUserMultipleBorrowSupplyData(address,address[],address[])":"b3fc48bc","getUserMultipleSupplyData(address,address[])":"14c0ac36","getUserSupply(address,address)":"ee9e836d","getUserSupplyData(address,address)":"e72ef91b","isAuth(address)":"2520e7ff","isGuardian(address)":"0c68ba21","listedTokens()":"4a3d6bda"},"id":36}