{"abi":[{"type":"constructor","inputs":[{"name":"configurator_","type":"address","internalType":"address"},{"name":"fToken_","type":"address","internalType":"address"},{"name":"fToken2_","type":"address","internalType":"address"},{"name":"fToken3_","type":"address","internalType":"address"},{"name":"startTvl_","type":"uint256","internalType":"uint256"},{"name":"rewardAmount_","type":"uint256","internalType":"uint256"},{"name":"duration_","type":"uint256","internalType":"uint256"},{"name":"startTime_","type":"uint256","internalType":"uint256"}],"stateMutability":"nonpayable"},{"type":"function","name":"FTOKEN","inputs":[],"outputs":[{"name":"","type":"address","internalType":"address"}],"stateMutability":"view"},{"type":"function","name":"FTOKEN2","inputs":[],"outputs":[{"name":"","type":"address","internalType":"address"}],"stateMutability":"view"},{"type":"function","name":"FTOKEN3","inputs":[],"outputs":[{"name":"","type":"address","internalType":"address"}],"stateMutability":"view"},{"type":"function","name":"cancelQueuedRewards","inputs":[],"outputs":[],"stateMutability":"nonpayable"},{"type":"function","name":"getConfig","inputs":[],"outputs":[{"name":"duration_","type":"uint256","internalType":"uint256"},{"name":"startTime_","type":"uint256","internalType":"uint256"},{"name":"endTime_","type":"uint256","internalType":"uint256"},{"name":"startTvl_","type":"uint256","internalType":"uint256"},{"name":"maxRate_","type":"uint256","internalType":"uint256"},{"name":"rewardAmount_","type":"uint256","internalType":"uint256"},{"name":"initiator_","type":"address","internalType":"address"}],"stateMutability":"view"},{"type":"function","name":"getRate","inputs":[{"name":"totalAssets_","type":"uint256","internalType":"uint256"}],"outputs":[{"name":"rate_","type":"uint256","internalType":"uint256"},{"name":"ended_","type":"bool","internalType":"bool"},{"name":"startTime_","type":"uint256","internalType":"uint256"}],"stateMutability":"view"},{"type":"function","name":"queueNextRewards","inputs":[{"name":"rewardAmount_","type":"uint256","internalType":"uint256"},{"name":"duration_","type":"uint256","internalType":"uint256"}],"outputs":[],"stateMutability":"nonpayable"},{"type":"function","name":"startRewards","inputs":[{"name":"rewardAmount_","type":"uint256","internalType":"uint256"},{"name":"duration_","type":"uint256","internalType":"uint256"},{"name":"startTime_","type":"uint256","internalType":"uint256"}],"outputs":[],"stateMutability":"nonpayable"},{"type":"function","name":"stopRewards","inputs":[],"outputs":[],"stateMutability":"nonpayable"},{"type":"function","name":"transitionToNextRewards","inputs":[],"outputs":[],"stateMutability":"nonpayable"},{"type":"event","name":"LogCancelQueuedRewards","inputs":[],"anonymous":false},{"type":"event","name":"LogQueueNextRewards","inputs":[{"name":"rewardAmount","type":"uint256","indexed":false,"internalType":"uint256"},{"name":"duration","type":"uint256","indexed":false,"internalType":"uint256"}],"anonymous":false},{"type":"event","name":"LogStartRewards","inputs":[{"name":"rewardAmount","type":"uint256","indexed":false,"internalType":"uint256"},{"name":"duration","type":"uint256","indexed":false,"internalType":"uint256"},{"name":"startTime","type":"uint256","indexed":false,"internalType":"uint256"}],"anonymous":false},{"type":"event","name":"LogStopRewards","inputs":[],"anonymous":false},{"type":"event","name":"LogTransitionedToNextRewards","inputs":[{"name":"startTime","type":"uint256","indexed":false,"internalType":"uint256"},{"name":"endTime","type":"uint256","indexed":false,"internalType":"uint256"}],"anonymous":false},{"type":"error","name":"FluidLendingError","inputs":[{"name":"errorId_","type":"uint256","internalType":"uint256"}]}],"bytecode":{"object":"0x61012060405234620000e057620000296200001962000255565b969590959491949392936200057a565b62000033620000e6565b611fc262000746823960805181818161083001528181610a1f0152610b11015260a05181818161086201528181610c04015281816112dd0152818161196b0152611b8b015260c0518181816102e801528181610f2001526115c5015260e0518181816103ad01528181610f82015281816111710152818161164601526117ce0152610100518181816104aa01528181610fc3015281816110cd01528181611687015261170c0152611fc290f35b620000ec565b60405190565b5f80fd5b601f801991011690565b634e487b7160e01b5f52604160045260245ffd5b906200011a90620000f0565b810190811060018060401b038211176200013357604052565b620000fa565b906200015062000148620000e6565b92836200010e565b565b5f80fd5b60018060a01b031690565b6200016c9062000156565b90565b6200017a8162000161565b036200018257565b5f80fd5b9050519062000195826200016f565b565b90565b620001a58162000197565b03620001ad57565b5f80fd5b90505190620001c0826200019a565b565b9190610100838203126200024f57620001de815f850162000186565b92620001ee826020830162000186565b92620001fe836040840162000186565b926200020e816060850162000186565b926200021e8260808301620001b1565b926200024c620002328460a08501620001b1565b93620002428160c08601620001b1565b9360e001620001b1565b90565b62000152565b6200027862002708803803806200026c8162000139565b928339810190620001c2565b9091929394959697565b90565b90565b620002a16200029b620002a79262000282565b62000285565b62000156565b90565b620002b59062000288565b90565b620002d1620002cb620002d79262000282565b62000285565b62000197565b90565b90565b620002f6620002f0620002fc92620002da565b62000285565b62000197565b90565b6200030c6159d9620002dd565b90565b6200031a9062000197565b9052565b919062000333905f602085019401906200030f565b565b64ffffffffff1690565b62000358620003526200035e9262000197565b62000285565b62000335565b90565b5f1b90565b906200037864ffffffffff9162000361565b9181191691161790565b6200039b62000395620003a19262000335565b62000285565b62000335565b90565b90565b90620003c1620003bb620003c99262000382565b620003a4565b825462000366565b9055565b60281b90565b90620003ea69ffffffffff000000000091620003cd565b9181191691161790565b906200040e62000408620004169262000382565b620003a4565b8254620003d3565b9055565b90565b62000436620004306200043c926200041a565b62000285565b62000197565b90565b6200044e6301e133806200041d565b90565b634e487b7160e01b5f52601160045260245ffd5b620004776200047e9193929362000197565b9262000197565b916200048c83820262000197565b9281840414901517156200049c57565b62000451565b634e487b7160e01b5f52601260045260245ffd5b620004c5620004cc9162000197565b9162000197565b908115620004d8570490565b620004a2565b60018060b01b031690565b62000502620004fc620005089262000197565b62000285565b620004de565b90565b60501b90565b906200052560018060501b0319916200050b565b9181191691161790565b62000548620005426200054e92620004de565b62000285565b620004de565b90565b90565b906200056e6200056862000576926200052f565b62000551565b825462000511565b9055565b9593959491929480620005a26200059b620005955f620002aa565b62000161565b9162000161565b1480156200071c575b8015620006fd575b8015620006de575b8015620006bf575b80156200067a575b620006475762000645976200063e976200063897620006329662000621956200061a9560a05260c05260e05261010052608052620006146200060d876200033f565b5f620003a7565b6200033f565b5f620003f4565b6200062b6200043f565b9062000465565b620004b6565b620004e9565b5f62000554565b565b6200067662000655620002ff565b6200065f620000e6565b91829163694bda1d60e01b8352600483016200031e565b0390fd5b5087620006926200068b5f620002b8565b9162000197565b1180620006a0575b620005cb565b5087620006b8620006b14262000197565b9162000197565b106200069a565b5084620006d7620006d05f620002b8565b9162000197565b14620005c3565b5086620006f6620006ef5f620002b8565b9162000197565b14620005bb565b5082620007156200070e5f620002b8565b9162000197565b14620005b3565b50816200073e62000737620007315f620002aa565b62000161565b9162000161565b14620005ab56fe60806040526004361015610013575b610501565b61001d5f356100bc565b806306786dd1146100b75780630aa9a12b146100b257806357764094146100ad5780636283311d146100a8578063797008c6146100a3578063976fe91a1461009e578063ad759a9214610099578063bfa35e4414610094578063c3f909d41461008f5763dce608380361000e576104cc565b61046c565b6103cf565b610378565b610343565b6102b3565b61027f565b61020d565b61016b565b610128565b60e01c90565b60405190565b5f80fd5b5f80fd5b90565b6100dc816100d0565b036100e357565b5f80fd5b905035906100f4826100d3565b565b919060408382031261011e578061011261011b925f86016100e7565b936020016100e7565b90565b6100cc565b5f0190565b346101575761014161013b3660046100f6565b90611de6565b6101496100c2565b8061015381610123565b0390f35b6100c8565b5f91031261016657565b6100cc565b346101995761017b36600461015c565b610183611b77565b61018b6100c2565b8061019581610123565b0390f35b6100c8565b906020828203126101b7576101b4915f016100e7565b90565b6100cc565b6101c5906100d0565b9052565b151590565b6101d7906101c9565b9052565b60409061020461020b94969593966101fa60608401985f8501906101bc565b60208301906101ce565b01906101bc565b565b346102405761023c61022861022336600461019e565b61092b565b6102339391936100c2565b938493846101db565b0390f35b6100c8565b909160608284031261027a57610277610260845f85016100e7565b9361026e81602086016100e7565b936040016100e7565b90565b6100cc565b346102ae57610298610292366004610245565b91611955565b6102a06100c2565b806102aa81610123565b0390f35b6100c8565b346102e1576102c336600461015c565b6102cb6112c8565b6102d36100c2565b806102dd81610123565b0390f35b6100c8565b7f000000000000000000000000000000000000000000000000000000000000000090565b60018060a01b031690565b61031e9061030a565b90565b61032a90610315565b9052565b9190610341905f60208501940190610321565b565b346103735761035336600461015c565b61036f61035e6102e6565b6103666100c2565b9182918261032e565b0390f35b6100c8565b346103a65761038836600461015c565b610390611df2565b6103986100c2565b806103a281610123565b0390f35b6100c8565b7f000000000000000000000000000000000000000000000000000000000000000090565b346103ff576103df36600461015c565b6103fb6103ea6103ab565b6103f26100c2565b9182918261032e565b0390f35b6100c8565b949290979695939160e08601985f870161041d916101bc565b6020860161042a916101bc565b60408501610437916101bc565b60608401610444916101bc565b60808301610451916101bc565b60a0820161045e916101bc565b60c00161046a91610321565b565b346104a35761047c36600461015c565b61049f610487610779565b936104969795979391936100c2565b97889788610404565b0390f35b6100c8565b7f000000000000000000000000000000000000000000000000000000000000000090565b346104fc576104dc36600461015c565b6104f86104e76104a8565b6104ef6100c2565b9182918261032e565b0390f35b6100c8565b5f80fd5b5f90565b5f90565b60501c90565b60018060b01b031690565b61052a61052f9161050d565b610513565b90565b61053c905461051e565b90565b5f1c90565b64ffffffffff1690565b61055a61055f9161053f565b610544565b90565b61056c905461054e565b90565b64ffffffffff1690565b60018060b01b031690565b90565b61059b6105966105a09261056f565b610584565b610579565b90565b634e487b7160e01b5f52601160045260245ffd5b6105c66105cc91939293610579565b92610579565b916105d8838202610579565b9281840414901517156105e757565b6105a3565b90565b6106036105fe610608926105ec565b610584565b6100d0565b90565b6106186301e133806105ef565b90565b61062f61062a61063492610579565b610584565b6100d0565b90565b634e487b7160e01b5f52601260045260245ffd5b61065761065d916100d0565b916100d0565b908115610668570490565b610637565b60281c90565b61067f6106849161066d565b610544565b90565b6106919054610673565b90565b6106a06106a69161056f565b9161056f565b019064ffffffffff82116106b657565b6105a3565b6106cf6106ca6106d49261056f565b610584565b6100d0565b90565b90565b6106ee6106e96106f3926106d7565b610584565b6100d0565b90565b61070464e8d4a510006106da565b90565b90565b61071e61071961072392610707565b610584565b6100d0565b90565b61073561073b919392936100d0565b926100d0565b916107478382026100d0565b92818404149015171561075657565b6105a3565b610776603261077161076b6106f6565b9161070a565b610726565b90565b610781610505565b5061078a610505565b50610793610505565b5061079c610505565b506107a5610505565b506107ae610505565b506107b7610509565b506107f46107de6107c75f610532565b6107d86107d35f610562565b610587565b906105b7565b6107ef6107e961060b565b9161061b565b61064b565b906108186108136108045f610687565b61080d5f610562565b90610694565b6106bb565b916108225f610562565b9061082c5f610687565b93927f00000000000000000000000000000000000000000000000000000000000000009261085861075b565b929161088d6108877f0000000000000000000000000000000000000000000000000000000000000000936106bb565b976106bb565b959493929190565b5f90565b906108a491016100d0565b90565b90565b6108be6108b96108c3926108a7565b610584565b6100d0565b90565b90565b6108dd6108d86108e2926108c6565b610584565b6100d0565b90565b6108f16108f69161066d565b610513565b90565b61090390546108e5565b90565b61091561091b919392936100d0565b926100d0565b820180921161092657565b6105a3565b90610934610505565b5061093d610895565b50610946610505565b506109586109535f610687565b6106bb565b610960610505565b5061097b6109756109705f610562565b6106bb565b82610899565b928161098f6109895f6108aa565b916100d0565b148015610b9f575b610b8a57426109ae6109a8866100d0565b916100d0565b115f14610b05576109c76109c260016108f9565b61061b565b91826109db6109d55f6108aa565b916100d0565b14610aee57506109f36109ee6001610562565b6106bb565b6109fe858290610906565b610a11610a0b42926100d0565b916100d0565b11610ad85781610a49610a437f00000000000000000000000000000000000000000000000000000000000000006100d0565b916100d0565b10610ac357610a6f610a8491610a6a610a8995610a6461060b565b90610726565b61064b565b610a7e655af3107a40006108c9565b90610726565b61064b565b5b80610aa4610a9e610a9961075b565b6100d0565b916100d0565b115f14610abe5750610ab461075b565b5b905f9291929190565b610ab5565b5050505f90610ad35f93926108aa565b929190565b5050505f90610ae9600193926108aa565b929190565b935050505f90610b00600193926108aa565b929190565b80919350610b3b610b357f00000000000000000000000000000000000000000000000000000000000000006100d0565b916100d0565b10610b7757610b7290610b6d610b58610b535f610532565b61061b565b610b67655af3107a40006108c9565b90610726565b61064b565b610a8a565b505f90610b855f93926108aa565b929190565b5091505f90610b9a5f93926108aa565b929190565b5042610bb3610bad846100d0565b916100d0565b10610997565b90565b610bd0610bcb610bd592610bb9565b610584565b6100d0565b90565b610be36159db610bbc565b90565b9190610bf9905f602085019401906101bc565b565b33610c2e610c287f0000000000000000000000000000000000000000000000000000000000000000610315565b91610315565b03610c3d57610c3b610ecb565b565b610c66610c48610bd8565b610c506100c2565b91829163694bda1d60e01b835260048301610be6565b0390fd5b610c7e610c79610c83926108a7565b610584565b61056f565b90565b90565b610c9d610c98610ca292610c86565b610584565b6100d0565b90565b610cb06159dd610c89565b90565b610cc7610cc2610ccc926108a7565b610584565b610579565b90565b90565b610ce6610ce1610ceb92610ccf565b610584565b6100d0565b90565b610cf96159de610cd2565b90565b610d10610d0b610d159261030a565b610584565b61030a565b90565b610d2190610cfc565b90565b610d2d90610d18565b90565b610d3990610cfc565b90565b610d4590610d30565b90565b5f80fd5b601f801991011690565b634e487b7160e01b5f52604160045260245ffd5b90610d7490610d4c565b810190811067ffffffffffffffff821117610d8e57604052565b610d56565b60e01b90565b90505190610da6826100d3565b565b9190604083820312610dd05780610dc4610dcd925f8601610d99565b93602001610d99565b90565b6100cc565b610ddd6100c2565b3d5f823e3d90fd5b610df9610df4610dfe926108a7565b610584565b61030a565b90565b610e0a90610de5565b90565b90565b610e24610e1f610e2992610e0d565b610584565b6100d0565b90565b610e3b610e41919392936100d0565b926100d0565b8203918211610e4c57565b6105a3565b610e65610e60610e6a926100d0565b610584565b61056f565b90565b5f1b90565b90610e8264ffffffffff91610e6d565b9181191691161790565b610ea0610e9b610ea59261056f565b610584565b61056f565b90565b90565b90610ec0610ebb610ec792610e8c565b610ea8565b8254610e72565b9055565b610ed45f610687565b610ee6610ee05f610c6a565b9161056f565b148015611294575b61126757610efc60016108f9565b610f0e610f085f610cb3565b91610579565b1161123a57610f5f6040610f49610f447f0000000000000000000000000000000000000000000000000000000000000000610d24565b610d3c565b633c3821f490610f576100c2565b938492610d93565b8252815f81610f7060048201610123565b03925af1801561123557611208575b507f0000000000000000000000000000000000000000000000000000000000000000610fbb610fb5610fb05f610e01565b610315565b91610315565b03611164575b7f0000000000000000000000000000000000000000000000000000000000000000610ffc610ff6610ff15f610e01565b610315565b91610315565b036110c0575b611016426110106001610e10565b90610e2c565b61103061102a6110255f610687565b6106bb565b916100d0565b115f146110af5761107761107061106b61105b426110556110505f610687565b6106bb565b90610e2c565b6110656001610e10565b90610e2c565b610e51565b5b5f610eab565b7f0ba629f001023d2b4b32157343614f17651d8508c3c6c1bfa5769925cb718c0e6110a06100c2565b806110aa81610123565b0390a1565b6110776110bb5f610c6a565b611071565b61110c60406110f66110f17f0000000000000000000000000000000000000000000000000000000000000000610d24565b610d3c565b633c3821f4906111046100c2565b938492610d93565b8252815f8161111d60048201610123565b03925af1801561115f57611132575b50611002565b6111529060403d8111611158575b61114a8183610d6a565b810190610da8565b5061112c565b503d611140565b610dd5565b6111b0604061119a6111957f0000000000000000000000000000000000000000000000000000000000000000610d24565b610d3c565b633c3821f4906111a86100c2565b938492610d93565b8252815f816111c160048201610123565b03925af18015611203576111d6575b50610fc1565b6111f69060403d81116111fc575b6111ee8183610d6a565b810190610da8565b506111d0565b503d6111e4565b610dd5565b6112289060403d811161122e575b6112208183610d6a565b810190610da8565b50610f7f565b503d611216565b610dd5565b611263611245610cee565b61124d6100c2565b91829163694bda1d60e01b835260048301610be6565b0390fd5b611290611272610ca5565b61127a6100c2565b91829163694bda1d60e01b835260048301610be6565b0390fd5b50426112c26112bc6112b76112a85f610687565b6112b15f610562565b90610694565b6106bb565b916100d0565b11610eee565b6112d0610bfb565b565b9190336113076113017f0000000000000000000000000000000000000000000000000000000000000000610315565b91610315565b0361131757611315926114f7565b565b611340611322610bd8565b61132a6100c2565b91829163694bda1d60e01b835260048301610be6565b0390fd5b90565b61135b61135661136092611344565b610584565b6100d0565b90565b61136e6159df611347565b90565b90565b61138861138361138d92611371565b610584565b6100d0565b90565b61139b6159d9611374565b90565b60281b90565b906113b969ffffffffff00000000009161139e565b9181191691161790565b906113d86113d36113df92610e8c565b610ea8565b82546113a4565b9055565b6113f76113f26113fc926100d0565b610584565b610579565b90565b60501b90565b9061141b69ffffffffffffffffffff19916113ff565b9181191691161790565b61143961143461143e92610579565b610584565b610579565b90565b90565b9061145961145461146092611425565b611441565b8254611405565b9055565b61146d90610d30565b90565b61147990610cfc565b90565b61148590611470565b90565b5f91031261149257565b6100cc565b6114a090610d30565b90565b6114ac90611497565b9052565b91906114c3905f602085019401906114a3565b565b6040906114ee6114f594969593966114e460608401985f8501906101bc565b60208301906101bc565b01906101bc565b565b9190914261152761152161151c61150d5f610687565b6115165f610562565b90610694565b6106bb565b916100d0565b1115611928578161154061153a5f6108aa565b916100d0565b1461191f575b826115596115535f6108aa565b916100d0565b148015611905575b80156118eb575b6118be5761157e61157883610e51565b5f6113c3565b61159061158a84610e51565b5f610eab565b6115bd6115b76115b26115ab846115a561060b565b90610726565b869061064b565b6113e3565b5f611444565b6115ee6115e97f0000000000000000000000000000000000000000000000000000000000000000610d24565b610d3c565b635fd619656116046115ff30611464565b61147c565b823b156118b957611634926116295f809461161d6100c2565b96879586948593610d93565b8352600483016114b0565b03925af180156118b457611888575b507f000000000000000000000000000000000000000000000000000000000000000061167f6116796116745f610e01565b610315565b91610315565b036117c6575b7f00000000000000000000000000000000000000000000000000000000000000006116c06116ba6116b55f610e01565b610315565b91610315565b03611704575b9190916116ff7ff847e1fc85baf05c769b3bc2f2dc3384d56aca28c9894497717c6c1383b098af936116f66100c2565b938493846114c5565b0390a1565b6117356117307f0000000000000000000000000000000000000000000000000000000000000000610d24565b610d3c565b635fd6196561174b61174630611464565b61147c565b823b156117c15761177b926117705f80946117646100c2565b96879586948593610d93565b8352600483016114b0565b03925af180156117bc57611790575b506116c6565b6117af905f3d81116117b5575b6117a78183610d6a565b810190611488565b5f61178a565b503d61179d565b610dd5565b610d48565b6117f76117f27f0000000000000000000000000000000000000000000000000000000000000000610d24565b610d3c565b635fd6196561180d61180830611464565b61147c565b823b156118835761183d926118325f80946118266100c2565b96879586948593610d93565b8352600483016114b0565b03925af1801561187e57611852575b50611685565b611871905f3d8111611877575b6118698183610d6a565b810190611488565b5f61184c565b503d61185f565b610dd5565b610d48565b6118a7905f3d81116118ad575b61189f8183610d6a565b810190611488565b5f611643565b503d611895565b610dd5565b610d48565b6118e76118c9611390565b6118d16100c2565b91829163694bda1d60e01b835260048301610be6565b0390fd5b50816118ff6118f9426100d0565b916100d0565b10611568565b50806119196119135f6108aa565b916100d0565b14611561565b90504290611546565b611951611933611363565b61193b6100c2565b91829163694bda1d60e01b835260048301610be6565b0390fd5b9061196092916112d2565b565b3361199561198f7f0000000000000000000000000000000000000000000000000000000000000000610315565b91610315565b036119a4576119a2611a6c565b565b6119cd6119af610bd8565b6119b76100c2565b91829163694bda1d60e01b835260048301610be6565b0390fd5b90565b6119e86119e36119ed926119d1565b610584565b6100d0565b90565b6119fb6159e06119d4565b90565b90565b611a15611a10611a1a926119fe565b610584565b6100d0565b90565b611a286159e1611a01565b90565b90611a4265010000000000600160d81b039161139e565b9181191691161790565b90611a61611a5c611a6892611425565b611441565b8254611a2b565b9055565b611a7660016108f9565b611a88611a825f610cb3565b91610579565b14611b4a5742611aba611ab4611aaf611aa05f610687565b611aa95f610562565b90610694565b6106bb565b916100d0565b11611b1d57611ad2611acb5f610c6a565b6001610eab565b611ae5611ade5f610cb3565b6001611a4c565b7f13d39d3c3c727cbaa38766164c6fb182ddfb8daaaf4e68d19b0095cd7927a1af611b0e6100c2565b80611b1881610123565b0390a1565b611b46611b28611a1d565b611b306100c2565b91829163694bda1d60e01b835260048301610be6565b0390fd5b611b73611b556119f0565b611b5d6100c2565b91829163694bda1d60e01b835260048301610be6565b0390fd5b611b7f611962565b565b9033611bb5611baf7f0000000000000000000000000000000000000000000000000000000000000000610315565b91610315565b03611bc557611bc391611c42565b565b611bee611bd0610bd8565b611bd86100c2565b91829163694bda1d60e01b835260048301610be6565b0390fd5b90565b611c09611c04611c0e92611bf2565b610584565b6100d0565b90565b611c1c6159e2611bf5565b90565b916020611c40929493611c3960408201965f8301906101bc565b01906101bc565b565b81611c55611c4f5f6108aa565b916100d0565b148015611dcc575b611d9f57611c6b60016108f9565b611c7d611c775f610cb3565b91610579565b11611d7257611c8b5f610687565b611c9d611c975f610c6a565b9161056f565b14611d455742611ccf611cc9611cc4611cb55f610687565b611cbe5f610562565b90610694565b6106bb565b916100d0565b11611d3657611ce7611ce0826113e3565b6001611a4c565b611cfa611cf383610e51565b6001610eab565b907f68ef2ad282a305bd5b41f780462102ad9fc40964ab6097401fcc6eb0ebefae8791611d31611d286100c2565b92839283611c1f565b0390a1565b90611d4391904291611955565b565b611d6e611d50611c11565b611d586100c2565b91829163694bda1d60e01b835260048301610be6565b0390fd5b611d9b611d7d610cee565b611d856100c2565b91829163694bda1d60e01b835260048301610be6565b0390fd5b611dc8611daa611390565b611db26100c2565b91829163694bda1d60e01b835260048301610be6565b0390fd5b5080611de0611dda5f6108aa565b916100d0565b14611c5d565b90611df091611b81565b565b611e1d611e06611e015f610687565b6106bb565b611e17611e125f610562565b6106bb565b90610906565b42611e30611e2a836100d0565b916100d0565b1115611f5f57611e48611e4360016108f9565b61061b565b9081611e5c611e565f6108aa565b916100d0565b14611f3257611ecf90611ec9611ec3611ebe611eb7611e83611e7e6001610562565b6106bb565b9496611e97611e9189610e51565b5f6113c3565b611ea9611ea387610e51565b5f610eab565b611eb161060b565b90610726565b849061064b565b6113e3565b5f611444565b82610906565b90611ee3611edc5f610c6a565b6001610eab565b611ef6611eef5f610cb3565b6001611a4c565b907fa27da0b2cea36637915acc9460cc212a1eb5ad386e422cfc9f40e5f4014e222f91611f2d611f246100c2565b92839283611c1f565b0390a1565b611f5b611f3d6119f0565b611f456100c2565b91829163694bda1d60e01b835260048301610be6565b0390fd5b611f88611f6a611363565b611f726100c2565b91829163694bda1d60e01b835260048301610be6565b0390fdfea2646970667358221220dee6849ef4483bcd181dff9b33126ea740af782b34a1f8b36be649b2e907550a64736f6c63430008150033","linkReferences":{}},"methodIdentifiers":{"FTOKEN()":"976fe91a","FTOKEN2()":"bfa35e44","FTOKEN3()":"dce60838","cancelQueuedRewards()":"0aa9a12b","getConfig()":"c3f909d4","getRate(uint256)":"57764094","queueNextRewards(uint256,uint256)":"06786dd1","startRewards(uint256,uint256,uint256)":"6283311d","stopRewards()":"797008c6","transitionToNextRewards()":"ad759a92"},"id":50}