{"abi":[{"type":"function","name":"operate","inputs":[{"name":"token_","type":"address","internalType":"address"},{"name":"supplyAmount_","type":"int256","internalType":"int256"},{"name":"borrowAmount_","type":"int256","internalType":"int256"},{"name":"withdrawTo_","type":"address","internalType":"address"},{"name":"borrowTo_","type":"address","internalType":"address"},{"name":"callbackData_","type":"bytes","internalType":"bytes"}],"outputs":[{"name":"memVar3_","type":"uint256","internalType":"uint256"},{"name":"memVar4_","type":"uint256","internalType":"uint256"}],"stateMutability":"payable"},{"type":"event","name":"BorrowRateMaxCap","inputs":[],"anonymous":false},{"type":"event","name":"LogOperate","inputs":[{"name":"user","type":"address","indexed":true,"internalType":"address"},{"name":"token","type":"address","indexed":true,"internalType":"address"},{"name":"supplyAmount","type":"int256","indexed":false,"internalType":"int256"},{"name":"borrowAmount","type":"int256","indexed":false,"internalType":"int256"},{"name":"withdrawTo","type":"address","indexed":false,"internalType":"address"},{"name":"borrowTo","type":"address","indexed":false,"internalType":"address"},{"name":"totalAmounts","type":"uint256","indexed":false,"internalType":"uint256"},{"name":"exchangePricesAndConfig","type":"uint256","indexed":false,"internalType":"uint256"}],"anonymous":false},{"type":"error","name":"FluidLiquidityCalcsError","inputs":[{"name":"errorId_","type":"uint256","internalType":"uint256"}]},{"type":"error","name":"FluidLiquidityError","inputs":[{"name":"errorId_","type":"uint256","internalType":"uint256"}]},{"type":"error","name":"FluidSafeTransferError","inputs":[{"name":"errorId_","type":"uint256","internalType":"uint256"}]}],"bytecode":{"object":"0x6080604052346200002d57620000146200003d565b6200001e62000033565b61532f6200015a823961532f90f35b62000039565b60405190565b5f80fd5b6200004762000049565b565b6200005362000055565b565b6200005f62000061565b565b6200006b62000137565b565b90565b60ff1690565b90565b620000926200008c62000098926200006d565b62000076565b62000070565b90565b620000a7600262000079565b90565b90565b620000c6620000c0620000cc9262000070565b62000076565b620000aa565b90565b5f1b90565b90620000e25f1991620000cf565b9181191691161790565b62000105620000ff6200010b92620000aa565b62000076565b620000aa565b90565b90565b906200012b620001256200013392620000ec565b6200010e565b8254620000d4565b9055565b620001576200014f620001496200009b565b620000ad565b600162000111565b56fe60806040526004361015610013575b6101cd565b61001d5f3561002c565b63ad967e150361000e5761019a565b60e01c90565b60405190565b5f80fd5b5f80fd5b60018060a01b031690565b61005490610040565b90565b6100608161004b565b0361006757565b5f80fd5b9050359061007882610057565b565b90565b6100868161007a565b0361008d57565b5f80fd5b9050359061009e8261007d565b565b5f80fd5b5f80fd5b5f80fd5b909182601f830112156100e65781359167ffffffffffffffff83116100e15760200192600183028401116100dc57565b6100a8565b6100a4565b6100a0565b9160c08383031261016257610102825f850161006b565b926101108360208301610091565b9261011e8160408401610091565b9261012c826060850161006b565b9261013a836080830161006b565b9260a082013567ffffffffffffffff811161015d5761015992016100ac565b9091565b61003c565b610038565b90565b61017390610167565b9052565b91602061019892949361019160408201965f83019061016a565b019061016a565b565b6101b46101a83660046100eb565b95949094939193612e75565b906101c96101c0610032565b92839283610177565b0390f35b5f80fd5b5f90565b5f1c90565b90565b6101e96101ee916101d5565b6101da565b90565b6101fb90546101dd565b90565b90565b60ff1690565b90565b61021e610219610223926101fe565b610207565b610201565b90565b610230600261020a565b90565b61024761024261024c92610201565b610207565b610167565b90565b90565b61026661026161026b9261024f565b610207565b610167565b90565b610279612ee1610252565b90565b919061028f905f6020850194019061016a565b565b5f1b90565b906102a25f1991610291565b9181191691161790565b6102c06102bb6102c592610167565b610207565b610167565b90565b90565b906102e06102db6102e7926102ac565b6102c8565b8254610296565b9055565b90565b6103026102fd610307926102eb565b610207565b610201565b90565b61031460016102ee565b90565b979695949392919061032960016101f1565b61034261033c610337610226565b610233565b91610167565b146103885761036a9861036561035e610359610226565b610233565b60016102cb565b611149565b909161038661037f61037a61030a565b610233565b60016102cb565b565b6103b161039361026e565b61039b610032565b918291636e55c17160e11b83526004830161027c565b0390fd5b90565b6103cc6103c76103d1926103b5565b610207565b61007a565b90565b90565b6103eb6103e66103f0926103d4565b610207565b610167565b90565b6103fe612afd6103d7565b90565b600f0b90565b61041b61041661042092610401565b610207565b61007a565b90565b90565b61043a61043561043f92610423565b610207565b610167565b90565b61044d612afe610426565b90565b61046461045f610469926103b5565b610207565b610040565b90565b61047590610450565b90565b90565b61048f61048a61049492610478565b610207565b610167565b90565b6104a2612b0061047b565b90565b73eeeeeeeeeeeeeeeeeeeeeeeeeeeeeeeeeeeeeeee90565b6104d16104cc6104d6926103b5565b610207565b610167565b90565b90565b6104f06104eb6104f5926104d9565b610207565b610167565b90565b610503612b026104dc565b90565b601f801991011690565b634e487b7160e01b5f52604160045260245ffd5b9061052e90610506565b810190811067ffffffffffffffff82111761054857604052565b610510565b90610560610559610032565b9283610524565b565b61056d61012061054d565b90565b5f90565b5f90565b610580610562565b90602080808080808080808a610594610570565b81520161059f610574565b8152016105aa610574565b8152016105b5610574565b8152016105c0610574565b8152016105cb610574565b8152016105d6610574565b8152016105e1610574565b8152016105ec610574565b81525050565b6105fa610578565b90565b61061161060c6106169261007a565b610207565b610167565b90565b634e487b7160e01b5f52601160045260245ffd5b6106369061007a565b600160ff1b8114610646575f0390565b610619565b61065a61066091939293610167565b92610167565b820180921161066b57565b610619565b5090565b90565b61068b61068661069092610674565b610207565b610167565b90565b5f80fd5b67ffffffffffffffff81116106b5576106b1602091610506565b0190565b610510565b90825f939282370152565b909291926106da6106d582610697565b61054d565b938185526020850190828401116106f6576106f4926106ba565b565b610693565b6107069136916106c5565b90565b151590565b9061071890610709565b9052565b90565b61073361072e6107389261071c565b610207565b610167565b90565b61074661271061071f565b90565b90565b61076061075b61076592610749565b610207565b610167565b90565b610772606461074c565b90565b906107809101610167565b90565b9061078e9102610167565b90565b634e487b7160e01b5f52601260045260245ffd5b6107b16107b791610167565b91610167565b9081156107c2570490565b610791565b90565b6107de6107d96107e3926107c7565b610207565b610167565b90565b6107f1612b016107ca565b90565b61080861080361080d92610040565b610207565b610040565b90565b610819906107f4565b90565b61082590610810565b90565b610831906107f4565b90565b61083d90610828565b90565b61084990610828565b90565b5f80fd5b60e01b90565b61085f81610167565b0361086657565b5f80fd5b9050519061087782610856565b565b906020828203126108925761088f915f0161086a565b90565b610038565b6108a09061004b565b9052565b91906108b7905f60208501940190610897565b565b6108c1610032565b3d5f823e3d90fd5b6108d2906107f4565b90565b6108de906108c9565b90565b6108ea90610828565b90565b5f9103126108f757565b610038565b60209181520190565b919061091f8161091881610924956108fc565b80956106ba565b610506565b0190565b61094e61095b959394929461094460608401965f850190610897565b602083019061016a565b6040818503910152610905565b90565b61096d61097391939293610167565b92610167565b820391821161097e57565b610619565b61098c90610828565b90565b9061099990610983565b5f5260205260405f2090565b906109af90610167565b9052565b6109bd9051610167565b90565b90565b6109d76109d26109dc926109c0565b610207565b610167565b90565b6109f067ffffffffffffffff6109c3565b90565b90565b610a0a610a05610a0f926109f3565b610207565b610167565b90565b610a1c60086109f6565b90565b1c90565b610a4290610a3c610a36610a4794610167565b91610167565b90610a1f565b610167565b90565b90565b610a61610a5c610a6692610a4a565b610207565b610167565b90565b610a7360ff610a4d565b90565b1b90565b610a9990610a93610a8d610a9e94610167565b91610167565b90610a76565b610167565b90565b90565b610ab8610ab3610abd92610aa1565b610207565b610167565b90565b610aca6040610aa4565b90565b90565b610ae4610adf610ae992610acd565b610207565b610167565b90565b610af66080610ad0565b90565b90565b610b10610b0b610b1592610af9565b610207565b610167565b90565b610b2260c0610afc565b90565b610b30905f0361007a565b90565b90610b3e9103610167565b90565b6fffffffffffffffffffffffffffffffff1690565b610b6a610b65610b6f92610401565b610207565b610b41565b90565b610b86610b81610b8b92610b41565b610207565b610167565b90565b610baf610baa6f7fffffffffffffffffffffffffffffff610b56565b610b72565b90565b90565b610bc9610bc4610bce92610bb2565b610207565b610167565b90565b610bdc612b06610bb5565b90565b90565b610bf6610bf1610bfb92610bdf565b610207565b610167565b90565b610c086038610be2565b90565b5f90565b90565b610c26610c21610c2b92610c0f565b610207565b610167565b90565b90565b610c45610c40610c4a92610c2e565b610207565b610167565b90565b90565b610c64610c5f610c6992610c4d565b610207565b610167565b90565b610c77612aff610c50565b90565b90565b610c91610c8c610c9692610c7a565b610207565b610167565b90565b610ca4612b07610c7d565b90565b600190565b90565b610cc3610cbe610cc892610cac565b610207565b610167565b90565b90565b610ce2610cdd610ce792610ccb565b610207565b610167565b90565b610cf9610cff91939293610167565b92610167565b91610d0b838202610167565b928184041490151715610d1a57565b610619565b90565b610d36610d31610d3b92610d1f565b610207565b610167565b90565b610d4c64e8d4a51000610d22565b90565b610d5b610d6191610167565b91610167565b908115610d6c570490565b610791565b610d9090610d8a610d84610d9594610201565b91610167565b90610a76565b610167565b90565b610dac610da7610db1926102eb565b610207565b610167565b90565b90565b610dcb610dc6610dd092610db4565b610207565b610167565b90565b610ddd60f9610db7565b90565b90565b610df7610df2610dfc92610de0565b610207565b610167565b90565b610e0a613fff610de3565b90565b90565b610e24610e1f610e2992610e0d565b610207565b610167565b90565b610e37612b03610e10565b90565b90565b610e51610e4c610e5692610e3a565b610207565b610167565b90565b610e63603a610e3d565b90565b90565b610e7d610e78610e8292610e66565b610207565b610167565b90565b610e936401ffffffff610e69565b90565b90565b610ead610ea8610eb292610e96565b610207565b610167565b90565b610ec162015180610e99565b90565b90565b610edb610ed6610ee092610ec4565b610207565b610167565b90565b610eed601e610ec7565b90565b90565b610f07610f02610f0c92610ef0565b610207565b610167565b90565b610f19602c610ef3565b90565b610f30610f2b610f35926103b5565b610207565b610201565b90565b90565b610f4f610f4a610f5492610f38565b610207565b610167565b90565b610f6160db610f3b565b90565b90565b610f7b610f76610f8092610f64565b610207565b610167565b90565b610f8e617fff610f67565b90565b610fb090610faa610fa4610fb594610201565b91610167565b90610a1f565b610167565b90565b90565b610fcf610fca610fd492610fb8565b610207565b610167565b90565b610fe160ea610fbb565b90565b90565b610ffb610ff661100092610fe4565b610207565b610167565b90565b90565b61101a61101561101f92611003565b610207565b610167565b90565b61102c605b611006565b90565b90565b61104661104161104b9261102f565b610207565b610167565b90565b611058609b611032565b90565b90565b61107261106d6110779261105b565b610207565b610167565b90565b611085612b0461105e565b90565b90565b61109f61109a6110a492611088565b610207565b610167565b90565b6110b2612b0561108b565b90565b90565b6110cc6110c76110d1926110b5565b610207565b610167565b90565b6110de9051610709565b90565b6110ea9061007a565b9052565b91946111366111409298979561112c60a0966111226111479a61111860c08a019e5f8b01906110e1565b60208901906110e1565b6040870190610897565b6060850190610897565b608083019061016a565b019061016a565b565b9897919493929596985050846111676111615f6103b8565b9161007a565b1480612e5b575b612e2e57846111966111906f7fffffffffffffffffffffffffffffff19610407565b9161007a565b128015612e04575b8015612dd9575b8015612daf575b612d8257846111c36111bd5f6103b8565b9161007a565b1280612d60575b8015612d1e575b612cf157836111ef6111e96111e46104a5565b61004b565b9161004b565b141580612cd7575b612caa576112036105f2565b9761120c6101d1565b508561122061121a5f6103b8565b9161007a565b135f14612c9657611266611234875b6105fd565b846112476112415f6103b8565b9161007a565b125f14612c855761126061125a8661062d565b5b6105fd565b9061064b565b91611272828290610670565b61128561127f603f610677565b91610167565b1180612c66575b612c48575b856112ab6112a56112a06104a5565b61004b565b9161004b565b14612b9b575b826112c46112be5f6104bd565b91610167565b11612933575b5050506112ee6112e46112df6005869061098f565b6101f1565b61010089016109a5565b61131e6113066113016101008a016109b3565b613120565b9061131860208b019260408c016109a5565b906109a5565b61133e6113356113306007869061098f565b6101f1565b60e089016109a5565b61138461137b61135060e08a016109b3565b6113586109df565b1661136b81611365610a12565b90610a23565b90611374610a69565b1690610a7a565b606089016109a5565b6113db6113d26113a761139960e08b016109b3565b6113a1610ac0565b90610a23565b6113af6109df565b166113c2816113bc610a12565b90610a23565b906113cb610a69565b1690610a7a565b608089016109a5565b6114326114296113fe6113f060e08b016109b3565b6113f8610aec565b90610a23565b6114066109df565b1661141981611413610a12565b90610a23565b90611422610a69565b1690610a7a565b60a089016109a5565b61148061147761145561144760e08b016109b3565b61144f610b18565b90610a23565b61146781611461610a12565b90610a23565b90611470610a69565b1690610a7a565b60c089016109a5565b8361149361148d5f6103b8565b9161007a565b036125ef575b806114ac6114a65f6103b8565b9161007a565b036122a1575b6114d26114c160e089016109b3565b6114cd6007869061098f565b6102cb565b6115046114f66114e460608a016109b3565b6114f060208b016109b3565b90610cea565b6114fe610d3e565b90610d4f565b8061151e611518611513610b8e565b610167565b91610167565b1180612287575b61225a5761153f61153860808a016109b3565b829061064b565b908061155e61155861155360808d016109b3565b610167565b91610167565b115f146121a75761158e61159e9161158961157b60808d016109b3565b61158361073b565b90610cea565b610d4f565b61159860016102ee565b90610d71565b905b6115d26115c46115b260a08c016109b3565b6115be60408d016109b3565b90610cea565b6115cc610d3e565b90610d4f565b806115ec6115e66115e1610b8e565b610167565b91610167565b118061218d575b612160578961160e61160760c083016109b3565b839061064b565b918061162d61162761162260c086016109b3565b610167565b91610167565b115f146120aa5761165d9061165861164a60c061166d95016109b3565b61165261073b565b90610cea565b610d4f565b61166760016102ee565b90610d71565b915b6116776101d1565b918161168b6116855f6104bd565b91610167565b11611fba575b5050896116de6116d86116d36116bc6116ae6101004296016109b3565b6116b6610e59565b90610a23565b6116c4610e85565b166116cd610eb5565b90610775565b610167565b91610167565b115f14611fac576116ef6001610d98565b5b806117036116fd5f6104bd565b91610167565b14611c51575b61171c6117166001610d98565b91610167565b145f14611bd55761174161173a6117356006899061098f565b6101f1565b829061368d565b9261174e60208c016109b3565b61176761176161175c6109df565b610167565b91610167565b118015611ba9575b611b7c578161178d611787611782610dff565b610167565b91610167565b11611b4f576118358b6118256118176040611845966117de6118509a6117b661010088016109b3565b6117cd6703fff0003fff0000607f60f91b016110b8565b1617916117d8610ee3565b90610a7a565b176117f1426117eb610e59565b90610a7a565b1761180f611801602087016109b3565b611809611022565b90610a7a565b1793016109b3565b61181f61104e565b90610a7a565b179161182f610f57565b90610a7a565b179161183f610fd7565b90610a7a565b1761010089016109a5565b61187161186061010089016109b3565b61186c6005869061098f565b6102cb565b5b8361188561187f5f6103b8565b9161007a565b128015611b35575b80611b1b575b61191e575b6119003393949192956118ad60e08a016109b3565b6118ba6101008b016109b3565b916118ee6118e87f4d93b232a24e82b284ced7461bf4deacffe66759d5c24513e6f29e571ad78d1598610983565b98610983565b986118f7610032565b968796876110ee565b0390a361191b6040611914602085016109b3565b93016109b3565b90565b8061193161192b5f6103b8565b9161007a565b135f14611b0d57611941816105fd565b5b8461195561194f5f6103b8565b9161007a565b125f14611afe5761196d61196886610b25565b6105fd565b905b8161198261197c5f6104bd565b91610167565b1180611ae4575b80611aca575b5f146119ed57846119af6119a96119a46104a5565b61004b565b9161004b565b145f146119d257906119c56119cb92859261064b565b90613f13565b5b5b611898565b6119e8916119e28692869261064b565b91613e95565b6119cc565b9084611a08611a026119fd6104a5565b61004b565b9161004b565b145f14611a695780611a22611a1c5f6104bd565b91610167565b11611a59575b5080611a3c611a365f6104bd565b91610167565b11611a49575b505b6119cd565b611a539086613f13565b5f611a42565b611a639084613f13565b5f611a28565b80611a7c611a765f6104bd565b91610167565b11611ab6575b5080611a96611a905f6104bd565b91610167565b11611aa2575b50611a44565b611ab0908490879091613e95565b5f611a9c565b611ac4908590859091613e95565b5f611a82565b5083611ade611ad88961004b565b9161004b565b1461198f565b5080611af8611af25f6104bd565b91610167565b11611989565b611b075f6104bd565b9061196f565b611b165f6104bd565b611942565b50611b30611b2a5f89016110d4565b15610709565b611893565b5080611b49611b435f6103b8565b9161007a565b1361188d565b611b78611b5a6110a7565b611b62610032565b918291636e55c17160e11b83526004830161027c565b0390fd5b611ba5611b8761107a565b611b8f610032565b918291636e55c17160e11b83526004830161027c565b0390fd5b50611bb660408c016109b3565b611bcf611bc9611bc46109df565b610167565b91610167565b1161176f565b505050611c4c611be861010089016109b3565b611c056f7fffffffffffffffffffffffffffffff605b1b19610fe7565b16611c23611c1560208b016109b3565b611c1d611022565b90610a7a565b17611c41611c3360408b016109b3565b611c3b61104e565b90610a7a565b1761010089016109a5565b611872565b50611c70611c626101008c016109b3565b611c6a610ee3565b90610a23565b611c78610dff565b16611c97611c896101008d016109b3565b611c91610f0f565b90610a23565b611c9f610dff565b169082611cb4611cae83610167565b91610167565b115f14611f9c57611cc59083610b33565b5b611cd8611cd283610167565b91610167565b115f14611f8b57611cf2611cec60016102ee565b5b610233565b9081611d06611d005f6104bd565b91610167565b14611d12575b50611709565b9050611d32611d246101008d016109b3565b611d2c610f57565b90610a23565b611d3a610f83565b1680611d466001610d98565b16611d64611d5e87611d586001610d98565b16610167565b91610167565b145f14611f7a57611d7f90611d7960016102ee565b90610f91565b611d9385611d8d60016102ee565b90610f91565b611da5611d9f83610167565b91610167565b115f14611f5757611dc990611dc486611dbe60016102ee565b90610f91565b610b33565b5b611ddc611dd683610167565b91610167565b115f14611f4657611df6611df060016102ee565b5b610233565b905b81611e0b611e055f6104bd565b91610167565b14611e16575b611d0c565b9050611e36611e286101008d016109b3565b611e30610fd7565b90610a23565b611e3e610f83565b1680611e4a6001610d98565b16611e68611e6286611e5c6001610d98565b16610167565b91610167565b145f14611f3557611eda611e89611ee092611e8360016102ee565b90610f91565b611e9d86611e9760016102ee565b90610f91565b611eaf611ea983610167565b91610167565b115f14611f1257611ed390611ece87611ec860016102ee565b90610f91565b610b33565b5b92610167565b91610167565b115f14611f0157611efa611ef460016102ee565b5b610233565b5b5f611e11565b611efa611f0d5f610f1c565b611ef5565b611f3090611f2a87611f2460016102ee565b90610f91565b90610b33565b611ed4565b5050611f416001610d98565b611efb565b611df6611f525f610f1c565b611df1565b611f7590611f6f86611f6960016102ee565b90610f91565b90610b33565b611dca565b50611f856001610d98565b90611df8565b611cf2611f975f610f1c565b611ced565b611fa7908390610b33565b611cc6565b611fb55f6104bd565b6116f0565b611fd69250611fd190611fcb61073b565b90610cea565b610d4f565b83611fe9611fe35f6103b8565b9161007a565b13611ff6575b5f80611691565b6120146120066101008c016109b3565b61200e610dd3565b90610a23565b61201e6001610d98565b1661203261202c6001610d98565b91610167565b145f1461209d5761204d612048600b889061098f565b6101f1565b612055610dff565b165b61206a6120648392610167565b91610167565b1115611fef5761209961207b610e2c565b612083610032565b918291636e55c17160e11b83526004830161027c565b0390fd5b6120a561073b565b612057565b806120c86120c26120bd60c086016109b3565b610167565b91610167565b105f1461211c5761210a916120f460c06120ed6120fa946120e761073b565b90610cea565b92016109b3565b90610d4f565b61210460016102ee565b90610d71565b6121146001610d98565b17915b61166f565b9290508161213261212c5f6104bd565b91610167565b1161213d575b612117565b915061215a61214a61073b565b61215460016102ee565b90610d71565b91612138565b61218961216b610c99565b612173610032565b918291636e55c17160e11b83526004830161027c565b0390fd5b50836121a161219b5f6103b8565b9161007a565b136115f3565b806121c56121bf6121ba60808d016109b3565b610167565b91610167565b105f14612218576121f66121e4612206926121de61073b565b90610cea565b6121f060808c016109b3565b90610d4f565b61220060016102ee565b90610d71565b6122106001610d98565b17905b6115a0565b908061222c6122265f6104bd565b91610167565b11612237575b612213565b905061225461224461073b565b61224e60016102ee565b90610d71565b90612232565b612283612265610bd1565b61226d610032565b918291636e55c17160e11b83526004830161027c565b0390fd5b508461229b6122955f6103b8565b9161007a565b13611525565b6122ad60e088016109b3565b6122c484836122be60408c016109b3565b91614892565b806122d76122d15f6103b8565b9161007a565b145f146124635750806122f26122ec5f6103b8565b9161007a565b135f146123e157612305612321916105fd565b61231b60a08b0191612316836109b3565b61064b565b906109a5565b5b61239161235361233460a08b016109b3565b61233c610bfe565b612344610a12565b9061234d610ca7565b92612e99565b61238761236260e08c016109b3565b61237767ffffffffffffffff60801b19610cce565b1691612381610aec565b90610a7a565b1760e08a016109a5565b5b6123af6123a96123a460e08b016109b3565b610167565b91610167565b036114b2576123dd6123bf610c6c565b6123c7610032565b918291636e55c17160e11b83526004830161027c565b0390fd5b886123ee60a082016109b3565b61241061240a61240561240086610b25565b6105fd565b610167565b91610167565b115f146124505761244b9161243b61243661243060a061244195016109b3565b92610b25565b6105fd565b90610b33565b5b60a08a016109a5565b612322565b505061244b61245e5f6104bd565b612442565b8091506124786124725f6103b8565b9161007a565b135f1461256d5761248b6124a7916105fd565b6124a160c08b019161249c836109b3565b61064b565b906109a5565b5b6124b460c089016109b3565b6124cd6124c76124c2610b8e565b610167565b91610167565b116125405761253b6125036124e460c08b016109b3565b6124ec610bfe565b6124f4610a12565b906124fd610ca7565b92612e99565b61253161251260e08c016109b3565b61252160018060c01b03610caf565b169161252b610b18565b90610a7a565b1760e08a016109a5565b612392565b61256961254b610c99565b612553610032565b918291636e55c17160e11b83526004830161027c565b0390fd5b8861257a60c082016109b3565b61259c61259661259161258c86610b25565b6105fd565b610167565b91610167565b115f146125dc576125d7916125c76125c26125bc60c06125cd95016109b3565b92610b25565b6105fd565b90610b33565b5b60c08a016109a5565b6124a8565b50506125d76125ea5f6104bd565b6125ce565b6125fb60e088016109b3565b612612848661260c60208c016109b3565b91614112565b8061262561261f5f6103b8565b9161007a565b145f1461279c57508061264061263a5f6103b8565b9161007a565b135f1461271a5761265361266f916105fd565b61266960608b0191612664836109b3565b61064b565b906109a5565b5b6126ca6126a161268260608b016109b3565b61268a610bfe565b612692610a12565b9061269b610c0b565b92612e99565b6126ad60e08b016109b3565b6126bf67ffffffffffffffff19610c31565b161760e08a016109a5565b5b6126e86126e26126dd60e08b016109b3565b610167565b91610167565b03611499576127166126f8610c6c565b612700610032565b918291636e55c17160e11b83526004830161027c565b0390fd5b88612727606082016109b3565b61274961274361273e61273986610b25565b6105fd565b610167565b91610167565b115f14612789576127849161277461276f612769606061277a95016109b3565b92610b25565b6105fd565b90610b33565b5b60608a016109a5565b612670565b50506127846127975f6104bd565b61277b565b8091506127b16127ab5f6103b8565b9161007a565b135f146128b1576127c46127e0916105fd565b6127da60808b01916127d5836109b3565b61064b565b906109a5565b5b6127ed608089016109b3565b6128066128006127fb610b8e565b610167565b91610167565b116128845761287f61283c61281d60808b016109b3565b612825610bfe565b61282d610a12565b90612836610c0b565b92612e99565b61287561284b60e08c016109b3565b6128656fffffffffffffffff000000000000000019610c12565b169161286f610ac0565b90610a7a565b1760e08a016109a5565b6126cb565b6128ad61288f610bd1565b612897610032565b918291636e55c17160e11b83526004830161027c565b0390fd5b886128be608082016109b3565b6128e06128da6128d56128d086610b25565b6105fd565b610167565b91610167565b115f146129205761291b9161290b612906612900608061291195016109b3565b92610b25565b6105fd565b90610b33565b5b60808a016109a5565b6127e1565b505061291b61292e5f6104bd565b612912565b61297b60206129496129448961081c565b610834565b6370a082319061297061295b30610840565b92612964610032565b95869485938493610850565b8352600483016108a4565b03915afa908115612b96575f91612b68575b50906129a061299b336108d5565b6108e1565b9063ad207501918891869590823b15612b63575f946129dd86926129d2946129c6610032565b9a8b9889978896610850565b865260048601610928565b03925af1918215612b5e57612a3792612b32575b506020612a05612a008861081c565b610834565b6370a0823190612a2c612a1730610840565b92612a20610032565b96879485938493610850565b8352600483016108a4565b03915afa908115612b2d57612a54925f92612afd575b509061095e565b9081612a68612a6283610167565b91610167565b10918215612aac575b5050612a7f575f80806112ca565b612aa8612a8a6107e6565b612a92610032565b918291636e55c17160e11b83526004830161027c565b0390fd5b612af5919250612aea612adc612aef9294612ad6612ac861073b565b612ad0610768565b90610775565b90610783565b612ae461073b565b906107a5565b610167565b91610167565b115f80612a71565b612b1f91925060203d8111612b26575b612b178183610524565b810190610879565b905f612a4d565b503d612b0d565b6108b9565b612b51905f3d8111612b57575b612b498183610524565b8101906108ed565b5f6129f1565b503d612b3f565b6108b9565b61084c565b612b89915060203d8111612b8f575b612b818183610524565b810190610879565b5f61298d565b503d612b77565b6108b9565b9180612baf612ba934610167565b91610167565b11908115612bf9575b50612bcc57612bc65f6104bd565b916112b1565b612bf5612bd76107e6565b612bdf610032565b918291636e55c17160e11b83526004830161027c565b0390fd5b9050612c41612c3b612c36612c283494612c22612c1461073b565b612c1c610768565b90610775565b90610783565b612c3061073b565b906107a5565b610167565b91610167565b115f612bb8565b9150612c535f6104bd565b91612c6160015f8c0161070e565b611291565b50612c808785878b91612c7a8787906106fb565b936150be565b61128c565b611260612c915f6103b8565b61125b565b611266611234612ca55f6103b8565b61122f565b612cd3612cb56104f8565b612cbd610032565b918291636e55c17160e11b83526004830161027c565b0390fd5b5034612ceb612ce55f6104bd565b91610167565b116111f7565b612d1a612cfc610497565b612d04610032565b918291636e55c17160e11b83526004830161027c565b0390fd5b5081612d32612d2c5f6103b8565b9161007a565b1380612d3e575b6111d1565b5085612d5a612d54612d4f5f61046c565b61004b565b9161004b565b14612d39565b5082612d7c612d76612d715f61046c565b61004b565b9161004b565b146111ca565b612dab612d8d610442565b612d95610032565b918291636e55c17160e11b83526004830161027c565b0390fd5b5081612dd3612dcd6f7fffffffffffffffffffffffffffffff610407565b9161007a565b136111ac565b5081612dfe612df86f7fffffffffffffffffffffffffffffff19610407565b9161007a565b126111a5565b5084612e28612e226f7fffffffffffffffffffffffffffffff610407565b9161007a565b1361119e565b612e57612e396103f3565b612e41610032565b918291636e55c17160e11b83526004830161027c565b0390fd5b5081612e6f612e695f6103b8565b9161007a565b1461116e565b90612e95969594939291612e876101d1565b612e8f6101d1565b90610317565b9091565b929190612ea46101d1565b50805f856fffffffffffffffffffffffffffffffff8111612fd0575b67ffffffffffffffff8111612fc3575b63ffffffff8111612fb6575b61ffff8111612fa9575b60ff8111612f9c575b600f8111612f8f575b60038111612f82575b60018111612f74575b5f10612f6c575b818110612f65575b0393841c925f851116612f3c575b506001811b831015612f38571b0190565b5f80fd5b9160010191826001821b14612f51575b612f27565b600180929493508091031b9101915f612f4c565b5080612f19565b600101612f11565b9060015f9101919050612f0a565b600290811c910190612f01565b600490811c910190612ef8565b600890811c910190612eef565b601090811c910190612ee6565b602090811c910190612edc565b604090811c910190612ed0565b905060801c608090612ec0565b612fee67ffffffffffffffff6109c3565b90565b90565b61300861300361300d92612ff1565b610207565b610167565b90565b61301c62011171612ff4565b90565b90565b61303661303161303b9261301f565b610207565b610167565b90565b61304961ffff613022565b90565b61305a6401ffffffff610e69565b90565b613068617fff610f67565b90565b90565b61308261307d6130879261306b565b610207565b610167565b90565b6130976301e1338061306e565b90565b6130a561271061071f565b90565b6130b3613fff610de3565b90565b90565b6130cd6130c86130d2926130b6565b610207565b610167565b90565b90565b6130ec6130e76130f1926130d5565b610207565b610167565b90565b90565b61310b613106613110926130f4565b610207565b610167565b90565b61311d60106130f7565b90565b6131286101d1565b506131316101d1565b506131448161313e611022565b90610a23565b61314c612fdd565b1661315f8261315961104e565b90610a23565b613167612fdd565b168161317b6131755f6104bd565b91610167565b148015613605575b6135d8578261319061303e565b16926131b7426131a8836131a2610e59565b90610a23565b6131b061304c565b1690610b33565b916131ca826131c4610fd7565b90610a23565b6131d261305d565b1694836131e76131e15f6104bd565b91610167565b1480156135be575b80156135a3575b613599579061323461321561320e61323a9484610783565b8690610783565b61322e61322061308a565b61322861309a565b90610783565b906107a5565b90610775565b9361324d82613247610f57565b90610a23565b61325561305d565b168061326a6132646001610d98565b91610167565b14613592579261344161343b6134879461343561340b6133fc6133d6613446986133d18c61348d9e9d61329d6001610d98565b166132b16132ab6001610d98565b91610167565b145f146135025761333f6133006132d561334d936132cf60016102ee565b90610f91565b6132fb6b033b2e3c9fd0803ce80000006132f66132f061309a565b916130b9565b610783565b6107a5565b6133396133158b61330f610ee3565b90610a23565b61331d6130a8565b16916133346b033b2e3c9fd0803ce80000006130b9565b610775565b90610783565b61334761309a565b906107a5565b915b8061335a6001610d98565b1661336e6133686001610d98565b91610167565b145f146134905761338c6133c29161338660016102ee565b90610f91565b6133bc6133ae826133a86b033b2e3c9fd0803ce80000006130b9565b90610783565b916133b761309a565b610775565b906107a5565b915b6133cc61309a565b610783565b610783565b6133f6760a70c3c40a64e6c51999090b65f67d92400000000000006130d8565b906107a5565b8361340561303e565b16610783565b9161342661341761309a565b91613420613113565b90610a23565b61342e6130a8565b1690610b33565b90610783565b85610783565b610783565b61348161347361346561345761308a565b61345f61309a565b90610783565b61346d61309a565b90610783565b61347b61309a565b90610783565b906107a5565b90610775565b91565b6134a76134fc916134a160016102ee565b90610f91565b6134f76134f16b033b2e3c9fd0803ce8000000926134eb6134dd826134d76b033b2e3c9fd0803ce80000006130b9565b90610783565b916134e661309a565b610775565b906107a5565b916130b9565b610b33565b916133c4565b61356d61351c61358c9261351660016102ee565b90610f91565b6135676135598b6135546135456b033b2e3c9fd0803ce80000009261353f610ee3565b90610a23565b61354d6130a8565b16916130b9565b610783565b9161356261309a565b610775565b90610783565b61358661357861309a565b61358061309a565b90610783565b906107a5565b9161334f565b5050505091565b5094935050509190565b50856135b86135b26001610d98565b91610167565b146131f6565b50806135d26135cc5f6104bd565b91610167565b146131ef565b6136016135e3613010565b6135eb610032565b918291636a86ba8960e11b83526004830161027c565b0390fd5b50806136196136135f6104bd565b91610167565b14613183565b90565b61363661363161363b9261361f565b610207565b610167565b90565b61365261364d613657926101fe565b610207565b610167565b90565b90565b61367161366c6136769261365a565b610207565b610167565b90565b6136856201117261365d565b90565b5f0190565b906136966101d1565b50816136a2600f613622565b16806136b76136b16001610d98565b91610167565b145f1461373257506136c8916138e3565b905b816136e46136de6136d961303e565b610167565b91610167565b116136ec575b565b90506136f661303e565b907fe41708b2641eb1f7442f6a1e760ae5098fd7ba9f85e0c101513add0fbb27bcd7613720610032565b8061372a81613688565b0390a16136ea565b61374561373f600261363e565b91610167565b145f1461375b5761375591613b96565b906136ca565b613784613766613679565b61376e610032565b918291636a86ba8960e11b83526004830161027c565b0390fd5b90565b61379f61379a6137a492613788565b610207565b610167565b90565b6137b1601461378b565b90565b90565b6137cb6137c66137d0926137b4565b610207565b610167565b90565b6137dd60246137b7565b90565b90565b6137f76137f26137fc926137e0565b610207565b610167565b90565b61380960346137e3565b90565b90565b61382361381e6138289261380c565b610207565b610167565b90565b613835600461380f565b90565b5f90565b61385061384b61385592610167565b610207565b61007a565b90565b61386664e8d4a51000610d22565b90565b90613874910261007a565b90565b6138836138899161007a565b9161007a565b908115613894570590565b610791565b906138a4910361007a565b90565b906138b2910161007a565b90565b90565b6138cc6138c76138d1926138b5565b610207565b610167565b90565b6138e0620111736138b8565b90565b906138ec6101d1565b506138f56101d1565b506138fe6101d1565b506139076101d1565b506139106101d1565b506139238261391d6137a7565b90610a23565b61392b61303e565b16918161394061393a85610167565b91610167565b105f14613a9a578061395061382b565b61395991610a23565b61396161303e565b1691829161396d6137d3565b61397691610a23565b61397e61303e565b165f613989906104bd565b94613a3895613a20613a0f613a0a6139fb613a26956139f56139f06139e86139d26139cd613a339e613a2d9d5b6139be613838565b506139c7613838565b50610b33565b61383c565b6139e26139dd613858565b61383c565b90613869565b928890610b33565b61383c565b90613877565b98613a04613858565b90610783565b61383c565b91613a1a889161383c565b90613869565b90613899565b939161383c565b90613869565b6138a7565b80613a4b613a455f6103b8565b9161007a565b12613a6d57613a5c613a6a916105fd565b613a64613858565b906107a5565b90565b613a96613a786138d4565b613a80610032565b918291636a86ba8960e11b83526004830161027c565b0390fd5b80613aa36137d3565b613aac91610a23565b613ab461303e565b16918291613ac06137ff565b613ac991610a23565b613ad161303e565b16613ada61309a565b613a3895613a20613a0f613a0a6139fb613a26956139f56139f06139e86139d26139cd613a339e613a2d9d6139b6565b613b14601461378b565b90565b613b2160346137e3565b90565b90565b613b3b613b36613b4092613b24565b610207565b610167565b90565b613b4d6044613b27565b90565b90565b613b67613b62613b6c92613b50565b610207565b610167565b90565b613b796054613b53565b90565b613b8660246137b7565b90565b613b93600461380f565b90565b90613b9f6101d1565b50613ba86101d1565b50613bb16101d1565b50613bba6101d1565b50613bc36101d1565b50613bd682613bd0613b0a565b90610a23565b613bde61303e565b169181613bf3613bed85610167565b91610167565b105f14613d4d5780613c03613b89565b613c0c91610a23565b613c1461303e565b16918291613c20613b7c565b613c2991610a23565b613c3161303e565b165f613c3c906104bd565b94613ceb95613cd3613cc2613cbd613cae613cd995613ca8613ca3613c9b613c85613c80613ce69e613ce09d5b613c71613838565b50613c7a613838565b50610b33565b61383c565b613c95613c90613858565b61383c565b90613869565b928890610b33565b61383c565b90613877565b98613cb7613858565b90610783565b61383c565b91613ccd889161383c565b90613869565b90613899565b939161383c565b90613869565b6138a7565b80613cfe613cf85f6103b8565b9161007a565b12613d2057613d0f613d1d916105fd565b613d17613858565b906107a5565b90565b613d49613d2b6138d4565b613d33610032565b918291636a86ba8960e11b83526004830161027c565b0390fd5b613d6281939293613d5c613b17565b90610a23565b613d6a61303e565b169280613d7f613d7986610167565b91610167565b105f14613df15781613d8f613b7c565b613d9891610a23565b613da061303e565b16928392613dac613b43565b613db591610a23565b613dbd61303e565b169094613ceb95613cd3613cc2613cbd613cae613cd995613ca8613ca3613c9b613c85613c80613ce69e613ce09d5b613c69565b915080613dfc613b43565b613e0591610a23565b613e0d61303e565b16918291613e19613b6f565b613e2291610a23565b613e2a61303e565b16613e3361309a565b613ceb95613cd3613cc2613cbd613cae613cd995613ca8613ca3613c9b613c85613c80613ce69e613ce09d613dec565b5f90565b90565b613e7e613e79613e8392613e67565b610207565b610167565b90565b613e926201155a613e6a565b90565b60446020925f8093613ee096613ea9613e63565b506040519363a9059cbb60e01b855260018060a01b0316600485015260248401525af13d15601f3d1160015f511416171615610709565b613ee657565b613f0f613ef1613e86565b613ef9610032565b918291636f728d4560e11b83526004830161027c565b0390fd5b5f8080613f2f948194613f24613e63565b50614e20f115610709565b613f3557565b613f5e613f40613e86565b613f48610032565b918291636f728d4560e11b83526004830161027c565b0390fd5b90613f6c90610983565b5f5260205260405f2090565b90565b613f8f613f8a613f9492613f78565b610207565b610167565b90565b613fa2612af9613f7b565b90565b613faf60ff610a4d565b90565b90565b613fc9613fc4613fce92613fb2565b610207565b610167565b90565b613fdc612afa613fb5565b90565b613fe96001610d98565b90565b613ffb6140019193929361007a565b9261007a565b9161400d83820261007a565b92600160ff1b81145f83121661403057818405149015171561402b57565b610619565b610619565b6140416140479161007a565b9161007a565b9081156140695760015f038214600160ff1b821416614064570590565b610619565b610791565b90565b61408561408061408a9261406e565b610207565b610167565b90565b614098612afb614071565b90565b90565b6140b26140ad6140b79261409b565b610207565b610167565b90565b90565b6140d16140cc6140d6926140ba565b610207565b610167565b90565b6140e360416140bd565b90565b90565b6140fd6140f8614102926140e6565b610207565b610167565b90565b61410f60816140e9565b90565b91929061411d613838565b92614126613838565b9361414561414061413960083390613f62565b849061098f565b6101f1565b90816141596141535f6104bd565b91610167565b146144c6576141708261416a613fa5565b90610a23565b61417a6001610d98565b1661418e6141886001610d98565b91610167565b14614499576141d36141a8836141a2613fdf565b90610a23565b6141b06109df565b166141c3816141bd610a12565b90610a23565b906141cc610a69565b1690610a7a565b966141df838990614593565b91836141eb6001610d98565b166141ff6141f96001610d98565b91610167565b145f1461443e57508461421a6142145f6103b8565b9161007a565b135f146143e8576142516142619161424b6142458861423f61423a610d3e565b61383c565b90613fec565b9161383c565b90614035565b9761425b896105fd565b9061064b565b935b5b6142766142705f6103b8565b9161007a565b12806143ce575b6143a1576142926142b2918390869091614761565b9361429b610bfe565b6142a3610a12565b906142ac610c0b565b92612e99565b906142c5816142bf613fdf565b90610a23565b6142cd6109df565b166142e06142da84610167565b91610167565b146143745761434761436d92614337614315614372976142fe610bfe565b614306610a12565b9061430f610c0b565b92612e99565b936143276002600160a21b031961409e565b1691614331613fdf565b90610a7a565b17916143416140d9565b90610a7a565b1761435a42614354614105565b90610a7a565b179161436860083390613f62565b61098f565b6102cb565b565b61439d61437f610c6c565b614387610032565b918291636e55c17160e11b83526004830161027c565b0390fd5b6143ca6143ac61408d565b6143b4610032565b918291636e55c17160e11b83526004830161027c565b0390fd5b50836143e26143dc83610167565b91610167565b1061427d565b61442061441b614416614438936144066144018a61062d565b6105fd565b9061440f610d3e565b90916152cc565b61383c565b61062d565b9761443261442d8a61062d565b6105fd565b9061095e565b93614263565b979650508395866144576144515f6103b8565b9161007a565b135f14614478576144719061446b886105fd565b9061064b565b935b614264565b6144939061448d6144888961062d565b6105fd565b9061095e565b93614473565b6144c26144a4613fd1565b6144ac610032565b918291636e55c17160e11b83526004830161027c565b0390fd5b6144ef6144d1613f97565b6144d9610032565b918291636e55c17160e11b83526004830161027c565b0390fd5b6144fd60086109f6565b90565b61450a60ff610a4d565b90565b90565b61452461451f6145299261450d565b610207565b610167565b90565b61453660a2614510565b90565b90565b61455061454b61455592614539565b610207565b610167565b90565b61456260b061453c565b90565b90565b61457c61457761458192614565565b610207565b610167565b90565b61459062ffffff614568565b90565b91909161459e6101d1565b506145df6145b4826145ae6140d9565b90610a23565b6145bc612fdd565b166145cf816145c96144f3565b90610a23565b906145d8614500565b1690610a7a565b806145f26145ec5f6104bd565b91610167565b146146f757906146c1916146046101d1565b5061460d6101d1565b506146976146476146396146298561462361452c565b90610a23565b6146316130a8565b168890610783565b61464161309a565b906107a5565b92614688614679614673426146648561465e614105565b90610a23565b61466c61304c565b1690610b33565b86610cea565b91614682614558565b90610a23565b614690614584565b1690610d4f565b816146aa6146a483610167565b91610167565b115f146146e7576146ba91610b33565b5b93610b33565b806146d46146ce85610167565b91610167565b116146dd575b50565b909150905f6146da565b50506146f25f6104bd565b6146bb565b505090506147045f6104bd565b90565b90565b61471e61471961472392614707565b610207565b610167565b90565b61473060c861470a565b90565b90565b61474a61474561474f92614733565b610207565b610167565b90565b61475e6203ffff614736565b90565b9061476a6101d1565b506147ab6147808361477a614726565b90610a23565b614788614752565b1661479b816147956144f3565b90610a23565b906147a4614500565b1690610a7a565b6147be6147b88392610167565b91610167565b10614822576147fb6147ed6147de614801946147d861452c565b90610a23565b6147e66130a8565b1683610783565b6147f561309a565b906107a5565b90610b33565b8061481461480e84610167565b91610167565b1161481d575090565b905090565b50505061482e5f6104bd565b90565b61483b60ff610a4d565b90565b6148486001610d98565b90565b90565b61486261485d6148679261484b565b610207565b610167565b90565b614875612afc61484e565b90565b61488260416140bd565b90565b61488f60816140e9565b90565b91929061489d613838565b926148a6613838565b936148c56148c06148b960093390613f62565b849061098f565b6101f1565b90816148d96148d35f6104bd565b91610167565b14614c36576148f0826148ea614831565b90610a23565b6148fa6001610d98565b1661490e6149086001610d98565b91610167565b14614c09576149536149288361492261483e565b90610a23565b6149306109df565b166149438161493d610a12565b90610a23565b9061494c610a69565b1690610a7a565b9661495f838990614cb6565b918361496b6001610d98565b1661497f6149796001610d98565b91610167565b145f14614bae57508461499a6149945f6103b8565b9161007a565b135f14614b60576149c96149c46149d9926149b4886105fd565b906149bd610d3e565b90916152cc565b61383c565b976149d3896105fd565b9061064b565b935b5b6149ee6149e85f6103b8565b9161007a565b1380614b46575b614b1957614a0a614a2a918390869091614eac565b93614a13610bfe565b614a1b610a12565b90614a24610ca7565b92612e99565b90614a3d81614a3761483e565b90610a23565b614a456109df565b16614a58614a5284610167565b91610167565b14614aec57614abf614ae592614aaf614a8d614aea97614a76610bfe565b614a7e610a12565b90614a87610c0b565b92612e99565b93614a9f6002600160a21b031961409e565b1691614aa961483e565b90610a7a565b1791614ab9614878565b90610a7a565b17614ad242614acc614885565b90610a7a565b1791614ae060093390613f62565b61098f565b6102cb565b565b614b15614af7610c6c565b614aff610032565b918291636e55c17160e11b83526004830161027c565b0390fd5b614b42614b2461486a565b614b2c610032565b918291636e55c17160e11b83526004830161027c565b0390fd5b5083614b5a614b5483610167565b91610167565b116149f5565b614b90614ba891614b8a614b8488614b7e614b79610d3e565b61383c565b90613fec565b9161383c565b90614035565b97614ba2614b9d8a61062d565b6105fd565b9061095e565b936149db565b97965050839586614bc7614bc15f6103b8565b9161007a565b135f14614be857614be190614bdb886105fd565b9061064b565b935b6149dc565b614c0390614bfd614bf88961062d565b6105fd565b9061095e565b93614be3565b614c32614c14613fd1565b614c1c610032565b918291636e55c17160e11b83526004830161027c565b0390fd5b614c5f614c41613f97565b614c49610032565b918291636e55c17160e11b83526004830161027c565b0390fd5b614c6d60a2614510565b90565b614c7a60c861470a565b90565b614c8760b061453c565b90565b90565b614ca1614c9c614ca692614c8a565b610207565b610167565b90565b614cb360da614c8d565b90565b919091614cc16101d1565b50614d14614d0c614cfe614cdd84614cd7614c63565b90610a23565b614ce56130a8565b16614cee6101d1565b50614cf76101d1565b5086610783565b614d0661309a565b906107a5565b938490610775565b92614d55614d2a83614d24614c70565b90610a23565b614d32614752565b16614d4581614d3f6144f3565b90610a23565b90614d4e614500565b1690610a7a565b84614d68614d6283610167565b91610167565b10614e915750614dc4614da3614dfe92614d9d42614d8e87614d88614885565b90610a23565b614d9661304c565b1690610b33565b90610cea565b614db584614daf614c7d565b90610a23565b614dbd614584565b1690610d4f565b614df8614dd984614dd3614878565b90610a23565b614de1612fdd565b16614dea6144f3565b614df2614500565b91614e99565b9061064b565b9283614e12614e0c83610167565b91610167565b11614e7f575b50614e2e614e5991614e28614ca9565b90610a23565b614e36614752565b16614e4981614e436144f3565b90610a23565b90614e52614500565b1690610a7a565b82614e6c614e6683610167565b91610167565b11614e75575b50565b909150905f614e72565b614e59919350614e2e90939150614e18565b929350505090565b809291614ea46101d1565b501c91161b90565b90614ef590614eb96101d1565b50614eef614ee1614ed285614ecc614c63565b90610a23565b614eda6130a8565b1683610783565b614ee961309a565b906107a5565b90610775565b90614f36614f0b82614f05614c70565b90610a23565b614f13614752565b16614f2681614f206144f3565b90610a23565b90614f2f614500565b1690610a7a565b82614f49614f4383610167565b91610167565b10614fd25750614f64614f8f91614f5e614ca9565b90610a23565b614f6c614752565b16614f7f81614f796144f3565b90610a23565b90614f88614500565b1690610a7a565b81614fa2614f9c83610167565b91610167565b11614fca575b5081614fbc614fb683610167565b91610167565b11614fc5575090565b905090565b90505f614fa8565b9250505090565b5f90565b67ffffffffffffffff8111614ffb57614ff7602091610506565b0190565b610510565b9061501261500d83614fdd565b61054d565b918252565b5f7f534b49505f5452414e5346455253000000000000000000000000000000000000910152565b615048600e615000565b9061505560208301615017565b565b61505f61503e565b90565b60200190565b5190565b615074615057565b61508661508082615068565b91615062565b2090565b90565b90565b6150a461509f6150a99261508d565b610207565b610167565b90565b6150b7612b08615090565b90565b5f90565b9293906150c9613e63565b506150d2614fd9565b5060408251036020830101516150f76150f16150ec61506c565b61508a565b9161508a565b036152c3573461510f6151095f6104bd565b91610167565b141580156152a9575b801561528f575b908115615273575b50615246576151346150ba565b50602080825103910101519161515261514c5f6103b8565b9161007a565b135f146151d257506151809161517161516b839261004b565b9161004b565b1490816151b7575b5015610709565b61518a575b600190565b6151b36151956150ac565b61519d610032565b918291636e55c17160e11b83526004830161027c565b0390fd5b90506151cb6151c53361004b565b9161004b565b145f615179565b6151f992506151ea6151e4839261004b565b9161004b565b14908161522b575b5015610709565b15615185576152276152096150ac565b615211610032565b918291636e55c17160e11b83526004830161027c565b0390fd5b905061523f6152393361004b565b9161004b565b145f6151f2565b61526f6152516150ac565b615259610032565b918291636e55c17160e11b83526004830161027c565b0390fd5b9050615288615282859261007a565b9161007a565b135f615127565b50806152a361529d5f6103b8565b9161007a565b1461511f565b50836152bd6152b75f6103b8565b9161007a565b14615118565b50505050505f90565b916152d56101d1565b50815f190483118202158102156152f55781815f93850204930206110190565b5f80fdfea26469706673582212205fc5a5603c5dedd3ff805adc6f1347076e5c60c5321cde096e2035765f82ff4664736f6c63430008150033","linkReferences":{}},"methodIdentifiers":{"operate(address,int256,int256,address,address,bytes)":"ad967e15"},"id":27}