{"abi":[{"type":"constructor","inputs":[{"name":"owner_","type":"address","internalType":"address"}],"stateMutability":"nonpayable"},{"type":"function","name":"approve","inputs":[{"name":"spender_","type":"address","internalType":"address"},{"name":"id_","type":"uint256","internalType":"uint256"}],"outputs":[],"stateMutability":"nonpayable"},{"type":"function","name":"balanceOf","inputs":[{"name":"owner_","type":"address","internalType":"address"}],"outputs":[{"name":"","type":"uint256","internalType":"uint256"}],"stateMutability":"view"},{"type":"function","name":"deployVault","inputs":[{"name":"vaultDeploymentLogic_","type":"address","internalType":"address"},{"name":"vaultDeploymentData_","type":"bytes","internalType":"bytes"}],"outputs":[{"name":"vault_","type":"address","internalType":"address"}],"stateMutability":"nonpayable"},{"type":"function","name":"getApproved","inputs":[{"name":"","type":"uint256","internalType":"uint256"}],"outputs":[{"name":"","type":"address","internalType":"address"}],"stateMutability":"view"},{"type":"function","name":"getVaultAddress","inputs":[{"name":"vaultId_","type":"uint256","internalType":"uint256"}],"outputs":[{"name":"vault_","type":"address","internalType":"address"}],"stateMutability":"view"},{"type":"function","name":"isApprovedForAll","inputs":[{"name":"","type":"address","internalType":"address"},{"name":"","type":"address","internalType":"address"}],"outputs":[{"name":"","type":"bool","internalType":"bool"}],"stateMutability":"view"},{"type":"function","name":"isDeployer","inputs":[{"name":"deployer_","type":"address","internalType":"address"}],"outputs":[{"name":"","type":"bool","internalType":"bool"}],"stateMutability":"view"},{"type":"function","name":"isGlobalAuth","inputs":[{"name":"globalAuth_","type":"address","internalType":"address"}],"outputs":[{"name":"","type":"bool","internalType":"bool"}],"stateMutability":"view"},{"type":"function","name":"isVault","inputs":[{"name":"vault_","type":"address","internalType":"address"}],"outputs":[{"name":"","type":"bool","internalType":"bool"}],"stateMutability":"view"},{"type":"function","name":"isVaultAuth","inputs":[{"name":"vault_","type":"address","internalType":"address"},{"name":"vaultAuth_","type":"address","internalType":"address"}],"outputs":[{"name":"","type":"bool","internalType":"bool"}],"stateMutability":"view"},{"type":"function","name":"isVaultDeploymentLogic","inputs":[{"name":"vaultDeploymentLogic_","type":"address","internalType":"address"}],"outputs":[{"name":"","type":"bool","internalType":"bool"}],"stateMutability":"view"},{"type":"function","name":"mint","inputs":[{"name":"vaultId_","type":"uint256","internalType":"uint256"},{"name":"user_","type":"address","internalType":"address"}],"outputs":[{"name":"tokenId_","type":"uint256","internalType":"uint256"}],"stateMutability":"nonpayable"},{"type":"function","name":"name","inputs":[],"outputs":[{"name":"","type":"string","internalType":"string"}],"stateMutability":"view"},{"type":"function","name":"owner","inputs":[],"outputs":[{"name":"","type":"address","internalType":"address"}],"stateMutability":"view"},{"type":"function","name":"ownerOf","inputs":[{"name":"id_","type":"uint256","internalType":"uint256"}],"outputs":[{"name":"owner_","type":"address","internalType":"address"}],"stateMutability":"view"},{"type":"function","name":"readFromStorage","inputs":[{"name":"slot_","type":"bytes32","internalType":"bytes32"}],"outputs":[{"name":"result_","type":"uint256","internalType":"uint256"}],"stateMutability":"view"},{"type":"function","name":"safeTransferFrom","inputs":[{"name":"from_","type":"address","internalType":"address"},{"name":"to_","type":"address","internalType":"address"},{"name":"id_","type":"uint256","internalType":"uint256"}],"outputs":[],"stateMutability":"nonpayable"},{"type":"function","name":"safeTransferFrom","inputs":[{"name":"from_","type":"address","internalType":"address"},{"name":"to_","type":"address","internalType":"address"},{"name":"id_","type":"uint256","internalType":"uint256"},{"name":"data_","type":"bytes","internalType":"bytes"}],"outputs":[],"stateMutability":"nonpayable"},{"type":"function","name":"setApprovalForAll","inputs":[{"name":"operator_","type":"address","internalType":"address"},{"name":"approved_","type":"bool","internalType":"bool"}],"outputs":[],"stateMutability":"nonpayable"},{"type":"function","name":"setDeployer","inputs":[{"name":"deployer_","type":"address","internalType":"address"},{"name":"allowed_","type":"bool","internalType":"bool"}],"outputs":[],"stateMutability":"nonpayable"},{"type":"function","name":"setGlobalAuth","inputs":[{"name":"globalAuth_","type":"address","internalType":"address"},{"name":"allowed_","type":"bool","internalType":"bool"}],"outputs":[],"stateMutability":"nonpayable"},{"type":"function","name":"setVaultAuth","inputs":[{"name":"vault_","type":"address","internalType":"address"},{"name":"vaultAuth_","type":"address","internalType":"address"},{"name":"allowed_","type":"bool","internalType":"bool"}],"outputs":[],"stateMutability":"nonpayable"},{"type":"function","name":"setVaultDeploymentLogic","inputs":[{"name":"deploymentLogic_","type":"address","internalType":"address"},{"name":"allowed_","type":"bool","internalType":"bool"}],"outputs":[],"stateMutability":"nonpayable"},{"type":"function","name":"spell","inputs":[{"name":"target_","type":"address","internalType":"address"},{"name":"data_","type":"bytes","internalType":"bytes"}],"outputs":[{"name":"response_","type":"bytes","internalType":"bytes"}],"stateMutability":"nonpayable"},{"type":"function","name":"supportsInterface","inputs":[{"name":"interfaceId_","type":"bytes4","internalType":"bytes4"}],"outputs":[{"name":"","type":"bool","internalType":"bool"}],"stateMutability":"view"},{"type":"function","name":"symbol","inputs":[],"outputs":[{"name":"","type":"string","internalType":"string"}],"stateMutability":"view"},{"type":"function","name":"tokenByIndex","inputs":[{"name":"index_","type":"uint256","internalType":"uint256"}],"outputs":[{"name":"","type":"uint256","internalType":"uint256"}],"stateMutability":"view"},{"type":"function","name":"tokenOfOwnerByIndex","inputs":[{"name":"owner_","type":"address","internalType":"address"},{"name":"index_","type":"uint256","internalType":"uint256"}],"outputs":[{"name":"","type":"uint256","internalType":"uint256"}],"stateMutability":"view"},{"type":"function","name":"tokenURI","inputs":[{"name":"id_","type":"uint256","internalType":"uint256"}],"outputs":[{"name":"","type":"string","internalType":"string"}],"stateMutability":"view"},{"type":"function","name":"totalSupply","inputs":[],"outputs":[{"name":"","type":"uint256","internalType":"uint256"}],"stateMutability":"view"},{"type":"function","name":"totalVaults","inputs":[],"outputs":[{"name":"","type":"uint256","internalType":"uint256"}],"stateMutability":"view"},{"type":"function","name":"transferFrom","inputs":[{"name":"from_","type":"address","internalType":"address"},{"name":"to_","type":"address","internalType":"address"},{"name":"id_","type":"uint256","internalType":"uint256"}],"outputs":[],"stateMutability":"nonpayable"},{"type":"function","name":"transferOwnership","inputs":[{"name":"newOwner","type":"address","internalType":"address"}],"outputs":[],"stateMutability":"nonpayable"},{"type":"event","name":"Approval","inputs":[{"name":"owner","type":"address","indexed":true,"internalType":"address"},{"name":"spender","type":"address","indexed":true,"internalType":"address"},{"name":"id","type":"uint256","indexed":true,"internalType":"uint256"}],"anonymous":false},{"type":"event","name":"ApprovalForAll","inputs":[{"name":"owner","type":"address","indexed":true,"internalType":"address"},{"name":"operator","type":"address","indexed":true,"internalType":"address"},{"name":"approved","type":"bool","indexed":false,"internalType":"bool"}],"anonymous":false},{"type":"event","name":"LogSetDeployer","inputs":[{"name":"deployer","type":"address","indexed":true,"internalType":"address"},{"name":"allowed","type":"bool","indexed":true,"internalType":"bool"}],"anonymous":false},{"type":"event","name":"LogSetGlobalAuth","inputs":[{"name":"globalAuth","type":"address","indexed":true,"internalType":"address"},{"name":"allowed","type":"bool","indexed":true,"internalType":"bool"}],"anonymous":false},{"type":"event","name":"LogSetVaultAuth","inputs":[{"name":"vaultAuth","type":"address","indexed":true,"internalType":"address"},{"name":"allowed","type":"bool","indexed":true,"internalType":"bool"},{"name":"vault","type":"address","indexed":true,"internalType":"address"}],"anonymous":false},{"type":"event","name":"LogSetVaultDeploymentLogic","inputs":[{"name":"vaultDeploymentLogic","type":"address","indexed":true,"internalType":"address"},{"name":"allowed","type":"bool","indexed":true,"internalType":"bool"}],"anonymous":false},{"type":"event","name":"NewPositionMinted","inputs":[{"name":"vault","type":"address","indexed":true,"internalType":"address"},{"name":"user","type":"address","indexed":true,"internalType":"address"},{"name":"tokenId","type":"uint256","indexed":true,"internalType":"uint256"}],"anonymous":false},{"type":"event","name":"OwnershipTransferred","inputs":[{"name":"user","type":"address","indexed":true,"internalType":"address"},{"name":"newOwner","type":"address","indexed":true,"internalType":"address"}],"anonymous":false},{"type":"event","name":"Transfer","inputs":[{"name":"from","type":"address","indexed":true,"internalType":"address"},{"name":"to","type":"address","indexed":true,"internalType":"address"},{"name":"id","type":"uint256","indexed":true,"internalType":"uint256"}],"anonymous":false},{"type":"event","name":"VaultDeployed","inputs":[{"name":"vault","type":"address","indexed":true,"internalType":"address"},{"name":"vaultId","type":"uint256","indexed":true,"internalType":"uint256"}],"anonymous":false},{"type":"error","name":"FluidLiquidateResult","inputs":[{"name":"colLiquidated","type":"uint256","internalType":"uint256"},{"name":"debtLiquidated","type":"uint256","internalType":"uint256"}]},{"type":"error","name":"FluidVaultError","inputs":[{"name":"errorId_","type":"uint256","internalType":"uint256"}]}],"bytecode":{"object":"0x60806040523462000037576200001e6200001862000110565b62000136565b620000286200003d565b613c9b620007708239613c9b90f35b62000043565b60405190565b5f80fd5b601f801991011690565b634e487b7160e01b5f52604160045260245ffd5b90620000719062000047565b810190811060018060401b038211176200008a57604052565b62000051565b90620000a76200009f6200003d565b928362000065565b565b5f80fd5b60018060a01b031690565b620000c390620000ad565b90565b620000d181620000b8565b03620000d957565b5f80fd5b90505190620000ec82620000c6565b565b906020828203126200010a5762000107915f01620000dd565b90565b620000a9565b620001336200440b80380380620001278162000090565b928339810190620000ee565b90565b620001419062000143565b565b6200014e9062000150565b565b6200015b906200015d565b565b620001689062000259565b565b90565b90565b62000189620001836200018f926200016a565b6200016d565b620000ad565b90565b6200019d9062000170565b90565b90565b90565b620001bf620001b9620001c592620001a0565b6200016d565b620001a3565b90565b620001d5617534620001a6565b90565b620001e390620001a3565b9052565b9190620001fc905f60208501940190620001d8565b565b6200021e62000217620002115f62000192565b620000b8565b91620000b8565b146200022657565b6200025562000234620001c8565b6200023e6200003d565b9182916330090e6560e11b835260048301620001e7565b0390fd5b6200026f90620002698162000271565b620001fe565b565b6200027c906200037a565b565b60018060401b0381116200029d576200029960209162000047565b0190565b62000051565b90620002b9620002b3836200027e565b62000090565b918252565b5f7f466c756964205661756c74000000000000000000000000000000000000000000910152565b620002f1600b620002a3565b906200030060208301620002be565b565b6200030c620002e5565b90565b6200031962000302565b90565b5f7f66564c5400000000000000000000000000000000000000000000000000000000910152565b6200034f6004620002a3565b906200035e602083016200031c565b565b6200036a62000343565b90565b6200037762000360565b90565b6200039c90620003896200030f565b90620003946200036d565b90916200039e565b565b90620003ab929162000643565b565b5190565b634e487b7160e01b5f52602260045260245ffd5b9060016002830492168015620003e8575b6020831014620003e257565b620003b1565b91607f1691620003d6565b5f5260205f2090565b601f602091010490565b1b90565b9190600862000429910291620004225f198462000406565b9262000406565b9181191691161790565b6200044c620004466200045292620001a3565b6200016d565b620001a3565b90565b90565b9190620004736200046d6200047c9362000433565b62000455565b9083546200040a565b9055565b5f90565b6200049a916200049362000480565b9162000458565b565b5b818110620004a9575050565b80620004b85f60019362000484565b016200049d565b9190601f8111620004d0575b505050565b620004df6200050a93620003f3565b906020620004ed84620003fc565b8301931062000513575b6200050290620003fc565b01906200049c565b5f8080620004cb565b91506200050281929050620004f7565b1c90565b9062000539905f199060080262000523565b191690565b816200054a9162000527565b906002021790565b906200055e81620003ad565b9060018060401b0382116200062f5762000585826200057e8554620003c5565b85620004bf565b602090601f8311600114620005be57918091620005ac935f92620005b1575b50506200053e565b90555b565b90915001515f80620005a4565b601f19831691620005cf85620003f3565b925f5b8181106200061657509160029391856001969410620005f9575b50505002019055620005af565b6200060b910151601f84169062000527565b90555f8080620005ec565b91936020600181928787015181550195019201620005d2565b62000051565b90620006419162000552565b565b6200065f9062000657620006679462000669565b600162000635565b600262000635565b565b620006749062000704565b565b5f1b90565b906200068e60018060a01b039162000676565b9181191691161790565b620006b1620006ab620006b792620000ad565b6200016d565b620000ad565b90565b620006c59062000698565b90565b620006d390620006ba565b90565b90565b90620006f3620006ed620006fb92620006c8565b620006d6565b82546200067b565b9055565b5f0190565b62000710815f620006d9565b6200071b5f62000192565b90620007536200074c7f8be0079c531659141344cd1fd0a4f28419497f9722a3daafe3b4186f6b6457e093620006c8565b91620006c8565b916200075e6200003d565b806200076a81620006ff565b0390a356fe60806040526004361015610013575b6111c3565b61001d5f3561022c565b806301ffc9a71461022757806306fdde0314610222578063081812fc1461021d57806308a892d914610218578063095ea7b31461021357806317e7681c1461020e57806318160ddd1461020957806323b872dd146102045780632f745c59146101ff57806342842e0e146101fa5780634502d063146101f55780634f6ccce7146101f057806350c358a4146101eb5780636352211e146101e6578063652b9b41146101e157806370a08231146101dc5780637faa1d21146101d75780638d654023146101d25780638da5cb5b146101cd5780638f2db95d146101c857806394bf804d146101c357806395d89b41146101be578063968cbade146101b9578063a22cb465146101b4578063a34b5ee8146101af578063b5c736e4146101aa578063b88d4fde146101a5578063c7acb01f146101a0578063c87b56dd1461019b578063e04c8e5d14610196578063e6bd26a214610191578063e985e9c51461018c5763f2fde38b0361000e57611190565b61115a565b611078565b611042565b610fe0565b610faa565b610e38565b610da3565b610d2b565b610cf7565b610cc1565b610bfb565b610bb6565b610b55565b610b20565b610ade565b610aaa565b610a3b565b610a06565b6109d1565b61099c565b610967565b610932565b6108fe565b6108c8565b610894565b610825565b610796565b610744565b6106e3565b610636565b610501565b6102b8565b60e01c90565b60405190565b5f80fd5b5f80fd5b5f80fd5b63ffffffff60e01b1690565b61025981610244565b0361026057565b5f80fd5b9050359061027182610250565b565b9060208282031261028c57610289915f01610264565b90565b61023c565b151590565b61029f90610291565b9052565b91906102b6905f60208501940190610296565b565b346102e8576102e46102d36102ce366004610273565b611fa1565b6102db610232565b918291826102a3565b0390f35b610238565b5f9103126102f757565b61023c565b634e487b7160e01b5f525f60045260245ffd5b634e487b7160e01b5f52602260045260245ffd5b9060016002830492168015610343575b602083101461033e57565b61030f565b91607f1691610333565b60209181520190565b5f5260205f2090565b905f929180549061037961037283610323565b809461034d565b916001811690815f146103d05750600114610394575b505050565b6103a19192939450610356565b915f925b8184106103b857505001905f808061038f565b600181602092959395548486015201910192906103a5565b92949550505060ff19168252151560200201905f808061038f565b906103f59161035f565b90565b601f801991011690565b634e487b7160e01b5f52604160045260245ffd5b90610420906103f8565b810190811067ffffffffffffffff82111761043a57604052565b610402565b9061045f6104589261044f610232565b938480926103eb565b0383610416565b565b905f10610474576104719061043f565b90565b6102fc565b61048560015f90610461565b90565b5190565b60209181520190565b5f5b8381106104a7575050905f910152565b806020918301518185015201610497565b6104d76104e06020936104e5936104ce81610488565b9384809361048c565b95869101610495565b6103f8565b0190565b6104fe9160208201915f8184039101526104b8565b90565b34610531576105113660046102ed565b61052d61051c610479565b610524610232565b918291826104e9565b0390f35b610238565b90565b61054281610536565b0361054957565b5f80fd5b9050359061055a82610539565b565b9060208282031261057557610572915f0161054d565b90565b61023c565b90565b61059161058c61059692610536565b61057a565b610536565b90565b906105a39061057d565b5f5260205260405f2090565b1c90565b60018060a01b031690565b6105ce9060086105d393026105af565b6105b3565b90565b906105e191546105be565b90565b6105fa906105f56006915f92610599565b6105d6565b90565b60018060a01b031690565b610611906105fd565b90565b61061d90610608565b9052565b9190610634905f60208501940190610614565b565b346106665761066261065161064c36600461055c565b6105e4565b610659610232565b91829182610621565b0390f35b610238565b61067481610608565b0361067b57565b5f80fd5b9050359061068c8261066b565b565b61069781610291565b0361069e57565b5f80fd5b905035906106af8261068e565b565b91906040838203126106d957806106cd6106d6925f860161067f565b936020016106a2565b90565b61023c565b5f0190565b34610712576106fc6106f63660046106b1565b90612b39565b610704610232565b8061070e816106de565b0390f35b610238565b919060408382031261073f578061073361073c925f860161067f565b9360200161054d565b90565b61023c565b346107735761075d610757366004610717565b9061148a565b610765610232565b8061076f816106de565b0390f35b610238565b906020828203126107915761078e915f0161067f565b90565b61023c565b346107c6576107c26107b16107ac366004610778565b612cc3565b6107b9610232565b918291826102a3565b0390f35b610238565b90565b6107de9060086107e393026105af565b6107cb565b90565b906107f191546107ce565b90565b61080060055f906107e6565b90565b61080c90610536565b9052565b9190610823905f60208501940190610803565b565b34610855576108353660046102ed565b6108516108406107f4565b610848610232565b91829182610810565b0390f35b610238565b909160608284031261088f5761088c610875845f850161067f565b93610883816020860161067f565b9360400161054d565b90565b61023c565b346108c3576108ad6108a736600461085a565b9161171f565b6108b5610232565b806108bf816106de565b0390f35b610238565b346108f9576108f56108e46108de366004610717565b90611e45565b6108ec610232565b91829182610810565b0390f35b610238565b3461092d5761091761091136600461085a565b916119bd565b61091f610232565b80610929816106de565b0390f35b610238565b346109625761095e61094d610948366004610778565b612c20565b610955610232565b918291826102a3565b0390f35b610238565b346109975761099361098261097d36600461055c565b611ce4565b61098a610232565b91829182610810565b0390f35b610238565b346109cc576109c86109b76109b2366004610778565b612bd3565b6109bf610232565b918291826102a3565b0390f35b610238565b34610a01576109fd6109ec6109e736600461055c565b61128c565b6109f4610232565b91829182610621565b0390f35b610238565b34610a3657610a32610a21610a1c366004610778565b61389c565b610a29610232565b918291826102a3565b0390f35b610238565b34610a6b57610a67610a56610a51366004610778565b611375565b610a5e610232565b91829182610810565b0390f35b610238565b9091606082840312610aa557610aa2610a8b845f850161067f565b93610a99816020860161067f565b936040016106a2565b90565b61023c565b34610ad957610ac3610abd366004610a70565b91612a42565b610acb610232565b80610ad5816106de565b0390f35b610238565b34610b0e57610aee3660046102ed565b610b0a610af9613932565b610b01610232565b91829182610810565b0390f35b610238565b610b1d5f806105d6565b90565b34610b5057610b303660046102ed565b610b4c610b3b610b13565b610b43610232565b91829182610621565b0390f35b610238565b34610b8457610b6e610b683660046106b1565b90612936565b610b76610232565b80610b80816106de565b0390f35b610238565b9190604083820312610bb15780610ba5610bae925f860161054d565b9360200161067f565b90565b61023c565b34610be757610be3610bd2610bcc366004610b89565b90613975565b610bda610232565b91829182610810565b0390f35b610238565b610bf860025f90610461565b90565b34610c2b57610c0b3660046102ed565b610c27610c16610bec565b610c1e610232565b918291826104e9565b0390f35b610238565b5f80fd5b5f80fd5b5f80fd5b909182601f83011215610c765781359167ffffffffffffffff8311610c71576020019260018302840111610c6c57565b610c38565b610c34565b610c30565b919091604081840312610cbc57610c94835f830161067f565b92602082013567ffffffffffffffff8111610cb757610cb39201610c3c565b9091565b610240565b61023c565b34610cf257610cee610cdd610cd7366004610c7b565b91612e54565b610ce5610232565b91829182610621565b0390f35b610238565b34610d2657610d10610d0a3660046106b1565b906115dd565b610d18610232565b80610d22816106de565b0390f35b610238565b34610d5a57610d44610d3e3660046106b1565b90612840565b610d4c610232565b80610d56816106de565b0390f35b610238565b90565b610d6b81610d5f565b03610d7257565b5f80fd5b90503590610d8382610d62565b565b90602082820312610d9e57610d9b915f01610d76565b90565b61023c565b34610dd357610dcf610dbe610db9366004610d85565b6111cb565b610dc6610232565b91829182610810565b0390f35b610238565b90608082820312610e3357610def815f840161067f565b92610dfd826020850161067f565b92610e0b836040830161054d565b92606082013567ffffffffffffffff8111610e2e57610e2a9201610c3c565b9091565b610240565b61023c565b34610e6a57610e54610e4b366004610dd8565b93929092611b3a565b610e5c610232565b80610e66816106de565b0390f35b610238565b5f80fd5b90610e86610e7f610232565b9283610416565b565b67ffffffffffffffff8111610ea657610ea26020916103f8565b0190565b610402565b90825f939282370152565b90929192610ecb610ec682610e88565b610e73565b93818552602085019082840111610ee757610ee592610eab565b565b610e6f565b9080601f83011215610f0a57816020610f0793359101610eb6565b90565b610c30565b919091604081840312610f4f57610f28835f830161067f565b92602082013567ffffffffffffffff8111610f4a57610f479201610eec565b90565b610240565b61023c565b5190565b60209181520190565b610f80610f89602093610f8e93610f7781610f54565b93848093610f58565b95869101610495565b6103f8565b0190565b610fa79160208201915f818403910152610f61565b90565b34610fdb57610fd7610fc6610fc0366004610f0f565b90612bbe565b610fce610232565b91829182610f92565b0390f35b610238565b346110105761100c610ffb610ff636600461055c565b613bbf565b611003610232565b918291826104e9565b0390f35b610238565b919060408382031261103d578061103161103a925f860161067f565b9360200161067f565b90565b61023c565b346110735761106f61105e611058366004611015565b90612c6d565b611066610232565b918291826102a3565b0390f35b610238565b346110a8576110a461109361108e36600461055c565b613588565b61109b610232565b91829182610621565b0390f35b610238565b6110c16110bc6110c6926105fd565b61057a565b6105fd565b90565b6110d2906110ad565b90565b6110de906110c9565b90565b906110eb906110d5565b5f5260205260405f2090565b90611101906110d5565b5f5260205260405f2090565b60ff1690565b61112390600861112893026105af565b61110d565b90565b906111369154611113565b90565b6111526111579261114d6007935f946110e1565b6110f7565b61112b565b90565b3461118b57611187611176611170366004611015565b90611139565b61117e610232565b918291826102a3565b0390f35b610238565b346111be576111a86111a3366004610778565b613c5a565b6111b0610232565b806111ba816106de565b0390f35b610238565b5f80fd5b5f90565b6111d36111c7565b505490565b5f90565b906111e69061057d565b5f5260205260405f2090565b5f1c90565b611203611208916111f2565b6107cb565b90565b61121590546111f7565b90565b61122c61122761123192610536565b61057a565b6105fd565b90565b90565b61124b61124661125092611234565b61057a565b6105fd565b90565b61125c90611237565b90565b90565b61127661127161127b9261125f565b61057a565b610536565b90565b611289617d01611262565b90565b6112b36112ae6112a96112b8936112a16111d8565b5060036111dc565b61120b565b611218565b6110c9565b90816112d46112ce6112c95f611253565b610608565b91610608565b146112db57565b6113046112e661127e565b6112ee610232565b9182916330090e6560e11b835260048301610810565b0390fd5b90611312906110d5565b5f5260205260405f2090565b61133261132d61133792611234565b61057a565b610536565b90565b906113449061131e565b5f5260205260405f2090565b63ffffffff1690565b61136d61136861137292611350565b61057a565b610536565b90565b61137d6111c7565b508061139961139361138e5f611253565b610608565b91610608565b146113cc576113b66113af6113bb926004611308565b5f9061133a565b61120b565b6113c863ffffffff611359565b1690565b6113f56113d761127e565b6113df610232565b9182916330090e6560e11b835260048301610810565b0390fd5b61140561140a916111f2565b61110d565b90565b61141790546113f9565b90565b90565b61143161142c6114369261141a565b61057a565b610536565b90565b611444617d0261141d565b90565b5f1b90565b9061145d60018060a01b0391611447565b9181191691161790565b90565b9061147f61147a611486926110d5565b611467565b825461144c565b9055565b906114af6114aa6114a56114a0600385906111dc565b61120b565b611218565b6110c9565b336114c26114bc83610608565b91610608565b14801561156f575b6114d49015610291565b611542576114ed836114e860068590610599565b61146a565b9161152a61152461151e7f8c5be1e5ebec7d5bd14f71427d1e84f3dd0314c0f7b2291e5b200ac8c7c3b925956110d5565b926110d5565b9261057d565b92611533610232565b8061153d816106de565b0390a4565b61156b61154d611439565b611555610232565b9182916330090e6560e11b835260048301610810565b0390fd5b506114d461159161158c611585600785906110e1565b33906110f7565b61140d565b90506114ca565b906115a460ff91611447565b9181191691161790565b6115b790610291565b90565b90565b906115d26115cd6115d9926115ae565b6115ba565b8254611598565b9055565b906115fd816115f86115f1600733906110e1565b85906110f7565b6115bd565b339190916116496116376116317f17307eab39ab6107e8899845ad3d59bd9653f200f220920489ca2b5937696c31936110d5565b936110d5565b93611640610232565b918291826102a3565b0390a3565b61165a61165f916111f2565b6105b3565b90565b61166c905461164e565b90565b90565b60ff1690565b61168c6116876116919261166f565b61057a565b611672565b90565b6116b3906116ad6116a76116b894611672565b91610536565b906105af565b610536565b90565b1b90565b919060086116df9102916116d960018060a01b03846116bb565b926116bb565b9181191691161790565b91906116ff6116fa611707936110d5565b611467565b9083546116bf565b9055565b61171d916117176111d8565b916116e9565b565b919091611736611731600384906111dc565b61120b565b8161175961175361174e61174985611218565b6110c9565b610608565b91610608565b036118ab573361177161176b84610608565b91610608565b148015611887575b8015611855575b61178a9015610291565b611828576117be908290856117aa86926117a460c0611678565b90611694565b6117b763ffffffff611359565b1692612064565b6117d35f6117ce60068590610599565b61170b565b9161181061180a6118047fddf252ad1be2c89b69c2b068fc378daa952ba7f163c4a11628f55a4df523b3ef956110d5565b926110d5565b9261057d565b92611819610232565b80611823816106de565b0390a4565b611851611833611439565b61183b610232565b9182916330090e6560e11b835260048301610810565b0390fd5b5061178a3361187f61187961187461186f60068990610599565b611662565b610608565b91610608565b149050611780565b506118a66118a161189a600785906110e1565b33906110f7565b61140d565b611779565b6118d46118b661127e565b6118be610232565b9182916330090e6560e11b835260048301610810565b0390fd5b6118e1906110ad565b90565b6118ed906118d8565b90565b6118f9906110c9565b90565b60e01b90565b9050519061190f82610250565b565b9060208282031261192a57611927915f01611902565b90565b61023c565b61193a5f8092610f58565b0190565b909161197d936119666119709261195c60808601965f870190610614565b6020850190610614565b6040830190610803565b606081830391015261192f565b90565b611988610232565b3d5f823e3d90fd5b90565b6119a76119a26119ac92611990565b61057a565b610536565b90565b6119ba617d04611993565b90565b6119c98183859161171f565b813b6119dd6119d75f61131e565b91610536565b14918215611a26575b50506119f3915015610291565b6119f957565b611a22611a046119af565b611a0c610232565b9182916330090e6560e11b835260048301610810565b0390fd5b60209250611a36611a3b916118e4565b6118f0565b611a5e5f63150b7a02611a69339597611a52610232565b988997889687956118fc565b85526004850161193e565b03925af18015611ace576119f3915f91611aa0575b50611a98611a92630a85bd0160e11b610244565b91610244565b145f806119e6565b611ac1915060203d8111611ac7575b611ab98183610416565b810190611911565b5f611a7e565b503d611aaf565b611980565b9190611aed81611ae681611af295610f58565b8095610eab565b6103f8565b0190565b909391611b379593611b20611b2a92611b1660808601985f870190610614565b6020850190610614565b6040830190610803565b6060818503910152611ad3565b90565b9193929092611b4b8385879161171f565b833b611b5f611b595f61131e565b91610536565b14938415611baa575b50505050611b77915015610291565b611b7d57565b611ba6611b886119af565b611b90610232565b9182916330090e6560e11b835260048301610810565b0390fd5b60209450611be891611bf3611bc7611bc25f946118e4565b6118f0565b9463150b7a0292339799919091611bdc610232565b9a8b998a9889976118fc565b875260048701611af6565b03925af18015611c5a57611b77915f91611c2c575b50611c22611c1c630a85bd0160e11b610244565b91610244565b145f808080611b68565b611c4d915060203d8111611c53575b611c458183610416565b810190611911565b5f611c08565b503d611c3b565b611980565b90565b611c76611c71611c7b92611c5f565b61057a565b610536565b90565b611c89617d05611c62565b90565b90565b611ca3611c9e611ca892611c8c565b61057a565b610536565b90565b634e487b7160e01b5f52601160045260245ffd5b611cce611cd491939293610536565b92610536565b8201809211611cdf57565b611cab565b611cec6111c7565b5080611d09611d03611cfe600561120b565b610536565b91610536565b1015611d2657611d2390611d1d6001611c8f565b90611cbf565b90565b611d4f611d31611c7e565b611d39610232565b9182916330090e6560e11b835260048301610810565b0390fd5b90565b611d6a611d65611d6f92611d53565b61057a565b610536565b90565b634e487b7160e01b5f52601260045260245ffd5b611d92611d9891610536565b91610536565b908115611da3570490565b611d72565b611db4611dba91610536565b91610536565b908115611dc5570690565b611d72565b90565b611de1611ddc611de692611dca565b61057a565b610536565b90565b611df8611dfe91939293610536565b92610536565b91611e0a838202610536565b928184041490151715611e1957565b611cab565b611e3d90611e37611e31611e4294610536565b91610536565b906105af565b610536565b90565b611e4d6111c7565b5081611e69611e63611e5e84611375565b610536565b91610536565b1015611ef457611edd611ecd611ebc611eb7611e9d611e95611ee397611e8f6001611c8f565b90611cbf565b956004611308565b611eb186611eab6008611d56565b90611d86565b906111dc565b61120b565b92611ec76008611d56565b90611da8565b611ed76020611dcd565b90611de9565b90611e1e565b611ef063ffffffff611359565b1690565b611f1d611eff611c7e565b611f07610232565b9182916330090e6560e11b835260048301610810565b0390fd5b5f90565b90565b611f3c611f37611f4192611f25565b6118fc565b610244565b90565b90565b611f5b611f56611f6092611f44565b6118fc565b610244565b90565b90565b611f7a611f75611f7f92611f63565b6118fc565b610244565b90565b90565b611f99611f94611f9e92611f82565b6118fc565b610244565b90565b611fa9611f21565b5080611fc1611fbb6301ffc9a7611f28565b91610244565b148015612019575b8015611ffb575b908115611fdc575b5090565b9050611ff4611fee63780e9d63611f85565b91610244565b145f611fd8565b508061201361200d635b5e139f611f66565b91610244565b14611fd0565b508061203161202b6380ac58cd611f47565b91610244565b14611fc9565b90565b61204e61204961205392612037565b61057a565b610536565b90565b612061617d0361203a565b90565b92908061208161207b6120765f611253565b610608565b91610608565b145f146120b5576120b1612093612056565b61209b610232565b9182916330090e6560e11b835260048301610810565b0390fd5b836120d06120ca6120c55f611253565b610608565b91610608565b145f146120e7576120e49350919091612234565b5b565b806120fa6120f486610608565b91610608565b03612109575b505050506120e5565b61211761211f9484906123a6565b919091612234565b5f808080612100565b906121339101610536565b90565b61213f906110ad565b90565b90565b61215961215461215e92612142565b61057a565b611672565b90565b6121809061217a61217461218594611672565b91610536565b906116bb565b610536565b90565b61219c6121976121a1926105fd565b61057a565b610536565b90565b906121b05f1991611447565b9181191691161790565b90565b906121d26121cd6121d99261057d565b6121ba565b82546121a4565b9055565b6121e96121ef91610536565b91610536565b9081156121fa570490565b611d72565b9061220a9102610536565b90565b61222c9061222661222061223194610536565b91610536565b906116bb565b610536565b90565b9061237f9261237561237a9261230861226161225c61225560048990611308565b5f9061133a565b61120b565b6122d46122868261227563ffffffff611359565b166122806001611c8f565b90612128565b956122c26122938a612136565b6122b06122aa8a6122a460a0612145565b90612161565b91612188565b17916122bc60c0611678565b90612161565b176122cf600386906111dc565b6121bd565b6122ea6122e463ffffffff611359565b19610536565b1684176123036122fc60048990611308565b5f9061133a565b6121bd565b61236c61231f846123196008611d56565b906121dd565b9361236661235661234461233f61233860048c90611308565b89906111dc565b61120b565b94926123506008611d56565b90611da8565b6123606020611dcd565b906121ff565b9061220d565b17936004611308565b6111dc565b6121bd565b565b61239061239691939293610536565b92610536565b82039182116123a157565b611cab565b61251d612522926123ff6123d76123c76123c2600385906111dc565b61120b565b6123d160a0612145565b90611694565b6123e463ffffffff611359565b16916123fa6123f25f61131e565b9160036111dc565b6121bd565b61251861242061241b61241460048790611308565b5f9061133a565b61120b565b9161247b8361243263ffffffff611359565b169361244a61244463ffffffff611359565b19610536565b1661245f856124596001611c8f565b90612381565b1761247661246f60048990611308565b5f9061133a565b6121bd565b61250f6125096124958561248f6008611d56565b906121dd565b946124bd6124ad826124a76008611d56565b90611da8565b6124b76020611dcd565b906121ff565b936124dc6124d76124d060048c90611308565b89906111dc565b61120b565b916124ef6124e983610536565b91610536565b03612524575b509261250463ffffffff611359565b61220d565b19610536565b16936004611308565b6111dc565b6121bd565b565b612538816125326008611d56565b906121dd565b61255f61254f836125496008611d56565b90611da8565b6125596020611dcd565b906121ff565b8a61256b858990611e1e565b61257863ffffffff611359565b16928061258d6125878d610536565b91610536565b145f14612633575050612628906125ca61262d94956125c26125bc6125b563ffffffff611359565b859061220d565b19610536565b16918461220d565b17935b61261f6125e46125df600386906111dc565b61120b565b61260d6126076125f763ffffffff611359565b61260160a0612145565b90612161565b19610536565b169161261960a0612145565b90612161565b179160036111dc565b6121bd565b5f6124f5565b61262d949161269d6126a2926126986126289661268f61266761266261265b60048990611308565b86906111dc565b61120b565b61268761268161267a63ffffffff611359565b859061220d565b19610536565b16918a61220d565b17936004611308565b6111dc565b6121bd565b6125cd565b5f7f554e415554484f52495a45440000000000000000000000000000000000000000910152565b6126db600c60209261048c565b6126e4816126a7565b0190565b6126fd9060208101905f8183039101526126ce565b90565b1561270757565b61270f610232565b62461bcd60e51b815280612725600482016126e8565b0390fd5b90612757916127523361274c6127466127415f611662565b610608565b91610608565b14612700565b612786565b565b90565b61277061276b61277592612759565b61057a565b610536565b90565b61278361753461275c565b90565b90816127a261279c6127975f611253565b610608565b91610608565b146127b2576127b0916127df565b565b6127db6127bd612778565b6127c5610232565b9182916330090e6560e11b835260048301610810565b0390fd5b6127f4826127ef600884906110f7565b6115bd565b906128286128227f48cc5b4660fae22eabe5e803ee595e63572773d114bcd54ecc118c1efa8d75af936110d5565b916115ae565b91612831610232565b8061283b816106de565b0390a3565b9061284a91612729565b565b9061287a916128753361286f6128696128645f611662565b610608565b91610608565b14612700565b61287c565b565b908161289861289261288d5f611253565b610608565b91610608565b146128a8576128a6916128d5565b565b6128d16128b3612778565b6128bb610232565b9182916330090e6560e11b835260048301610810565b0390fd5b6128ea826128e5600984906110f7565b6115bd565b9061291e6129187f0a1c6cd77aa2e405e482adf6ee6cf190a27682b6dd1234403f7602e5203c83bb936110d5565b916115ae565b91612927610232565b80612931816106de565b0390a3565b906129409161284c565b565b90612971929161296c3361296661296061295b5f611662565b610608565b91610608565b14612700565b612973565b565b91908061299061298a6129855f611253565b610608565b91610608565b146129a05761299e926129cd565b565b6129c96129ab612778565b6129b3610232565b9182916330090e6560e11b835260048301610810565b0390fd5b906129ed836129e86129e1600a86906110e1565b84906110f7565b6115bd565b91612a2a612a24612a1e7f7aee16d2c366535c2577e873699b458af55a0b0bd4c4fab5e930a780f05669d7956110d5565b926115ae565b926110d5565b92612a33610232565b80612a3d816106de565b0390a4565b90612a4d9291612942565b565b90612a7d91612a7833612a72612a6c612a675f611662565b610608565b91610608565b14612700565b612a7f565b565b9081612a9b612a95612a905f611253565b610608565b91610608565b14612aab57612aa991612ad8565b565b612ad4612ab6612778565b612abe610232565b9182916330090e6560e11b835260048301610810565b0390fd5b612aed82612ae8600c84906110f7565b6115bd565b90612b21612b1b7f6e71f281df08e5962589123c1ca39a8c9df25c6c9cfa7b6d1525effed3dafd21936110d5565b916115ae565b91612b2a610232565b80612b34816106de565b0390a3565b90612b4391612a4f565b565b606090565b90612b799291612b7433612b6e612b68612b635f611662565b610608565b91610608565b14612700565b612b7c565b90565b915f9291839250602082519201905af4903d60405192601f19601f6020840101168401604052818452815f602086013e15600114612bb75750565b805f803e5ffd5b90612bd091612bcb612b45565b612b4a565b90565b612bdb611f21565b50612bf0612beb600883906110f7565b61140d565b908115612bfc575b5090565b9050612c19612c13612c0d5f611662565b92610608565b91610608565b145f612bf8565b612c28611f21565b50612c3d612c38600983906110f7565b61140d565b908115612c49575b5090565b9050612c66612c60612c5a5f611662565b92610608565b91610608565b145f612c45565b612c8e612c87612c9392612c7f611f21565b50600a6110e1565b83906110f7565b61140d565b908115612c9f575b5090565b9050612cbc612cb6612cb05f611662565b92610608565b91610608565b145f612c9b565b612cda612cdf91612cd2611f21565b50600c6110f7565b61140d565b90565b90565b612cf9612cf4612cfe92612ce2565b61057a565b610536565b90565b612d0c617532612ce5565b90565b612d1890610536565b5f198114612d265760010190565b611cab565b905090565b909182612d4081612d4793612d2b565b8093610eab565b0190565b9091612d5692612d30565b90565b90612d6b612d6683610e88565b610e73565b918252565b3d5f14612d8b57612d803d612d59565b903d5f602084013e5b565b612d93612b45565b90612d89565b90929192612dae612da982610e88565b610e73565b93818552602085019082840111612dca57612dc892610495565b565b610e6f565b9080601f83011215612ded57816020612dea93519101612d99565b90565b610c30565b90602082820312612e22575f82015167ffffffffffffffff8111612e1d57612e1a9201612dcf565b90565b610240565b61023c565b90565b612e3e612e39612e4392612e27565b61057a565b610536565b90565b612e51617536612e2a565b90565b929190612e5f6111d8565b50612e72612e6c33612bd3565b15610291565b612fea57612e88612e8285612cc3565b15610291565b612fbd575f8091612ea1612e9c600b61120b565b612d0f565b612eac81600b6121bd565b93612eb685613588565b9691612ecc612ec3610232565b92839283612d4b565b03915af4612ed8612d70565b81612f80575b5080612f6c575b612eef9015610291565b612f3f578290612f27612f217efa89a51ae01c150bfde909191818194382d30b43b645428ed6a71f19551073936110d5565b9161057d565b91612f30610232565b80612f3a816106de565b0390a3565b612f68612f4a612e46565b612f52610232565b9182916330090e6560e11b835260048301610810565b0390fd5b50612eef612f798461389c565b9050612ee5565b9050612fb6612fb0612fab612fa687946020612f9b82610f54565b818301019101612df2565b613044565b610608565b91610608565b145f612ede565b612fe6612fc8612d01565b612fd0610232565b9182916330090e6560e11b835260048301610810565b0390fd5b613013612ff5612d01565b612ffd610232565b9182916330090e6560e11b835260048301610810565b0390fd5b90565b61302e61302961303392613017565b61057a565b610536565b90565b61304161753161301a565b90565b61304c6111d8565b5061305681610f54565b6130686130625f61131e565b91610536565b146130c5576020815191015ff0908161309161308b6130865f611253565b610608565b91610608565b1461309857565b6130c16130a3613036565b6130ab610232565b9182916330090e6560e11b835260048301610810565b0390fd5b6130ee6130d0613036565b6130d8610232565b9182916330090e6560e11b835260048301610810565b0390fd5b90565b61310961310461310e926130f2565b61057a565b610536565b90565b90565b61312861312361312d92613111565b61057a565b610536565b90565b90565b61314761314261314c92613130565b61057a565b610536565b90565b90565b61316661316161316b9261314f565b61057a565b610536565b90565b90565b60ff60f81b1690565b60f81b90565b61319461318f6131999261316e565b61317a565b613171565b90565b90565b6131b36131ae6131b89261319c565b61317a565b613171565b90565b6131c4906110c9565b90565b90565b6131de6131d96131e3926131c7565b61317a565b613171565b90565b6131fa6131f56131ff92610536565b61057a565b611350565b90565b90565b61321161321691613171565b613202565b9052565b60601b90565b6132299061321a565b90565b61323590613220565b90565b61324461324991610608565b61322c565b9052565b613256906118fc565b90565b61326561326a91611350565b61324d565b9052565b60146132b1946132a16001809661329982876132916132a99960049f9e9b613205565b018092613205565b018092613238565b018092613205565b018092613259565b0190565b90565b6132cc6132c76132d1926132b5565b61317a565b613171565b90565b90565b6132eb6132e66132f0926132d4565b61317a565b613171565b90565b62ffffff1690565b61330f61330a61331492610536565b61057a565b6132f3565b90565b60e81b90565b61332690613317565b90565b61333561333a916132f3565b61331d565b9052565b6014613381946133716001809661336982876133616133799960039f9e9b613205565b018092613205565b018092613238565b018092613205565b018092613329565b0190565b90565b61339c6133976133a192613385565b61317a565b613171565b90565b90565b6133bb6133b66133c0926133a4565b61317a565b613171565b90565b61ffff1690565b6133de6133d96133e392610536565b61057a565b6133c3565b90565b60f01b90565b6133f5906133e6565b90565b613404613409916133c3565b6133ec565b9052565b6014613450946134406001809661343882876134306134489960029f9e9b613205565b018092613205565b018092613238565b018092613205565b0180926133f8565b0190565b90565b61346b61346661347092613454565b61317a565b613171565b90565b90565b61348a61348561348f92613473565b61317a565b613171565b90565b6134a66134a16134ab92610536565b61057a565b611672565b90565b6134b79061317a565b90565b6134c66134cb91611672565b6134ae565b9052565b601461351294613502600180999895966134fa82876134f261350a99839c613205565b018092613205565b018092613238565b018092613205565b0180926134ba565b0190565b90565b61352d61352861353292613516565b61317a565b613171565b90565b92613562600161356a9461355a8288613552829b9a601499613205565b018092613205565b018092613238565b0180926134ba565b0190565b60200190565b613580613585916111f2565b61057d565b90565b6135906111d8565b50613599612b45565b50806135ad6135a75f61131e565b91610536565b145f146135c157506135be5f611253565b90565b6136566136518261365b936135df6135d9607f6130f5565b91610536565b11155f1461365e576136386135f460d6613519565b613629613601609461319f565b9361361461360e306131bb565b91613492565b9061361d610232565b95869460208601613535565b60208201810382520382610416565b5b61364b61364582610f54565b9161356e565b20613574565b611218565b6110c9565b90565b8061367261366c60ff613114565b91610536565b11155f146136dc576136d661368760d7613457565b6136c7613694609461319f565b9361369e306131bb565b906136b26136ac6081613476565b91613492565b916136bb610232565b968795602087016134cf565b60208201810382520382610416565b5b613639565b806136f16136eb61ffff613133565b91610536565b11155f1461375b5761375561370660d8613388565b613746613713609461319f565b9361371d306131bb565b9061373161372b60826133a7565b916133ca565b9161373a610232565b9687956020870161340d565b60208201810382520382610416565b5b6136d7565b8061377161376b62ffffff613152565b91610536565b11155f146137db576137d561378660d96132b8565b6137c6613793609461319f565b9361379d306131bb565b906137b16137ab60836132d7565b916132fb565b916137ba610232565b9687956020870161333e565b60208201810382520382610416565b5b613756565b6138376137e860da613180565b6138286137f5609461319f565b936137ff306131bb565b9061381361380d60846131ca565b916131e6565b9161381c610232565b9687956020870161326e565b60208201810382520382610416565b6137d6565b5f631502b2af60e21b910152565b61385660048092612d2b565b61385f8161383c565b0190565b61386c9061384a565b90565b9050519061387c82610539565b565b9060208282031261389757613894915f0161386f565b90565b61023c565b6138a4611f21565b50803b6138b96138b35f61131e565b91610536565b145f146138c557505f90565b5f80826138d0610232565b806138da81613863565b03915afa6138e6612d70565b9091826138f3575b505090565b61392a91925061391f61391a6139249294602061390f82610f54565b81830101910161387e565b613588565b610608565b91610608565b145f806138ee565b61393a6111c7565b50613945600b61120b565b90565b90565b61395f61395a61396492613948565b61057a565b610536565b90565b61397261753561394b565b90565b9190916139806111c7565b503361399c61399661399184613588565b610608565b91610608565b03613a04576139ab9083613a40565b91339083906139ec6139e66139e07ffcc2278353c4cc5d54b742d7eee2d4a7abc22e4dc6213340088293860d502b51956110d5565b926110d5565b9261057d565b926139f5610232565b806139ff816106de565b0390a4565b613a2d613a0f613967565b613a17610232565b9182916330090e6560e11b835260048301610810565b0390fd5b6001613a3d9101610536565b90565b919091613a4b6111c7565b50613a68613a61613a5c600561120b565b613a31565b60056121bd565b613a72600561120b565b9283613a8a613a8463ffffffff611359565b91610536565b10158015613b3b575b613b0e57613aae90613aa45f611253565b9083869192612064565b613ab75f611253565b908390613af6613af0613aea7fddf252ad1be2c89b69c2b068fc378daa952ba7f163c4a11628f55a4df523b3ef956110d5565b926110d5565b9261057d565b92613aff610232565b80613b09816106de565b0390a4565b613b37613b1961127e565b613b21610232565b9182916330090e6560e11b835260048301610810565b0390fd5b50613b50613b4b600386906111dc565b61120b565b613b62613b5c5f61131e565b91610536565b1415613a93565b606090565b67ffffffffffffffff8111613b8c57613b886020916103f8565b0190565b610402565b90613ba3613b9e83613b6e565b610e73565b918252565b613bb15f613b91565b90565b613bbc613ba8565b90565b50613bc8613b69565b50613bd1613bb4565b90565b613c0190613bfc33613bf6613bf0613beb5f611662565b610608565b91610608565b14612700565b613c03565b565b613c0d815f61146a565b3390613c42613c3c7f8be0079c531659141344cd1fd0a4f28419497f9722a3daafe3b4186f6b6457e0936110d5565b916110d5565b91613c4b610232565b80613c55816106de565b0390a3565b613c6390613bd4565b56fea2646970667358221220947192b60fec7096caea49f44ffc9fc212c95989205a52512719328edbe7a1ff64736f6c63430008150033","linkReferences":{}},"methodIdentifiers":{"approve(address,uint256)":"095ea7b3","balanceOf(address)":"70a08231","deployVault(address,bytes)":"968cbade","getApproved(uint256)":"081812fc","getVaultAddress(uint256)":"e6bd26a2","isApprovedForAll(address,address)":"e985e9c5","isDeployer(address)":"50c358a4","isGlobalAuth(address)":"4502d063","isVault(address)":"652b9b41","isVaultAuth(address,address)":"e04c8e5d","isVaultDeploymentLogic(address)":"17e7681c","mint(uint256,address)":"94bf804d","name()":"06fdde03","owner()":"8da5cb5b","ownerOf(uint256)":"6352211e","readFromStorage(bytes32)":"b5c736e4","safeTransferFrom(address,address,uint256)":"42842e0e","safeTransferFrom(address,address,uint256,bytes)":"b88d4fde","setApprovalForAll(address,bool)":"a22cb465","setDeployer(address,bool)":"a34b5ee8","setGlobalAuth(address,bool)":"8f2db95d","setVaultAuth(address,address,bool)":"7faa1d21","setVaultDeploymentLogic(address,bool)":"08a892d9","spell(address,bytes)":"c7acb01f","supportsInterface(bytes4)":"01ffc9a7","symbol()":"95d89b41","tokenByIndex(uint256)":"4f6ccce7","tokenOfOwnerByIndex(address,uint256)":"2f745c59","tokenURI(uint256)":"c87b56dd","totalSupply()":"18160ddd","totalVaults()":"8d654023","transferFrom(address,address,uint256)":"23b872dd","transferOwnership(address)":"f2fde38b"},"id":55}