{"abi":[{"type":"constructor","inputs":[{"name":"constants_","type":"tuple","internalType":"struct Structs.ConstantViews","components":[{"name":"liquidity","type":"address","internalType":"address"},{"name":"factory","type":"address","internalType":"address"},{"name":"adminImplementation","type":"address","internalType":"address"},{"name":"secondaryImplementation","type":"address","internalType":"address"},{"name":"supplyToken","type":"address","internalType":"address"},{"name":"borrowToken","type":"address","internalType":"address"},{"name":"supplyDecimals","type":"uint8","internalType":"uint8"},{"name":"borrowDecimals","type":"uint8","internalType":"uint8"},{"name":"vaultId","type":"uint256","internalType":"uint256"},{"name":"liquiditySupplyExchangePriceSlot","type":"bytes32","internalType":"bytes32"},{"name":"liquidityBorrowExchangePriceSlot","type":"bytes32","internalType":"bytes32"},{"name":"liquidityUserSupplySlot","type":"bytes32","internalType":"bytes32"},{"name":"liquidityUserBorrowSlot","type":"bytes32","internalType":"bytes32"}]}],"stateMutability":"nonpayable"},{"type":"function","name":"LIQUIDITY","inputs":[],"outputs":[{"name":"","type":"address","internalType":"contract IFluidLiquidity"}],"stateMutability":"view"},{"type":"function","name":"VAULT_FACTORY","inputs":[],"outputs":[{"name":"","type":"address","internalType":"contract IFluidVaultFactory"}],"stateMutability":"view"},{"type":"function","name":"VAULT_ID","inputs":[],"outputs":[{"name":"","type":"uint256","internalType":"uint256"}],"stateMutability":"view"},{"type":"function","name":"constantsView","inputs":[],"outputs":[{"name":"constantsView_","type":"tuple","internalType":"struct Structs.ConstantViews","components":[{"name":"liquidity","type":"address","internalType":"address"},{"name":"factory","type":"address","internalType":"address"},{"name":"adminImplementation","type":"address","internalType":"address"},{"name":"secondaryImplementation","type":"address","internalType":"address"},{"name":"supplyToken","type":"address","internalType":"address"},{"name":"borrowToken","type":"address","internalType":"address"},{"name":"supplyDecimals","type":"uint8","internalType":"uint8"},{"name":"borrowDecimals","type":"uint8","internalType":"uint8"},{"name":"vaultId","type":"uint256","internalType":"uint256"},{"name":"liquiditySupplyExchangePriceSlot","type":"bytes32","internalType":"bytes32"},{"name":"liquidityBorrowExchangePriceSlot","type":"bytes32","internalType":"bytes32"},{"name":"liquidityUserSupplySlot","type":"bytes32","internalType":"bytes32"},{"name":"liquidityUserBorrowSlot","type":"bytes32","internalType":"bytes32"}]}],"stateMutability":"view"},{"type":"function","name":"readFromStorage","inputs":[{"name":"slot_","type":"bytes32","internalType":"bytes32"}],"outputs":[{"name":"result_","type":"uint256","internalType":"uint256"}],"stateMutability":"view"}],"bytecode":{"object":"0x61022060405234620000ca576200001f620000196200035b565b6200041a565b62000029620000d0565b6108696200051b82396080518161069c015260a051816106c9015260c051816106f6015260e05181610723015261010051816106420152610120518161066f01526101405181818161014e01526105dc015261016051818181609101526106100152610180518181816101d5015261075001526101a0518161077e01526101c051816107ac01526101e051816107da01526102005181610808015261086990f35b620000d6565b60405190565b5f80fd5b601f801991011690565b634e487b7160e01b5f52604160045260245ffd5b906200010490620000da565b810190811060018060401b038211176200011d57604052565b620000e4565b906200013a62000132620000d0565b9283620000f8565b565b5f80fd5b5f80fd5b60018060a01b031690565b6200015a9062000144565b90565b62000168816200014f565b036200017057565b5f80fd5b9050519062000183826200015d565b565b60ff1690565b620001968162000185565b036200019e57565b5f80fd5b90505190620001b1826200018b565b565b90565b620001c181620001b3565b03620001c957565b5f80fd5b90505190620001dc82620001b6565b565b90565b620001ec81620001de565b03620001f457565b5f80fd5b905051906200020782620001e1565b565b91906101a08382031262000332576200032a90620002296101a062000123565b9362000238825f830162000174565b5f8601526200024b826020830162000174565b60208601526200025f826040830162000174565b604086015262000273826060830162000174565b606086015262000287826080830162000174565b60808601526200029b8260a0830162000174565b60a0860152620002af8260c08301620001a2565b60c0860152620002c38260e08301620001a2565b60e0860152620002d8826101008301620001cd565b610100860152620002ee826101208301620001f8565b61012086015262000304826101408301620001f8565b6101408601526200031a826101608301620001f8565b61016086015261018001620001f8565b610180830152565b62000140565b906101a082820312620003555762000352915f0162000209565b90565b6200013c565b6200037e62000d8480380380620003728162000123565b92833981019062000338565b90565b6200038d90516200014f565b90565b90565b620003ac620003a6620003b29262000144565b62000390565b62000144565b90565b620003c09062000393565b90565b620003ce90620003b5565b90565b620003dc9062000393565b90565b620003ea90620003d1565b90565b620003f99051620001b3565b90565b62000408905162000185565b90565b620004179051620001de565b90565b6060620005149162000438620004325f830162000381565b620003c3565b61014052620004546200044e6020830162000381565b620003df565b61016052620004676101008201620003ed565b61018052620004796080820162000381565b6080526200048a60a0820162000381565b60a0526200049b60c08201620003fc565b60c052620004ac60e08201620003fc565b60e052620004be61012082016200040b565b6101a052620004d161014082016200040b565b6101c052620004e461016082016200040b565b6101e052620004f761018082016200040b565b61020052620005096040820162000381565b610100520162000381565b6101205256fe60806040526004361015610013575b61044e565b61001d5f3561006c565b8063103f2907146100675780632861c7d114610062578063540acabc1461005d578063b5c736e4146100585763b7791bf20361000e57610419565b610295565b61021c565b61019e565b610117565b60e01c90565b60405190565b5f80fd5b5f80fd5b5f91031261008a57565b61007c565b7f000000000000000000000000000000000000000000000000000000000000000090565b60018060a01b031690565b90565b6100d56100d06100da926100b3565b6100be565b6100b3565b90565b6100e6906100c1565b90565b6100f2906100dd565b90565b6100fe906100e9565b9052565b9190610115905f602085019401906100f5565b565b3461014757610127366004610080565b61014361013261008f565b61013a610072565b91829182610102565b0390f35b610078565b7f000000000000000000000000000000000000000000000000000000000000000090565b610179906100dd565b90565b61018590610170565b9052565b919061019c905f6020850194019061017c565b565b346101ce576101ae366004610080565b6101ca6101b961014c565b6101c1610072565b91829182610189565b0390f35b610078565b7f000000000000000000000000000000000000000000000000000000000000000090565b90565b610203906101f7565b9052565b919061021a905f602085019401906101fa565b565b3461024c5761022c366004610080565b6102486102376101d3565b61023f610072565b91829182610207565b0390f35b610078565b90565b61025d81610251565b0361026457565b5f80fd5b9050359061027582610254565b565b906020828203126102905761028d915f01610268565b90565b61007c565b346102c5576102c16102b06102ab366004610277565b610456565b6102b8610072565b91829182610207565b0390f35b610078565b6102d3906100b3565b90565b6102df906102ca565b9052565b60ff1690565b6102f2906102e3565b9052565b6102ff906101f7565b9052565b61030c90610251565b9052565b9061018080610401936103295f8201515f8601906102d6565b61033b602082015160208601906102d6565b61034d604082015160408601906102d6565b61035f606082015160608601906102d6565b610371608082015160808601906102d6565b61038360a082015160a08601906102d6565b61039560c082015160c08601906102e9565b6103a760e082015160e08601906102e9565b6103bb6101008201516101008601906102f6565b6103cf610120820151610120860190610303565b6103e3610140820151610140860190610303565b6103f7610160820151610160860190610303565b0151910190610303565b565b9190610417905f6101a08501940190610310565b565b3461044957610429366004610080565b6104456104346105cb565b61043c610072565b91829182610403565b0390f35b610078565b5f80fd5b5f90565b61045e610452565b505490565b601f801991011690565b634e487b7160e01b5f52604160045260245ffd5b9061048b90610463565b810190811067ffffffffffffffff8211176104a557604052565b61046d565b906104bd6104b6610072565b9283610481565b565b6104ca6101a06104aa565b90565b5f90565b5f90565b5f90565b5f90565b6020908180808080808080808080806104f46104bf565b9d8e6104fe6104cd565b8152016105096104cd565b8152016105146104cd565b81520161051f6104cd565b81520161052a6104cd565b8152016105356104cd565b8152016105406104d1565b81520161054b6104d1565b8152016105566104d5565b8152016105616104d9565b81520161056c6104d9565b8152016105776104d9565b8152016105826104d9565b81525050565b6105906104dd565b90565b9061059d906102ca565b9052565b906105ab906102e3565b9052565b906105b9906101f7565b9052565b906105c790610251565b9052565b6105d3610588565b906106086106007f0000000000000000000000000000000000000000000000000000000000000000610170565b5f8401610593565b61063d6106347f00000000000000000000000000000000000000000000000000000000000000006100e9565b60208401610593565b61066a7f000000000000000000000000000000000000000000000000000000000000000060408401610593565b6106977f000000000000000000000000000000000000000000000000000000000000000060608401610593565b6106c47f000000000000000000000000000000000000000000000000000000000000000060808401610593565b6106f17f000000000000000000000000000000000000000000000000000000000000000060a08401610593565b61071e7f000000000000000000000000000000000000000000000000000000000000000060c084016105a1565b61074b7f000000000000000000000000000000000000000000000000000000000000000060e084016105a1565b6107797f000000000000000000000000000000000000000000000000000000000000000061010084016105af565b6107a77f000000000000000000000000000000000000000000000000000000000000000061012084016105bd565b6107d57f000000000000000000000000000000000000000000000000000000000000000061014084016105bd565b6108037f000000000000000000000000000000000000000000000000000000000000000061016084016105bd565b6108317f000000000000000000000000000000000000000000000000000000000000000061018084016105bd565b56fea26469706673582212209802022549949e5b8942c3f8e1b0d86836f04f141887eaa5043aa8adcceacbbe64736f6c63430008150033","linkReferences":{}},"methodIdentifiers":{"LIQUIDITY()":"2861c7d1","VAULT_FACTORY()":"103f2907","VAULT_ID()":"540acabc","constantsView()":"b7791bf2","readFromStorage(bytes32)":"b5c736e4"},"id":62}