{"abi":[{"type":"constructor","inputs":[{"name":"liquidity_","type":"address","internalType":"contract IFluidLiquidity"}],"stateMutability":"nonpayable"},{"type":"function","name":"LIQUIDITY","inputs":[],"outputs":[{"name":"","type":"address","internalType":"contract IFluidLiquidity"}],"stateMutability":"view"}],"bytecode":{"object":"0x60a06040523461003757610019610014610108565b610129565b61002161003c565b61012661012f8239608051816049015261012690f35b610042565b60405190565b5f80fd5b601f801991011690565b634e487b7160e01b5f52604160045260245ffd5b9061006e90610046565b810190811060018060401b0382111761008657604052565b610050565b9061009e61009761003c565b9283610064565b565b5f80fd5b60018060a01b031690565b6100b8906100a4565b90565b6100c4906100af565b90565b6100d0816100bb565b036100d757565b5f80fd5b905051906100e8826100c7565b565b9060208282031261010357610100915f016100db565b90565b6100a0565b6101266102558038038061011b8161008b565b9283398101906100ea565b90565b60805256fe608060405260043610156011575b60ec565b60195f356026565b632861c7d103600d5760c1565b60e01c90565b60405190565b5f80fd5b5f80fd5b5f910312604357565b6036565b7f000000000000000000000000000000000000000000000000000000000000000090565b60018060a01b031690565b90565b60886084608c92606b565b6076565b606b565b90565b6096906079565b90565b60a090608f565b90565b60aa906099565b9052565b919060bf905f6020850194019060a3565b565b3460e85760ce366004603a565b60e460d66047565b60dc602c565b9182918260ae565b0390f35b6032565b5f80fdfea2646970667358221220e69a1cd494338c33f2f3047e6677924dd60defb12e5dce32c44a4bf427b09a5064736f6c63430008150033","linkReferences":{}},"methodIdentifiers":{"LIQUIDITY()":"2861c7d1"},"id":38}