{"abi":[{"type":"constructor","inputs":[{"name":"flashloan_","type":"address","internalType":"address"}],"stateMutability":"nonpayable"},{"type":"function","name":"executeOperation","inputs":[{"name":"tokens","type":"address[]","internalType":"address[]"},{"name":"amounts","type":"uint256[]","internalType":"uint256[]"},{"name":"premiums","type":"uint256[]","internalType":"uint256[]"},{"name":"initiator","type":"address","internalType":"address"},{"name":"params","type":"bytes","internalType":"bytes"}],"outputs":[{"name":"","type":"bool","internalType":"bool"}],"stateMutability":"nonpayable"},{"type":"function","name":"flashBorrow","inputs":[{"name":"tokens_","type":"address[]","internalType":"address[]"},{"name":"amts_","type":"uint256[]","internalType":"uint256[]"},{"name":"route","type":"uint256","internalType":"uint256"},{"name":"data_","type":"bytes","internalType":"bytes"},{"name":"_instaData","type":"bytes","internalType":"bytes"}],"outputs":[],"stateMutability":"nonpayable"},{"type":"error","name":"SafeERC20FailedOperation","inputs":[{"name":"token","type":"address","internalType":"address"}]}],"bytecode":{"object":"0x60a06040523461003f57610019610014610104565b61015c565b610021610044565b61094f61016b82396080518181816105d601526107d4015261094f90f35b61004a565b60405190565b5f80fd5b601f801991011690565b634e487b7160e01b5f52604160045260245ffd5b906100769061004e565b810190811060018060401b0382111761008e57604052565b610058565b906100a661009f610044565b928361006c565b565b5f80fd5b60018060a01b031690565b6100c0906100ac565b90565b6100cc816100b7565b036100d357565b5f80fd5b905051906100e4826100c3565b565b906020828203126100ff576100fc915f016100d7565b90565b6100a8565b610122610aba8038038061011781610093565b9283398101906100e6565b90565b90565b61013c610137610141926100ac565b610125565b6100ac565b90565b61014d90610128565b90565b61015990610144565b90565b61016590610150565b60805256fe60806040526004361015610013575b61039d565b61001d5f3561003c565b80636c793d8e146100375763920f5c840361000e5761035e565b610203565b60e01c90565b60405190565b5f80fd5b5f80fd5b5f80fd5b5f80fd5b5f80fd5b5f80fd5b909182601f8301121561009a5781359167ffffffffffffffff831161009557602001926020830284011161009057565b61005c565b610058565b610054565b909182601f830112156100d95781359167ffffffffffffffff83116100d45760200192602083028401116100cf57565b61005c565b610058565b610054565b90565b6100ea816100de565b036100f157565b5f80fd5b90503590610102826100e1565b565b909182601f8301121561013e5781359167ffffffffffffffff831161013957602001926001830284011161013457565b61005c565b610058565b610054565b60a0818303126101f9575f81013567ffffffffffffffff81116101f4578261016c918301610060565b929093602083013567ffffffffffffffff81116101ef578261018f91850161009f565b92909361019f82604083016100f5565b92606082013567ffffffffffffffff81116101ea57836101c0918401610104565b929093608082013567ffffffffffffffff81116101e5576101e19201610104565b9091565b610050565b610050565b610050565b610050565b61004c565b5f0190565b3461023b57610225610216366004610143565b979690969591959492946105c9565b61022d610042565b80610237816101fe565b0390f35b610048565b60018060a01b031690565b61025490610240565b90565b6102608161024b565b0361026757565b5f80fd5b9050359061027882610257565b565b919060a083820312610332575f83013567ffffffffffffffff811161032d57816102a5918501610060565b929093602081013567ffffffffffffffff811161032857836102c891830161009f565b929093604083013567ffffffffffffffff811161032357816102eb91850161009f565b9290936102fb836060830161026b565b92608082013567ffffffffffffffff811161031e5761031a9201610104565b9091565b610050565b610050565b610050565b610050565b61004c565b151590565b61034590610337565b9052565b919061035c905f6020850194019061033c565b565b346103985761039461038361037436600461027a565b97969096959195949294610763565b61038b610042565b91829182610349565b0390f35b610048565b5f80fd5b90565b6103b86103b36103bd92610240565b6103a1565b610240565b90565b6103c9906103a4565b90565b6103d5906103c0565b90565b5f80fd5b601f801991011690565b634e487b7160e01b5f52604160045260245ffd5b90610404906103dc565b810190811067ffffffffffffffff82111761041e57604052565b6103e6565b60e01b90565b5f91031261043357565b61004c565b60209181520190565b90565b61044d9061024b565b9052565b9061045e81602093610444565b0190565b5061047190602081019061026b565b90565b60200190565b916104888261048e92610438565b92610441565b90815f905b8282106104a1575050505090565b909192936104c36104bd6001926104b88886610462565b610451565b95610474565b920190929192610493565b60209181520190565b5f80fd5b9037565b9091826104eb916104ce565b9160018060fb1b03811161050e578291602061050a92029384916104db565b0190565b6104d7565b61051c906100de565b9052565b60209181520190565b90825f939282370152565b919061054e816105478161055395610520565b8095610529565b6103dc565b0190565b9795916105b69997936105a896956105828b6105909461059b9660a08301925f81850391015261047a565b918b830360208d01526104df565b936040890190610513565b8683036060880152610534565b926080818503910152610534565b90565b6105c1610042565b3d5f823e3d90fd5b91979493929095966105fa7f00000000000000000000000000000000000000000000000000000000000000006103cc565b9563095627e993979992949598919091873b1561067f575f99610631978b9761063c96610625610042565b9e8f9d8e9c8d9b610423565b8b5260048b01610557565b03925af1801561067a5761064e575b50565b61066d905f3d8111610673575b61066581836103fa565b810190610429565b5f61064b565b503d61065b565b6105b9565b6103d8565b5f90565b90565b61069f61069a6106a492610688565b6103a1565b6100de565b90565b60016106b391016100de565b90565b5090565b634e487b7160e01b5f52603260045260245ffd5b91908110156106de576020020190565b6106ba565b356106ed81610257565b90565b6106f9906103a4565b90565b610705906106f0565b90565b9190811015610718576020020190565b6106ba565b35610727816100e1565b90565b634e487b7160e01b5f52601160045260245ffd5b61074d610753919392936100de565b926100de565b820180921161075e57565b61072a565b929650929450969550610774610684565b61077d5f61068b565b5b8061079b6107956107908688906106b6565b6100de565b916100de565b10156108305761082b906108266107c46107bf6107ba878986916106ce565b6106e3565b6106fc565b8b6108206108066108018d6107f87f00000000000000000000000000000000000000000000000000000000000000006103cc565b94908891610708565b61071d565b61081a6108158d8d8991610708565b61071d565b9061073e565b91610868565b6106a7565b61077e565b5096505050505050565b610843906103c0565b90565b61084f9061024b565b9052565b9190610866905f60208501940190610846565b565b916108819161087b9184916001926108af565b15610337565b6108885750565b6108946108ab9161083a565b5f918291635274afe760e01b835260048301610853565b0390fd5b90919392936108bc610684565b5063a9059cbb60e01b92604051935f525f1960601c1660045260245260205f60448180855af19360015f51148516156108f7575b5050604052565b8492941516610910575f903b113d151616915f806108f0565b833d5f823e3d90fdfea264697066735822122040d628f64d7bff54c2f5a03e666665652dbb9b83d6d4beed7d74e9b27a88456264736f6c634300081e0033","linkReferences":{}},"methodIdentifiers":{"executeOperation(address[],uint256[],uint256[],address,bytes)":"920f5c84","flashBorrow(address[],uint256[],uint256,bytes,bytes)":"6c793d8e"},"id":4}