{"abi":[{"type":"constructor","inputs":[{"name":"factory_","type":"address","internalType":"address"},{"name":"liquidityResolver_","type":"address","internalType":"address"}],"stateMutability":"nonpayable"},{"type":"function","name":"FACTORY","inputs":[],"outputs":[{"name":"","type":"address","internalType":"contract IFluidVaultFactory"}],"stateMutability":"view"},{"type":"function","name":"LIQUIDITY_RESOLVER","inputs":[],"outputs":[{"name":"","type":"address","internalType":"contract IFluidLiquidityResolver"}],"stateMutability":"view"},{"type":"function","name":"calculateDoubleIntUintMapping","inputs":[{"name":"slot_","type":"uint256","internalType":"uint256"},{"name":"key1_","type":"int256","internalType":"int256"},{"name":"key2_","type":"uint256","internalType":"uint256"}],"outputs":[{"name":"","type":"bytes32","internalType":"bytes32"}],"stateMutability":"pure"},{"type":"function","name":"calculateStorageSlotIntMapping","inputs":[{"name":"slot_","type":"uint256","internalType":"uint256"},{"name":"key_","type":"int256","internalType":"int256"}],"outputs":[{"name":"","type":"bytes32","internalType":"bytes32"}],"stateMutability":"pure"},{"type":"function","name":"calculateStorageSlotUintMapping","inputs":[{"name":"slot_","type":"uint256","internalType":"uint256"},{"name":"key_","type":"uint256","internalType":"uint256"}],"outputs":[{"name":"","type":"bytes32","internalType":"bytes32"}],"stateMutability":"pure"},{"type":"function","name":"normalSlot","inputs":[{"name":"slot_","type":"uint256","internalType":"uint256"}],"outputs":[{"name":"","type":"bytes32","internalType":"bytes32"}],"stateMutability":"pure"},{"type":"function","name":"tickHelper","inputs":[{"name":"tickRaw_","type":"uint256","internalType":"uint256"}],"outputs":[{"name":"tick","type":"int256","internalType":"int256"}],"stateMutability":"pure"}],"bytecode":{"object":"0x60c06040523462000049576200001f6200001862000133565b906200015a565b620000296200004f565b610931620001f282396080518160b1015260a05181610242015261093190f35b62000055565b60405190565b5f80fd5b601f801991011690565b634e487b7160e01b5f52604160045260245ffd5b90620000839062000059565b810190811060018060401b038211176200009c57604052565b62000063565b90620000b9620000b16200004f565b928362000077565b565b5f80fd5b60018060a01b031690565b620000d590620000bf565b90565b620000e381620000ca565b03620000eb57565b5f80fd5b90505190620000fe82620000d8565b565b91906040838203126200012d5780620001206200012a925f8601620000ef565b93602001620000ef565b90565b620000bb565b6200015662000b23803803806200014a81620000a2565b92833981019062000100565b9091565b90620001669162000168565b565b906200017491620001d3565b565b90565b620001926200018c6200019892620000bf565b62000176565b620000bf565b90565b620001a69062000179565b90565b620001b4906200019b565b90565b620001c29062000179565b90565b620001d090620001b7565b90565b90620001e3620001ec92620001a9565b608052620001c5565b60a05256fe60806040526004361015610013575b610444565b61001d5f3561008c565b80632dd31000146100875780632f2612cf146100825780636902f79f1461007d5780637bbede43146100785780638bfbeda6146100735780638f8b81f01461006e57639d7aeeb40361000e5761040f565b6103da565b610364565b6102f4565b610292565b61020a565b610137565b60e01c90565b60405190565b5f80fd5b5f80fd5b5f9103126100aa57565b61009c565b7f000000000000000000000000000000000000000000000000000000000000000090565b60018060a01b031690565b90565b6100f56100f06100fa926100d3565b6100de565b6100d3565b90565b610106906100e1565b90565b610112906100fd565b90565b61011e90610109565b9052565b9190610135905f60208501940190610115565b565b34610167576101473660046100a0565b6101636101526100af565b61015a610092565b91829182610122565b0390f35b610098565b90565b6101788161016c565b0361017f57565b5f80fd5b905035906101908261016f565b565b90565b61019e81610192565b036101a557565b5f80fd5b905035906101b682610195565b565b91906040838203126101e057806101d46101dd925f8601610183565b936020016101a9565b90565b61009c565b90565b6101f1906101e5565b9052565b9190610208905f602085019401906101e8565b565b3461023b576102376102266102203660046101b8565b90610570565b61022e610092565b918291826101f5565b0390f35b610098565b7f000000000000000000000000000000000000000000000000000000000000000090565b61026d906100fd565b90565b61027990610264565b9052565b9190610290905f60208501940190610270565b565b346102c2576102a23660046100a0565b6102be6102ad610240565b6102b5610092565b9182918261027d565b0390f35b610098565b91906040838203126102ef57806102e36102ec925f8601610183565b93602001610183565b90565b61009c565b346103255761032161031061030a3660046102c7565b90610503565b610318610092565b918291826101f5565b0390f35b610098565b909160608284031261035f5761035c610345845f8501610183565b9361035381602086016101a9565b93604001610183565b90565b61009c565b346103955761039161038061037a36600461032a565b916105dd565b610388610092565b918291826101f5565b0390f35b610098565b906020828203126103b3576103b0915f01610183565b90565b61009c565b6103c190610192565b9052565b91906103d8905f602085019401906103b8565b565b3461040a576104066103f56103f036600461039a565b610827565b6103fd610092565b918291826103c5565b0390f35b610098565b3461043f5761043b61042a61042536600461039a565b61046d565b610432610092565b918291826101f5565b0390f35b610098565b5f80fd5b5f90565b5f1b90565b61046561046061046a9261016c565b61044c565b6101e5565b90565b61047f90610479610448565b50610451565b90565b61048b9061016c565b9052565b9160206104b09294936104a960408201965f830190610482565b0190610482565b565b601f801991011690565b634e487b7160e01b5f52604160045260245ffd5b906104da906104b2565b810190811067ffffffffffffffff8211176104f457604052565b6104bc565b60200190565b5190565b9061053790610510610448565b5061052861051c610092565b9384926020840161048f565b602082018103825203826104d0565b610549610543826104ff565b916104f9565b2090565b91602061056e92949361056760408201965f8301906103b8565b0190610482565b565b906105a49061057d610448565b50610595610589610092565b9384926020840161054d565b602082018103825203826104d0565b6105b66105b0826104ff565b916104f9565b2090565b9160206105db9294936105d460408201965f830190610482565b01906101e8565b565b61061361064d926105ec610448565b506106046105f8610092565b9384926020840161054d565b602082018103825203826104d0565b61062561061f826104ff565b916104f9565b209161063e610632610092565b938492602084016105ba565b602082018103825203826104d0565b61065f610659826104ff565b916104f9565b2090565b5f90565b90565b61067e61067961068392610667565b6100de565b61016c565b90565b610692620fffff61066a565b90565b60209181520190565b5f7f696e76616c69642d6e756d626572000000000000000000000000000000000000910152565b6106d2600e602092610695565b6106db8161069e565b0190565b6106f49060208101905f8183039101526106c5565b90565b156106fe57565b610706610092565b62461bcd60e51b81528061071c600482016106df565b0390fd5b90565b61073761073261073c92610720565b6100de565b61016c565b90565b90565b61075661075161075b9261073f565b6100de565b61016c565b90565b60ff1690565b61077861077361077d9261073f565b6100de565b61075e565b90565b1c90565b6107a39061079d6107976107a89461075e565b9161016c565b90610780565b61016c565b90565b90565b6107c26107bd6107c7926107ab565b6100de565b61016c565b90565b6107d66207ffff6107ae565b90565b6107ed6107e86107f29261016c565b6100de565b610192565b90565b634e487b7160e01b5f52601160045260245ffd5b61081290610192565b600160ff1b8114610822575f0390565b6107f5565b61082f610663565b506108538161084d610847610842610686565b61016c565b9161016c565b106106f7565b806108666108605f610723565b9161016c565b115f146108ef57806108786001610742565b1661088c6108866001610742565b9161016c565b145f146108bd576108aa6108b8916108a46001610764565b90610784565b6108b26107ca565b166107d9565b5b905b565b6108e56108d76108ea926108d16001610764565b90610784565b6108df6107ca565b166107d9565b610809565b6108b9565b50600160ff1b906108bb56fea2646970667358221220c7fc4198ed7c06c1bfd9b519897ba7da939813652ba1d4dcb149018ff289319064736f6c63430008150033","linkReferences":{}},"methodIdentifiers":{"FACTORY()":"2dd31000","LIQUIDITY_RESOLVER()":"6902f79f","calculateDoubleIntUintMapping(uint256,int256,uint256)":"8bfbeda6","calculateStorageSlotIntMapping(uint256,int256)":"2f2612cf","calculateStorageSlotUintMapping(uint256,uint256)":"7bbede43","normalSlot(uint256)":"9d7aeeb4","tickHelper(uint256)":"8f8b81f0"},"id":39}