{"abi":[{"type":"constructor","inputs":[{"name":"liquidityContract_","type":"address","internalType":"address"}],"stateMutability":"nonpayable"},{"type":"receive","stateMutability":"payable"},{"type":"function","name":"liquidityCallback","inputs":[{"name":"token_","type":"address","internalType":"address"},{"name":"amount_","type":"uint256","internalType":"uint256"},{"name":"data_","type":"bytes","internalType":"bytes"}],"outputs":[],"stateMutability":"nonpayable"},{"type":"function","name":"liquidityContract","inputs":[],"outputs":[{"name":"","type":"address","internalType":"address"}],"stateMutability":"view"},{"type":"function","name":"operate","inputs":[{"name":"token_","type":"address","internalType":"address"},{"name":"supplyAmount_","type":"int256","internalType":"int256"},{"name":"borrowAmount_","type":"int256","internalType":"int256"},{"name":"withdrawTo_","type":"address","internalType":"address"},{"name":"borrowTo_","type":"address","internalType":"address"},{"name":"callbackData_","type":"bytes","internalType":"bytes"}],"outputs":[{"name":"supplyExchangePrice_","type":"uint256","internalType":"uint256"},{"name":"borrowExchangePrice_","type":"uint256","internalType":"uint256"}],"stateMutability":"payable"},{"type":"function","name":"readFromStorage","inputs":[{"name":"slot_","type":"bytes32","internalType":"bytes32"}],"outputs":[{"name":"result_","type":"uint256","internalType":"uint256"}],"stateMutability":"view"},{"type":"function","name":"setReentrancyFromCallback","inputs":[{"name":"reentrancyFromCallback_","type":"bool","internalType":"bool"}],"outputs":[],"stateMutability":"nonpayable"},{"type":"function","name":"setTransferExcessMode","inputs":[{"name":"transferExcessMode_","type":"bool","internalType":"bool"}],"outputs":[],"stateMutability":"nonpayable"},{"type":"function","name":"setTransferFromAddress","inputs":[{"name":"transferFromAddress_","type":"address","internalType":"address"}],"outputs":[],"stateMutability":"nonpayable"},{"type":"function","name":"setTransferInsufficientMode","inputs":[{"name":"transferInsufficientMode_","type":"bool","internalType":"bool"}],"outputs":[],"stateMutability":"nonpayable"},{"type":"error","name":"MockProtocol__UnexpectedLiquidityCallback","inputs":[]}],"bytecode":{"object":"0x60a06040523462000063576200001e620000186200013c565b62000246565b6200002862000069565b61139e6200027082396080518181816105a601528181610d3c01528181610e1001528181610f480152818161113001526112cf015261139e90f35b6200006f565b60405190565b5f80fd5b601f801991011690565b634e487b7160e01b5f52604160045260245ffd5b906200009d9062000073565b810190811060018060401b03821117620000b657604052565b6200007d565b90620000d3620000cb62000069565b928362000091565b565b5f80fd5b60018060a01b031690565b620000ef90620000d9565b90565b620000fd81620000e4565b036200010557565b5f80fd5b905051906200011882620000f2565b565b90602082820312620001365762000133915f0162000109565b90565b620000d5565b6200015f6200160e803803806200015381620000bc565b9283398101906200011a565b90565b5f1b90565b906200017560ff9162000162565b9181191691161790565b151590565b6200018f906200017f565b90565b90565b90620001af620001a9620001b79262000184565b62000192565b825462000167565b9055565b60081b90565b90620001d061ff0091620001bb565b9181191691161790565b90620001f4620001ee620001fc9262000184565b62000192565b8254620001c1565b9055565b60101b90565b906200021662ff00009162000200565b9181191691161790565b906200023a62000234620002429262000184565b62000192565b825462000206565b9055565b620002525f8062000195565b6200025e5f80620001da565b6200026a5f8062000220565b60805256fe60806040526004361015610015575b3661061f57005b61001f5f3561009e565b806306bdf8ac1461009957806342e3403d146100945780635aacb5141461008f5780635e0a87761461008a578063ad20750114610085578063ad967e1514610080578063b5c736e41461007b5763e54845b60361000e576105ea565b610560565b6104d4565b610387565b6101f2565b6101bf565b61018c565b610101565b60e01c90565b60405190565b5f80fd5b5f80fd5b5f80fd5b151590565b6100c4816100b6565b036100cb57565b5f80fd5b905035906100dc826100bb565b565b906020828203126100f7576100f4915f016100cf565b90565b6100ae565b5f0190565b3461012f576101196101143660046100de565b6106b6565b6101216100a4565b8061012b816100fc565b0390f35b6100aa565b60018060a01b031690565b61014890610134565b90565b6101548161013f565b0361015b57565b5f80fd5b9050359061016c8261014b565b565b9060208282031261018757610184915f0161015f565b90565b6100ae565b346101ba576101a461019f36600461016e565b61078b565b6101ac6100a4565b806101b6816100fc565b0390f35b6100aa565b346101ed576101d76101d23660046100de565b610700565b6101df6100a4565b806101e9816100fc565b0390f35b6100aa565b346102205761020a6102053660046100de565b61066d565b6102126100a4565b8061021c816100fc565b0390f35b6100aa565b90565b61023181610225565b0361023857565b5f80fd5b9050359061024982610228565b565b5f80fd5b5f80fd5b601f801991011690565b634e487b7160e01b5f52604160045260245ffd5b9061027b90610253565b810190811067ffffffffffffffff82111761029557604052565b61025d565b906102ad6102a66100a4565b9283610271565b565b67ffffffffffffffff81116102cd576102c9602091610253565b0190565b61025d565b90825f939282370152565b909291926102f26102ed826102af565b61029a565b9381855260208501908284011161030e5761030c926102d2565b565b61024f565b9080601f830112156103315781602061032e933591016102dd565b90565b61024b565b916060838303126103825761034d825f850161015f565b9261035b836020830161023c565b92604082013567ffffffffffffffff811161037d5761037a9201610313565b90565b6100b2565b6100ae565b346103b6576103a061039a366004610336565b91610c0a565b6103a86100a4565b806103b2816100fc565b0390f35b6100aa565b90565b6103c7816103bb565b036103ce57565b5f80fd5b905035906103df826103be565b565b5f80fd5b5f80fd5b909182601f830112156104235781359167ffffffffffffffff831161041e57602001926001830284011161041957565b6103e5565b6103e1565b61024b565b9160c08383031261049f5761043f825f850161015f565b9261044d83602083016103d2565b9261045b81604084016103d2565b92610469826060850161015f565b92610477836080830161015f565b9260a082013567ffffffffffffffff811161049a5761049692016103e9565b9091565b6100b2565b6100ae565b6104ad90610225565b9052565b9160206104d29294936104cb60408201965f8301906104a4565b01906104a4565b565b6104ee6104e2366004610428565b959490949391936110e9565b906105036104fa6100a4565b928392836104b1565b0390f35b90565b61051381610507565b0361051a57565b5f80fd5b9050359061052b8261050a565b565b9060208282031261054657610543915f0161051e565b90565b6100ae565b919061055e905f602085019401906104a4565b565b346105905761058c61057b61057636600461052d565b6112b8565b6105836100a4565b9182918261054b565b0390f35b6100aa565b5f91031261059f57565b6100ae565b7f000000000000000000000000000000000000000000000000000000000000000090565b6105d19061013f565b9052565b91906105e8905f602085019401906105c8565b565b3461061a576105fa366004610595565b6106166106056105a4565b61060d6100a4565b918291826105d5565b0390f35b6100aa565b5f80fd5b5f1b90565b9061063460ff91610623565b9181191691161790565b610647906100b6565b90565b90565b9061066261065d6106699261063e565b61064a565b8254610628565b9055565b610677905f61064d565b565b60081b90565b9061068c61ff0091610679565b9181191691161790565b906106ab6106a66106b29261063e565b61064a565b825461067f565b9055565b6106c0905f610696565b565b60101b90565b906106d662ff0000916106c2565b9181191691161790565b906106f56106f06106fc9261063e565b61064a565b82546106c8565b9055565b61070a905f6106e0565b565b60181b90565b906107276301000000600160b81b039161070c565b9181191691161790565b90565b61074861074361074d92610134565b610731565b610134565b90565b61075990610734565b90565b61076590610750565b90565b90565b9061078061077b6107879261075c565b610768565b8254610712565b9055565b610795905f61076b565b565b60101c90565b60ff1690565b6107af6107b491610797565b61079d565b90565b6107c190546107a3565b90565b6107cd90610734565b90565b6107d9906107c4565b90565b6107e590610750565b90565b90565b6107ff6107fa610804926107e8565b610731565b610134565b90565b610810906107eb565b90565b61081c90610750565b90565b60e01b90565b9050519061083282610228565b565b919060408382031261085c5780610850610859925f8601610825565b93602001610825565b90565b6100ae565b90565b61087861087361087d92610861565b610731565b6103bb565b90565b61088990610864565b9052565b6108a161089c6108a6926107e8565b610731565b6103bb565b90565b6108b29061088d565b9052565b5190565b60209181520190565b5f5b8381106108d5575050905f910152565b8060209183015181850152016108c5565b61090561090e602093610913936108fc816108b6565b938480936108ba565b958691016108c3565b610253565b0190565b92610974969461095361095d926109496109679699959961093f60c08a019b5f8b01906105c8565b6020890190610880565b60408701906108a9565b60608501906105c8565b60808301906105c8565b60a08184039101526108e6565b90565b61097f6100a4565b3d5f823e3d90fd5b73eeeeeeeeeeeeeeeeeeeeeeeeeeeeeeeeeeeeeeee90565b5f90565b60181c90565b60018060a01b031690565b6109c06109c5916109a3565b6109a9565b90565b6109d290546109b4565b90565b6109e96109e46109ee926107e8565b610731565b610225565b90565b60081c90565b610a03610a08916109f1565b61079d565b90565b610a1590546109f7565b90565b5f1c90565b610a29610a2e91610a18565b61079d565b90565b610a3b9054610a1d565b90565b90565b610a55610a50610a5a92610a3e565b610731565b610225565b90565b634e487b7160e01b5f52601160045260245ffd5b610a80610a8691939293610225565b92610225565b8203918211610a9157565b610a5d565b90565b610aad610aa8610ab292610a96565b610731565b610225565b90565b610ac4610aca91939293610225565b92610225565b91610ad6838202610225565b928184041490151715610ae557565b610a5d565b90565b610b01610afc610b0692610aea565b610731565b610225565b90565b634e487b7160e01b5f52601260045260245ffd5b610b29610b2f91610225565b91610225565b908115610b3a570490565b610b09565b610b4e610b5491939293610225565b92610225565b8201809211610b5f57565b610a5d565b610b6d90610734565b90565b610b7990610b64565b90565b610b8590610750565b90565b90505190610b95826100bb565b565b90602082820312610bb057610bad915f01610b88565b90565b6100ae565b604090610bde610be59496959396610bd460608401985f8501906105c8565b60208301906105c8565b01906104a4565b565b916020610c08929493610c0160408201965f8301906105c8565b01906104a4565b565b9091610c155f6107b7565b610f40575b81610c34610c2e610c29610987565b61013f565b9161013f565b14610f1d57610c4161099f565b50610c4b5f6109c8565b610c65610c5f610c5a5f610807565b61013f565b9161013f565b145f14610f0e57602080825103910101515b82610c8a610c845f6109d5565b91610225565b11610e95575b80610cab610ca5610ca030610813565b61013f565b9161013f565b145f14610def5750610cc4610cbf82610b70565b610b7c565b602063095ea7b391610cd530610813565b90610cf35f8795610cfe610ce76100a4565b9788968795869461081f565b845260048401610be7565b03925af18015610dea57602092610d2392610d1e92610dbf575b50610b70565b610b7c565b6323b872dd90610d705f610d3630610813565b93610d7b7f000000000000000000000000000000000000000000000000000000000000000097610d646100a4565b9889978896879561081f565b855260048501610bb5565b03925af18015610dba57610d8e575b505b565b610dae9060203d8111610db3575b610da68183610271565b810190610b97565b610d8a565b503d610d9c565b610977565b610dde90853d8111610de3575b610dd68183610271565b810190610b97565b610d18565b503d610dcc565b610977565b610e02610dfd602093610b70565b610b7c565b610e445f6323b872dd610e4f7f000000000000000000000000000000000000000000000000000000000000000097610e386100a4565b9889978896879561081f565b855260048501610bb5565b03925af18015610e9057610e64575b50610d8c565b610e849060203d8111610e89575b610e7c8183610271565b810190610b97565b610e5e565b503d610e72565b610977565b91610e9f5f610a0b565b5f14610edf5780610ed2610ec1610ed893610ebb612775610a99565b90610ab5565b610ecc612710610aed565b90610b1d565b90610b3f565b915b610c90565b91610ee95f610a31565b610ef3575b610eda565b91610f0890610f026001610a41565b90610a71565b91610eee565b50610f185f6109c8565b610c77565b610f256100a4565b636e5cb67b60e11b815280610f3c600482016100fc565b0390fd5b610f71610f6c7f00000000000000000000000000000000000000000000000000000000000000006107d0565b6107dc565b604063ad967e15918490610fdf5f600a95610fea610fbc83610f9285610807565b610f9b86610807565b91610fcb610fa830610813565b610fb06100a4565b958691602083016105d5565b60208201810382520385610271565b610fd36100a4565b9b8c9a8b998a9861081f565b885260048801610917565b03925af1801561102c57610fff575b50610c1a565b61101f9060403d8111611025575b6110178183610271565b810190610834565b50610ff9565b503d61100d565b610977565b5f90565b61103e90610734565b90565b61104a90611035565b90565b61105690610750565b90565b611062906103bb565b9052565b91906110808161107981611085956108ba565b80956102d2565b610253565b0190565b926110e697959196946110c56110cf926110bb6110d9966110b160c08a019c5f8b01906105c8565b6020890190611059565b6040870190611059565b60608501906105c8565b60808301906105c8565b60a0818503910152611066565b90565b90936040959297966110f9611031565b50611102611031565b503493846111186111125f6109d5565b91610225565b116111db575b9461118a9161117f95966111596111547f0000000000000000000000000000000000000000000000000000000000000000611041565b61104d565b9463ad967e159895989596999c93909192936111736100a4565b9d8e9b8c9a8b9961081f565b895260048901611089565b03925af180156111d6575f809390916111a3575b509190565b90506111c791925060403d81116111cf575b6111bf8183610271565b810190610834565b91905f61119e565b503d6111b5565b610977565b936111e55f610a0b565b5f14611234579461118a916112278761122161121061117f999a61120a612775610a99565b90610ab5565b61121b612710610aed565b90610b1d565b90610b3f565b965b91969550915061111e565b9361123e5f610a31565b611252575b9461118a9161117f9596611229565b9461118a9161126e61117f966112686001610a41565b90610a71565b9550915094611243565b906020828203126112915761128e915f01610825565b90565b6100ae565b61129f90610507565b9052565b91906112b6905f60208501940190611296565b565b602061131f916112c6611031565b506112f86112f37f00000000000000000000000000000000000000000000000000000000000000006107d0565b6107dc565b61131463b5c736e46113086100a4565b9586948593849361081f565b8352600483016112a3565b03915afa908115611363575f91611335575b5090565b611356915060203d811161135c575b61134e8183610271565b810190611278565b5f611331565b503d611344565b61097756fea26469706673582212204b77ca9ea152c83d5c0cccde651ae42d7b48a4faffff6ef72c7ea04b404962bc64736f6c63430008150033","linkReferences":{}},"methodIdentifiers":{"liquidityCallback(address,uint256,bytes)":"ad207501","liquidityContract()":"e54845b6","operate(address,int256,int256,address,address,bytes)":"ad967e15","readFromStorage(bytes32)":"b5c736e4","setReentrancyFromCallback(bool)":"5aacb514","setTransferExcessMode(bool)":"06bdf8ac","setTransferFromAddress(address)":"42e3403d","setTransferInsufficientMode(bool)":"5e0a8776"},"id":30}