{"abi":[{"type":"constructor","inputs":[{"name":"_flashLoanRouter","type":"address","internalType":"address"},{"name":"_vaultResolver","type":"address","internalType":"address"},{"name":"_uniswapRouter","type":"address","internalType":"address"},{"name":"_instaFlashAggregator","type":"address","internalType":"address"},{"name":"_asset","type":"address","internalType":"address"},{"name":"_dToken","type":"address","internalType":"address"},{"name":"_fluidVaultId","type":"uint256","internalType":"uint256"},{"name":"_leverage","type":"uint8","internalType":"uint8"},{"name":"_name","type":"string","internalType":"string"},{"name":"_symbol","type":"string","internalType":"string"}],"stateMutability":"nonpayable"},{"type":"function","name":"allowance","inputs":[{"name":"owner","type":"address","internalType":"address"},{"name":"spender","type":"address","internalType":"address"}],"outputs":[{"name":"","type":"uint256","internalType":"uint256"}],"stateMutability":"view"},{"type":"function","name":"approve","inputs":[{"name":"spender","type":"address","internalType":"address"},{"name":"value","type":"uint256","internalType":"uint256"}],"outputs":[{"name":"","type":"bool","internalType":"bool"}],"stateMutability":"nonpayable"},{"type":"function","name":"asset","inputs":[],"outputs":[{"name":"","type":"address","internalType":"address"}],"stateMutability":"view"},{"type":"function","name":"balanceOf","inputs":[{"name":"account","type":"address","internalType":"address"}],"outputs":[{"name":"","type":"uint256","internalType":"uint256"}],"stateMutability":"view"},{"type":"function","name":"convertToAssets","inputs":[{"name":"shares","type":"uint256","internalType":"uint256"}],"outputs":[{"name":"","type":"uint256","internalType":"uint256"}],"stateMutability":"view"},{"type":"function","name":"convertToShares","inputs":[{"name":"assets","type":"uint256","internalType":"uint256"}],"outputs":[{"name":"","type":"uint256","internalType":"uint256"}],"stateMutability":"view"},{"type":"function","name":"dToken","inputs":[],"outputs":[{"name":"","type":"address","internalType":"contract IERC20"}],"stateMutability":"view"},{"type":"function","name":"decimals","inputs":[],"outputs":[{"name":"","type":"uint8","internalType":"uint8"}],"stateMutability":"view"},{"type":"function","name":"deposit","inputs":[{"name":"assets","type":"uint256","internalType":"uint256"},{"name":"receiver","type":"address","internalType":"address"}],"outputs":[{"name":"","type":"uint256","internalType":"uint256"}],"stateMutability":"nonpayable"},{"type":"function","name":"executeOperation","inputs":[{"name":"assets","type":"address[]","internalType":"address[]"},{"name":"amounts","type":"uint256[]","internalType":"uint256[]"},{"name":"premiums","type":"uint256[]","internalType":"uint256[]"},{"name":"initiator","type":"address","internalType":"address"},{"name":"","type":"bytes","internalType":"bytes"}],"outputs":[{"name":"","type":"bool","internalType":"bool"}],"stateMutability":"nonpayable"},{"type":"function","name":"fluidFlashLoanRouter","inputs":[],"outputs":[{"name":"","type":"address","internalType":"contract IFlashLoan"}],"stateMutability":"view"},{"type":"function","name":"fluidVault","inputs":[],"outputs":[{"name":"","type":"address","internalType":"contract IFluidVault"}],"stateMutability":"view"},{"type":"function","name":"fluidVaultResolver","inputs":[],"outputs":[{"name":"","type":"address","internalType":"contract IFluidVaultResolver"}],"stateMutability":"view"},{"type":"function","name":"instaFlashAggregator","inputs":[],"outputs":[{"name":"","type":"address","internalType":"contract IInstaFlashAggregator"}],"stateMutability":"view"},{"type":"function","name":"leverage","inputs":[],"outputs":[{"name":"","type":"uint8","internalType":"uint8"}],"stateMutability":"view"},{"type":"function","name":"maxDeposit","inputs":[{"name":"","type":"address","internalType":"address"}],"outputs":[{"name":"","type":"uint256","internalType":"uint256"}],"stateMutability":"view"},{"type":"function","name":"maxMint","inputs":[{"name":"","type":"address","internalType":"address"}],"outputs":[{"name":"","type":"uint256","internalType":"uint256"}],"stateMutability":"view"},{"type":"function","name":"maxRedeem","inputs":[{"name":"owner","type":"address","internalType":"address"}],"outputs":[{"name":"","type":"uint256","internalType":"uint256"}],"stateMutability":"view"},{"type":"function","name":"maxWithdraw","inputs":[{"name":"owner","type":"address","internalType":"address"}],"outputs":[{"name":"","type":"uint256","internalType":"uint256"}],"stateMutability":"view"},{"type":"function","name":"mint","inputs":[{"name":"shares","type":"uint256","internalType":"uint256"},{"name":"receiver","type":"address","internalType":"address"}],"outputs":[{"name":"","type":"uint256","internalType":"uint256"}],"stateMutability":"nonpayable"},{"type":"function","name":"name","inputs":[],"outputs":[{"name":"","type":"string","internalType":"string"}],"stateMutability":"view"},{"type":"function","name":"owner","inputs":[],"outputs":[{"name":"","type":"address","internalType":"address"}],"stateMutability":"view"},{"type":"function","name":"previewDeposit","inputs":[{"name":"assets","type":"uint256","internalType":"uint256"}],"outputs":[{"name":"","type":"uint256","internalType":"uint256"}],"stateMutability":"view"},{"type":"function","name":"previewMint","inputs":[{"name":"shares","type":"uint256","internalType":"uint256"}],"outputs":[{"name":"","type":"uint256","internalType":"uint256"}],"stateMutability":"view"},{"type":"function","name":"previewRedeem","inputs":[{"name":"shares","type":"uint256","internalType":"uint256"}],"outputs":[{"name":"","type":"uint256","internalType":"uint256"}],"stateMutability":"view"},{"type":"function","name":"previewWithdraw","inputs":[{"name":"assets","type":"uint256","internalType":"uint256"}],"outputs":[{"name":"","type":"uint256","internalType":"uint256"}],"stateMutability":"view"},{"type":"function","name":"redeem","inputs":[{"name":"shares","type":"uint256","internalType":"uint256"},{"name":"receiver","type":"address","internalType":"address"},{"name":"owner","type":"address","internalType":"address"}],"outputs":[{"name":"","type":"uint256","internalType":"uint256"}],"stateMutability":"nonpayable"},{"type":"function","name":"renounceOwnership","inputs":[],"outputs":[],"stateMutability":"nonpayable"},{"type":"function","name":"symbol","inputs":[],"outputs":[{"name":"","type":"string","internalType":"string"}],"stateMutability":"view"},{"type":"function","name":"totalAssets","inputs":[],"outputs":[{"name":"","type":"uint256","internalType":"uint256"}],"stateMutability":"view"},{"type":"function","name":"totalSupply","inputs":[],"outputs":[{"name":"","type":"uint256","internalType":"uint256"}],"stateMutability":"view"},{"type":"function","name":"transfer","inputs":[{"name":"to","type":"address","internalType":"address"},{"name":"value","type":"uint256","internalType":"uint256"}],"outputs":[{"name":"","type":"bool","internalType":"bool"}],"stateMutability":"nonpayable"},{"type":"function","name":"transferFrom","inputs":[{"name":"from","type":"address","internalType":"address"},{"name":"to","type":"address","internalType":"address"},{"name":"value","type":"uint256","internalType":"uint256"}],"outputs":[{"name":"","type":"bool","internalType":"bool"}],"stateMutability":"nonpayable"},{"type":"function","name":"transferOwnership","inputs":[{"name":"newOwner","type":"address","internalType":"address"}],"outputs":[],"stateMutability":"nonpayable"},{"type":"function","name":"uniswapRouter","inputs":[],"outputs":[{"name":"","type":"address","internalType":"contract ISwapRouter"}],"stateMutability":"view"},{"type":"function","name":"withdraw","inputs":[{"name":"assets","type":"uint256","internalType":"uint256"},{"name":"receiver","type":"address","internalType":"address"},{"name":"owner","type":"address","internalType":"address"}],"outputs":[{"name":"","type":"uint256","internalType":"uint256"}],"stateMutability":"nonpayable"},{"type":"event","name":"Approval","inputs":[{"name":"owner","type":"address","indexed":true,"internalType":"address"},{"name":"spender","type":"address","indexed":true,"internalType":"address"},{"name":"value","type":"uint256","indexed":false,"internalType":"uint256"}],"anonymous":false},{"type":"event","name":"Deposit","inputs":[{"name":"sender","type":"address","indexed":true,"internalType":"address"},{"name":"owner","type":"address","indexed":true,"internalType":"address"},{"name":"assets","type":"uint256","indexed":false,"internalType":"uint256"},{"name":"shares","type":"uint256","indexed":false,"internalType":"uint256"}],"anonymous":false},{"type":"event","name":"FlashLoanStarted","inputs":[{"name":"amount","type":"uint256","indexed":false,"internalType":"uint256"},{"name":"route","type":"uint16","indexed":false,"internalType":"uint16"}],"anonymous":false},{"type":"event","name":"OwnershipTransferred","inputs":[{"name":"previousOwner","type":"address","indexed":true,"internalType":"address"},{"name":"newOwner","type":"address","indexed":true,"internalType":"address"}],"anonymous":false},{"type":"event","name":"TokensSwapped","inputs":[{"name":"amountIn","type":"uint256","indexed":false,"internalType":"uint256"},{"name":"amountOut","type":"uint256","indexed":false,"internalType":"uint256"}],"anonymous":false},{"type":"event","name":"Transfer","inputs":[{"name":"from","type":"address","indexed":true,"internalType":"address"},{"name":"to","type":"address","indexed":true,"internalType":"address"},{"name":"value","type":"uint256","indexed":false,"internalType":"uint256"}],"anonymous":false},{"type":"event","name":"VaultCreated","inputs":[{"name":"vaultAddress","type":"address","indexed":false,"internalType":"address"}],"anonymous":false},{"type":"event","name":"Withdraw","inputs":[{"name":"sender","type":"address","indexed":true,"internalType":"address"},{"name":"receiver","type":"address","indexed":true,"internalType":"address"},{"name":"owner","type":"address","indexed":true,"internalType":"address"},{"name":"assets","type":"uint256","indexed":false,"internalType":"uint256"},{"name":"shares","type":"uint256","indexed":false,"internalType":"uint256"}],"anonymous":false},{"type":"error","name":"ERC20InsufficientAllowance","inputs":[{"name":"spender","type":"address","internalType":"address"},{"name":"allowance","type":"uint256","internalType":"uint256"},{"name":"needed","type":"uint256","internalType":"uint256"}]},{"type":"error","name":"ERC20InsufficientBalance","inputs":[{"name":"sender","type":"address","internalType":"address"},{"name":"balance","type":"uint256","internalType":"uint256"},{"name":"needed","type":"uint256","internalType":"uint256"}]},{"type":"error","name":"ERC20InvalidApprover","inputs":[{"name":"approver","type":"address","internalType":"address"}]},{"type":"error","name":"ERC20InvalidReceiver","inputs":[{"name":"receiver","type":"address","internalType":"address"}]},{"type":"error","name":"ERC20InvalidSender","inputs":[{"name":"sender","type":"address","internalType":"address"}]},{"type":"error","name":"ERC20InvalidSpender","inputs":[{"name":"spender","type":"address","internalType":"address"}]},{"type":"error","name":"ERC4626ExceededMaxDeposit","inputs":[{"name":"receiver","type":"address","internalType":"address"},{"name":"assets","type":"uint256","internalType":"uint256"},{"name":"max","type":"uint256","internalType":"uint256"}]},{"type":"error","name":"ERC4626ExceededMaxMint","inputs":[{"name":"receiver","type":"address","internalType":"address"},{"name":"shares","type":"uint256","internalType":"uint256"},{"name":"max","type":"uint256","internalType":"uint256"}]},{"type":"error","name":"ERC4626ExceededMaxRedeem","inputs":[{"name":"owner","type":"address","internalType":"address"},{"name":"shares","type":"uint256","internalType":"uint256"},{"name":"max","type":"uint256","internalType":"uint256"}]},{"type":"error","name":"ERC4626ExceededMaxWithdraw","inputs":[{"name":"owner","type":"address","internalType":"address"},{"name":"assets","type":"uint256","internalType":"uint256"},{"name":"max","type":"uint256","internalType":"uint256"}]},{"type":"error","name":"OwnableInvalidOwner","inputs":[{"name":"owner","type":"address","internalType":"address"}]},{"type":"error","name":"OwnableUnauthorizedAccount","inputs":[{"name":"account","type":"address","internalType":"address"}]},{"type":"error","name":"SafeERC20FailedOperation","inputs":[{"name":"token","type":"address","internalType":"address"}]}],"bytecode":{"object":"0x6101a060405234610093576100276100156102e4565b989790979691969592959493946107f2565b61002f610098565b61277161102782396080518161142d015260a051816113eb015260c051816102db015260e05181610861015261010051816107da015261012051816109b801526101405181610db501526101605181610f1001526101805181610645015261277190f35b61009e565b60405190565b5f80fd5b601f801991011690565b634e487b7160e01b5f52604160045260245ffd5b906100ca906100a2565b810190811060018060401b038211176100e257604052565b6100ac565b906100fa6100f3610098565b92836100c0565b565b5f80fd5b5f80fd5b60018060a01b031690565b61011890610104565b90565b6101248161010f565b0361012b57565b5f80fd5b9050519061013c8261011b565b565b90565b61014a8161013e565b0361015157565b5f80fd5b9050519061016282610141565b565b60ff1690565b61017381610164565b0361017a57565b5f80fd5b9050519061018b8261016a565b565b5f80fd5b5f80fd5b60018060401b0381116101b1576101ad6020916100a2565b0190565b6100ac565b90825f9392825e0152565b909291926101d66101d182610195565b6100e7565b938185526020850190828401116101f2576101f0926101b6565b565b610191565b9080601f8301121561021557816020610212935191016101c1565b90565b61018d565b90610140828203126102df57610232815f840161012f565b92610240826020850161012f565b9261024e836040830161012f565b9261025c816060840161012f565b9261026a826080850161012f565b926102788360a0830161012f565b926102868160c08401610155565b926102948260e0850161017e565b9261010081015160018060401b0381116102da57836102b49183016101f7565b9261012082015160018060401b0381116102d5576102d292016101f7565b90565b610100565b610100565b6100fc565b610302613798803803806102f7816100e7565b92833981019061021a565b90919293949596979899565b90565b61032561032061032a92610104565b61030e565b610104565b90565b61033690610311565b90565b6103429061032d565b90565b90565b61035c61035761036192610345565b61030e565b610104565b90565b61036d90610348565b90565b60209181520190565b60207f7300000000000000000000000000000000000000000000000000000000000000917f496e76616c696420666c617368206c6f616e20726f75746572206164647265735f8201520152565b6103d36021604092610370565b6103dc81610379565b0190565b6103f59060208101905f8183039101526103c6565b90565b156103ff57565b610407610098565b62461bcd60e51b81528061041d600482016103e0565b0390fd5b5f7f496e76616c6964207661756c74207265736f6c76657220616464726573730000910152565b610455601e602092610370565b61045e81610421565b0190565b6104779060208101905f818303910152610448565b90565b1561048157565b610489610098565b62461bcd60e51b81528061049f60048201610462565b0390fd5b5f7f496e76616c696420556e697377617020726f7574657220616464726573730000910152565b6104d7601e602092610370565b6104e0816104a3565b0190565b6104f99060208101905f8183039101526104ca565b90565b1561050357565b61050b610098565b62461bcd60e51b815280610521600482016104e4565b0390fd5b60207f6472657373000000000000000000000000000000000000000000000000000000917f496e76616c696420496e737461466c6173682061676772656761746f722061645f8201520152565b61057f6025604092610370565b61058881610525565b0190565b6105a19060208101905f818303910152610572565b90565b156105ab57565b6105b3610098565b62461bcd60e51b8152806105c96004820161058c565b0390fd5b5f7f496e76616c69642064546f6b656e206164647265737300000000000000000000910152565b6106016016602092610370565b61060a816105cd565b0190565b6106239060208101905f8183039101526105f4565b90565b1561062d57565b610635610098565b62461bcd60e51b81528061064b6004820161060e565b0390fd5b5f7f496e76616c696420617373657420616464726573730000000000000000000000910152565b6106836015602092610370565b61068c8161064f565b0190565b6106a59060208101905f818303910152610676565b90565b156106af57565b6106b7610098565b62461bcd60e51b8152806106cd60048201610690565b0390fd5b6106da90610311565b90565b6106e6906106d1565b90565b6106f290610311565b90565b6106fe906106e9565b90565b61070a90610311565b90565b61071690610701565b90565b61072290610311565b90565b61072e90610719565b90565b61073a9061010f565b90565b6107479051610731565b90565b61075390610311565b90565b61075f9061074a565b90565b60e01b90565b906020828203126107815761077e915f0161012f565b90565b6100fc565b61078f9061013e565b9052565b91906107a6905f60208501940190610786565b565b6107b0610098565b3d5f823e3d90fd5b6107c190610311565b90565b6107cd906107b8565b90565b6107d99061010f565b9052565b91906107f0905f602085019401906107d0565b565b9161091161091992610908610922969561090361092b9a9960209d9f6109689f61082991339161082185610339565b9091926109fa565b61084e8361084761084161083c5f610364565b61010f565b9161010f565b14156103f8565b6108738561086c6108666108615f610364565b61010f565b9161010f565b141561047a565b6108988761089161088b6108865f610364565b61010f565b9161010f565b14156104fc565b6108bd896108b66108b06108ab5f610364565b61010f565b9161010f565b14156105a4565b6108e28b6108db6108d56108d05f610364565b61010f565b9161010f565b1415610626565b6108fc6108f66108f15f610364565b61010f565b9161010f565b14156106a8565b6106dd565b610100526106f5565b60c05261070d565b61012052610725565b61014052610339565b6101605261094161093c60c061073d565b610756565b61095d631949138e610951610098565b95869485938493610762565b835260048301610793565b03915afa9081156109f5575f916109c7575b5090610985826107c4565b60e052610180526109c27f2e49a5810fda2439a23771848b4acec786b0a64d4de3d124ac57fc8739c38875916109b9610098565b918291826107dd565b0390a1565b6109e8915060203d81116109ee575b6109e081836100c0565b810190610768565b5f61097a565b503d6109d6565b6107a8565b929091610a0692610a58565b80610a21610a1b610a165f610364565b61010f565b9161010f565b14610a3157610a2f90610db1565b565b610a54610a3d5f610364565b5f918291631e4fbdf760e01b8352600483016107dd565b0390fd5b90610a639291610a84565b565b90565b610a7c610a77610a8192610a65565b61030e565b610164565b90565b91610a8e91610ab7565b610a9781610ed6565b905f14610aa7575b60a052608052565b50610ab26012610a68565b610a9f565b90610ac191610d14565b565b5190565b634e487b7160e01b5f52602260045260245ffd5b9060016002830492168015610afb575b6020831014610af657565b610ac7565b91607f1691610aeb565b5f5260205f2090565b601f602091010490565b1b90565b91906008610b37910291610b315f1984610b18565b92610b18565b9181191691161790565b610b55610b50610b5a9261013e565b61030e565b61013e565b90565b90565b9190610b76610b71610b7e93610b41565b610b5d565b908354610b1c565b9055565b5f90565b610b9891610b92610b82565b91610b60565b565b5b818110610ba6575050565b80610bb35f600193610b86565b01610b9b565b9190601f8111610bc9575b505050565b610bd5610bfa93610b05565b906020610be184610b0e565b83019310610c02575b610bf390610b0e565b0190610b9a565b5f8080610bc4565b9150610bf381929050610bea565b1c90565b90610c24905f1990600802610c10565b191690565b81610c3391610c14565b906002021790565b90610c4581610ac3565b9060018060401b038211610d0357610c6782610c618554610adb565b85610bb9565b602090601f8311600114610c9b57918091610c8a935f92610c8f575b5050610c29565b90555b565b90915001515f80610c83565b601f19831691610caa85610b05565b925f5b818110610ceb57509160029391856001969410610cd1575b50505002019055610c8d565b610ce1910151601f841690610c14565b90555f8080610cc5565b91936020600181928787015181550195019201610cad565b6100ac565b90610d1291610c3b565b565b90610d23610d2a926003610d08565b6004610d08565b565b5f1c90565b60018060a01b031690565b610d48610d4d91610d2c565b610d31565b90565b610d5a9054610d3c565b90565b5f1b90565b90610d7360018060a01b0391610d5d565b9181191691161790565b610d869061074a565b90565b90565b90610da1610d9c610da892610d7d565b610d89565b8254610d62565b9055565b5f0190565b610dbb6005610d50565b610dc6826005610d8c565b90610dfa610df47f8be0079c531659141344cd1fd0a4f28419497f9722a3daafe3b4186f6b6457e093610d7d565b91610d7d565b91610e03610098565b80610e0d81610dac565b0390a3565b5f90565b5f90565b610e239061074a565b90565b90565b610e3d610e38610e4292610e26565b61030e565b61013e565b90565b610e51610e5691610d2c565b610b41565b90565b610e6d610e68610e7292610164565b61030e565b61013e565b90565b151590565b610e8390610e75565b90565b610e9a610e95610e9f92610345565b61030e565b610164565b90565b610eb1610eb791939293610e7a565b92610e86565b90565b610ece610ec9610ed39261013e565b61030e565b610164565b90565b90610edf610e12565b50610ee8610e16565b50610f44610f3a610f00610efa610fce565b94610e1a565b610f08610098565b90610f3582610f2660046020830163313ce56760e01b815201610dac565b602082018103825203836100c0565b610fe1565b5091909193611014565b80610fa7575b80610f83575b5f14610f6f57610f69610f64600193610e45565b610eba565b915b9190565b9050610f7c5f5f90610ea2565b9190610f6b565b50610f8d82610e45565b610fa0610f9a60ff610e59565b9161013e565b1115610f50565b50610fb0611019565b610fc3610fbd6020610e29565b9161013e565b1015610f4a565b5f90565b610fd6610fca565b5060405190565b5f90565b6040915f91610fee610e12565b50610ff7610fdd565b50611000610fdd565b50602082519201905afa905f519060205190565b604052565b611021610b82565b503d9056fe60806040526004361015610013575b611060565b61001d5f3561025c565b806301e1d11414610257578063035fa74c1461025257806306fdde031461024d57806307a2d13a14610248578063095ea7b3146102435780630a28a4771461023e57806318160ddd1461023957806323b872dd146102345780632c86d98e1461022f578063313ce5671461022a57806338d52e0f14610225578063402d267d146102205780634cdad5061461021b5780635a58aa0c146102165780636ab3c5cd146102115780636e553f651461020c57806370a0823114610207578063715018a614610202578063735de9f7146101fd5780638da5cb5b146101f8578063920f5c84146101f357806394bf804d146101ee57806395d89b41146101e9578063a9059cbb146101e4578063b3d7f6b9146101df578063b460af94146101da578063ba087652146101d5578063bc3cd323146101d0578063c63d75b6146101cb578063c6e6f592146101c6578063ce96cb77146101c1578063d905777e146101bc578063d9d7858a146101b7578063dd62ed3e146101b2578063ef8b30f7146101ad5763f2fde38b0361000e5761102d565b610ff8565b610fc2565b610f60565b610ed9565b610ea4565b610e6f565b610e3a565b610e05565b610d7d565b610d47565b610cd8565b610ca2565b610c6d565b610c37565b610bf8565b610a3d565b610a08565b610983565b610949565b610913565b6108b1565b61082a565b6107a3565b61076e565b61071b565b6106c4565b61068f565b61060d565b61059e565b610569565b610533565b61047b565b610401565b610361565b6102a4565b60e01c90565b60405190565b5f80fd5b5f80fd5b5f91031261027a57565b61026c565b90565b61028b9061027f565b9052565b91906102a2905f60208501940190610282565b565b346102d4576102b4366004610270565b6102d06102bf61110c565b6102c7610262565b9182918261028f565b0390f35b610268565b7f000000000000000000000000000000000000000000000000000000000000000090565b60018060a01b031690565b90565b61031f61031a610324926102fd565b610308565b6102fd565b90565b6103309061030b565b90565b61033c90610327565b90565b61034890610333565b9052565b919061035f905f6020850194019061033f565b565b3461039157610371366004610270565b61038d61037c6102d9565b610384610262565b9182918261034c565b0390f35b610268565b5190565b60209181520190565b90825f9392825e0152565b601f801991011690565b6103d76103e06020936103e5936103ce81610396565b9384809361039a565b958691016103a3565b6103ae565b0190565b6103fe9160208201915f8184039101526103b8565b90565b3461043157610411366004610270565b61042d61041c6112c9565b610424610262565b918291826103e9565b0390f35b610268565b5f80fd5b6104438161027f565b0361044a57565b5f80fd5b9050359061045b8261043a565b565b9060208282031261047657610473915f0161044e565b90565b61026c565b346104ab576104a761049661049136600461045d565b6112df565b61049e610262565b9182918261028f565b0390f35b610268565b6104b9906102fd565b90565b6104c5816104b0565b036104cc57565b5f80fd5b905035906104dd826104bc565b565b919060408382031261050757806104fb610504925f86016104d0565b9360200161044e565b90565b61026c565b151590565b61051a9061050c565b9052565b9190610531905f60208501940190610511565b565b346105645761056061054f6105493660046104df565b906112fa565b610557610262565b9182918261051e565b0390f35b610268565b346105995761059561058461057f36600461045d565b61131c565b61058c610262565b9182918261028f565b0390f35b610268565b346105ce576105ae366004610270565b6105ca6105b961135d565b6105c1610262565b9182918261028f565b0390f35b610268565b9091606082840312610608576106056105ee845f85016104d0565b936105fc81602086016104d0565b9360400161044e565b90565b61026c565b3461063e5761063a6106296106233660046105d3565b91611373565b610631610262565b9182918261051e565b0390f35b610268565b7f000000000000000000000000000000000000000000000000000000000000000090565b60ff1690565b61067690610667565b9052565b919061068d905f6020850194019061066d565b565b346106bf5761069f366004610270565b6106bb6106aa610643565b6106b2610262565b9182918261067a565b0390f35b610268565b346106f4576106d4366004610270565b6106f06106df6113dd565b6106e7610262565b9182918261067a565b0390f35b610268565b610702906104b0565b9052565b9190610719905f602085019401906106f9565b565b3461074b5761072b366004610270565b61074761073661141f565b61073e610262565b91829182610706565b0390f35b610268565b9060208282031261076957610766915f016104d0565b90565b61026c565b3461079e5761079a610789610784366004610750565b611454565b610791610262565b9182918261028f565b0390f35b610268565b346107d3576107cf6107be6107b936600461045d565b611463565b6107c6610262565b9182918261028f565b0390f35b610268565b7f000000000000000000000000000000000000000000000000000000000000000090565b61080590610327565b90565b610811906107fc565b9052565b9190610828905f60208501940190610808565b565b3461085a5761083a366004610270565b6108566108456107d8565b61084d610262565b91829182610815565b0390f35b610268565b7f000000000000000000000000000000000000000000000000000000000000000090565b61088c90610327565b90565b61089890610883565b9052565b91906108af905f6020850194019061088f565b565b346108e1576108c1366004610270565b6108dd6108cc61085f565b6108d4610262565b9182918261089c565b0390f35b610268565b919060408382031261090e578061090261090b925f860161044e565b936020016104d0565b90565b61026c565b346109445761094061092f6109293660046108e6565b906114ac565b610937610262565b9182918261028f565b0390f35b610268565b346109795761097561096461095f366004610750565b61153d565b61096c610262565b9182918261028f565b0390f35b610268565b5f0190565b346109b157610993366004610270565b61099b6115ab565b6109a3610262565b806109ad8161097e565b0390f35b610268565b7f000000000000000000000000000000000000000000000000000000000000000090565b6109e390610327565b90565b6109ef906109da565b9052565b9190610a06905f602085019401906109e6565b565b34610a3857610a18366004610270565b610a34610a236109b6565b610a2b610262565b918291826109f3565b0390f35b610268565b34610a6d57610a4d366004610270565b610a69610a586115e1565b610a60610262565b91829182610706565b0390f35b610268565b5f80fd5b5f80fd5b5f80fd5b909182601f83011215610ab85781359167ffffffffffffffff8311610ab3576020019260208302840111610aae57565b610a7a565b610a76565b610a72565b909182601f83011215610af75781359167ffffffffffffffff8311610af2576020019260208302840111610aed57565b610a7a565b610a76565b610a72565b909182601f83011215610b365781359167ffffffffffffffff8311610b31576020019260018302840111610b2c57565b610a7a565b610a76565b610a72565b919060a083820312610bf3575f83013567ffffffffffffffff8111610bee5781610b66918501610a7e565b929093602081013567ffffffffffffffff8111610be95783610b89918301610abd565b929093604083013567ffffffffffffffff8111610be45781610bac918501610abd565b929093610bbc83606083016104d0565b92608082013567ffffffffffffffff8111610bdf57610bdb9201610afc565b9091565b610436565b610436565b610436565b610436565b61026c565b34610c3257610c2e610c1d610c0e366004610b3b565b979690969591959492946115f7565b610c25610262565b9182918261051e565b0390f35b610268565b34610c6857610c64610c53610c4d3660046108e6565b9061160b565b610c5b610262565b9182918261028f565b0390f35b610268565b34610c9d57610c7d366004610270565b610c99610c8861167b565b610c90610262565b918291826103e9565b0390f35b610268565b34610cd357610ccf610cbe610cb83660046104df565b90611691565b610cc6610262565b9182918261051e565b0390f35b610268565b34610d0857610d04610cf3610cee36600461045d565b6116b3565b610cfb610262565b9182918261028f565b0390f35b610268565b9091606082840312610d4257610d3f610d28845f850161044e565b93610d3681602086016104d0565b936040016104d0565b90565b61026c565b34610d7857610d74610d63610d5d366004610d0d565b916116cb565b610d6b610262565b9182918261028f565b0390f35b610268565b34610dae57610daa610d99610d93366004610d0d565b9161173e565b610da1610262565b9182918261028f565b0390f35b610268565b7f000000000000000000000000000000000000000000000000000000000000000090565b610de090610327565b90565b610dec90610dd7565b9052565b9190610e03905f60208501940190610de3565b565b34610e3557610e15366004610270565b610e31610e20610db3565b610e28610262565b91829182610df0565b0390f35b610268565b34610e6a57610e66610e55610e50366004610750565b6117ae565b610e5d610262565b9182918261028f565b0390f35b610268565b34610e9f57610e9b610e8a610e8536600461045d565b6117bd565b610e92610262565b9182918261028f565b0390f35b610268565b34610ed457610ed0610ebf610eba366004610750565b6117d4565b610ec7610262565b9182918261028f565b0390f35b610268565b34610f0957610f05610ef4610eef366004610750565b6117f1565b610efc610262565b9182918261028f565b0390f35b610268565b7f000000000000000000000000000000000000000000000000000000000000000090565b610f3b90610327565b90565b610f4790610f32565b9052565b9190610f5e905f60208501940190610f3e565b565b34610f9057610f70366004610270565b610f8c610f7b610f0e565b610f83610262565b91829182610f4b565b0390f35b610268565b9190604083820312610fbd5780610fb1610fba925f86016104d0565b936020016104d0565b90565b61026c565b34610ff357610fef610fde610fd8366004610f95565b9061181c565b610fe6610262565b9182918261028f565b0390f35b610268565b346110285761102461101361100e36600461045d565b611844565b61101b610262565b9182918261028f565b0390f35b610268565b3461105b57611045611040366004610750565b6118c0565b61104d610262565b806110578161097e565b0390f35b610268565b5f80fd5b5f90565b6110719061030b565b90565b61107d90611068565b90565b61108990610327565b90565b634e487b7160e01b5f52604160045260245ffd5b906110aa906103ae565b810190811067ffffffffffffffff8211176110c457604052565b61108c565b60e01b90565b905051906110dc8261043a565b565b906020828203126110f7576110f4915f016110cf565b90565b61026c565b611104610262565b3d5f823e3d90fd5b611114611064565b50611164602061113261112d61112861141f565b611074565b610f32565b6370a082319061115961114430611080565b9261114d610262565b958694859384936110c9565b835260048301610706565b03915afa9081156111a8575f9161117a575b5090565b61119b915060203d81116111a1575b61119381836110a0565b8101906110de565b5f611176565b503d611189565b6110fc565b606090565b634e487b7160e01b5f52602260045260245ffd5b90600160028304921680156111e6575b60208310146111e157565b6111b2565b91607f16916111d6565b60209181520190565b5f5260205f2090565b905f929180549061121c611215836111c6565b80946111f0565b916001811690815f146112735750600114611237575b505050565b61124491929394506111f9565b915f925b81841061125b57505001905f8080611232565b60018160209295939554848601520191019290611248565b92949550505060ff19168252151560200201905f8080611232565b9061129891611202565b90565b906112bb6112b4926112ab610262565b9384809261128e565b03836110a0565b565b6112c69061129b565b90565b6112d16111ad565b506112dc60036112bd565b90565b6112f3906112eb611064565b505f9061192b565b90565b5f90565b611317916113066112f6565b5061130f611980565b91909161198d565b600190565b61133190611328611064565b5060019061199d565b90565b5f1c90565b90565b61134861134d91611334565b611339565b90565b61135a905461133c565b90565b611365611064565b506113706002611350565b90565b9161139d926113806112f6565b5061139561138c611980565b82908491611a00565b919091611a8c565b600190565b5f90565b634e487b7160e01b5f52601160045260245ffd5b6113c66113cc91610667565b91610667565b019060ff82116113d857565b6113a6565b6113e56113a2565b506114187f0000000000000000000000000000000000000000000000000000000000000000611412611b45565b906113ba565b90565b5f90565b61142761141b565b506114517f0000000000000000000000000000000000000000000000000000000000000000610f32565b90565b5061145d611064565b505f1990565b6114779061146f611064565b505f9061192b565b90565b6040906114a36114aa949695939661149960608401985f8501906106f9565b6020830190610282565b0190610282565b565b906114b5611064565b506114bf81611454565b826114d26114cc8361027f565b9161027f565b116114f957506114f6906114e583611844565b926114ee611980565b918492611b7d565b90565b826115178391925f938493633c8097d960e11b85526004850161147a565b0390fd5b61152490610327565b90565b906115319061151b565b5f5260205260405f2090565b6115536115589161154c611064565b505f611527565b611350565b90565b611563611bfd565b61156b611598565b565b90565b61158461157f6115899261156d565b610308565b6102fd565b90565b61159590611570565b90565b6115a96115a45f61158c565b611c8e565b565b6115b361155b565b565b60018060a01b031690565b6115cc6115d191611334565b6115b5565b90565b6115de90546115c0565b90565b6115e961141b565b506115f460056115d4565b90565b5050505050505050506116086112f6565b90565b90611614611064565b5061161e816117ae565b8261163161162b8361027f565b9161027f565b11611659575061165690611644836116b3565b9261164d611980565b91849192611b7d565b90565b826116778391925f93849363284ff66760e01b85526004850161147a565b0390fd5b6116836111ad565b5061168e60046112bd565b90565b6116ae9161169d6112f6565b506116a6611980565b919091611a8c565b600190565b6116c8906116bf611064565b5060019061192b565b90565b916116d4611064565b506116de816117d4565b836116f16116eb8361027f565b9161027f565b1161171c575090611719916117058461131c565b9361170e611980565b929190918593611cef565b90565b8361173a8391925f938493633fa733bb60e21b85526004850161147a565b0390fd5b611746611064565b50611750836117f1565b8161176361175d8361027f565b9161027f565b1161178c5750908161177761178993611463565b93611780611980565b92859293611cef565b90565b906117aa8491925f938493632e52afbb60e21b85526004850161147a565b0390fd5b506117b7611064565b505f1990565b6117d1906117c9611064565b505f9061199d565b90565b6117e96117ee916117e3611064565b506117f1565b611463565b90565b611803906117fd611064565b5061153d565b90565b906118109061151b565b5f5260205260405f2090565b6118419161183761183c9261182f611064565b506001611806565b611527565b611350565b90565b61185890611850611064565b505f9061199d565b90565b61186c90611867611bfd565b61186e565b565b8061188961188361187e5f61158c565b6104b0565b916104b0565b146118995761189790611c8e565b565b6118bc6118a55f61158c565b5f918291631e4fbdf760e01b835260048301610706565b0390fd5b6118c99061185b565b565b90565b6118e26118dd6118e7926118cb565b610308565b61027f565b90565b6118f96118ff9193929361027f565b9261027f565b820180921161190a57565b6113a6565b61191890610667565b604d811161192657600a0a90565b6113a6565b9061197d91611938611064565b509061195561194561110c565b61194f60016118ce565b906118ea565b61197661196061135d565b61197061196b611b45565b61190f565b906118ea565b9192611dc9565b90565b61198861141b565b503390565b9161199b9291600192611e92565b565b906119ef916119aa611064565b50906119cd6119b761135d565b6119c76119c2611b45565b61190f565b906118ea565b6119e86119d861110c565b6119e260016118ce565b906118ea565b9192611dc9565b90565b906119fd910361027f565b90565b929192611a0e81839061181c565b9081611a23611a1d5f1961027f565b9161027f565b10611a30575b5050509050565b81611a43611a3d8761027f565b9161027f565b10611a6957611a609394611a589193926119f2565b905f92611e92565b805f8080611a29565b50611a88849291925f938493637dc7a0d960e11b85526004850161147a565b0390fd5b9182611aa8611aa2611a9d5f61158c565b6104b0565b916104b0565b14611b025781611ac8611ac2611abd5f61158c565b6104b0565b916104b0565b14611adb57611ad992919091611faf565b565b611afe611ae75f61158c565b5f91829163ec442f0560e01b835260048301610706565b0390fd5b611b25611b0e5f61158c565b5f918291634b637e8f60e11b835260048301610706565b0390fd5b611b3d611b38611b429261156d565b610308565b610667565b90565b611b4d6113a2565b50611b575f611b29565b90565b916020611b7b929493611b7460408201965f830190610282565b0190610282565b565b611ba2611b90611b8b61141f565b611074565b82611b9a30611080565b90869261211e565b611bad828590612169565b909192611be3611bdd7fdcbc1c05240f31ff3ad067ef1ee35ce4997762752e3a095284754544f4c709d79361151b565b9361151b565b93611bf8611bef610262565b92839283611b5a565b0390a3565b611c056115e1565b611c1e611c18611c13611980565b6104b0565b916104b0565b03611c2557565b611c47611c30611980565b5f91829163118cdaa760e01b835260048301610706565b0390fd5b5f1b90565b90611c6160018060a01b0391611c4b565b9181191691161790565b90565b90611c83611c7e611c8a9261151b565b611c6b565b8254611c50565b9055565b611c9860056115d4565b611ca3826005611c6e565b90611cd7611cd17f8be0079c531659141344cd1fd0a4f28419497f9722a3daafe3b4186f6b6457e09361151b565b9161151b565b91611ce0610262565b80611cea8161097e565b0390a3565b80611d02611cfc856104b0565b916104b0565b03611d88575b611d138386906121c7565b611d2e611d26611d2161141f565b611074565b838691612226565b90919293611d6e611d68611d627ffbde797d201c681b91056529119e0b02407c7bb96a4a2c75c01fc9667232c8db9461151b565b9461151b565b9461151b565b94611d83611d7a610262565b92839283611b5a565b0390a4565b611d9483828791611a00565b611d08565b634e487b7160e01b5f52601260045260245ffd5b611dc1611dbc611dc69261156d565b610308565b61027f565b90565b929190611dd4611064565b50611dea611de485838591612333565b936125b5565b9384611e09575b505050611e00611e06926125f1565b906118ea565b90565b9091935090928015611e3857611e0693611e009209611e30611e2a5f611dad565b9161027f565b11925f611df1565b611d99565b90611e495f1991611c4b565b9181191691161790565b611e67611e62611e6c9261027f565b610308565b61027f565b90565b90565b90611e87611e82611e8e92611e53565b611e6f565b8254611e3d565b9055565b909281611eaf611ea9611ea45f61158c565b6104b0565b916104b0565b14611f7a5783611ecf611ec9611ec45f61158c565b6104b0565b916104b0565b14611f5357611ef383611eee611ee760018690611806565b8790611527565b611e72565b611efd575b505050565b919091611f48611f36611f307f8c5be1e5ebec7d5bd14f71427d1e84f3dd0314c0f7b2291e5b200ac8c7c3b9259361151b565b9361151b565b93611f3f610262565b9182918261028f565b0390a35f8080611ef8565b611f76611f5f5f61158c565b5f918291634a1406b160e11b835260048301610706565b0390fd5b611f9d611f865f61158c565b5f91829163e602df0560e01b835260048301610706565b0390fd5b90611fac910161027f565b90565b91909180611fcd611fc7611fc25f61158c565b6104b0565b916104b0565b145f146120ae57611ff1611fea83611fe56002611350565b6118ea565b6002611e72565b5b8261200d6120076120025f61158c565b6104b0565b916104b0565b145f146120825761203161202a836120256002611350565b6119f2565b6002611e72565b5b91909161207d61206b6120657fddf252ad1be2c89b69c2b068fc378daa952ba7f163c4a11628f55a4df523b3ef9361151b565b9361151b565b93612074610262565b9182918261028f565b0390a3565b6120a9826120a36120945f8790611527565b9161209e83611350565b611fa1565b90611e72565b612032565b6120c16120bc5f8390611527565b611350565b806120d46120ce8561027f565b9161027f565b106120fc576120e76120f79184906119f2565b6120f25f8490611527565b611e72565b611ff2565b9061211a9091925f93849363391434e360e21b85526004850161147a565b0390fd5b929061213b926121359285929190916001936125ff565b1561050c565b6121425750565b61214e61216591610f32565b5f918291635274afe760e01b835260048301610706565b0390fd5b8061218461217e6121795f61158c565b6104b0565b916104b0565b146121a05761219e916121965f61158c565b919091611faf565b565b6121c36121ac5f61158c565b5f91829163ec442f0560e01b835260048301610706565b0390fd5b90816121e36121dd6121d85f61158c565b6104b0565b916104b0565b146121ff576121fd91906121f65f61158c565b9091611faf565b565b61222261220b5f61158c565b5f918291634b637e8f60e11b835260048301610706565b0390fd5b9161223f91612239918491600192612678565b1561050c565b6122465750565b61225261226991610f32565b5f918291635274afe760e01b835260048301610706565b0390fd5b61227961227f9161027f565b9161027f565b90811561228a570490565b611d99565b90565b6122a66122a16122ab9261228f565b610308565b61027f565b90565b6122b86012612292565b90565b90565b6122d26122cd6122d7926122bb565b610308565b61027f565b90565b6122e460116122be565b90565b906122f2910261027f565b90565b90565b61230c612307612311926122f5565b610308565b61027f565b90565b90565b61232b61232661233092612314565b610308565b61027f565b90565b9092919261233f611064565b5061234b8282906126e2565b919091928261236261235c5f611dad565b9161027f565b1461250f578561237a6123748561027f565b9161027f565b11156124dd576124d492866124da9697936123cb93612397611064565b50099085821190039403936001836123b85f6123b38791611dad565b6119f2565b1680809504960493805f030401906122e7565b17916124ce6124b261248e61246a6124466124226123f360036123ee89916122f8565b6122e7565b6123fd6002612317565b1861241c60026124176124118b85906122e7565b91612317565b6119f2565b906122e7565b612440600261243b6124358a85906122e7565b91612317565b6119f2565b906122e7565b612464600261245f6124598985906122e7565b91612317565b6119f2565b906122e7565b612488600261248361247d8885906122e7565b91612317565b6119f2565b906122e7565b6124ac60026124a76124a18785906122e7565b91612317565b6119f2565b906122e7565b916124c96124c360029285906122e7565b91612317565b6119f2565b906122e7565b906122e7565b90565b61250a866124f36124ed5f611dad565b9161027f565b146124fc6122ae565b6125046122da565b91612707565b61272b565b5050509161251d919261226d565b90565b634e487b7160e01b5f52602160045260245ffd5b6004111561253e57565b612520565b9061254d82612534565b565b61255890612543565b90565b61256f61256a61257492612314565b610308565b610667565b90565b61258361258991610667565b91610667565b908115612594570690565b611d99565b6125ad6125a86125b2926118cb565b610308565b610667565b90565b6125ca6125da916125c46112f6565b5061254f565b6125d4600261255b565b90612577565b6125ed6125e76001612599565b91610667565b1490565b6125f9611064565b50151590565b9194939492909261260e6112f6565b506323b872dd60e01b93604051945f525f1960601c166004525f1960601c1660245260445260205f60648180855af19360015f5114851615612656575b50506040525f606052565b849294151661266f575f903b113d151616915f8061264b565b833d5f823e3d90fd5b90919392936126856112f6565b5063a9059cbb60e01b92604051935f525f1960601c1660045260245260205f60448180855af19360015f51148516156126c0575b5050604052565b84929415166126d9575f903b113d151616915f806126b9565b833d5f823e3d90fd5b906126eb611064565b506126f4611064565b505f198183099102908180821091030391565b6127216127279293612717611064565b50809418916125f1565b906122e7565b1890565b634e487b715f526020526024601cfdfea2646970667358221220810f3f1f92cf3db2b2bbb7bb0924732fdee5c3a5d884953fc73ab4af0f77855d64736f6c634300081e0033","linkReferences":{}},"methodIdentifiers":{"allowance(address,address)":"dd62ed3e","approve(address,uint256)":"095ea7b3","asset()":"38d52e0f","balanceOf(address)":"70a08231","convertToAssets(uint256)":"07a2d13a","convertToShares(uint256)":"c6e6f592","dToken()":"d9d7858a","decimals()":"313ce567","deposit(uint256,address)":"6e553f65","executeOperation(address[],uint256[],uint256[],address,bytes)":"920f5c84","fluidFlashLoanRouter()":"5a58aa0c","fluidVault()":"6ab3c5cd","fluidVaultResolver()":"035fa74c","instaFlashAggregator()":"bc3cd323","leverage()":"2c86d98e","maxDeposit(address)":"402d267d","maxMint(address)":"c63d75b6","maxRedeem(address)":"d905777e","maxWithdraw(address)":"ce96cb77","mint(uint256,address)":"94bf804d","name()":"06fdde03","owner()":"8da5cb5b","previewDeposit(uint256)":"ef8b30f7","previewMint(uint256)":"b3d7f6b9","previewRedeem(uint256)":"4cdad506","previewWithdraw(uint256)":"0a28a477","redeem(uint256,address,address)":"ba087652","renounceOwnership()":"715018a6","symbol()":"95d89b41","totalAssets()":"01e1d114","totalSupply()":"18160ddd","transfer(address,uint256)":"a9059cbb","transferFrom(address,address,uint256)":"23b872dd","transferOwnership(address)":"f2fde38b","uniswapRouter()":"735de9f7","withdraw(uint256,address,address)":"b460af94"},"id":25}