{"abi":[{"type":"constructor","inputs":[{"name":"_name","type":"string","internalType":"string"},{"name":"_symbol","type":"string","internalType":"string"}],"stateMutability":"nonpayable"},{"type":"function","name":"allowance","inputs":[{"name":"owner","type":"address","internalType":"address"},{"name":"spender","type":"address","internalType":"address"}],"outputs":[{"name":"","type":"uint256","internalType":"uint256"}],"stateMutability":"view"},{"type":"function","name":"approve","inputs":[{"name":"spender","type":"address","internalType":"address"},{"name":"value","type":"uint256","internalType":"uint256"}],"outputs":[{"name":"","type":"bool","internalType":"bool"}],"stateMutability":"nonpayable"},{"type":"function","name":"balanceOf","inputs":[{"name":"account","type":"address","internalType":"address"}],"outputs":[{"name":"","type":"uint256","internalType":"uint256"}],"stateMutability":"view"},{"type":"function","name":"blockTransfer","inputs":[{"name":"blocking","type":"bool","internalType":"bool"}],"outputs":[],"stateMutability":"nonpayable"},{"type":"function","name":"blocked","inputs":[],"outputs":[{"name":"","type":"bool","internalType":"bool"}],"stateMutability":"view"},{"type":"function","name":"burn","inputs":[{"name":"value","type":"uint256","internalType":"uint256"}],"outputs":[],"stateMutability":"nonpayable"},{"type":"function","name":"burn","inputs":[{"name":"from","type":"address","internalType":"address"},{"name":"amount","type":"uint256","internalType":"uint256"}],"outputs":[{"name":"","type":"bool","internalType":"bool"}],"stateMutability":"nonpayable"},{"type":"function","name":"burnFrom","inputs":[{"name":"account","type":"address","internalType":"address"},{"name":"value","type":"uint256","internalType":"uint256"}],"outputs":[],"stateMutability":"nonpayable"},{"type":"function","name":"decimals","inputs":[],"outputs":[{"name":"","type":"uint8","internalType":"uint8"}],"stateMutability":"view"},{"type":"function","name":"mint","inputs":[{"name":"to","type":"address","internalType":"address"},{"name":"amount","type":"uint256","internalType":"uint256"}],"outputs":[{"name":"","type":"bool","internalType":"bool"}],"stateMutability":"nonpayable"},{"type":"function","name":"name","inputs":[],"outputs":[{"name":"","type":"string","internalType":"string"}],"stateMutability":"view"},{"type":"function","name":"noReturnData","inputs":[],"outputs":[{"name":"","type":"bool","internalType":"bool"}],"stateMutability":"view"},{"type":"function","name":"setNoReturnData","inputs":[{"name":"noReturn","type":"bool","internalType":"bool"}],"outputs":[],"stateMutability":"nonpayable"},{"type":"function","name":"symbol","inputs":[],"outputs":[{"name":"","type":"string","internalType":"string"}],"stateMutability":"view"},{"type":"function","name":"totalSupply","inputs":[],"outputs":[{"name":"","type":"uint256","internalType":"uint256"}],"stateMutability":"view"},{"type":"function","name":"transfer","inputs":[{"name":"to","type":"address","internalType":"address"},{"name":"value","type":"uint256","internalType":"uint256"}],"outputs":[{"name":"","type":"bool","internalType":"bool"}],"stateMutability":"nonpayable"},{"type":"function","name":"transferFrom","inputs":[{"name":"from","type":"address","internalType":"address"},{"name":"to","type":"address","internalType":"address"},{"name":"amount","type":"uint256","internalType":"uint256"}],"outputs":[{"name":"ok","type":"bool","internalType":"bool"}],"stateMutability":"nonpayable"},{"type":"event","name":"Approval","inputs":[{"name":"owner","type":"address","indexed":true,"internalType":"address"},{"name":"spender","type":"address","indexed":true,"internalType":"address"},{"name":"value","type":"uint256","indexed":false,"internalType":"uint256"}],"anonymous":false},{"type":"event","name":"Transfer","inputs":[{"name":"from","type":"address","indexed":true,"internalType":"address"},{"name":"to","type":"address","indexed":true,"internalType":"address"},{"name":"value","type":"uint256","indexed":false,"internalType":"uint256"}],"anonymous":false},{"type":"error","name":"ERC20InsufficientAllowance","inputs":[{"name":"spender","type":"address","internalType":"address"},{"name":"allowance","type":"uint256","internalType":"uint256"},{"name":"needed","type":"uint256","internalType":"uint256"}]},{"type":"error","name":"ERC20InsufficientBalance","inputs":[{"name":"sender","type":"address","internalType":"address"},{"name":"balance","type":"uint256","internalType":"uint256"},{"name":"needed","type":"uint256","internalType":"uint256"}]},{"type":"error","name":"ERC20InvalidApprover","inputs":[{"name":"approver","type":"address","internalType":"address"}]},{"type":"error","name":"ERC20InvalidReceiver","inputs":[{"name":"receiver","type":"address","internalType":"address"}]},{"type":"error","name":"ERC20InvalidSender","inputs":[{"name":"sender","type":"address","internalType":"address"}]},{"type":"error","name":"ERC20InvalidSpender","inputs":[{"name":"spender","type":"address","internalType":"address"}]}],"bytecode":{"object":"0x60806040523462000038576200001f62000018620001cc565b9062000291565b620000296200003e565b61125b62000580823961125b90f35b62000044565b60405190565b5f80fd5b601f801991011690565b634e487b7160e01b5f52604160045260245ffd5b90620000729062000048565b810190811060018060401b038211176200008b57604052565b62000052565b90620000a8620000a06200003e565b928362000066565b565b5f80fd5b5f80fd5b5f80fd5b5f80fd5b60018060401b038111620000d957620000d560209162000048565b0190565b62000052565b5f5b838110620000f2575050905f910152565b806020918301518185015201620000e1565b909291926200011d6200011782620000ba565b62000091565b938185526020850190828401116200013c576200013a92620000df565b565b620000b6565b9080601f830112156200016357816020620001609351910162000104565b90565b620000b2565b919091604081840312620001c6575f81015160018060401b038111620001c057836200019791830162000142565b92602082015160018060401b038111620001ba57620001b7920162000142565b90565b620000ae565b620000ae565b620000aa565b620001ef620017db80380380620001e38162000091565b92833981019062000169565b9091565b5f1b90565b906200020660ff91620001f3565b9181191691161790565b151590565b620002209062000210565b90565b90565b90620002406200023a620002489262000215565b62000223565b8254620001f8565b9055565b60081b90565b906200026161ff00916200024c565b9181191691161790565b90620002856200027f6200028d9262000215565b62000223565b825462000252565b9055565b906200029d91620002b9565b620002aa5f600562000226565b620002b75f60056200026b565b565b90620002c59162000563565b565b5190565b634e487b7160e01b5f52602260045260245ffd5b906001600283049216801562000302575b6020831014620002fc57565b620002cb565b91607f1691620002f0565b5f5260205f2090565b601f602091010490565b1b90565b91906008620003439102916200033c5f198462000320565b9262000320565b9181191691161790565b90565b90565b6200036c6200036662000372926200034d565b62000350565b6200034d565b90565b90565b9190620003936200038d6200039c9362000353565b62000375565b90835462000324565b9055565b5f90565b620003ba91620003b3620003a0565b9162000378565b565b5b818110620003c9575050565b80620003d85f600193620003a4565b01620003bd565b9190601f8111620003f0575b505050565b620003ff6200042a936200030d565b9060206200040d8462000316565b8301931062000433575b620004229062000316565b0190620003bc565b5f8080620003eb565b9150620004228192905062000417565b1c90565b9062000459905f199060080262000443565b191690565b816200046a9162000447565b906002021790565b906200047e81620002c7565b9060018060401b0382116200054f57620004a5826200049e8554620002df565b85620003df565b602090601f8311600114620004de57918091620004cc935f92620004d1575b50506200045e565b90555b565b90915001515f80620004c4565b601f19831691620004ef856200030d565b925f5b818110620005365750916002939185600196941062000519575b50505002019055620004cf565b6200052b910151601f84169062000447565b90555f80806200050c565b91936020600181928787015181550195019201620004f2565b62000052565b90620005619162000472565b565b90620005756200057d92600362000555565b600462000555565b56fe60806040526004361015610013575b61078c565b61001d5f3561012c565b806306fdde0314610127578063095ea7b31461012257806318160ddd1461011d5780631b2438451461011857806323b872dd14610113578063303bdd2c1461010e578063313ce5671461010957806340c10f191461010457806342966c68146100ff57806370a08231146100fa57806379cc6790146100f557806395d89b41146100f05780639dc29fac146100eb578063a9059cbb146100e6578063cd1b5b71146100e1578063dd62ed3e146100dc5763e074d6a90361000e57610759565b610723565b6106c3565b61064c565b610616565b6105e1565b6105ad565b610578565b610527565b6104ce565b610499565b61043c565b6103f7565b610388565b610313565b6102bb565b6101d2565b60e01c90565b60405190565b5f80fd5b5f80fd5b5f91031261014a57565b61013c565b5190565b60209181520190565b5f5b83811061016e575050905f910152565b80602091830151818501520161015e565b601f801991011690565b6101a86101b16020936101b69361019f8161014f565b93848093610153565b9586910161015c565b61017f565b0190565b6101cf9160208201915f818403910152610189565b90565b34610202576101e2366004610140565b6101fe6101ed610a4e565b6101f5610132565b918291826101ba565b0390f35b610138565b60018060a01b031690565b61021b90610207565b90565b61022781610212565b0361022e57565b5f80fd5b9050359061023f8261021e565b565b90565b61024d81610241565b0361025457565b5f80fd5b9050359061026582610244565b565b919060408382031261028f578061028361028c925f8601610232565b93602001610258565b90565b61013c565b151590565b6102a290610294565b9052565b91906102b9905f60208501940190610299565b565b346102ec576102e86102d76102d1366004610267565b90610bbc565b6102df610132565b918291826102a6565b0390f35b610138565b6102fa90610241565b9052565b9190610311905f602085019401906102f1565b565b3461034357610323366004610140565b61033f61032e610ade565b610336610132565b918291826102fe565b0390f35b610138565b1c90565b60ff1690565b6103629060086103679302610348565b61034c565b90565b906103759154610352565b90565b610385600560019061036a565b90565b346103b857610398366004610140565b6103b46103a3610378565b6103ab610132565b918291826102a6565b0390f35b610138565b90916060828403126103f2576103ef6103d8845f8501610232565b936103e68160208601610232565b93604001610258565b90565b61013c565b346104285761042461041361040d3660046103bd565b916108b2565b61041b610132565b918291826102a6565b0390f35b610138565b61043960055f9061036a565b90565b3461046c5761044c366004610140565b61046861045761042d565b61045f610132565b918291826102a6565b0390f35b610138565b60ff1690565b61048090610471565b9052565b9190610497905f60208501940190610477565b565b346104c9576104a9366004610140565b6104c56104b4610aa0565b6104bc610132565b91829182610484565b0390f35b610138565b346104ff576104fb6104ea6104e4366004610267565b90610835565b6104f2610132565b918291826102a6565b0390f35b610138565b9060208282031261051d5761051a915f01610258565b90565b61013c565b5f0190565b346105555761053f61053a366004610504565b6111e2565b610547610132565b8061055181610522565b0390f35b610138565b9060208282031261057357610570915f01610232565b90565b61013c565b346105a8576105a461059361058e36600461055a565b610b3e565b61059b610132565b918291826102fe565b0390f35b610138565b346105dc576105c66105c0366004610267565b906111f5565b6105ce610132565b806105d881610522565b0390f35b610138565b34610611576105f1366004610140565b61060d6105fc610a64565b610604610132565b918291826101ba565b0390f35b610138565b346106475761064361063261062c366004610267565b9061084d565b61063a610132565b918291826102a6565b0390f35b610138565b3461067d57610679610668610662366004610267565b90610b5c565b610670610132565b918291826102a6565b0390f35b610138565b61068b81610294565b0361069257565b5f80fd5b905035906106a382610682565b565b906020828203126106be576106bb915f01610696565b90565b61013c565b346106f1576106db6106d63660046106a5565b610824565b6106e3610132565b806106ed81610522565b0390f35b610138565b919060408382031261071e578061071261071b925f8601610232565b93602001610232565b90565b61013c565b346107545761075061073f6107393660046106f6565b90610b94565b610747610132565b918291826102fe565b0390f35b610138565b346107875761077161076c3660046106a5565b6107da565b610779610132565b8061078381610522565b0390f35b610138565b5f80fd5b5f1b90565b906107a160ff91610790565b9181191691161790565b6107b490610294565b90565b90565b906107cf6107ca6107d6926107ab565b6107b7565b8254610795565b9055565b6107e59060056107ba565b565b60081b90565b906107fa61ff00916107e7565b9181191691161790565b90610819610814610820926107ab565b6107b7565b82546107ed565b9055565b61082f906005610804565b565b5f90565b9061084891610842610831565b50610f57565b600190565b906108609161085a610831565b50610fbc565b600190565b5f1c90565b61087661087b91610865565b61034c565b90565b610888905461086a565b90565b60081c90565b61089d6108a29161088b565b61034c565b90565b6108af9054610891565b90565b916108bb610831565b506108c6600561087e565b6108ee576108d692919091610bde565b506108e160056108a5565b6108ea57600190565b5f80f35b5050505f90565b606090565b634e487b7160e01b5f52602260045260245ffd5b906001600283049216801561092e575b602083101461092957565b6108fa565b91607f169161091e565b60209181520190565b5f5260205f2090565b905f929180549061096461095d8361090e565b8094610938565b916001811690815f146109bb575060011461097f575b505050565b61098c9192939450610941565b915f925b8184106109a357505001905f808061097a565b60018160209295939554848601520191019290610990565b92949550505060ff19168252151560200201905f808061097a565b906109e09161094a565b90565b634e487b7160e01b5f52604160045260245ffd5b90610a019061017f565b810190811067ffffffffffffffff821117610a1b57604052565b6109e3565b90610a40610a3992610a30610132565b938480926109d6565b03836109f7565b565b610a4b90610a20565b90565b610a566108f5565b50610a616003610a42565b90565b610a6c6108f5565b50610a776004610a42565b90565b5f90565b90565b90565b610a98610a93610a9d92610a7e565b610a81565b610471565b90565b610aa8610a7a565b50610ab36012610a84565b90565b5f90565b90565b610ac9610ace91610865565b610aba565b90565b610adb9054610abd565b90565b610ae6610ab6565b50610af16002610ad1565b90565b610b08610b03610b0d92610207565b610a81565b610207565b90565b610b1990610af4565b90565b610b2590610b10565b90565b90610b3290610b1c565b5f5260205260405f2090565b610b54610b5991610b4d610ab6565b505f610b28565b610ad1565b90565b610b7991610b68610831565b50610b71611218565b919091610c5a565b600190565b90610b8890610b1c565b5f5260205260405f2090565b610bb991610baf610bb492610ba7610ab6565b506001610b7e565b610b28565b610ad1565b90565b610bd991610bc8610831565b50610bd1611218565b919091611022565b600190565b91610c0892610beb610831565b50610c00610bf7611218565b8290849161114f565b919091610c5a565b600190565b90565b610c24610c1f610c2992610c0d565b610a81565b610207565b90565b610c3590610c10565b90565b610c4190610212565b9052565b9190610c58905f60208501940190610c38565b565b9182610c76610c70610c6b5f610c2c565b610212565b91610212565b14610cd75781610c96610c90610c8b5f610c2c565b610212565b91610212565b14610ca957610ca792919091610de1565b565b610cd3610cb55f610c2c565b610cbd610132565b91829163ec442f0560e01b835260048301610c45565b0390fd5b610d01610ce35f610c2c565b610ceb610132565b918291634b637e8f60e11b835260048301610c45565b0390fd5b604090610d2e610d359496959396610d2460608401985f850190610c38565b60208301906102f1565b01906102f1565b565b90610d429103610241565b90565b90610d515f1991610790565b9181191691161790565b610d6f610d6a610d7492610241565b610a81565b610241565b90565b90565b90610d8f610d8a610d9692610d5b565b610d77565b8254610d45565b9055565b634e487b7160e01b5f52601160045260245ffd5b610dbd610dc391939293610241565b92610241565b8201809211610dce57565b610d9a565b90610dde9101610241565b90565b91909180610dff610df9610df45f610c2c565b610212565b91610212565b145f14610ee057610e23610e1c83610e176002610ad1565b610dae565b6002610d7a565b5b82610e3f610e39610e345f610c2c565b610212565b91610212565b145f14610eb457610e63610e5c83610e576002610ad1565b610d37565b6002610d7a565b5b919091610eaf610e9d610e977fddf252ad1be2c89b69c2b068fc378daa952ba7f163c4a11628f55a4df523b3ef93610b1c565b93610b1c565b93610ea6610132565b918291826102fe565b0390a3565b610edb82610ed5610ec65f8790610b28565b91610ed083610ad1565b610dd3565b90610d7a565b610e64565b610ef3610eee5f8390610b28565b610ad1565b80610f06610f0085610241565b91610241565b10610f2e57610f19610f29918490610d37565b610f245f8490610b28565b610d7a565b610e24565b90610f53909192610f3d610132565b93849363391434e360e21b855260048501610d05565b0390fd5b80610f72610f6c610f675f610c2c565b610212565b91610212565b14610f8e57610f8c91610f845f610c2c565b919091610de1565b565b610fb8610f9a5f610c2c565b610fa2610132565b91829163ec442f0560e01b835260048301610c45565b0390fd5b9081610fd8610fd2610fcd5f610c2c565b610212565b91610212565b14610ff457610ff29190610feb5f610c2c565b9091610de1565b565b61101e6110005f610c2c565b611008610132565b918291634b637e8f60e11b835260048301610c45565b0390fd5b916110309291600192611032565b565b90928161104f6110496110445f610c2c565b610212565b91610212565b14611121578361106f6110696110645f610c2c565b610212565b91610212565b146110f3576110938361108e61108760018690610b7e565b8790610b28565b610d7a565b61109d575b505050565b9190916110e86110d66110d07f8c5be1e5ebec7d5bd14f71427d1e84f3dd0314c0f7b2291e5b200ac8c7c3b92593610b1c565b93610b1c565b936110df610132565b918291826102fe565b0390a35f8080611098565b61111d6110ff5f610c2c565b611107610132565b918291634a1406b160e11b835260048301610c45565b0390fd5b61114b61112d5f610c2c565b611135610132565b91829163e602df0560e01b835260048301610c45565b0390fd5b92919261115d818390610b94565b908161117261116c5f19610241565b91610241565b1061117f575b5050509050565b8161119261118c87610241565b91610241565b106111b8576111af93946111a7919392610d37565b905f92611032565b805f8080611178565b506111de849291926111c8610132565b938493637dc7a0d960e11b855260048501610d05565b0390fd5b6111f3906111ee611218565b610fbc565b565b906112129161120d81611206611218565b849161114f565b610fbc565b565b5f90565b611220611214565b50339056fea2646970667358221220836604f714180ff9aa52611dd13b4ac0c53a054c8f7765c32e4ecbaed13c2bc164736f6c63430008150033","linkReferences":{}},"methodIdentifiers":{"allowance(address,address)":"dd62ed3e","approve(address,uint256)":"095ea7b3","balanceOf(address)":"70a08231","blockTransfer(bool)":"e074d6a9","blocked()":"303bdd2c","burn(address,uint256)":"9dc29fac","burn(uint256)":"42966c68","burnFrom(address,uint256)":"79cc6790","decimals()":"313ce567","mint(address,uint256)":"40c10f19","name()":"06fdde03","noReturnData()":"1b243845","setNoReturnData(bool)":"cd1b5b71","symbol()":"95d89b41","totalSupply()":"18160ddd","transfer(address,uint256)":"a9059cbb","transferFrom(address,address,uint256)":"23b872dd"},"id":73}