{"abi":[{"type":"constructor","inputs":[{"name":"liquidity_","type":"address","internalType":"address"},{"name":"vaultAdminImplementation_","type":"address","internalType":"address"},{"name":"vaultSecondaryImplementation_","type":"address","internalType":"address"}],"stateMutability":"nonpayable"},{"type":"function","name":"ADDRESS_THIS","inputs":[],"outputs":[{"name":"","type":"address","internalType":"address"}],"stateMutability":"view"},{"type":"function","name":"ADMIN_IMPLEMENTATION","inputs":[],"outputs":[{"name":"","type":"address","internalType":"address"}],"stateMutability":"view"},{"type":"function","name":"LIQUIDITY","inputs":[],"outputs":[{"name":"","type":"address","internalType":"address"}],"stateMutability":"view"},{"type":"function","name":"SECONDARY_IMPLEMENTATION","inputs":[],"outputs":[{"name":"","type":"address","internalType":"address"}],"stateMutability":"view"},{"type":"function","name":"vaultT1","inputs":[{"name":"supplyToken_","type":"address","internalType":"address"},{"name":"borrowToken_","type":"address","internalType":"address"}],"outputs":[{"name":"vaultCreationBytecode_","type":"bytes","internalType":"bytes"}],"stateMutability":"nonpayable"},{"type":"function","name":"vaultT1CreationBytecode","inputs":[],"outputs":[{"name":"","type":"bytes","internalType":"bytes"}],"stateMutability":"view"},{"type":"event","name":"VaultT1Deployed","inputs":[{"name":"vault","type":"address","indexed":true,"internalType":"address"},{"name":"vaultId","type":"uint256","indexed":false,"internalType":"uint256"},{"name":"supplyToken","type":"address","indexed":true,"internalType":"address"},{"name":"borrowToken","type":"address","indexed":true,"internalType":"address"}],"anonymous":false},{"type":"error","name":"FluidLiquidateResult","inputs":[{"name":"colLiquidated","type":"uint256","internalType":"uint256"},{"name":"debtLiquidated","type":"uint256","internalType":"uint256"}]},{"type":"error","name":"FluidVaultError","inputs":[{"name":"errorId_","type":"uint256","internalType":"uint256"}]}],"bytecode":{"object":"0x610140604052346200008c57620000206200001962000185565b91620002ba565b6200002a62000092565b6111da62000889823960805181610d86015260a05181610daf015260c05181818160a101526108e5015260e05181818161029d01526109260152610100518181816101eb0152610953015261012051818181610244015261089001526111da90f35b62000098565b60405190565b5f80fd5b601f801991011690565b634e487b7160e01b5f52604160045260245ffd5b90620000c6906200009c565b810190811060018060401b03821117620000df57604052565b620000a6565b90620000fc620000f462000092565b9283620000ba565b565b5f80fd5b60018060a01b031690565b620001189062000102565b90565b62000126816200010d565b036200012e57565b5f80fd5b9050519062000141826200011b565b565b90916060828403126200017f576200017c62000162845f850162000132565b9362000172816020860162000132565b9360400162000132565b90565b620000fe565b620001a86200d718803803806200019c81620000e5565b92833981019062000143565b909192565b5190565b90565b90565b90565b620001d3620001cd620001d992620001b1565b620001b7565b620001b4565b90565b634e487b7160e01b5f52601260045260245ffd5b634e487b7160e01b5f52601160045260245ffd5b620002136200021a91620001b4565b91620001b4565b90811562000226570490565b620001dc565b90565b62000248620002426200024e926200022c565b620001b7565b620001b4565b90565b620002636200026a91939293620001b4565b92620001b4565b82039182116200027657565b620001f0565b620002956200028f6200029b9262000102565b620001b7565b62000102565b90565b620002a9906200027c565b90565b620002b7906200029e565b90565b60c05260e05261010052620003b7620003b1620002f461bcb5620002e160208201620000e5565b9080825262001a636020830139620001ad565b6200034c6200034661bcb56200030d60208201620000e5565b9080825262001a6360208301395f906200033f6200033886620003316002620001ba565b9062000204565b926200022f565b9062000543565b620007e6565b60805261bcb5906200036160208301620000e5565b9180835262001a636020840139620003aa6200038a82620003836002620001ba565b9062000204565b91620003a3816200039c6002620001ba565b9062000204565b9062000251565b9162000543565b620007e6565b60a052620003c530620002ac565b61012052565b606090565b90565b620003ec620003e6620003f292620003d0565b620001b7565b620001b4565b90565b620004076200040e91939293620001b4565b92620001b4565b82018092116200041a57565b620001f0565b60209181520190565b5f7f736c6963655f6f766572666c6f77000000000000000000000000000000000000910152565b6200045f600e60209262000420565b6200046a8162000429565b0190565b620004859060208101905f81830391015262000450565b90565b156200049057565b6200049a62000092565b62461bcd60e51b815280620004b2600482016200046e565b0390fd5b5f7f736c6963655f6f75744f66426f756e6473000000000000000000000000000000910152565b620004ec601160209262000420565b620004f781620004b6565b0190565b620005129060208101905f818303910152620004dd565b90565b156200051d57565b6200052762000092565b62461bcd60e51b8152806200053f60048201620004fb565b0390fd5b90916200054f620003cb565b506200058a6200056c8262000565601f620003d3565b90620003f5565b620005826200057b84620001b4565b91620001b4565b101562000488565b620005c36200059983620001ad565b620005bb620005b4620005ae878690620003f5565b620001b4565b91620001b4565b101562000515565b620005cd620003cb565b5080155f14620005eb575050506040515f8152602081016040525b90565b60405192601f8216908115602002828601019383850192801560200291010101905b808410620006295750508252601f8019910116604052620005e8565b90926020809185518152019301906200060d565b5f90565b905090565b5f80910152565b6200065b6001809262000641565b620006668162000646565b0190565b905090565b5f5b83811062000682575050905f910152565b80602091830151818501520162000671565b620006bf620006b592602092620006ab81620001ad565b948580936200066a565b938491016200066f565b0190565b90620006d3620006da926200064d565b9062000694565b90565b5f6a600b5981380380925939f360a81b910152565b62000700600b809262000641565b6200070b81620006dd565b0190565b906200071f6200072692620006f2565b9062000694565b90565b620007426200073c62000748926200022c565b620001b7565b62000102565b90565b620007569062000729565b90565b5f7f4445504c4f594d454e545f4641494c4544000000000000000000000000000000910152565b6200078f601160209262000420565b6200079a8162000759565b0190565b620007b59060208101905f81830391015262000780565b90565b15620007c057565b620007ca62000092565b62461bcd60e51b815280620007e2600482016200079e565b0390fd5b6200085062000819620008296200084093620008016200063d565b506200080c62000092565b92839160208301620006c3565b60208201810382520382620000ba565b6200083362000092565b928391602083016200070f565b60208201810382520382620000ba565b6020815191015ff09062000886826200087e62000877620008715f6200074b565b6200010d565b916200010d565b1415620007b8565b56fe60806040526004361015610013575b61037a565b61001d5f3561007c565b80632861c7d11461007757806368f4787e14610072578063a07ddc171461006d578063cc025f7c14610068578063cc2fe94b146100635763f9f872f50361000e57610344565b6102bf565b610266565b61020d565b6101b4565b6100fc565b60e01c90565b60405190565b5f80fd5b5f80fd5b5f91031261009a57565b61008c565b7f000000000000000000000000000000000000000000000000000000000000000090565b60018060a01b031690565b6100d7906100c3565b90565b6100e3906100ce565b9052565b91906100fa905f602085019401906100da565b565b3461012c5761010c366004610090565b61012861011761009f565b61011f610082565b918291826100e7565b0390f35b610088565b5190565b60209181520190565b5f5b838110610150575050905f910152565b806020918301518185015201610140565b601f801991011690565b61018a6101936020936101989361018181610131565b93848093610135565b9586910161013e565b610161565b0190565b6101b19160208201915f81840391015261016b565b90565b346101e4576101c4366004610090565b6101e06101cf610d75565b6101d7610082565b9182918261019c565b0390f35b610088565b7f000000000000000000000000000000000000000000000000000000000000000090565b3461023d5761021d366004610090565b6102396102286101e9565b610230610082565b918291826100e7565b0390f35b610088565b7f000000000000000000000000000000000000000000000000000000000000000090565b3461029657610276366004610090565b610292610281610242565b610289610082565b918291826100e7565b0390f35b610088565b7f000000000000000000000000000000000000000000000000000000000000000090565b346102ef576102cf366004610090565b6102eb6102da61029b565b6102e2610082565b918291826100e7565b0390f35b610088565b6102fd816100ce565b0361030457565b5f80fd5b90503590610315826102f4565b565b919060408382031261033f578061033361033c925f8601610308565b93602001610308565b90565b61008c565b346103755761037161036061035a366004610317565b90610876565b610368610082565b9182918261019c565b0390f35b610088565b5f80fd5b606090565b90565b61039a61039561039f926100c3565b610383565b6100c3565b90565b6103ab90610386565b90565b6103b7906103a2565b90565b90565b90565b6103d46103cf6103d9926103ba565b610383565b6103bd565b90565b6103e76175376103c0565b90565b6103f3906103bd565b9052565b919061040a905f602085019401906103ea565b565b90565b61042361041e6104289261040c565b610383565b6103bd565b90565b61043661753361040f565b90565b634e487b7160e01b5f52604160045260245ffd5b9061045790610161565b810190811067ffffffffffffffff82111761047157604052565b610439565b90610489610482610082565b928361044d565b565b6104966101a0610476565b90565b5f90565b5f90565b5f90565b5f90565b6020908180808080808080808080806104c061048b565b9d8e6104ca610499565b8152016104d5610499565b8152016104e0610499565b8152016104eb610499565b8152016104f6610499565b815201610501610499565b81520161050c61049d565b81520161051761049d565b8152016105226104a1565b81520161052d6104a5565b8152016105386104a5565b8152016105436104a5565b81520161054e6104a5565b81525050565b61055c6104a9565b90565b90610569906100ce565b9052565b73eeeeeeeeeeeeeeeeeeeeeeeeeeeeeeeeeeeeeeee90565b90565b60ff1690565b6105a261059d6105a792610585565b610383565b610588565b90565b6105b390610386565b90565b6105bf906105aa565b90565b6105cb906103a2565b90565b60e01b90565b6105dd81610588565b036105e457565b5f80fd5b905051906105f5826105d4565b565b906020828203126106105761060d915f016105e8565b90565b61008c565b5f0190565b610622610082565b3d5f823e3d90fd5b9061063490610588565b9052565b61064190610386565b90565b61064d90610638565b90565b610659906103a2565b90565b610665816103bd565b0361066c57565b5f80fd5b9050519061067d8261065c565b565b9060208282031261069857610695915f01610670565b90565b61008c565b906106a7906103bd565b9052565b6106b590516103bd565b90565b905051906106c5826102f4565b565b906020828203126106e0576106dd915f016106b8565b90565b61008c565b6106ee906100ce565b9052565b6106fb90610588565b9052565b610708906103bd565b9052565b90565b6107189061070c565b9052565b906101808061080d936107355f8201515f8601906106e5565b610747602082015160208601906106e5565b610759604082015160408601906106e5565b61076b606082015160608601906106e5565b61077d608082015160808601906106e5565b61078f60a082015160a08601906106e5565b6107a160c082015160c08601906106f2565b6107b360e082015160e08601906106f2565b6107c76101008201516101008601906106ff565b6107db61012082015161012086019061070f565b6107ef61014082015161014086019061070f565b61080361016082015161016086019061070f565b015191019061070f565b565b9190610823905f6101a0850194019061071c565b565b905090565b61084f6108469260209261083d81610131565b94858093610825565b9384910161013e565b0190565b61086190610867939261082a565b9061082a565b90565b610873906103a2565b90565b61087e61037e565b50610888306103ae565b6108ba6108b47f00000000000000000000000000000000000000000000000000000000000000006100ce565b916100ce565b14610d4857806108d26108cc846100ce565b916100ce565b14610d1b576108df610554565b9161090c7f00000000000000000000000000000000000000000000000000000000000000005f850161055f565b610921610918306103ae565b6020850161055f565b61094e7f00000000000000000000000000000000000000000000000000000000000000006040850161055f565b61097b7f00000000000000000000000000000000000000000000000000000000000000006060850161055f565b610988826080850161055f565b816109a261099c61099761056d565b6100ce565b916100ce565b14155f14610d09576109d660206109c06109bb856105b6565b6105c2565b63313ce567906109ce610082565b9384926105ce565b825281806109e660048201610615565b03915afa8015610d0457610a06915f91610cd6575b505b60c0850161062a565b610a138160a0850161055f565b80610a2d610a27610a2261056d565b6100ce565b916100ce565b14155f14610cc457610a616020610a4b610a46846105b6565b6105c2565b63313ce56790610a59610082565b9384926105ce565b82528180610a7160048201610615565b03915afa8015610cbf57610a91915f91610c91575b505b60e0850161062a565b610ac56020610aaf610aaa610aa5306103ae565b610644565b610650565b638d65402390610abd610082565b9384926105ce565b82528180610ad560048201610615565b03915afa8015610c8c57610af5915f91610c5e575b50610100850161069d565b610b496020610b13610b0e610b09306103ae565b610644565b610650565b63e6bd26a290610b3e610b2961010089016106ab565b92610b32610082565b958694859384936105ce565b8352600483016103f7565b03915afa8015610c5957610b67915f91610c2b575b50938490610e7b565b90610bd1610100610b94610bc9610b7c610d75565b610ba387610b88610082565b9485916020830161080f565b6020820181038252038461044d565b610bba610bae610082565b93849260208401610853565b6020820181038252038261044d565b9593016106ab565b929091610c25610c13610c0d610c077f4960ed60da9bf499a0841c5bb40e134da1b7a55ec0436c1ca8e19848e78031a39461086a565b9461086a565b9461086a565b94610c1c610082565b918291826103f7565b0390a490565b610c4c915060203d8111610c52575b610c44818361044d565b8101906106c7565b5f610b5e565b503d610c3a565b61061a565b610c7f915060203d8111610c85575b610c77818361044d565b81019061067f565b5f610aea565b503d610c6d565b61061a565b610cb2915060203d8111610cb8575b610caa818361044d565b8101906105f7565b5f610a86565b503d610ca0565b61061a565b610a91610cd1601261058e565b610a88565b610cf7915060203d8111610cfd575b610cef818361044d565b8101906105f7565b5f6109fb565b503d610ce5565b61061a565b610a06610d16601261058e565b6109fd565b610d44610d2661042b565b610d2e610082565b9182916330090e6560e11b8352600483016103f7565b0390fd5b610d71610d536103dc565b610d5b610082565b9182916330090e6560e11b8352600483016103f7565b0390fd5b610d7d61037e565b50610dd9610daa7f0000000000000000000000000000000000000000000000000000000000000000611147565b610dd37f0000000000000000000000000000000000000000000000000000000000000000611147565b90611060565b90565b90565b610df3610dee610df892610ddc565b610383565b6103bd565b90565b610e056005610ddf565b90565b610e1290516100ce565b90565b90610e1f9061070c565b9052565b90565b610e3a610e35610e3f92610e23565b610383565b6103bd565b90565b610e4c6008610e26565b90565b90565b610e66610e61610e6b92610e4f565b610383565b6103bd565b90565b610e786009610e52565b90565b90610f26610f3091610e8b610554565b50610eb6610eac610e9a610dfb565b610ea660808801610e08565b90610f60565b6101208601610e15565b610ee0610ed6610ec4610dfb565b610ed060a08801610e08565b90610f60565b6101408601610e15565b610f0b610f01610eee610e42565b83610efb60808901610e08565b91610fda565b6101608601610e15565b610f13610e6e565b90610f2060a08601610e08565b91610fda565b6101808301610e15565b90565b5f90565b916020610f58929493610f5160408201965f8301906100da565b01906103ea565b565b60200190565b90610f9490610f6d610f33565b50610f85610f79610082565b93849260208401610f37565b6020820181038252038261044d565b610fa6610fa082610131565b91610f5a565b2090565b610fb39061070c565b9052565b916020610fd8929493610fd160408201965f8301906100da565b0190610faa565b565b61101061104a92610fe9610f33565b50611001610ff5610082565b93849260208401610f37565b6020820181038252038261044d565b61102261101c82610131565b91610f5a565b209161103b61102f610082565b93849260208401610fb7565b6020820181038252038261044d565b61105c61105682610131565b91610f5a565b2090565b61106861037e565b5061107161037e565b50604051918151808452602084019081019060208401905b8281106110d157505081519084518201855260208282019301905b8381106110c057505090601f9182199351011501011660405290565b6020809183518152019101906110a4565b602080918351815201910190611089565b90565b6110f96110f46110fe926110e2565b610383565b6103bd565b90565b61110b60016110e5565b90565b634e487b7160e01b5f52601160045260245ffd5b611131611137919392936103bd565b926103bd565b820391821161114257565b61110e565b6111769061115361037e565b5080611170611160611101565b913b61116a611101565b90611122565b91611179565b90565b92919061118461037e565b5060405193601f19601f602085010116850160405282855260208501903c56fea2646970667358221220e95ec6ea26a09750d561b43373439226bf5b1e047af58fa0075af2feee8706c964736f6c6343000815003361022060405234620001b9576200001f620000196200044a565b62000827565b62000029620001bf565b61b03962000c7c8239608051818181610bc501528181613a5d015281816144c101528181614788015281816147d2015261856e015260a051818181610bf2015281816143d6015281816145700152818161462d0152818161610401528181617c6001528181618405015261849a015260c05181610c1f015260e05181610c4c015261010051818181610b6b015261ae70015261012051818181610b980152818161a3d9015261aa980152610140518181816104ae01528181610b0501528181610ff401528181611089015281816143a601528181614493015281816145fa0152818161475b015281816148fc01528181618467015281816185400152818161aba1015261ac1b01526101605181818161032c01528181610b3901528181613b7a01528181615f670152818161adf5015261aed601526101805181818161053501528181610c790152613ba801526101a051818181610ca7015261102301526101c051818181610cd501526110b801526101e051818181610d03015261492b01526102005181610d31015261b03990f35b620001c5565b60405190565b5f80fd5b601f801991011690565b634e487b7160e01b5f52604160045260245ffd5b90620001f390620001c9565b810190811060018060401b038211176200020c57604052565b620001d3565b906200022962000221620001bf565b9283620001e7565b565b5f80fd5b5f80fd5b60018060a01b031690565b620002499062000233565b90565b62000257816200023e565b036200025f57565b5f80fd5b9050519062000272826200024c565b565b60ff1690565b620002858162000274565b036200028d57565b5f80fd5b90505190620002a0826200027a565b565b90565b620002b081620002a2565b03620002b857565b5f80fd5b90505190620002cb82620002a5565b565b90565b620002db81620002cd565b03620002e357565b5f80fd5b90505190620002f682620002d0565b565b91906101a08382031262000421576200041990620003186101a062000212565b9362000327825f830162000263565b5f8601526200033a826020830162000263565b60208601526200034e826040830162000263565b604086015262000362826060830162000263565b606086015262000376826080830162000263565b60808601526200038a8260a0830162000263565b60a08601526200039e8260c0830162000291565b60c0860152620003b28260e0830162000291565b60e0860152620003c7826101008301620002bc565b610100860152620003dd826101208301620002e7565b610120860152620003f3826101408301620002e7565b61014086015262000409826101608301620002e7565b61016086015261018001620002e7565b610180830152565b6200022f565b906101a082820312620004445762000441915f01620002f8565b90565b6200022b565b6200046d6200bcb580380380620004618162000212565b92833981019062000427565b90565b5f1c90565b90565b620004876200048d9162000470565b62000475565b90565b6200049c905462000478565b90565b90565b90565b620004be620004b8620004c4926200049f565b620004a2565b620002a2565b90565b90565b620004e3620004dd620004e992620004c7565b620004a2565b620002a2565b90565b5f1b90565b90620004ff5f1991620004ec565b9181191691161790565b620005226200051c6200052892620002a2565b620004a2565b620002a2565b90565b90565b906200054862000542620005509262000509565b6200052b565b8254620004f1565b9055565b6200055f906200023e565b90565b6200056e905162000554565b90565b6200058a62000584620005909262000233565b620004a2565b62000233565b90565b6200059e9062000571565b90565b620005ac9062000593565b90565b620005bb9051620002cd565b90565b60e01b90565b90602082820312620005e057620005dd915f01620002bc565b90565b6200022b565b620005f190620002cd565b9052565b91906200060a905f60208501940190620005e6565b565b62000616620001bf565b3d5f823e3d90fd5b90565b6200063a6200063462000640926200061e565b620004a2565b620002a2565b90565b6200064f605b62000621565b90565b1c90565b6200067c90620006756200066e6200068294620002a2565b91620002a2565b9062000652565b620002a2565b90565b90565b620006a16200069b620006a79262000685565b620004a2565b620002a2565b90565b620006bb60018060401b0362000688565b90565b90565b620006da620006d4620006e092620006be565b620004a2565b620002a2565b90565b620006ef609b620006c1565b90565b90565b6200070e620007086200071492620006f2565b620004a2565b620002a2565b90565b6200072764e8d4a51000620006f5565b90565b90565b62000746620007406200074c926200072a565b620004a2565b620002a2565b90565b6200075c6179246200072d565b90565b6200076a90620002a2565b9052565b919062000783905f602085019401906200075f565b565b90565b620007a16200079b620007a79262000785565b620004a2565b62000274565b90565b1b90565b620007d490620007cd620007c6620007da9462000274565b91620002a2565b90620007aa565b620002a2565b90565b90565b620007f9620007f3620007ff92620007dd565b620004a2565b62000274565b90565b90565b6200081e62000818620008249262000802565b620004a2565b62000274565b90565b620008329062000aef565b6200086a620008415f62000490565b6200084f62400000620004a5565b17620008626610000000000000620004ca565b175f6200052e565b620008c26020620008876200088161014062000562565b620005a1565b63b5c736e490620008b66200089e6101a0620005af565b92620008a9620001bf565b95869485938493620005be565b835260048301620005f5565b03915afa801562000ae957620008ec915f9162000ab4575b50620008e562000643565b9062000656565b620008f6620006aa565b166200094f6020620009146200090e61014062000562565b620005a1565b63b5c736e490620009436200092b6101c0620005af565b9262000936620001bf565b95869485938493620005be565b835260048301620005f5565b03915afa801562000aae5762000979915f9162000a79575b5062000972620006e3565b9062000656565b62000983620006aa565b1681620009a46200099d6200099762000717565b620002a2565b91620002a2565b10801562000a51575b62000a1e57620009cf62000a1c9291620009c8604062000788565b90620007ae565b17620009f1620009de62000717565b620009ea6080620007e0565b90620007ae565b1762000a1362000a0062000717565b62000a0c60c062000805565b90620007ae565b1760086200052e565b565b62000a4d62000a2c6200074f565b62000a36620001bf565b9182916330090e6560e11b8352600483016200076e565b0390fd5b508062000a7262000a6b62000a6562000717565b620002a2565b91620002a2565b10620009ad565b62000a9f915060203d811162000aa6575b62000a968183620001e7565b810190620005c4565b5f62000967565b503d62000a8a565b6200060c565b62000ada915060203d811162000ae1575b62000ad18183620001e7565b810190620005c4565b5f620008da565b503d62000ac5565b6200060c565b62000afa9062000afc565b565b62000b079062000b09565b565b62000b149062000b7b565b565b62000b2290516200023e565b90565b62000b309062000571565b90565b62000b3e9062000b25565b90565b62000b4c9062000571565b90565b62000b5a9062000b41565b90565b62000b699051620002a2565b90565b62000b78905162000274565b90565b606062000c759162000b9962000b935f830162000b16565b62000b33565b6101405262000bb562000baf6020830162000b16565b62000b4f565b6101605262000bc8610100820162000b5d565b6101805262000bda6080820162000b16565b60805262000beb60a0820162000b16565b60a05262000bfc60c0820162000b6c565b60c05262000c0d60e0820162000b6c565b60e05262000c1f6101208201620005af565b6101a05262000c326101408201620005af565b6101c05262000c456101608201620005af565b6101e05262000c586101808201620005af565b6102005262000c6a6040820162000b16565b610100520162000b16565b6101205256fe60806040526004361015610022575b3461001d5761001b61adeb565b005b6100f7565b61002c5f356100eb565b806302161887146100e6578063032d2276146100e157806309f0d8cb146100dc578063103f2907146100d757806322348cc7146100d25780632861c7d1146100cd578063540acabc146100c85780637d7c2a1c146100c35780638433ea22146100be578063ad207501146100b9578063b5c736e4146100b45763b7791bf20361000e57610946565b6107ce565b610753565b610681565b6105c4565b61056c565b6104fe565b61046f565b6103a7565b6102f1565b6102a1565b61015c565b60e01c90565b60405190565b5f80fd5b5f80fd5b5f91031261010957565b6100fb565b90565b61011a9061010e565b9052565b61015361015a9461014960609498979561013f608086019a5f870190610111565b6020850190610111565b6040830190610111565b0190610111565b565b346101905761016c3660046100ff565b61018c610177611c50565b906101839492946100f1565b9485948561011e565b0390f35b6100f7565b5f80fd5b6101a28161010e565b036101a957565b5f80fd5b905035906101ba82610199565b565b90565b6101c8816101bc565b036101cf57565b5f80fd5b905035906101e0826101bf565b565b60018060a01b031690565b6101f6906101e2565b90565b610202816101ed565b0361020957565b5f80fd5b9050359061021a826101f9565b565b60808183031261025d57610232825f83016101ad565b9261025a61024384602085016101d3565b9361025181604086016101d3565b9360600161020d565b90565b6100fb565b61026b906101bc565b9052565b60409061029861029f949695939661028e60608401985f850190610111565b6020830190610262565b0190610262565b565b6102cf6102bb6102b236600461021c565b929190916139cb565b6102c69391936100f1565b9384938461026f565b0390f35b906020828203126102ec576102e9915f016101ad565b90565b6100fb565b346103255761032161030c6103073660046102d3565b610fbc565b906103189492946100f1565b9485948561011e565b0390f35b6100f7565b7f000000000000000000000000000000000000000000000000000000000000000090565b90565b61036561036061036a926101e2565b61034e565b6101e2565b90565b61037690610351565b90565b6103829061036d565b90565b61038e90610379565b9052565b91906103a5905f60208501940190610385565b565b346103d7576103b73660046100ff565b6103d36103c261032a565b6103ca6100f1565b91829182610392565b0390f35b6100f7565b60808183031261041d576103f2825f83016101d3565b9261041a61040384602085016101ad565b9361041181604086016101ad565b936060016101ad565b90565b6100fb565b9095949261046d9461045c6104669261045260809661044860a088019c5f890190610262565b6020870190610111565b6040850190610111565b6060830190610111565b0190610111565b565b346104a7576104a361048e6104853660046103dc565b929190916122df565b9161049a9593956100f1565b95869586610422565b0390f35b6100f7565b7f000000000000000000000000000000000000000000000000000000000000000090565b6104d99061036d565b90565b6104e5906104d0565b9052565b91906104fc905f602085019401906104dc565b565b3461052e5761050e3660046100ff565b61052a6105196104ac565b6105216100f1565b918291826104e9565b0390f35b6100f7565b7f000000000000000000000000000000000000000000000000000000000000000090565b919061056a905f60208501940190610111565b565b3461059c5761057c3660046100ff565b610598610587610533565b61058f6100f1565b91829182610557565b0390f35b6100f7565b9160206105c29294936105bb60408201965f830190610262565b0190610262565b565b6105cf3660046100ff565b6105d761aa7e565b906105ec6105e36100f1565b928392836105a1565b0390f35b151590565b6105fe816105f0565b0361060557565b5f80fd5b90503590610616826105f5565b565b6080818303126106595761062e825f83016101ad565b9261065661063f84602085016101ad565b9361064d816040860161020d565b93606001610609565b90565b6100fb565b91602061067f92949361067860408201965f830190610111565b0190610111565b565b61069861068f366004610618565b92919091617bfa565b906106ad6106a46100f1565b9283928361065e565b0390f35b5f80fd5b5f80fd5b5f80fd5b909182601f830112156106f75781359167ffffffffffffffff83116106f25760200192600183028401116106ed57565b6106b9565b6106b5565b6106b1565b9160608383031261074957610713825f850161020d565b9261072183602083016101ad565b92604082013567ffffffffffffffff81116107445761074092016106bd565b9091565b610195565b6100fb565b5f0190565b346107855761076f6107663660046106fc565b9291909161ab95565b6107776100f1565b806107818161074e565b0390f35b6100f7565b90565b6107968161078a565b0361079d57565b5f80fd5b905035906107ae8261078d565b565b906020828203126107c9576107c6915f016107a1565b90565b6100fb565b346107fe576107fa6107e96107e43660046107b0565b61097f565b6107f16100f1565b91829182610557565b0390f35b6100f7565b61080c906101ed565b9052565b60ff1690565b61081f90610810565b9052565b61082c9061010e565b9052565b6108399061078a565b9052565b906101808061092e936108565f8201515f860190610803565b61086860208201516020860190610803565b61087a60408201516040860190610803565b61088c60608201516060860190610803565b61089e60808201516080860190610803565b6108b060a082015160a0860190610803565b6108c260c082015160c0860190610816565b6108d460e082015160e0860190610816565b6108e8610100820151610100860190610823565b6108fc610120820151610120860190610830565b610910610140820151610140860190610830565b610924610160820151610160860190610830565b0151910190610830565b565b9190610944905f6101a0850194019061083d565b565b34610976576109563660046100ff565b610972610961610af4565b6109696100f1565b91829182610930565b0390f35b6100f7565b5f90565b61098761097b565b505490565b601f801991011690565b634e487b7160e01b5f52604160045260245ffd5b906109b49061098c565b810190811067ffffffffffffffff8211176109ce57604052565b610996565b906109e66109df6100f1565b92836109aa565b565b6109f36101a06109d3565b90565b5f90565b5f90565b5f90565b5f90565b602090818080808080808080808080610a1d6109e8565b9d8e610a276109f6565b815201610a326109f6565b815201610a3d6109f6565b815201610a486109f6565b815201610a536109f6565b815201610a5e6109f6565b815201610a696109fa565b815201610a746109fa565b815201610a7f6109fe565b815201610a8a610a02565b815201610a95610a02565b815201610aa0610a02565b815201610aab610a02565b81525050565b610ab9610a06565b90565b90610ac6906101ed565b9052565b90610ad490610810565b9052565b90610ae29061010e565b9052565b90610af09061078a565b9052565b610afc610ab1565b90610b31610b297f00000000000000000000000000000000000000000000000000000000000000006104d0565b5f8401610abc565b610b66610b5d7f0000000000000000000000000000000000000000000000000000000000000000610379565b60208401610abc565b610b937f000000000000000000000000000000000000000000000000000000000000000060408401610abc565b610bc07f000000000000000000000000000000000000000000000000000000000000000060608401610abc565b610bed7f000000000000000000000000000000000000000000000000000000000000000060808401610abc565b610c1a7f000000000000000000000000000000000000000000000000000000000000000060a08401610abc565b610c477f000000000000000000000000000000000000000000000000000000000000000060c08401610aca565b610c747f000000000000000000000000000000000000000000000000000000000000000060e08401610aca565b610ca27f00000000000000000000000000000000000000000000000000000000000000006101008401610ad8565b610cd07f00000000000000000000000000000000000000000000000000000000000000006101208401610ae6565b610cfe7f00000000000000000000000000000000000000000000000000000000000000006101408401610ae6565b610d2c7f00000000000000000000000000000000000000000000000000000000000000006101608401610ae6565b610d5a7f00000000000000000000000000000000000000000000000000000000000000006101808401610ae6565b565b5f1c90565b90565b610d70610d7591610d5c565b610d61565b90565b610d829054610d64565b90565b60e01b90565b90505190610d9882610199565b565b90602082820312610db357610db0915f01610d8b565b90565b6100fb565b610dc19061078a565b9052565b9190610dd8905f60208501940190610db8565b565b610de26100f1565b3d5f823e3d90fd5b90565b610e01610dfc610e0692610dea565b61034e565b61010e565b90565b610e1a67ffffffffffffffff610ded565b90565b90565b610e34610e2f610e3992610e1d565b61034e565b610810565b90565b1c90565b610e5f90610e59610e53610e6494610810565b9161010e565b90610e3c565b61010e565b90565b90565b610e7e610e79610e8392610e67565b61034e565b61010e565b90565b610e91617932610e6a565b90565b90565b610eab610ea6610eb092610e94565b61034e565b61010e565b90565b90610ebe910261010e565b90565b634e487b7160e01b5f52601260045260245ffd5b610ee1610ee79161010e565b9161010e565b908115610ef2570490565b610ec1565b90610f02910361010e565b90565b90565b610f1c610f17610f2192610f05565b61034e565b61010e565b90565b610f2f61ffff610f08565b90565b90565b610f49610f44610f4e92610f32565b61034e565b61010e565b90565b90565b610f68610f63610f6d92610f51565b61034e565b610810565b90565b90565b610f87610f82610f8c92610f70565b61034e565b610810565b90565b90610f9a910161010e565b90565b90565b610fb4610faf610fb992610f9d565b61034e565b610810565b90565b610fc461097b565b50610fcd61097b565b50610fd661097b565b50610fdf61097b565b50610fea6008610d78565b61106260206110187f00000000000000000000000000000000000000000000000000000000000000006104d0565b63b5c736e4906110577f00000000000000000000000000000000000000000000000000000000000000009261104b6100f1565b95869485938493610d85565b835260048301610dc5565b03915afa80156113935761107d915f91611365575b5061169f565b50926110f760206110ad7f00000000000000000000000000000000000000000000000000000000000000006104d0565b63b5c736e4906110ec7f0000000000000000000000000000000000000000000000000000000000000000926110e06100f1565b95869485938493610d85565b835260048301610dc5565b03915afa801561136057611112915f91611332575b5061169f565b9050928261111e610e09565b166111338461112d6040610e20565b90610e40565b61113b610e09565b168661114f6111498461010e565b9161010e565b108015611318575b6112eb576112cb6112b46112a361128c61124e61123d6112e89861122e61121d8f8f9a6112016111e96111d86112d19f6111b16111c8916111ac611206986111a6670de0b6b3a7640000610e97565b90610eb3565b610ed5565b6111c2670de0b6b3a7640000610e97565b90610ef7565b886111d1610f24565b1690610eb3565b6111e3612710610f35565b90610ed5565b9c6111fb670de0b6b3a7640000610e97565b90610eb3565b610ed5565b611217670de0b6b3a7640000610e97565b90610ef7565b916112286010610f54565b90610e40565b611236610f24565b1690610eb3565b611248612710610f35565b90610ed5565b946112866112668b6112606080610f73565b90610e40565b61126e610e09565b1691611281670de0b6b3a7640000610e97565b610f8f565b90610eb3565b61129d670de0b6b3a7640000610e97565b90610ed5565b966112ae60c0610fa0565b90610e40565b916112c6670de0b6b3a7640000610e97565b610f8f565b90610eb3565b6112e2670de0b6b3a7640000610e97565b90610ed5565b90565b6113146112f6610e86565b6112fe6100f1565b9182916330090e6560e11b835260048301610557565b0390fd5b508561132c6113268361010e565b9161010e565b10611157565b611353915060203d8111611359575b61134b81836109aa565b810190610d9a565b5f61110c565b503d611341565b610dda565b611386915060203d811161138c575b61137e81836109aa565b810190610d9a565b5f611077565b503d611374565b610dda565b90565b6113af6113aa6113b492611398565b61034e565b61010e565b90565b6113c1605b61139b565b90565b6113e3906113dd6113d76113e89461010e565b9161010e565b90610e3c565b61010e565b90565b6113fc67ffffffffffffffff610ded565b90565b90565b61141661141161141b926113ff565b61034e565b61010e565b90565b611428609b611402565b90565b90565b61144261143d6114479261142b565b61034e565b61010e565b90565b90565b61146161145c6114669261144a565b61034e565b61010e565b90565b6114756201117161144d565b90565b61148361ffff610f08565b90565b90565b61149d6114986114a292611486565b61034e565b61010e565b90565b6114af603a611489565b90565b90565b6114c96114c46114ce926114b2565b61034e565b61010e565b90565b6114df6401ffffffff6114b5565b90565b90565b6114f96114f46114fe926114e2565b61034e565b61010e565b90565b61150b60ea6114e5565b90565b90565b61152561152061152a9261150e565b61034e565b61010e565b90565b611538617fff611511565b90565b90565b61155261154d6115579261153b565b61034e565b61010e565b90565b90565b61157161156c6115769261155a565b61034e565b61010e565b90565b6115866301e1338061155d565b90565b611594612710610f35565b90565b90565b6115ae6115a96115b392611597565b61034e565b61010e565b90565b6115c060db61159a565b90565b6115d76115d26115dc9261153b565b61034e565b610810565b90565b90565b6115f66115f16115fb926115df565b61034e565b61010e565b90565b611608601e6115e2565b90565b90565b61162261161d6116279261160b565b61034e565b61010e565b90565b611635613fff61160e565b90565b90565b61164f61164a61165492611638565b61034e565b61010e565b90565b90565b61166e61166961167392611657565b61034e565b61010e565b90565b61168a61168561168f92610f51565b61034e565b61010e565b90565b61169c6010611676565b90565b6116a761097b565b506116b061097b565b506116c3816116bd6113b7565b906113c4565b6116cb6113eb565b166116de826116d861141e565b906113c4565b6116e66113eb565b16816116fa6116f45f61142e565b9161010e565b148015611b84575b611b57578261170f611478565b169261173642611727836117216114a5565b906113c4565b61172f6114d1565b1690610ef7565b9161174982611743611501565b906113c4565b61175161152d565b1694836117666117605f61142e565b9161010e565b148015611b3d575b8015611b22575b611b1857906117b361179461178d6117b99484610eb3565b8690610eb3565b6117ad61179f611579565b6117a7611589565b90610eb3565b90610ed5565b90610f8f565b936117cc826117c66115b6565b906113c4565b6117d461152d565b16806117e96117e3600161153e565b9161010e565b14611b1157926119c06119ba611a06946119b461198a61197b6119556119c5986119508c611a0c9e9d61181c600161153e565b1661183061182a600161153e565b9161010e565b145f14611a81576118be61187f6118546118cc9361184e60016115c3565b90610e40565b61187a6b033b2e3c9fd0803ce800000061187561186f611589565b9161163b565b610eb3565b610ed5565b6118b86118948b61188e6115fe565b906113c4565b61189c61162a565b16916118b36b033b2e3c9fd0803ce800000061163b565b610f8f565b90610eb3565b6118c6611589565b90610ed5565b915b806118d9600161153e565b166118ed6118e7600161153e565b9161010e565b145f14611a0f5761190b6119419161190560016115c3565b90610e40565b61193b61192d826119276b033b2e3c9fd0803ce800000061163b565b90610eb3565b91611936611589565b610f8f565b90610ed5565b915b61194b611589565b610eb3565b610eb3565b611975760a70c3c40a64e6c51999090b65f67d924000000000000061165a565b90610ed5565b83611984611478565b16610eb3565b916119a5611996611589565b9161199f611692565b906113c4565b6119ad61162a565b1690610ef7565b90610eb3565b85610eb3565b610eb3565b611a006119f26119e46119d6611579565b6119de611589565b90610eb3565b6119ec611589565b90610eb3565b6119fa611589565b90610eb3565b90610ed5565b90610f8f565b91565b611a26611a7b91611a2060016115c3565b90610e40565b611a76611a706b033b2e3c9fd0803ce800000092611a6a611a5c82611a566b033b2e3c9fd0803ce800000061163b565b90610eb3565b91611a65611589565b610f8f565b90610ed5565b9161163b565b610ef7565b91611943565b611aec611a9b611b0b92611a9560016115c3565b90610e40565b611ae6611ad88b611ad3611ac46b033b2e3c9fd0803ce800000092611abe6115fe565b906113c4565b611acc61162a565b169161163b565b610eb3565b91611ae1611589565b610f8f565b90610eb3565b611b05611af7611589565b611aff611589565b90610eb3565b90610ed5565b916118ce565b5050505091565b5094935050509190565b5085611b37611b31600161153e565b9161010e565b14611775565b5080611b51611b4b5f61142e565b9161010e565b1461176e565b611b80611b62611469565b611b6a6100f1565b918291636a86ba8960e11b835260048301610557565b0390fd5b5080611b98611b925f61142e565b9161010e565b14611702565b90565b611bb5611bb0611bba92611b9e565b61034e565b61010e565b90565b611bc861792d611ba1565b90565b1b90565b611bee90611be8611be2611bf394610810565b9161010e565b90611bcb565b61010e565b90565b5f1b90565b90611c075f1991611bf6565b9181191691161790565b611c25611c20611c2a9261010e565b61034e565b61010e565b90565b90565b90611c45611c40611c4c92611c11565b611c2d565b8254611bfb565b9055565b611c5861097b565b50611c6161097b565b50611c6a61097b565b50611c7361097b565b50611c86611c816001610d78565b610fbc565b9091929384611ca4611c9e611c99610e09565b61010e565b9161010e565b118015611db4575b8015611d93575b8015611d72575b611d4557611d0885611cd686611cd06040610e20565b90611bcf565b17611ceb85611ce56080610f73565b90611bcf565b17611d0084611cfa60c0610fa0565b90611bcf565b176008611c30565b82827fcde545703e0372175cadfff811d67c32910c3dcb33199679b3271c4106afdf9a91611d40611d376100f1565b9283928361065e565b0390a1565b611d6e611d50611bbd565b611d586100f1565b9182916330090e6560e11b835260048301610557565b0390fd5b5081611d8d611d87611d82610e09565b61010e565b9161010e565b11611cba565b5082611dae611da8611da3610e09565b61010e565b9161010e565b11611cb3565b5083611dcf611dc9611dc4610e09565b61010e565b9161010e565b11611cac565b5f90565b5f90565b90565b611df4611def611df992611ddd565b61034e565b61010e565b90565b611e0862ffffff611de0565b90565b611e1f611e1a611e24926101bc565b61034e565b6101bc565b90565b90611e3190611e0b565b5f5260205260405f2090565b90565b611e54611e4f611e5992611e3d565b61034e565b61010e565b90565b90565b611e73611e6e611e7892611e5c565b61034e565b61010e565b90565b90611e8590611c11565b5f5260205260405f2090565b611e9d611ea39161010e565b9161010e565b908115611eae570690565b610ec1565b90565b611eca611ec5611ecf92611eb3565b61034e565b61010e565b90565b90565b611ee9611ee4611eee92611ed2565b61034e565b61010e565b90565b611efe633fffffff611ed5565b90565b90565b611f18611f13611f1d92611f01565b61034e565b610810565b90565b90565b611f37611f32611f3c92611f20565b61034e565b61010e565b90565b611f4f6603ffffffffffff611f23565b90565b90565b611f69611f64611f6e92611f52565b61034e565b610810565b90565b90565b611f88611f83611f8d92611f71565b61034e565b610810565b90565b90565b611fa7611fa2611fac92611f90565b61034e565b610810565b90565b90565b611fc6611fc1611fcb92611faf565b61034e565b610810565b90565b90565b611fe5611fe0611fea92611fce565b61034e565b61010e565b90565b611ff76023611fd1565b90565b90565b61201161200c61201692611ffa565b61034e565b61010e565b90565b612023600f611ffd565b90565b634e487b7160e01b5f52601160045260245ffd5b61204961204f9193929361010e565b9261010e565b820180921161205a57565b612026565b61207e906120786120726120839461010e565b9161010e565b90611bcb565b61010e565b90565b61209561209b9193929361010e565b9261010e565b82039182116120a657565b612026565b6120ea6120da60016120d56120cf6120c1611fed565b6120c9612019565b9061203a565b9161153e565b61205f565b6120e4600161153e565b90612086565b90565b90565b6121046120ff612109926120ed565b61034e565b610810565b90565b90565b61212361211e6121289261210c565b61034e565b61010e565b90565b90565b61214261213d6121479261212b565b61034e565b61010e565b90565b90565b61216161215c6121669261214a565b61034e565b61010e565b90565b61217d61217861218292611e5c565b61034e565b610810565b90565b90565b61219c6121976121a192612185565b61034e565b61010e565b90565b6121b06207ffff612188565b90565b6121c76121c26121cc9261010e565b61034e565b6101bc565b90565b6121da905f036101bc565b90565b60020b90565b6121f76121f26121fc926101bc565b61034e565b6121dd565b90565b61221361220e612218926121dd565b61034e565b6101bc565b90565b90565b61223261222d6122379261221b565b61034e565b61010e565b90565b90565b61225161224c6122569261223a565b61034e565b61010e565b90565b612266600160601b61223d565b90565b61227861227e9193929361010e565b9261010e565b9161228a83820261010e565b92818404149015171561229957565b612026565b90565b6122b56122b06122ba9261229e565b61034e565b610810565b90565b6122c96122cf9161010e565b9161010e565b9081156122da570490565b610ec1565b9390936122ea611dd5565b506122f361097b565b506122fc61097b565b9461230561097b565b5061230e61097b565b50839161231961097b565b50612322611dd9565b506123378661233160016115c3565b90610e40565b61233f611dfc565b1661235261234c8461010e565b9161010e565b145f1461271c57505061236f846123696019611f55565b90610e40565b612379600161153e565b1661238d612387600161153e565b9161010e565b14926123c06123a6866123a0601a611f74565b90610e40565b6123ae611ef1565b16956123ba6038611f93565b90610e40565b6123c8611f3f565b165b6123de6123d960078890611e7b565b610d78565b945f1461240557505050600160ff1b906123f75f61142e565b915b91949392919493929190565b9594959390935b816124176003611e5f565b1661242b6124256002611e40565b9161010e565b036127125761245790612448836124426074611fb2565b90610e40565b612450611f3f565b1690612955565b958661247261246c6124676120ab565b61010e565b9161010e565b146124b2575061248c9061248660a66120f0565b90610e40565b612494611ef1565b16926124aa6124a560078690611e7b565b610d78565b90939561240c565b949590935b846124c26003611e5f565b166124d66124d06003611e5f565b9161010e565b1480156126f1575b5f146124fd57505050600160ff1b906124f65f61142e565b915b6123f9565b9061252a919693969061251a866125146074611fb2565b90610e40565b612522611f3f565b16909161285f565b9061255161254b6125468493612540606461210f565b90610ed5565b61010e565b9161010e565b115f146126e1576125706125819161256a61270f61212e565b90610eb3565b61257b612710610f35565b90610ed5565b905b816125966125905f61142e565b9161010e565b115f146126d65750816125a9600461214d565b166125bd6125b7600461214d565b9161010e565b145f146126a4576125e96125db836125d56003612169565b90610e40565b6125e36121a4565b166121b3565b5b9361269d6126076126026125fd886121e3565b6121ff565b612a83565b61260f61097b565b5061269761263c61262b83612625612710610f35565b90610eb3565b61263661271f61221e565b90610ed5565b9161269161268361266061265889612652612259565b90612269565b958094612086565b6126748a61266e60166122a1565b90610e40565b61267c611ef1565b1690612269565b61268b611ef1565b906122bd565b9061203a565b906122bd565b945b6124f8565b6126d16126cc6126be846126b86003612169565b90610e40565b6126c66121a4565b166121b3565b6121cf565b6125ea565b93600160ff1b61269f565b506126eb5f61142e565b90612583565b508161270c6127066127016120ab565b61010e565b9161010e565b146124de565b90939594956124b7565b6127ae9295506127986127886127776127726127456127a89561273d61097b565b506006611e27565b61276c61275c886127566002611e40565b90610f8f565b6127666003611e5f565b90610ed5565b90611e7b565b610d78565b936127826002611e40565b90610f8f565b6127926003611e5f565b90611e91565b6127a26055611eb6565b90610eb3565b906113c4565b92836127ba600161153e565b166127ce6127c8600161153e565b9161010e565b14926128016127e7866127e160016115c3565b90610e40565b6127ef611ef1565b16956127fb601f611f04565b90610e40565b612809611f3f565b166123ca565b61283d61282d6001612828612822612019565b9161153e565b61205f565b612837600161153e565b90610ef7565b90565b90565b61285761285261285c92612840565b61034e565b61010e565b90565b91909161286a61097b565b506128888261287761280f565b168461288161280f565b1690610ef7565b8061289c6128966081612843565b9161010e565b106128b157505050506128ae5f61142e565b90565b6128e66128d76128f1956128d16128eb95916128cb612019565b906113c4565b90610eb3565b936128e0612019565b906113c4565b61205f565b90610ed5565b90565b90565b61290b612906612910926128f4565b61034e565b61010e565b90565b612925681fffffffffffffffff6128f7565b90565b90565b61293f61293a61294492612928565b61034e565b61010e565b90565b61295261400061292b565b90565b906129e89061296261097b565b506129e361299361297b85612975612019565b906113c4565b61298d84612987612019565b906113c4565b90610eb3565b91826129ae6129a86129a3612913565b61010e565b9161010e565b115f14612a60576129c96129c0611fed565b5b9384906113c4565b946129d261280f565b16906129dc61280f565b1690610f8f565b610f8f565b80612a026129fc6129f7612947565b61010e565b9161010e565b10612a5c57612a1990612a13612947565b90610ef7565b9081612a34612a2e612a2961280f565b61010e565b9161010e565b11612a4f57612a4b90612a45612019565b9061205f565b1790565b5050612a596120ab565b90565b5f80fd5b6129c9612a7e612a6e611fed565b612a78600161153e565b90610ef7565b6129c1565b612a8b61097b565b508060ff1d8160ff1d821803617fff8111612d0557600160801b9060018116612cec575b60028116612cd0575b60048116612cb4575b60088116612c98575b60108116612c7c575b60208116612c60575b60408116612c44575b60808116612c28575b6101008116612c0c575b6102008116612bf0575b6104008116612bd4575b6108008116612bb8575b6110008116612b9d575b6120008116612b7d575b61400016612b67575b5f91600160ff1b1615612b48575b60201c0190565b5f19046401000000008106612b5d575b612b41565b9050600190612b58565b6b17c45e641b6e95dee056ff100260801c612b33565b906d4e009ae5519380809a02ca7aec77614000910260801c919050612b2a565b906e8d4f70c9ff4924dac37612d1e2921e0260801c90612b20565b906f0be32cbee48979763cf7247dd7bb539d0260801c90612b16565b906f372a3bfe0745d8b6b19d985d9a8b85bb0260801c90612b0c565b906f76d6461f27082d74e0feed3b388c0ca10260801c90612b02565b906fae6b7961714e20548d88ea5123f9a0ff0260801c90612af8565b906fd34f17a00ffa00a8309940a15930391a0260801c90612aee565b906fe895615b5beb6386553757b0352bda900260801c90612ae5565b906ff402d288133a85a17784a411f7aba0820260801c90612adc565b906ff9ef02c4529258b057769680fc6601b30260801c90612ad3565b906ffcf2d9987c9be178ad5bfeffaa1232730260801c90612aca565b906ffe78410fd6498b73cb96a6917f8532590260801c90612ac1565b906fff3bd55f4488ad277531fa1c725a66d00260801c90612ab8565b90506fff9dd7de423466c20352b1246ce4856f90612aaf565b5f80fd5b90565b612d20612d1b612d2592612d09565b61034e565b61010e565b90565b612d33617919612d0c565b90565b612d4a612d45612d4f9261142b565b61034e565b6101bc565b90565b90565b612d69612d64612d6e92612d52565b61034e565b6101bc565b90565b612d85612d80612d8a92610f32565b61034e565b6101bc565b90565b90565b612da4612d9f612da992612d8d565b61034e565b61010e565b90565b612db761791a612d90565b90565b73eeeeeeeeeeeeeeeeeeeeeeeeeeeeeeeeeeeeeeee90565b90565b612de9612de4612dee92612dd2565b61034e565b61010e565b90565b612dfc61791b612dd5565b90565b612e13612e0e612e18926101bc565b61034e565b61010e565b90565b612e266102006109d3565b90565b5f90565b612e35612e1b565b9081612e3f6109fe565b8152602001612e4c6109fe565b8152602001612e59612e29565b8152602001612e666109fe565b8152602001612e736109fe565b8152602001612e806109fe565b8152602001612e8d612e29565b8152602001612e9a6109fe565b8152602001612ea76109fe565b8152602001612eb46109fe565b8152602001612ec1612e29565b8152602001612ece6109fe565b8152602001612edb6109fe565b8152602001612ee86109fe565b8152602001612ef56109fe565b8152602001612f026109fe565b815250565b612f0f612e2d565b90565b612f26612f21612f2b92611e3d565b61034e565b610810565b90565b90565b612f45612f40612f4a92612f2e565b61034e565b61010e565b90565b612f59620fffff612f31565b90565b90612f66906101bc565b9052565b90505190612f77826101f9565b565b90602082820312612f9257612f8f915f01612f6a565b90565b6100fb565b90565b612fae612fa9612fb392612f97565b61034e565b61010e565b90565b612fc161791c612f9a565b90565b90565b612fdb612fd6612fe092612fc4565b61034e565b61010e565b90565b612fee617923612fc7565b90565b90565b61300861300361300d92612ff1565b61034e565b610810565b90565b90565b61302761302261302c92613010565b61034e565b610810565b90565b90565b61304661304161304b9261302f565b61034e565b61010e565b90565b61305860ff613032565b90565b90565b61307261306d6130779261305b565b61034e565b610810565b90565b90565b61309161308c6130969261307a565b61034e565b610810565b90565b6130a2906101ed565b9052565b9160206130c79294936130c060408201965f830190610111565b0190613099565b565b90565b6130e06130db6130e5926130c9565b61034e565b61010e565b90565b6130f290516101bc565b90565b6130ff905161010e565b90565b90565b61311961311461311e92613102565b61034e565b610810565b90565b9061312b90611e0b565b5f5260205260405f2090565b90565b61314e61314961315392613137565b61034e565b61010e565b90565b61316161791d61313a565b90565b90565b61317b61317661318092613164565b61034e565b61010e565b90565b6131906301ffffff613167565b90565b5f90565b6131ab6131a66131b092611f90565b61034e565b61010e565b90565b6131c76131c26131cc92613010565b61034e565b61010e565b90565b90565b6131e66131e16131eb926131cf565b61034e565b610810565b90565b90565b61320561320061320a926131ee565b61034e565b61010e565b90565b600190565b600f0b90565b61322c61322761323192613212565b61034e565b6101bc565b90565b90565b61324b61324661325092613234565b61034e565b61010e565b90565b61325e61792f613237565b90565b90565b61327861327361327d92613261565b61034e565b61010e565b90565b61328e64e8d4a51000613264565b90565b61329a906101bc565b600160ff1b81146132aa575f0390565b612026565b6132c36132be6132c89261153b565b61034e565b6101bc565b90565b6132da6132e0919392936101bc565b926101bc565b808301925f828512158183121692851291121516176132fb57565b612026565b61330f613315919392936101bc565b926101bc565b916133218382026101bc565b92600160ff1b81145f83121661334457818405149015171561333f57565b612026565b612026565b61335561335b916101bc565b916101bc565b90811561337d5760015f038214600160ff1b821416613378570590565b612026565b610ec1565b613391613397919392936101bc565b926101bc565b91828103925f8285128183121692851391121516176133b257565b612026565b90565b6133ce6133c96133d3926133b7565b61034e565b61010e565b90565b6133e16179266133ba565b90565b90565b6133fb6133f6613400926133e4565b61034e565b61010e565b90565b61341c6fffffffffffffffffffffffffffffffff6133e7565b90565b90565b61343661343161343b9261341f565b61034e565b61010e565b90565b613449617927613422565b90565b90565b61346361345e6134689261344c565b61034e565b610810565b90565b90565b61348261347d6134879261346b565b61034e565b61010e565b90565b6134956103ff61346e565b90565b90565b6134af6134aa6134b492613498565b61034e565b61010e565b90565b90565b6134ce6134c96134d3926134b7565b61034e565b61010e565b90565b90565b6134ed6134e86134f2926134d6565b61034e565b61010e565b90565b6135006179346134d9565b90565b90565b61351a61351561351f92613503565b61034e565b610810565b90565b90565b61353961353461353e92613522565b61034e565b61010e565b90565b90565b61355861355361355d92613541565b61034e565b61010e565b90565b61357461356f6135799261142b565b61034e565b6101e2565b90565b61358590613560565b90565b61359c6135976135a19261010e565b61034e565b6101e2565b90565b6135ad90610351565b90565b6135b9906135a4565b90565b6135c59061036d565b90565b90565b6135df6135da6135e4926135c8565b61034e565b61010e565b90565b6135f26179396135cb565b90565b90565b61360c613607613611926135f5565b61034e565b61010e565b90565b90565b61362b61362661363092613614565b61034e565b610810565b90565b90565b61364a61364561364f92613633565b61034e565b61010e565b90565b90565b61366961366461366e92613652565b61034e565b61010e565b90565b61367c61791e613655565b90565b61369361368e6136989261142b565b61034e565b610810565b90565b6136af6136aa6136b492610810565b61034e565b61010e565b90565b90565b6136ce6136c96136d3926136b7565b61034e565b610810565b90565b6136e0600161153e565b90565b6136f76136f26136fc92613633565b61034e565b6101bc565b90565b61370b613711916101bc565b916101bc565b90811561371c570590565b610ec1565b9061372c91036101bc565b90565b9061373a91026101bc565b90565b90565b61375461374f6137599261373d565b61034e565b61010e565b90565b613767617928613740565b90565b919061377d905f60208501940190613099565b565b91906040838203126137a7578061379b6137a4925f8601610d8b565b93602001610d8b565b90565b6100fb565b6137b590612d36565b9052565b5190565b60209181520190565b5f5b8381106137d8575050905f910152565b8060209183015181850152016137c8565b613808613811602093613816936137ff816137b9565b938480936137bd565b958691016137c6565b61098c565b0190565b9261387796946138566138609261384c61386a9699959961384260c08a019b5f8b0190613099565b6020890190610262565b60408701906137ac565b6060850190613099565b6080830190613099565b60a08184039101526137e9565b90565b926138d796946138b66138c0926138ac6138ca969995996138a260c08a019b5f8b0190613099565b60208901906137ac565b6040870190610262565b6060850190613099565b6080830190613099565b60a08184039101526137e9565b90565b67ffffffffffffffff81116138f8576138f460209161098c565b0190565b610996565b9061390f61390a836138da565b6109d3565b918252565b369037565b9061393e613926836138fd565b9260208061393486936138da565b9201910390613914565b565b90565b61395761395261395c92613940565b61034e565b610810565b90565b90565b61397661397161397b9261395f565b61034e565b61010e565b90565b909594926139c9946139b86139c2926139ae6080966139a460a088019c5f890190613099565b6020870190610111565b6040850190610262565b6060830190610262565b0190613099565b565b90929391936139d861097b565b506139e1611dd5565b506139ea611dd5565b506139f45f610d78565b9182613a00600161153e565b16613a13613a0d5f61142e565b9161010e565b145f146162bf57613a2f83613a28600161153e565b175f611c30565b84613a42613a3c5f612d36565b916101bc565b14806162a5575b8015616245575b80156161e5575b6161b8577f0000000000000000000000000000000000000000000000000000000000000000613a95613a8f613a8a612dba565b6101ed565b916101ed565b148061619e575b5f146160e457613aab85612dff565b613abd613ab73461010e565b9161010e565b036160b7575b613acb612f07565b90613ad461097b565b50613add61097b565b50613ae6611dd5565b50613afe613af46001610d78565b6101008401610ad8565b613b1284613b0c6002612f12565b90610e40565b613b1a612f4d565b169081613b2f613b295f61142e565b9161010e565b145f1461602e57613b49600160ff1b5b6101408501612f5c565b80613b5c613b565f61142e565b9161010e565b145f14615d165750613b75600160ff1b60c08401612f5c565b613b9e7f0000000000000000000000000000000000000000000000000000000000000000610379565b60206394bf804d917f000000000000000000000000000000000000000000000000000000000000000090613be55f3395613bf0613bd96100f1565b97889687958694610d85565b8452600484016130a6565b03925af18015615d1157613c1a915f91615ce3575b5094613c14600160d21b6130cc565b90610f8f565b905b613c2860c084016130e8565b613c3e613c38600160ff1b6101bc565b916101bc565b136156e0575b50613c5d613c5460c084016130e8565b60408401612f5c565b613c74613c6c606084016130f5565b5f8401610ad8565b613c8c613c83608084016130f5565b60208401610ad8565b613cd0613cca613ca7613ca261010086016130f5565b610fbc565b90939150610160870193613cc46101808901926101a08a01610ad8565b90610ad8565b90610ad8565b85613ce3613cdd5f612d36565b916101bc565b135f146154fa57613d39613d1d613d0a613cfc89612dff565b613d04613280565b90612269565b613d1761018086016130f5565b906122bd565b613d336060850191613d2e836130f5565b61203a565b90610ad8565b613d45606083016130f5565b613d5e613d58613d53613403565b61010e565b9161010e565b116154cd575b86613d77613d715f612d36565b916101bc565b135f146152ef57613e30613e14613dc7613db7613da4613d968c612dff565b613d9e613280565b90612269565b613db16101a088016130f5565b906122bd565b613dc1600161153e565b9061203a565b613e0e613dfd82613dee613dde6101008a016130f5565b613de8605261344f565b90610e40565b613df661348a565b1690612269565b613e08612710610f35565b906122bd565b9061203a565b613e2a6080850191613e25836130f5565b61203a565b90610ad8565b613e3c608083016130f5565b613e55613e4f613e4a613403565b61010e565b9161010e565b116152c2575b85613e6e613e685f612d36565b916101bc565b14806152a8575b61527b57613e85608083016130f5565b613e97613e915f61142e565b9161010e565b115f1461526557613f36613f30613f04613eb3606086016130f5565b613efe613eee613edb613ec860808a016130f5565b613ed5633b9aca0161349b565b90610eb3565b613ee8633b9aca006134ba565b90610ed5565b613ef8600161153e565b90610f8f565b90616d03565b9391613f2a60c089019560e08a0193613f2460808c019260a08d01610ad8565b90610ad8565b90610ad8565b90612f5c565b86613f49613f435f612d36565b916101bc565b126151f4575b85613f62613f5c5f612d36565b916101bc565b13806151da575b61511e575b613f7a60c083016130e8565b613f98613f92613f8d61014086016130e8565b6101bc565b916101bc565b1215614f40575b5b85613fb3613fad5f612d36565b916101bc565b128015614f26575b614b7f575b613fcc60c083016130e8565b613fe2613fdc600160ff1b6101bc565b916101bc565b135f14614b6e57613ff560c083016130e8565b6140076140015f612d36565b916101bc565b125f14614b345761414661404061403061402b61402660c087016130e8565b6121cf565b612dff565b61403a60016115c3565b90611bcf565b5b5b8061405561404f5f61142e565b9161010e565b145f14614b205761408461407e61406c60016115c3565b5b9261407860016115c3565b90611bcf565b9161369b565b176140a461409460e086016130f5565b61409e601561307d565b90611bcf565b176140ec6140dc6140b7606087016130f5565b60389060086140d66140d06140ca613193565b94613197565b916131b3565b916162ec565b6140e6602d612ff4565b90611bcf565b176141346141246140ff60a087016130f5565b603890600861411e614118614112613193565b94613197565b916131b3565b916162ec565b61412e606d61305e565b90611bcf565b1761414160038790611e7b565b611c30565b856141596141535f612d36565b916101bc565b126148aa575b8561417261416c5f612d36565b916101bc565b13614756575b8661418b6141855f612d36565b916101bc565b1261456e575b856141a461419e5f612d36565b916101bc565b1261448e575b866141bd6141b75f612d36565b916101bc565b1361439e575b614350614340614357936143196143096142c46142436142326142206141f38a6141ed605261344f565b90610e40565b6141fb610e09565b166142108161420a6008613013565b90610e40565b9061421961304e565b169061205f565b61422c606088016130f5565b9061203a565b61423d5f87016130f5565b90612086565b936142be60206142b76142906142638c61425d6092613943565b90610e40565b61426b610e09565b166142808161427a6008613013565b90610e40565b9061428961304e565b169061205f565b6142b161429f608087016130f5565b6142ab60a088016130f5565b90612086565b9061203a565b92016130f5565b90612086565b956142e26fffffffffffffffffffffffffffffffff60521b19613962565b169260389060086143036142fd6142f7613193565b94613197565b916131b3565b916162ec565b614313605261344f565b90611bcf565b1792603890600861433a61433461432e61320d565b94613197565b916131b3565b916162ec565b61434a6092613943565b90611bcf565b175f611c30565b3382906143938693887ffef64760e30a41b9d5ba7dd65ff7236a61d89ed8b44c67a29e84db1a67513a1c9561438a6100f1565b9586958661397e565b0390a1919291929190565b8660406143ca7f00000000000000000000000000000000000000000000000000000000000000006104d0565b63ad967e159061442c5f7f00000000000000000000000000000000000000000000000000000000000000009361443782976144048461357c565b8c906144176144128761142e565b613919565b926144206100f1565b9b8c9a8b998a98610d85565b88526004880161387a565b03925af180156144895761435793614350926143409261445c575b50935050506141c3565b61447c9060403d8111614482575b61447481836109aa565b81019061377f565b50614452565b503d61446a565b610dda565b6144b77f00000000000000000000000000000000000000000000000000000000000000006104d0565b604063ad967e15917f00000000000000000000000000000000000000000000000000000000000000009061451c5f8b95614527828b6144f58561357c565b906145076145028761142e565b613919565b926145106100f1565b9b8c9a8b998a98610d85565b88526004880161381a565b03925af180156145695761453c575b506141aa565b61455c9060403d8111614562575b61455481836109aa565b81019061377f565b50614536565b503d61454a565b610dda565b7f00000000000000000000000000000000000000000000000000000000000000006145a86145a261459d612dba565b6101ed565b916101ed565b145f1461474557866145c16145bc826121cf565b612dff565b346145d46145ce8361010e565b9161010e565b115f146146f5576040906145f3336145ed348490610ef7565b9061668c565b5b5b61461e7f00000000000000000000000000000000000000000000000000000000000000006104d0565b906146a363ad967e15919291927f0000000000000000000000000000000000000000000000000000000000000000936146ae6146805f9861465e5f61357c565b6146675f61357c565b9161468f336146746100f1565b9586916020830161376a565b602082018103825203856109aa565b6146976100f1565b9b8c9a8b998a98610d85565b88526004880161387a565b03925af180156146f0576146c3575b50614191565b6146e39060403d81116146e9575b6146db81836109aa565b81019061377f565b506146bd565b503d6146d1565b610dda565b90503461470a6147048361010e565b9161010e565b1061471857604088916145f4565b614741614723612df1565b61472b6100f1565b9182916330090e6560e11b835260048301610557565b0390fd5b8660406147515f61142e565b6145f5565b61477f7f00000000000000000000000000000000000000000000000000000000000000006104d0565b604063ad967e157f00000000000000000000000000000000000000000000000000000000000000006147c06147ba6147b5612dba565b6101ed565b916101ed565b145f1461489b5734925b9092906148497f0000000000000000000000000000000000000000000000000000000000000000928b956148546148265f6148045f61357c565b61480d5f61357c565b916148353361481a6100f1565b9586916020830161376a565b602082018103825203856109aa565b61483d6100f1565b9b8c9a8b998a98610d85565b88526004880161381a565b03925af1801561489657614869575b50614178565b6148899060403d811161488f575b61488181836109aa565b81019061377f565b50614863565b503d614877565b610dda565b6148a45f61142e565b926147ca565b6148ca6148ba61010084016130f5565b6148c4603e6136ba565b90610e40565b6148d261348a565b16806148e66148e05f61142e565b9161010e565b116148f2575b5061415f565b61496a60206149207f00000000000000000000000000000000000000000000000000000000000000006104d0565b63b5c736e49061495f7f0000000000000000000000000000000000000000000000000000000000000000926149536100f1565b95869485938493610d85565b835260048301610dc5565b03915afa8015614b1b5761498a915f91614aed575b506101e08501610ad8565b6149d86149ab61499d6101e086016130f5565b6149a56136d6565b906113c4565b6149b3610e09565b166149c8816149c26008613013565b90610e40565b906149d161304e565b169061205f565b906149f86149f36149ec6101e087016130f5565b84906164ea565b6121b3565b9081614a0c614a065f612d36565b916101bc565b139283614a4e575b505050614a21575f6148ec565b614a4a614a2c61375c565b614a346100f1565b9182916330090e6560e11b835260048301610557565b0390fd5b614a939350614a78614a8e92614a72614a7d9391614a6d6103e8613636565b610ef7565b90610eb3565b6121b3565b614a886103e86136e3565b906136ff565b613721565b614ae4614ade614ad9614abe614aa88b6121cf565b614ab8614ab3613280565b6121b3565b9061372f565b614ad3614ace61016089016130f5565b6121b3565b906136ff565b6101bc565b916101bc565b125f8080614a14565b614b0e915060203d8111614b14575b614b0681836109aa565b810190610d9a565b5f61497f565b503d614afc565b610dda565b61408461407e614b2f5f61367f565b61406d565b614146614b5e614b4e614b4960c086016130e8565b612dff565b614b5860016115c3565b90611bcf565b614b68600161153e565b17614041565b614146614b7a5f61142e565b614042565b82614b9a614b94614b8f5f61357c565b6101ed565b916101ed565b14614f1d575b614bac608083016130f5565b614bbe614bb85f61142e565b9161010e565b1180614e61575b614bcf575b613fc0565b614c2a6020614c14614c0f614c0a614c05614c00614bf06101008a016130f5565b614bfa6060613105565b90610e40565b613588565b61036d565b6135b0565b6135bc565b638e7bfbc090614c226100f1565b938492610d85565b82528180614c3a6004820161074e565b03915afa908115614e5c575f91614e2e575b5080614c77614c71760a70c3c40a64e6c51999090b65f67d924000000000000061165a565b9161010e565b118015614e10575b614de357614c9d614cb091614c9761018086016130f5565b90610eb3565b614caa6101a085016130f5565b90610ed5565b80614cd6614cd0722cd76fe086b93ce2f768a00b22a000000000006135f8565b9161010e565b11614dac575b614d55614d3a614d2c614d1b614d5a94614d0c614cfc6101008a016130f5565b614d066020613617565b90610e40565b614d1461348a565b1690610eb3565b614d266103e8613636565b90610ed5565b614d34612259565b90610eb3565b614d4f6b033b2e3c9fd0803ce800000061163b565b90610ed5565b6166db565b50614d79614d73614d6d60c086016130e8565b926101bc565b916101bc565b1315614bca57614da8614d8a613671565b614d926100f1565b9182916330090e6560e11b835260048301610557565b0390fd5b50614d5a614d55614d3a614d2c614d1b614dd8722cd76fe086b93ce2f768a00b22a000000000006135f8565b945050505050614cdc565b614e0c614dee6135e7565b614df66100f1565b9182916330090e6560e11b835260048301610557565b0390fd5b5080614e28614e22633b9aca006134ba565b9161010e565b10614c7f565b614e4f915060203d8111614e55575b614e4781836109aa565b810190610d9a565b5f614c4c565b503d614e3d565b610dda565b50614e6e604083016130e8565b614e8b614e85614e8060c086016130e8565b6101bc565b916101bc565b13158015614e99575b614bc5565b50614ebb614ea9608084016130f5565b614eb560a085016130f5565b90610ef7565b614f17614f11614f0c614efc614ee9614ed6602089016130f5565b614ee3633b9aca0161349b565b90610eb3565b614ef6633b9aca006134ba565b90610ed5565b614f06600161153e565b90610f8f565b61010e565b9161010e565b11614e94565b91503391614ba0565b5086614f3a614f345f612d36565b916101bc565b13613fbb565b614f4c60c083016130e8565b614f5e614f585f612d36565b916101bc565b125f146150e757614f94614f84614f7f614f7a60c086016130e8565b6121cf565b612dff565b614f8e60016115c3565b90611bcf565b5b9080614fa16002611e40565b16614fb4614fae5f61142e565b9161010e565b145f14614fe557614fde90614fcc623fffff19613544565b1691614fd86002612f12565b90611bcf565b175b613f9f565b906150e1906150ba61501d61500485614ffe60346131d2565b90610e40565b61500c611ef1565b16615017600161153e565b90610f8f565b936150936150516150388361503260166122a1565b90610e40565b615040611ef1565b1661504b60a66120f0565b90611bcf565b615081615068846150626002612f12565b90610e40565b615070612f4d565b1661507b60c4613506565b90611bcf565b1761508e60078890611e7b565b611c30565b6150a86a03ffffffffffffffffffff19613525565b16916150b46002612f12565b90611bcf565b176150cf836150c960166122a1565b90611bcf565b17916150db60346131d2565b90611bcf565b17614fe0565b61510e6150fe6150f960c085016130e8565b612dff565b61510860016115c3565b90611bcf565b615118600161153e565b17614f95565b615165615153615145615133608086016130f5565b61513f60a087016130f5565b90612086565b61514d612259565b90612269565b61515f606085016130f5565b906122bd565b6151a76151a161519c61518b61517d602088016130f5565b615185612259565b90612269565b6151965f88016130f5565b906122bd565b61010e565b9161010e565b1115613f6e576151d66151b86134f5565b6151c06100f1565b9182916330090e6560e11b835260048301610557565b0390fd5b50866151ee6151e85f612d36565b916101bc565b14613f69565b615215615203608084016130f5565b61520f60a085016130f5565b90612086565b61523261522c615227602086016130f5565b61010e565b9161010e565b1115613f4f576152616152436134f5565b61524b6100f1565b9182916330090e6560e11b835260048301610557565b0390fd5b615276600160ff1b60c08401612f5c565b613fa0565b6152a4615286612dac565b61528e6100f1565b9182916330090e6560e11b835260048301610557565b0390fd5b50866152bc6152b65f612d36565b916101bc565b14613e75565b6152eb6152cd613253565b6152d56100f1565b9182916330090e6560e11b835260048301610557565b0390fd5b866153026152fc5f612d36565b916101bc565b1261530d575b613e5b565b8661533161532b6f7fffffffffffffffffffffffffffffff19613218565b916101bc565b135f146154115761538b61538661537661535b8a615355615350613280565b6121b3565b90613300565b61537061536b6101a088016130f5565b6121b3565b90613349565b61538060016132af565b906132cb565b6121cf565b61539481612dff565b6153b16153ab6153a6608087016130f5565b61010e565b9161010e565b116153e4576153c26153de91612dff565b6153d860808501916153d3836130f5565b610ef7565b90610ad8565b5b615308565b61540d6153ef61343e565b6153f76100f1565b9182916330090e6560e11b835260048301610557565b0390fd5b95615428615422600160ff1b6101bc565b916101bc565b145f146154a05761548561547561547061546b61545d61544a608087016130f5565b6154576101a088016130f5565b90612269565b615465613280565b906122bd565b6121b3565b613291565b61547f60016132af565b90613382565b9561549b6154925f61142e565b60808401610ad8565b6153df565b6154c96154ab613253565b6154b36100f1565b9182916330090e6560e11b835260048301610557565b0390fd5b6154f66154d8613253565b6154e06100f1565b9182916330090e6560e11b835260048301610557565b0390fd5b8561550d6155075f612d36565b916101bc565b12615518575b613d64565b8561553c6155366f7fffffffffffffffffffffffffffffff19613218565b916101bc565b135f146156245761558e61557e6155638861555d615558613280565b6121b3565b90613300565b61557861557361018087016130f5565b6121b3565b90613349565b61558860016132af565b90613382565b61559f61559a826121cf565b612dff565b6155bc6155b66155b1606087016130f5565b61010e565b9161010e565b116155f7576155d56155d06155f1926121cf565b612dff565b6155eb60608501916155e6836130f5565b610ef7565b90610ad8565b5b615513565b6156206156026133d6565b61560a6100f1565b9182916330090e6560e11b835260048301610557565b0390fd5b9461563b615635600160ff1b6101bc565b916101bc565b145f146156b35761569861568861568361567e61567061565d606087016130f5565b61566a61018088016130f5565b90612269565b615678613280565b906122bd565b6121b3565b613291565b61569260016132af565b906132cb565b946156ae6156a55f61142e565b60608401610ad8565b6155f2565b6156dc6156be613253565b6156c66100f1565b9182916330090e6560e11b835260048301610557565b0390fd5b6156f4906156ee602d612ff4565b90610e40565b6156fc61304e565b168061571061570a5f61142e565b9161010e565b145f14615ca9575061579661578d61577d61576d615743615733606088016130f5565b61573d600161153e565b90610f8f565b5b61576861576361575e61575960c08b016130e8565b6121e3565b6121ff565b612a83565b612269565b6157776060613105565b90610e40565b615787600161153e565b9061203a565b60808401610ad8565b6157b56157b060056157aa60c086016130e8565b90613121565b610d78565b806157c0600161153e565b166157d46157ce600161153e565b9161010e565b148015615c68575b5f14615a435761585061581861584a926157f860c087016130e8565b9061580560e088016130f5565b615811608089016130f5565b91926122df565b9093926158448960c081999599019661583d60808301956101c0606085019401610ad8565b9890610ad8565b90610ad8565b90612f5c565b61585c608084016130f5565b61587961587361586e60a087016130f5565b61010e565b9161010e565b115f146159d557615978906158e96158d76158aa61589a6101c088016130f5565b6158a460346131d2565b90610e40565b6158b2610e09565b166158c7816158c16008613013565b90610e40565b906158d061304e565b169061205f565b6158e3608087016130f5565b90612086565b806158fd6158f7606461210f565b9161010e565b106159c0575b6159739061596a61595a61591a6101c089016130f5565b6159336e0ffffffffffffffff0000000000000196131f1565b1692603890600861595461594e61594861320d565b94613197565b916131b3565b916162ec565b61596460346131d2565b90611bcf565b17916007611e7b565b611c30565b6159a361598760a084016130f5565b61599d6080850191615998836130f5565b610ef7565b90610ad8565b5b5b6159ba6159b15f61142e565b60a08401610ad8565b5f613c44565b506159736159ce606461210f565b9050615903565b50615a14615a0d6159fb6159e9600a610d78565b6159f560a087016130f5565b9061203a565b615a07608086016130f5565b90612086565b600a611c30565b615a29615a205f61142e565b60808401610ad8565b615a3e615a355f61142e565b60608401610ad8565b6159a4565b90615a5882615a526019611f55565b90610e40565b615a60610e09565b1680615a74615a6e5f61142e565b9161010e565b14615c3b5780615a91615aa192615a8b6008613013565b90610e40565b90615a9a61304e565b169061205f565b615aad608085016130f5565b615abf615ab98361010e565b9161010e565b105f14615c2c57615adc90615ad6608086016130f5565b90610ef7565b5b80615af2615aec612710610f35565b9161010e565b10615b8f575b615b42615b32615b5f9394615b0b613183565b16926038906008615b2c615b26615b20613193565b94613197565b916131b3565b916162ec565b615b3c6019611f55565b90611bcf565b17615b5a6005615b5460c087016130e8565b90613121565b611c30565b615b8a615b6e60a084016130f5565b615b846080850191615b7f836130f5565b612086565b90610ad8565b6159a5565b50615b995f61142e565b615ba560c085016130e8565b615bc3615bbd615bb861014088016130e8565b6101bc565b916101bc565b14615bf4575b615b42615b32615b5f9394615bea615be360c089016130e8565b5f90616b71565b9493505050615af8565b615b42615b32615c23615c16615b5f95615c116101408a016130e8565b6170ef565b6101408993929301612f5c565b93505050615bc9565b50615c365f61142e565b615add565b615c64615c46613156565b615c4e6100f1565b9182916330090e6560e11b835260048301610557565b0390fd5b50615c7d81615c7760016115c3565b90610e40565b615c85611dfc565b16615ca3615c9d615c9860e087016130f5565b61010e565b9161010e565b116157dc565b61578d61577d61576d615cde61579694615cd8615cc860608a016130f5565b91615cd3600161153e565b61205f565b90610f8f565b615744565b615d04915060203d8111615d0a575b615cfc81836109aa565b810190610d9a565b5f613c05565b503d615cf2565b610dda565b93905085615d2c615d265f612d36565b916101bc565b128015616014575b80615f5c575b615f2f57615d52615d4d60038690611e7b565b610d78565b80615d65615d5f5f61142e565b9161010e565b14615f0257615dba615db1615d8483615d7e602d612ff4565b90610e40565b615d8c610e09565b16615da181615d9b6008613013565b90610e40565b90615daa61304e565b169061205f565b60608501610ad8565b615e0a615e01615dd483615dce606d61305e565b90610e40565b615ddc610e09565b16615df181615deb6008613013565b90610e40565b90615dfa61304e565b169061205f565b60a08501610ad8565b80615e15600161153e565b16615e29615e23600161153e565b9161010e565b145f14615e4757615e41600160ff1b60c08501612f5c565b5b613c1c565b80615e526002611e40565b16615e66615e606002611e40565b9161010e565b145f14615ecd57615e9f615e95615e8783615e816002612f12565b90610e40565b615e8f6121a4565b166121b3565b5b60c08501612f5c565b615ec8615eb682615eb0601561307d565b90610e40565b615ebe611dfc565b1660e08501610ad8565b615e42565b615e9f615efd615ef8615eea84615ee46002612f12565b90610e40565b615ef26121a4565b166121b3565b6121cf565b615e96565b615f2b615f0d612fe3565b615f156100f1565b9182916330090e6560e11b835260048301610557565b0390fd5b615f58615f3a612fb6565b615f426100f1565b9182916330090e6560e11b835260048301610557565b0390fd5b50615fb56020615f8b7f0000000000000000000000000000000000000000000000000000000000000000610379565b636352211e90615faa8892615f9e6100f1565b95869485938493610d85565b835260048301610557565b03915afa90811561600f575f91615fe1575b50615fda615fd4336101ed565b916101ed565b1415615d3a565b616002915060203d8111616008575b615ffa81836109aa565b810190612f79565b5f615fc7565b503d615ff0565b610dda565b50866160286160225f612d36565b916101bc565b13615d34565b81616039600161153e565b1661604d616047600161153e565b9161010e565b145f1461608257613b4961607c61606e8461606860016115c3565b90610e40565b6160766121a4565b166121b3565b5b613b3f565b613b496160b26160ad61609f8561609960016115c3565b90610e40565b6160a76121a4565b166121b3565b6121cf565b61607d565b6160e06160c2612df1565b6160ca6100f1565b9182916330090e6560e11b835260048301610557565b0390fd5b346160f76160f15f61142e565b9161010e565b11616102575b613ac3565b7f000000000000000000000000000000000000000000000000000000000000000061613c616136616131612dba565b6101ed565b916101ed565b148061617f575b61614d90156105f0565b156160fd5761617b61615d612df1565b6161656100f1565b9182916330090e6560e11b835260048301610557565b0390fd5b5061614d866161966161905f612d36565b916101bc565b129050616143565b50846161b26161ac5f612d36565b916101bc565b13613a9c565b6161e16161c3612dac565b6161cb6100f1565b9182916330090e6560e11b835260048301610557565b0390fd5b50856161f96161f35f612d36565b916101bc565b141580616206575b613a57565b508561621d61621761270f19612d55565b916101bc565b1380616229575b616201565b508561623f616239612710612d71565b916101bc565b12616224565b50846162596162535f612d36565b916101bc565b141580616266575b613a50565b508461627d61627761270f19612d55565b916101bc565b1380616289575b616261565b508461629f616299612710612d71565b916101bc565b12616284565b50856162b96162b35f612d36565b916101bc565b14613a49565b6162e86162ca612d28565b6162d26100f1565b9182916330090e6560e11b835260048301610557565b0390fd5b9291906162f761097b565b50805f856fffffffffffffffffffffffffffffffff8111616423575b67ffffffffffffffff8111616416575b63ffffffff8111616409575b61ffff81116163fc575b60ff81116163ef575b600f81116163e2575b600381116163d5575b600181116163c7575b5f106163bf575b8181106163b8575b0393841c925f85111661638f575b506001811b83101561638b571b0190565b5f80fd5b9160010191826001821b146163a4575b61637a565b600180929493508091031b9101915f61639f565b508061636c565b600101616364565b9060015f910191905061635d565b600290811c910190616354565b600490811c91019061634b565b600890811c910190616342565b601090811c910190616339565b602090811c91019061632f565b604090811c910190616323565b905060801c608090616313565b90565b61644761644261644c92616430565b61034e565b61010e565b90565b6164596041616433565b90565b61646660086131b3565b90565b61647360ff613032565b90565b90565b61648d61648861649292616476565b61034e565b61010e565b90565b61649f60a2616479565b90565b6164ac6081612843565b90565b90565b6164c66164c16164cb926164af565b61034e565b61010e565b90565b6164d860b06164b2565b90565b6164e762ffffff611de0565b90565b9190916164f561097b565b5061653661650b8261650561644f565b906113c4565b6165136113eb565b166165268161652061645c565b906113c4565b9061652f616469565b169061205f565b806165496165435f61142e565b9161010e565b1461664e57906166189161655b61097b565b5061656461097b565b506165ee61659e6165906165808561657a616495565b906113c4565b61658861162a565b168890610eb3565b616598611589565b90610ed5565b926165df6165d06165ca426165bb856165b56164a2565b906113c4565b6165c36114d1565b1690610ef7565b86612269565b916165d96164ce565b906113c4565b6165e76164db565b16906122bd565b816166016165fb8361010e565b9161010e565b115f1461663e5761661191610ef7565b5b93610ef7565b8061662b6166258561010e565b9161010e565b11616634575b50565b909150905f616631565b50506166495f61142e565b616612565b5050905061665b5f61142e565b90565b90565b61667561667061667a9261665e565b61034e565b61010e565b90565b6166896201155a616661565b90565b5f80806166a894819461669d611dd9565b50614e20f1156105f0565b6166ae57565b6166d76166b961667d565b6166c16100f1565b918291636f728d4560e11b835260048301610557565b0390fd5b6166e3611dd5565b916166ec61097b565b91630235b88081107473d85bca016a2338b31715f8e13054c005f8b995d3821117616b4057600160601b81105f908015616b22575b80616b06575b6f037af932b2affa9738cc6c38ca527831821015616ad9575b6d010f7a088a76f267264caa114f0a821015616aae575b6b95da74f87f839fc2e0dc5bd9821015616a85575b6b06f55dedafd8491caed5a1b8821015616a5c575b6b017fdd10ee11e624491b4cc1821015616a33575b6ab23131bf0c30217b0a2c69821015616a0b575b6a79683edcb9280d797aded78210156169e3575b6a64366e2f9919f0d9b0dc908210156169bc575b6a5b0bcda5a78850646b0a81821015616995575b6a56c840f992c70f959ae81082101561696e575b6a54b9cd178695194f9be0a0821015616947575b6a53b7458aff204b5e65d681821015616920575b6a53372a2f38c240d689e4008210156168f9575b6a52f76617a04499e66400008210156168d2575b6a52d79660f3dec355c000008210156168ab575b8015616893575b616877575b50821161687357565b5f80fd5b936a52d79660f3dec355c000009193501993830204915f61686a565b9350806a52b7d2dcc80cd2e400000083020493616865565b90946a52b7d2dcc80cd2e400000060016a52d79660f3dec355c0000092179602049061685e565b90946a52b7d2dcc80cd2e400000060026a52f76617a04499e664000092179602049061684a565b90946a52b7d2dcc80cd2e400000060046a53372a2f38c240d689e400921796020490616836565b90946a52b7d2dcc80cd2e400000060086a53b7458aff204b5e65d681921796020490616822565b90946a52b7d2dcc80cd2e400000060106a54b9cd178695194f9be0a092179602049061680e565b90946a52b7d2dcc80cd2e400000060206a56c840f992c70f959ae8109217960204906167fa565b90946a52b7d2dcc80cd2e400000060406a5b0bcda5a78850646b0a819217960204906167e6565b90946a52b7d2dcc80cd2e400000060806a64366e2f9919f0d9b0dc909217960204906167d2565b90946a52b7d2dcc80cd2e40000006101006a79683edcb9280d797aded79217960204906167be565b90946a52b7d2dcc80cd2e40000006102006ab23131bf0c30217b0a2c699217960204906167aa565b90946a52b7d2dcc80cd2e40000006104006b017fdd10ee11e624491b4cc1921796020490616796565b90946a52b7d2dcc80cd2e40000006108006b06f55dedafd8491caed5a1b8921796020490616781565b90946a52b7d2dcc80cd2e40000006110006b95da74f87f839fc2e0dc5bd992179602049061676c565b90946a52b7d2dcc80cd2e40000006120006d010f7a088a76f267264caa114f0a921796020490616757565b90946a52b7d2dcc80cd2e40000006140006f037af932b2affa9738cc6c38ca527831921796020490616740565b9050816a52b7d2dcc80cd2e4000000600160601b020490616727565b809150600160601b6a52b7d2dcc80cd2e40000008402049150616721565b5f80fd5b90565b616b5b616b56616b6092616b44565b61034e565b6101bc565b90565b90616b6e91016101bc565b90565b616c2d616c329282616b8b616b855f612d36565b916101bc565b125f14616c6b57616bf5616bf0616bd3616bc3616bb287616bac60016132af565b90616b63565b616bbd610100616b47565b906136ff565b616bcd60016132af565b90613721565b5b94616bea86616be4610100616b47565b9061372f565b90613721565b612dff565b905f14616c3457616c23616c13616c0e60048690613121565b610d78565b91616c1e600161153e565b61205f565b17915b6004613121565b611c30565b565b616c64616c5e616c4e616c4960048790613121565b610d78565b92616c59600161153e565b61205f565b1961010e565b1691616c26565b616bf5616bf0616c8685616c80610100616b47565b906136ff565b616bd4565b90565b616ca2616c9d616ca792616c8b565b61034e565b61010e565b90565b616cb5617933616c8e565b90565b6001616cc491016101bc565b90565b6001616cd3910161010e565b90565b90565b616ced616ce8616cf292616cd6565b61034e565b61010e565b90565b616d00617931616cd9565b90565b9190616d0d611dd5565b50616d1661097b565b50616d1f61097b565b50616d2861097b565b5080616d3e616d38612710610f35565b9161010e565b1061706557616dc0616db9616da9616d8195616da4616d93616d7a616d75616d6e89616d68612259565b90612269565b85906122bd565b6166db565b9990616cb8565b98616d8d61271f61221e565b90610eb3565b616d9e612710610f35565b90610ed5565b612269565b616db36060613105565b90610e40565b9182612086565b616dd4616dcf60058690613121565b610d78565b92616de984616de360016115c3565b90610e40565b616df1611dfc565b1693616dfb61097b565b5084616e0f616e095f61142e565b9161010e565b1180617040575b5f14616f4557616e33616e6091616e2d6019611f55565b90610e40565b616e3b610e09565b16616e5081616e4a6008613013565b90610e40565b90616e5961304e565b169061205f565b616e6b81859061203a565b90616e7e616e785f61142e565b9161010e565b14616f34575b5b80616e9a616e94612710610f35565b9161010e565b10616f0757616f0590616ef3616ee3616ebd88616eb760016115c3565b90611bcf565b926038906008616edd616ed7616ed1613193565b94613197565b916131b3565b916162ec565b616eed6019611f55565b90611bcf565b17616f0060058890613121565b611c30565b565b616f30616f12616cf5565b616f1a6100f1565b9182916330090e6560e11b835260048301610557565b0390fd5b616f4086600190616b71565b616e84565b93616f6c91948682616f5f616f595f61142e565b9161010e565b11616f7f575b5050616cc7565b9282616f7a86600190616b71565b616e85565b61703461703992617021616fe1616fd0616fcb616fc4616fbc616fac8b616fa66002611e40565b90610f8f565b616fb66003611e5f565b90610ed5565b976006611e27565b8790611e7b565b610d78565b92616fdb6019611f55565b90610e40565b61701b61700b616ffb89616ff56002611e40565b90610f8f565b6170056003611e5f565b90611e91565b6170156055611eb6565b90610eb3565b9061205f565b179161702f60068b90611e27565b611e7b565b611c30565b5f86616f65565b508061704c600161153e565b1661705f6170595f61142e565b9161010e565b14616e16565b61708e617070616caa565b6170786100f1565b9182916330090e6560e11b835260048301610557565b0390fd5b90565b6170a96170a46170ae92617092565b61034e565b610810565b90565b90565b6170c86170c36170cd926170b1565b61034e565b61010e565b90565b90565b6170e76170e26170ec926170d0565b61034e565b61010e565b90565b906170f861097b565b50617101611dd5565b506171168161711060166122a1565b90610e40565b61711e611ef1565b1661713361712e60078390611e7b565b610d78565b61713b611dd5565b506171508161714a60c4613506565b90610e40565b61715a600161153e565b1661716e617168600161153e565b9161010e565b145f14617376576171a461719d61718f8361718960c5617095565b90610e40565b6171976121a4565b166121b3565b945b617406565b93806171b86171b2876101bc565b916101bc565b135f1461736f575b93846171d86171d2600160ff1b6101bc565b916101bc565b145f146171f4575050506171ef623ffffe196170d3565b165b91565b61720761720186926101bc565b916101bc565b145f1461729f5750508161722361721d5f612d36565b916101bc565b125f1461726457617237623ffffe196170d3565b1661725c61724c617247846121cf565b612dff565b6172566003612169565b90611bcf565b175b5b6171f1565b617271623ffffe196170d3565b1661727c600461214d565b1761729961728983612dff565b6172936003612169565b90611bcf565b1761725e565b6173599061734761732e61736994956172cb6172ba5f61142e565b6172c660078a90611e7b565b611c30565b6172e06a03fffffffffffffffffffe196170b4565b166172eb6002611e40565b1761731c617303856172fd60c4613506565b90610e40565b61730b612f4d565b166173166002612f12565b90611bcf565b179261732860a66120f0565b90610e40565b617336611ef1565b1661734160166122a1565b90611bcf565b1792617353600161153e565b90610ef7565b61736360346131d2565b90611bcf565b1761725f565b50836171c0565b6173a361739e6173908361738a60c5617095565b90610e40565b6173986121a4565b166121b3565b6121cf565b93846173b76173b15f612d36565b916101bc565b146173c6575b6171a49061719f565b93506171a4600160ff1b9490506173bd565b60016173e491036101bc565b90565b90565b6173fe6173f9617403926173e7565b61034e565b6101bc565b90565b61740e611dd5565b617416611dd5565b5061741f61097b565b508161743361742d5f612d36565b916101bc565b125f146175a0576174e26174bf6174ba61748b6174816174716174608861745a60016132af565b90616b63565b61746b610100616b47565b906136ff565b61747b60016132af565b90613721565b9594955b946121cf565b6174b46174a38661749d610100616b47565b9061372f565b6174ae610100616b47565b90616b63565b90616b63565b612dff565b6174dd6174d66174d160048690613121565b610d78565b829061205f565b6113c4565b5b60011561759857806174fd6174f75f61142e565b9161010e565b1161754e575061750c906173d8565b908161752261751c6080196173ea565b916101bc565b146175435761753b61753660048490613121565b610d78565b9091906174e3565b5050600160ff1b905b565b617592925061757c6175776175716175829461756b610100616b47565b9061372f565b926175c9565b6121b3565b90616b63565b61758c60016132af565b90613721565b9061754c565b50509061754c565b6174e26174bf6174ba61748b6175c1866175bb610100616b47565b906136ff565b959495617485565b906175d261097b565b916fffffffffffffffffffffffffffffffff81116176a4575b67ffffffffffffffff8111617697575b63ffffffff811161768a575b61ffff811161767d575b60ff8111617670575b600f8111617663575b60038111617656575b60018111617648575b5f1061763e575b565b906001019061763c565b9160015f9101929050617635565b600290811c92019161762c565b600490811c920191617623565b600890811c92019161761a565b601090811c920191617611565b602090811c920191617607565b604090811c9201916175fb565b90915060801c906080916175eb565b6176bd60a06109d3565b90565b6176c86176b3565b90602080808080866176d86109fe565b8152016176e3612e29565b8152016176ee612e29565b8152016176f96109fe565b8152016177046109fe565b81525050565b6177126176c0565b90565b90565b61772c61772761773192617715565b61034e565b61010e565b90565b61773f617920617718565b90565b90565b61775961775461775e92617742565b61034e565b61010e565b90565b61776c61791f617745565b90565b61777a6101806109d3565b90565b61778561776f565b90602080808080808080808080808d61779c6109fe565b8152016177a76109fe565b8152016177b26109fe565b8152016177bd6109fe565b8152016177c86109fe565b8152016177d36109fe565b8152016177de612e29565b8152016177e96109fe565b8152016177f46109fe565b8152016177ff612e29565b81520161780a6109fe565b8152016178156109fe565b81525050565b61782361777d565b90565b61783060c06109d3565b90565b61783b617826565b90602080808080808761784c6109fe565b8152016178576109fe565b8152016178626109fe565b81520161786d6109fe565b815201617878612e29565b8152016178836109fe565b81525050565b617891617833565b90565b90565b6178ab6178a66178b092617894565b61034e565b610810565b90565b90565b6178ca6178c56178cf926178b3565b61034e565b610810565b90565b9160206178f39294936178ec60408201965f830190610111565b0190610262565b565b90565b61790c617907617911926178f5565b61034e565b61010e565b90565b61791f61792e6178f8565b90565b61792c60e06109d3565b90565b617937617922565b90602080808080808088617949612e29565b8152016179546109fe565b81520161795f6109fe565b81520161796a6109fe565b8152016179756109fe565b8152016179806109fe565b81520161798b6109fe565b81525050565b61799961792f565b90565b90565b6179b36179ae6179b89261799c565b61034e565b61010e565b90565b6179c96407ffffffff61799f565b90565b6179e06179db6179e592611ffa565b61034e565b610810565b90565b6179fc6179f7617a0192610e1d565b61034e565b61010e565b90565b617a0e60406179e8565b90565b617a2c6001617a27617a21617a04565b9161153e565b61205f565b90565b617a3960c06109d3565b90565b617a44617a2f565b906020808080808087617a55612e29565b815201617a60612e29565b815201617a6b612e29565b815201617a766109fe565b815201617a816109fe565b815201617a8c6109fe565b81525050565b617a9a617a3c565b90565b617aa69061142e565b9052565b916020617acb929493617ac460408201965f830190617a9d565b0190617a9d565b565b90565b617ae4617adf617ae992617acd565b61034e565b61010e565b90565b617af7617935617ad0565b90565b90565b617b11617b0c617b1692617afa565b61034e565b61010e565b90565b90565b617b30617b2b617b3592617b19565b61034e565b61010e565b90565b617b43617938617b1c565b90565b617b5a617b55617b5f92611e3d565b61034e565b6101bc565b90565b90565b617b79617b74617b7e92617b62565b61034e565b61010e565b90565b617b8c617930617b65565b90565b90565b617ba6617ba1617bab92617b8f565b61034e565b61010e565b90565b617bb9617921617b92565b90565b617bf1617bf894617be7606094989795617bdd608086019a5f870190613099565b6020850190610111565b6040830190610111565b0190613099565b565b9293919093617c0761097b565b50617c1061097b565b50617c1961770a565b94617c235f610d78565b9081617c2f600161153e565b16617c42617c3c5f61142e565b9161010e565b145f1461a6bb57617c5e82617c57600161153e565b175f611c30565b7f0000000000000000000000000000000000000000000000000000000000000000617c98617c92617c8d612dba565b6101ed565b916101ed565b145f1461a6755734617cb2617cac8861010e565b9161010e565b14158061a658575b61a62b575b617cd4617ccc6001610d78565b5f8901610ad8565b617ce882617ce26002612f12565b90610e40565b617cf0612f4d565b16617d03617cfd5f61142e565b9161010e565b1461a5fe57617d39617d1e617d195f8a016130f5565b610fbc565b92509050617d3360608b019260808c01610ad8565b90610ad8565b617d4161781b565b9287617db66020617da0617d9b617d96617d91617d8c617d7c5f617d63617889565b99617d6c61097b565b50617d7561097b565b50016130f5565b617d866060613105565b90610e40565b613588565b61036d565b6135b0565b6135bc565b63f3190c8990617dae6100f1565b938492610d85565b82528180617dc66004820161074e565b03915afa90811561a5f9575f9161a5cb575b5080617e03617dfd760a70c3c40a64e6c51999090b65f67d924000000000000061165a565b9161010e565b11801561a5b1575b61a58457617fd1617fcc617fbb8c617fac617f9c5f617f3b617f208e617e55617e43617fdb9c617e3d60608b016130f5565b90610eb3565b617e4f60808a016130f5565b90610ed5565b9081617e7c617e76722cd76fe086b93ce2f768a00b22a000000000006135f8565b9161010e565b1161a55b575b617f12906060617f0b617efa617eb8760a70c3c40a64e6c51999090b65f67d9240000000000000617eb3889161165a565b610ed5565b617ef48d617eef617ee0617ed08e61271094016130f5565b617eda6048617897565b90610e40565b617ee861348a565b1691610f35565b610f8f565b90610eb3565b617f05612710610f35565b90610ed5565b9101610ad8565b617f1a612259565b90610eb3565b617f356b033b2e3c9fd0803ce800000061163b565b90610ed5565b617f95617f8b617f86617f7584617f66617f56888c016130f5565b617f60602a6178b6565b90610e40565b617f6e61348a565b1690610eb3565b617f806103e8613636565b90610ed5565b6166db565b5060208701612f5c565b93016130f5565b617fa660346131d2565b90610e40565b617fb461348a565b1690610eb3565b617fc66103e8613636565b90610ed5565b6166db565b5060408b01612f5c565b83617fe6600461214d565b16617ffa617ff4600461214d565b9161010e565b145f1461a5265761803361802961801b866180156003612169565b90610e40565b6180236121a4565b166121b3565b5b60c08701612f5c565b8861804060c087016130e8565b61805d618057618052604085016130e8565b6101bc565b916101bc565b1361a3c6575b5087618079618073612710610f35565b9161010e565b10801561a3a5575b61a37857849161826461825c8b618256608061824f8e8b6180a26002611e40565b166180b56180af5f61142e565b9161010e565b145f1461a363576180dc6180d26180cc60016115c3565b5b61369b565b6101008c01610ad8565b6180fb6180f360c06180ec617991565b9c016130e8565b5f8c01612f5c565b6181236181128d61810c60166122a1565b90610e40565b61811a611ef1565b165f8b01610ad8565b61814e6181456181408b61813a5f600792016130f5565b90611e7b565b610d78565b60208b01610ad8565b61818261817061816060208c016130f5565b61816a6074611fb2565b90610e40565b618178611f3f565b1660608b01610ad8565b61818e60608a016130f5565b6181a061819a5f61142e565b9161010e565b1461a32b575b6181c56181b560208b016130f5565b6181bf60c4613506565b90610e40565b6181cd612f4d565b16806181e16181db5f61142e565b9161010e565b115f1461a3155780618240916181f7600161153e565b1661820b618205600161153e565b9161010e565b145f1461a2e3576182296182379161822360016115c3565b90610e40565b6182316121a4565b166121b3565b5b848b01612f5c565b5b618249613280565b90610eb3565b92016130f5565b90610ed5565b5f8801610ad8565b6182be6182ab61827e876182786092613943565b90610e40565b618286610e09565b1661829b816182956008613013565b90610e40565b906182a461304e565b169061205f565b6182b8633b9aca006134ba565b906122bd565b6182da6182d46182cf5f8a016130f5565b61010e565b9161010e565b1161a2b65761a168575b6182f060c086016130e8565b61830d61830761830260208d016130e8565b6101bc565b916101bc565b136188bb575b505061837a61836c61834d61833f61832d608088016130f5565b61833960808d016130f5565b90612269565b618347613280565b906122bd565b98618366606061835f60a089016130f5565b92016130f5565b90612269565b618374613280565b906122bd565b958761838e6183888361010e565b9161010e565b1161889c575b50866183a86183a25f61142e565b9161010e565b1461886f576183e46183de6183d86183d1896183cb670de0b6b3a7640000610e97565b90612269565b8a906122bd565b9261010e565b9161010e565b1061884257826183fe6183f861dead6101ed565b916101ed565b1461881b577f000000000000000000000000000000000000000000000000000000000000000061843d618437618432612dba565b6101ed565b916101ed565b145f1461880a57856040818261845b6184553461010e565b9161010e565b106187f0575b5b61848b7f00000000000000000000000000000000000000000000000000000000000000006104d0565b9061852063ad967e15919291927f00000000000000000000000000000000000000000000000000000000000000009361852b6184fd6184d26184cd5f9a6121b3565b6121cf565b6184db5f61357c565b6184e45f61357c565b9161850c336184f16100f1565b9586916020830161376a565b602082018103825203856109aa565b6185146100f1565b9b8c9a8b998a98610d85565b88526004880161387a565b03925af180156187eb576187be575b506185647f00000000000000000000000000000000000000000000000000000000000000006104d0565b604063ad967e15917f0000000000000000000000000000000000000000000000000000000000000000906185d95f6185a361859e8c6121b3565b6121cf565b956185e4828b6185b28561357c565b906185c46185bf8761142e565b613919565b926185cd6100f1565b9b8c9a8b998a98610d85565b88526004880161381a565b03925af180156187b95761874c93618745926187359261878c575b5061870e6186fe6186b96186626186506186238961861d605261344f565b90610e40565b61862b610e09565b166186408161863a6008613013565b90610e40565b9061864961304e565b169061205f565b61865c60a087016130f5565b90612086565b936186b360806186ac61867f8b6186796092613943565b90610e40565b618687610e09565b1661869c816186966008613013565b90610e40565b906186a561304e565b169061205f565b92016130f5565b90612086565b956186d76fffffffffffffffffffffffffffffffff60521b19613962565b169260389060086186f86186f26186ec613193565b94613197565b916131b3565b916162ec565b618708605261344f565b90611bcf565b1792603890600861872f61872961872361320d565b94613197565b916131b3565b916162ec565b61873f6092613943565b90611bcf565b175f611c30565b33839061878786937f80fd9cc6b1821f4a510e45ffce6852ea3404807b5d3d833ffa85664408afcb669461877e6100f1565b94859485617bbc565b0390a1565b6187ac9060403d81116187b2575b6187a481836109aa565b81019061377f565b506185ff565b503d61879a565b610dda565b6187de9060403d81116187e4575b6187d681836109aa565b81019061377f565b5061853a565b503d6187cc565b610dda565b618805336187ff348690610ef7565b9061668c565b618461565b8560406188165f61142e565b618462565b858561883e6188286100f1565b92839263330daa9160e21b84526004840161065e565b0390fd5b61886b61884d617bae565b6188556100f1565b9182916330090e6560e11b835260048301610557565b0390fd5b61889861887a617aec565b6188826100f1565b9182916330090e6560e11b835260048301610557565b0390fd5b95966188ad6188b3929891886122bd565b90612269565b94955f618394565b6188c65f86016130f5565b6188d86188d25f61142e565b9161010e565b116188e3575b618313565b95909792945f97929497506188f661097b565b506188ff61097b565b50618908617a11565b94618911617a92565b998961891f60c082016130e8565b61893161892b5f612d36565b916101bc565b125f1461a1405761898161897161896061895060c061898b95016130e8565b61895a60016132af565b90616b63565b61896b610100616b47565b906136ff565b61897b60016132af565b90613721565b5b60408d01612f5c565b6189aa6189a161899c5f84016130e8565b612a83565b60408301610ad8565b6189b76101008b016130f5565b6189ca6189c4600161153e565b9161010e565b145f14619f6c576189e96189e0604083016130f5565b60e08c01610ad8565b618a016189f860c08c016130e8565b60208d01612f5c565b955b5b600115619f5c57618b78618b5c8b618b5660e0618b4f8e618a2861010086016130f5565b618a3b618a35600161153e565b9161010e565b145f14619f0857618b20618a64618a5f6005618a5960c08a016130e8565b90613121565b610d78565b91618b03618af36060618ab1618a8487618a7e6019611f55565b90610e40565b618a8c610e09565b16618aa181618a9b6008613013565b90610e40565b90618aaa61304e565b169061205f565b95618acc600191618ac56301fffffe617afd565b169161153e565b17618aeb618adb5f87016130f5565b618ae5601a611f74565b90611bcf565b1793016130f5565b618afd6038611f93565b90611bcf565b17618b1b6005618b1560c08a016130e8565b90613121565b611c30565b5b618b4181618b3b6020880191618b36836130f5565b61203a565b90610ad8565b618b49612259565b90612269565b92016130f5565b906122bd565b618b7260408d0191618b6d836130f5565b61203a565b90610ad8565b89898c618b87602082016130e8565b618ba4618b9e618b9960c087016130e8565b6101bc565b916101bc565b1480619ee1575b8015619ebc575b619ba3575b618c40618c3b610120618c539585618c45958e618bd96080618c4a9a016130e8565b618bf6618bf0618beb602086016130e8565b6101bc565b916101bc565b139081619b71575b505f14619ad45750618c156080618c1d92016130e8565b838301612f5c565b618c34618c2a6002611e40565b6101608301610ad8565b5b016130e8565b6121e3565b6121ff565b612a83565b60408901610ad8565b618c606101608b016130f5565b618c73618c6d6002611e40565b9161010e565b145f14619a8a57618cba618cb1618ca0618c8f60408b016130f5565b618c9a612710610f35565b90610eb3565b618cab61271f61221e565b90610ed5565b60608901610ad8565b618ce7618cde618ccc60408a016130f5565b618cd860608b016130f5565b90610ef7565b60808901610ad8565b618d2f618d26618d218b618d12618d026020600793016130f5565b618d0c60a66120f0565b90610e40565b618d1a611ef1565b1690611e7b565b610d78565b60a08b01610ad8565b618d63618d51618d4160a08c016130f5565b618d4b60166122a1565b90610e40565b618d59611ef1565b1660c08901610ad8565b618db7618dae618d7560608a016130f5565b618da8618d9a8b618d9460c0618d8d608084016130f5565b92016130f5565b90610eb3565b618da2611ef1565b90610ed5565b90610f8f565b60a08901610ad8565b618dd0618dc660a089016130f5565b6101408c01610ad8565b5b618e99618e40618e258c618e1f618dea602083016130f5565b91618e1960e0618e12618e0061014085016130f5565b618e0c602086016130f5565b90612269565b92016130f5565b906122bd565b90612086565b618e3a6b033b2e3c9fd0803ce800000061163b565b90612269565b618e938c618e8e618e88618e7a6b033b2e3c9fd0803ce800000093618e74610140618e6d606084016130f5565b92016130f5565b90612269565b618e82612259565b906122bd565b9161163b565b612086565b906122bd565b90618ecf618eb48c618eae60608692016130f5565b90612269565b618ec96b033b2e3c9fd0803ce800000061163b565b906122bd565b90618edc60208d016130f5565b618eee618ee88561010e565b9161010e565b14619a6f575b8b618f12618f0c618f075f8794016130f5565b61010e565b9161010e565b10158015619a48575b6192735791618ffb8c618ff5604061900c95618fc4618f87618f756190159a618f598a618f535f8b0191618f4e836130f5565b610ef7565b90610ad8565b618f6f618f6860208a016130f5565b8b90612086565b90612269565b618f81602088016130f5565b906122bd565b96618fa881618fa26080890191618f9d836130f5565b61203a565b90610ad8565b618fbe6020870191618fb9836130f5565b612086565b90610ad8565b618fe481618fde60a0870191618fd9836130f5565b61203a565b90610ad8565b920191618ff0836130f5565b612086565b90610ad8565b61900760608c016130f5565b61a797565b60608a01610ad8565b61901d617a11565b9561902b6101608b016130f5565b61903e6190386002611e40565b9161010e565b14619096575b61905d6190546101208c016130e8565b60c08c01612f5c565b61907761906d6101608c016130f5565b6101008c01610ad8565b6190906190876101408c016130f5565b60e08c01610ad8565b95618a04565b6191a86190b86190a860208c016130f5565b6190b260a66120f0565b90610e40565b6190c0611ef1565b166191986190d060a08d016130f5565b916191818d5f6190ea866190e46074611fb2565b90610e40565b6190f2611f3f565b169361917a61910d86619107606087016130f5565b9061a8b2565b61915e619142619132619122602089016130f5565b61912c60a66120f0565b90610e40565b61913c60a66120f0565b90611bcf565b61914c6002611e40565b17916191586074611fb2565b90611bcf565b17619175600761916f8688016130f5565b90611e7b565b611c30565b9101610ad8565b61918f8d6020859101610ad8565b60608d01610ad8565b6191a260c4613506565b90610e40565b6191b0612f4d565b16806191c46191be5f61142e565b9161010e565b115f1461925c5780619224916191da600161153e565b166191ee6191e8600161153e565b9161010e565b145f1461922a5761920c61921a9161920660016115c3565b90610e40565b6192146121a4565b166121b3565b5b60808b01612f5c565b5b619044565b6192526192446192579261923e60016115c3565b90610e40565b61924c6121a4565b166121b3565b6121cf565b61921b565b5061926e600160ff1b60808b01612f5c565b619225565b92969b806192a76192926080999e9b989d996192ac949d989d016130f5565b916192a16040600492016130e8565b90613121565b611c30565b8785836192cb6192c56192c05f86016130f5565b61010e565b9161010e565b10155f146199e657506192e292505f9150016130f5565b90866193186192fd846192f7606085016130f5565b90612269565b6193126b033b2e3c9fd0803ce800000061163b565b906122bd565b918561936061934461933661932f602087016130f5565b8890612086565b61933e612259565b90612269565b61935a619353604087016130f5565b8790612086565b906122bd565b61938361936c826166db565b9061937d5f86019260608701610ad8565b90612f5c565b61938e5f83016130e8565b6193ac6193a66193a161012088016130e8565b6101bc565b916101bc565b12806199ba575b5f1461972957509261947c61943e6194d2969461943860206194316194b8976194146194c99b6194016193e66002617b46565b6193fb5f8401916193f6836130e8565b616b63565b90612f5c565b60c061940d600161153e565b9101610ad8565b5b5b61942b6194248487016130f5565b8b90612086565b90612269565b92016130f5565b906122bd565b936194608c61945a608084920191619455836130f5565b61203a565b90610ad8565b61947660208d0191619471836130f5565b612086565b90610ad8565b61949c8161949660a08d0191619491836130f5565b61203a565b90610ad8565b6194b260408b01916194ad836130f5565b612086565b90610ad8565b6194c4606087016130f5565b61a797565b60608501610ad8565b6194de602086016130f5565b6194f16194eb606461210f565b9161010e565b106196fc576195015f83016130e8565b61951361950d5f612d36565b916101bc565b125f146196c65761954861953861953361952e5f86016130e8565b6121cf565b612dff565b61954260016115c3565b90611bcf565b5b9183602001619557906130f5565b60a6619562906120f0565b61956b91610e40565b60a6619576906120f0565b61957f91611bcf565b600161958a9061153e565b1783600261959790612f12565b6195a091611bcf565b179060c0016195ae906130f5565b60166195b9906122a1565b6195c291611bcf565b17856020016195d0906130f5565b603860086195dc61320d565b916195e690613197565b906195f0906131b3565b906195fa936162ec565b6034619605906131d2565b61960e91611bcf565b178360600161961c906130f5565b607461962790611fb2565b61963091611bcf565b176007845f0161963f906130f5565b61964891611e7b565b9061965291611c30565b603461965d906131d2565b61966691610e40565b6034619671906131d2565b61967a91611bcf565b600261968590611e40565b1790600261969290612f12565b61969b91611bcf565b17905f016196a8906130f5565b60166196b3906122a1565b6196bc91611bcf565b17905b5f806188de565b6196ec6196dc6196d75f85016130e8565b612dff565b6196e660016115c3565b90611bcf565b6196f6600161153e565b17619549565b619725619707617b81565b61970f6100f1565b9182916330090e6560e11b835260048301610557565b0390fd5b61981e6198106198309261976361016086979a9861975d5f6198399901619757619752826130e8565b616cb8565b90612f5c565b016130f5565b6197766197706002611e40565b9161010e565b1480619989575b5f1461996d576197d06197c76197b66197a5606061979d60c08c016130f5565b5b9a016130f5565b6197b061271f61221e565b90610eb3565b6197c1612710610f35565b90610ed5565b60408d01610ad8565b6197fe6197f58c6197ef60606197e8604084016130f5565b92016130f5565b90610ef7565b60808d01610ad8565b61980a60608c016130f5565b90610ef7565b619818611ef1565b90610eb3565b61982a60808a016130f5565b90610ed5565b60c08801610ad8565b61984560c087016130f5565b6198576198515f61142e565b9161010e565b145f146199085761987561986b600161153e565b5b60c08801610ad8565b806198886198825f61142e565b9161010e565b1190816198e1575b506198b4576194b86194c99261947c61943e8b61943860206194316194d29a619415565b6198dd6198bf617b38565b6198c76100f1565b9182916330090e6560e11b835260048301610557565b0390fd5b90506199006198fa6198f560c089016130f5565b61010e565b9161010e565b10155f619890565b61991460c087016130f5565b61992d619927619922611ef1565b61010e565b9161010e565b10155f1461995957619875619953619943611ef1565b61994d600161153e565b90610ef7565b5b61986c565b61987561996860c088016130f5565b619954565b6197d06197c76197b66197a560606199845f61142e565b61979e565b508d6199b46199ae6199a96101206199a25f8c016130e8565b94016130e8565b6101bc565b916101bc565b1461977d565b506199c760c083016130f5565b6199e06199da6199d5611ef1565b61010e565b9161010e565b146193b3565b9161947c61943e8361943860206194316194d29a619a436194c99b9a619a30619a28619a186101206194b89e016130e8565b619a2260016132af565b90616b63565b5f8301612f5c565b60c0619a3c600161153e565b9101610ad8565b619416565b50619a566101608d016130f5565b619a69619a636003611e5f565b9161010e565b14618f1b565b91619a8490619a7e600161153e565b90612086565b91618ef4565b619aa2619a99604089016130f5565b60a08901610ad8565b619abb619ab1604089016130f5565b6101408c01610ad8565b619acf619ac6611ef1565b60c08901610ad8565b618dd1565b90508d619ae3602083016130e8565b619b00619afa619af5602085016130e8565b6101bc565b916101bc565b135f14619b3c5750619b176020619b1f92016130e8565b838301612f5c565b619b36619b2c600161153e565b6101608301610ad8565b5b618c35565b619b5591506020619b4d91016130e8565b838301612f5c565b619b6c619b626003611e5f565b6101608301610ad8565b619b37565b9050619b9c619b96619b916020619b8a608088016130e8565b94016130e8565b6101bc565b916101bc565b138f618bfe565b619bb5925060809150989298016130f5565b619bc7619bc15f61142e565b9161010e565b14619e8b575b898b619bdc61010083016130f5565b619bef619be9600161153e565b9161010e565b14619d8a575b50505b89898c600115619d6c57619c0e608082016130f5565b619c20619c1a5f61142e565b9161010e565b11619cea57619c45619c34604083016130e8565b619c3f610100616b47565b9061372f565b619c62619c5c619c5760208d016130e8565b6101bc565b916101bc565b12619cb057619cab9250619ca29150619c9d90604060049101619c97619c8f619c8a836130e8565b6173d8565b918290612f5c565b90613121565b610d78565b60808d01610ad8565b619bf8565b618c40618c3b610120618c5395618c4a95618c4595989e988e619cda600160ff1b60208401612f5c565b5b50955095509550505050618bb7565b618c40618c3b610120618c5395618c4a9585989e988e619d67619d5e619d4e619d2c619d1b6040618c459d016130e8565b619d26610100616b47565b9061372f565b619d48619d43619d3e608089016130f5565b6175c9565b6121b3565b90616b63565b619d5860016132af565b90613721565b60208401612f5c565b619cdb565b618c40618c3b610120618c5395618c4a95618c4595989e988e619cdb565b619de2619de791619ddc619dcb619dba6040619db3619dae60c0619df09a016130e8565b6121cf565b94016130e8565b619dc5610100616b47565b9061372f565b619dd6610100616b47565b90616b63565b90616b63565b612dff565b60608d01610ad8565b619e32619e298c619e236060619e1c619e0b608085016130f5565b619e168386016130f5565b9061205f565b92016130f5565b906113c4565b60808d01610ad8565b619e3e60808c016130f5565b619e50619e4a5f61142e565b9161010e565b14619e5d575b898b619bf5565b619e86619e695f61142e565b619e818d619e7b6040600492016130e8565b90613121565b611c30565b619e56565b619eb7619eae619ea98d619ea36040600492016130e8565b90613121565b610d78565b60808d01610ad8565b619bcd565b50619ec9608082016130f5565b619edb619ed55f61142e565b9161010e565b14618bb2565b50619eef61010084016130f5565b619f02619efc600161153e565b9161010e565b14618bab565b619f2a619f1a6020619f5793016130f5565b619f2460346131d2565b90610e40565b619f32610e09565b16619f4781619f416008613013565b90610e40565b90619f5061304e565b169061205f565b618b21565b50929794509492975094506196bf565b619fac619fa3619f92619f81604085016130f5565b619f8c612710610f35565b90610eb3565b619f9d61271f61221e565b90610ed5565b60608301610ad8565b619fd9619fd0619fbe604084016130f5565b619fca606085016130f5565b90610ef7565b60808301610ad8565b61a00d619ffb619feb60208c016130f5565b619ff560166122a1565b90610e40565b61a003611ef1565b1660c08301610ad8565b61a06061a05761a01f606084016130f5565b61a05161a04361a031608087016130f5565b61a03d60c088016130f5565b90610eb3565b61a04b611ef1565b90610ed5565b90610f8f565b60e08c01610ad8565b61a07f61a06f602088016130e8565b61a07960016132af565b90616b63565b61a09b61a09561a0905f85016130e8565b6101bc565b916101bc565b148061a11a575b61a0ac5795618a03565b8261a0c161a0bb61dead6101ed565b916101ed565b1461a0f35761a0ef61a0d1617aec565b61a0d96100f1565b9182916330090e6560e11b835260048301610557565b0390fd5b5f8061a11661a1006100f1565b92839263330daa9160e21b845260048401617aaa565b0390fd5b5061a12760c082016130f5565b61a13a61a134600161153e565b9161010e565b1461a0a2565b61a16361a15260c061898b93016130e8565b61a15d610100616b47565b906136ff565b618982565b61a1726002610d78565b61a1868161a1806080610f73565b90610e40565b61a18e613403565b169061a198613403565b16908161a1b761a1b161a1ac5f8b016130f5565b61010e565b9161010e565b115f1461a266579061a25861a23361a20a8461a1f861a1ef61a1e88d61a1e25f61a2609b92016130f5565b90612269565b87906122bd565b60a08d01610ad8565b61a20460a08c016130f5565b90612086565b9261a22261a2195f8c016130f5565b60808c01610ad8565b61a22d5f8b016130f5565b90610ef7565b61a24761a23f5f61142e565b5f8b01610ad8565b9161a2526080610f73565b90611bcf565b176002611c30565b5b6182e4565b61a2a861a2b19261a28061a2795f61142e565b6002611c30565b61a29f8161a2995f8c019161a294836130f5565b610ef7565b90610ad8565b60808901610ad8565b60a08701610ad8565b61a261565b61a2df61a2c1617914565b61a2c96100f1565b9182916330090e6560e11b835260048301610557565b0390fd5b61a30b61a2fd61a3109261a2f760016115c3565b90610e40565b61a3056121a4565b166121b3565b6121cf565b618238565b5061a326600160ff1b848b01612f5c565b618241565b61a35e61a34961a3396179bb565b61a343600f6179cc565b90611bcf565b61a35461400061292b565b1760608b01610ad8565b6181a6565b6180dc6180d261a3736002612f12565b6180cd565b61a3a161a383617914565b61a38b6100f1565b9182916330090e6560e11b835260048301610557565b0390fd5b508761a3c061a3ba61a3b5613403565b61010e565b9161010e565b11618081565b61a4399061a44f929561a43461a40060407f00000000000000000000000000000000000000000000000000000000000000009394016130e8565b9261a42561a40c6100f1565b948592600460208501639e3e482160e01b8152016178d2565b602082018103825203836109aa565b61afbb565b602061a444826137b9565b818301019101610d9a565b928361a45b600461214d565b1661a46f61a469600461214d565b9161010e565b145f1461a4f15761a4a861a49e61a4908661a48a6003612169565b90610e40565b61a4986121a4565b166121b3565b5b60c08701612f5c565b8761a4bb61a4b55f61142e565b9161010e565b1461a4c65788618063565b505050929450505061a4d991505f611c30565b5f9061a4ee61a4e85f9361142e565b9261142e565b90565b61a4a861a52161a51c61a50e8761a5086003612169565b90610e40565b61a5166121a4565b166121b3565b6121cf565b61a49f565b61803361a55661a55161a5438761a53d6003612169565b90610e40565b61a54b6121a4565b166121b3565b6121cf565b61802a565b9050617f1261a57c722cd76fe086b93ce2f768a00b22a000000000006135f8565b919050617e82565b61a5ad61a58f6135e7565b61a5976100f1565b9182916330090e6560e11b835260048301610557565b0390fd5b508061a5c561a5bf5f61142e565b9161010e565b14617e0b565b61a5ec915060203d811161a5f2575b61a5e481836109aa565b810190610d9a565b5f617dd8565b503d61a5da565b610dda565b61a62761a609617761565b61a6116100f1565b9182916330090e6560e11b835260048301610557565b0390fd5b61a65461a636617734565b61a63e6100f1565b9182916330090e6560e11b835260048301610557565b0390fd5b508361a66e61a66861dead6101ed565b916101ed565b1415617cba565b3461a68861a6825f61142e565b9161010e565b1115617cbf5761a6b761a699617734565b61a6a16100f1565b9182916330090e6560e11b835260048301610557565b0390fd5b61a6e461a6c6612d28565b61a6ce6100f1565b9182916330090e6560e11b835260048301610557565b0390fd5b61a70161a6f3611fed565b61a6fb617a04565b90610f8f565b90565b61a71f61a70f61a6e8565b61a719600161153e565b90610ef7565b90565b61a75061a740600161a73b61a73561a704565b9161153e565b61205f565b61a74a600161153e565b90610ef7565b90565b61a79461a784600161a77f61a77961a76961a704565b61a773600161153e565b90610ef7565b9161153e565b61205f565b61a78e600161153e565b90610ef7565b90565b9061a7bf61a8149161a7a761097b565b5061a7ba8461a7b4612019565b906113c4565b610eb3565b8061a7d961a7d361a7ce61a722565b61010e565b9161010e565b115f1461a8695761a80561a7fd61a7ee61a6e8565b5b61a7f7611fed565b90610ef7565b9182906113c4565b9261a80e61280f565b16610f8f565b908161a82f61a82961a824617a04565b61010e565b9161010e565b115f1461a8655761a8629161a84f61a8549261a849612019565b9061205f565b610f8f565b61a85c617a04565b90610ef7565b90565b5f80fd5b8061a88361a87d61a87861a753565b61010e565b9161010e565b115f1461a89e5761a80561a7fd61a89861a704565b5b61a7ef565b61a80561a7fd61a8ad836175c9565b61a899565b9061a8bb61097b565b5061a99c61a98461a90061a8e861a8da8661a8d4612019565b906113c4565b61a8e2617a04565b9061205f565b61a8fa8561a8f4612019565b906113c4565b90610ed5565b61a9128161a90c617a04565b906113c4565b61a92561a91f600161153e565b9161010e565b145f1461a9d95761a97f61a96761a95f61a95061a940617a04565b61a94a600161153e565b90610f8f565b5b61a959611fed565b90610ef7565b9283906113c4565b9561a97061280f565b1661a979612947565b90610f8f565b610f8f565b9161a98d61280f565b1661a996617a04565b90610f8f565b908061a9b061a9aa8461010e565b9161010e565b1161a9b9575f80fd5b61a9d59161a9c691610ef7565b9161a9cf612019565b9061205f565b1790565b61a97f61a96761a95f61a9ea617a04565b61a951565b5f80fd5b90825f939282370152565b9092919261aa1361aa0e826138da565b6109d3565b9381855260208501908284011161aa2f5761aa2d9261a9f3565b565b61a9ef565b61aa3f91369161a9fe565b90565b9050519061aa4f826101bf565b565b919060408382031261aa79578061aa6d61aa76925f860161aa42565b9360200161aa42565b90565b6100fb565b61aa86611dd5565b5061aa8f611dd5565b5061aade61aac87f000000000000000000000000000000000000000000000000000000000000000061aac25f369061aa34565b9061afbb565b602061aad3826137b9565b81830101910161aa51565b9091565b90565b61aaf961aaf461aafe9261aae2565b61034e565b61010e565b90565b61ab0c61792961aae5565b90565b90565b61ab2661ab2161ab2b9261ab0f565b61034e565b61010e565b90565b61ab3961792a61ab12565b90565b61ab45906101e2565b90565b61ab518161ab3c565b0361ab5857565b5f80fd5b9050359061ab698261ab48565b565b9060208282031261ab845761ab81915f0161ab5c565b90565b6100fb565b61ab929061036d565b90565b3361abd061abca61abc57f00000000000000000000000000000000000000000000000000000000000000006104d0565b6101ed565b916101ed565b0361ac7b5761abde5f610d78565b61abe8600161153e565b1661abfb61abf55f61142e565b9161010e565b1461ac4e5761ac4c9361ac1291939081019061ab6b565b9161ac4661ac3f7f00000000000000000000000000000000000000000000000000000000000000006104d0565b929361ab89565b9061acd6565b565b61ac7761ac5961ab2e565b61ac616100f1565b9182916330090e6560e11b835260048301610557565b0390fd5b61aca461ac8661ab01565b61ac8e6100f1565b9182916330090e6560e11b835260048301610557565b0390fd5b90565b61acbf61acba61acc49261aca8565b61034e565b61010e565b90565b61acd36201155961acab565b90565b5f918260649261ad2f9660209661aceb611dd9565b50604051946323b872dd60e01b865260018060a01b0316600486015260018060a01b0316602485015260448401525af13d15601f3d1160015f5114161716156105f0565b61ad3557565b61ad5e61ad4061acc7565b61ad486100f1565b918291636f728d4560e11b835260048301610557565b0390fd5b9050519061ad6f826105f5565b565b9060208282031261ad8a5761ad87915f0161ad62565b90565b6100fb565b61ad989061036d565b90565b91602061adbc92949361adb560408201965f830190613099565b0190613099565b565b90565b61add561add061adda9261adbe565b61034e565b61010e565b90565b61ade861792561adc1565b90565b61ae43602061ae197f0000000000000000000000000000000000000000000000000000000000000000610379565b634502d0639061ae38339261ae2c6100f1565b95869485938493610d85565b83526004830161376a565b03915afa90811561afb1575f9161af83575b50801561aed0575b61ae6790156105f0565b61aea35761aea07f000000000000000000000000000000000000000000000000000000000000000061ae9a5f369061aa34565b9061afbb565b50565b61aecc61aeae61addd565b61aeb66100f1565b9182916330090e6560e11b835260048301610557565b0390fd5b5061aefa7f0000000000000000000000000000000000000000000000000000000000000000610379565b602063e04c8e5d9161af0b3061ad8f565b9061af28339461af3361af1c6100f1565b96879586948594610d85565b84526004840161ad9b565b03915afa801561af7e5761ae67915f9161af50575b50905061ae5d565b61af71915060203d811161af77575b61af6981836109aa565b81019061ad71565b5f61af48565b503d61af5f565b610dda565b61afa4915060203d811161afaa575b61af9c81836109aa565b81019061ad71565b5f61ae55565b503d61af92565b610dda565b606090565b5f91829161afc761afb6565b50602082519201905af4903d60405192601f19601f6020840101168401604052818452815f602086013e1560011461affc5750565b805f803e5ffdfea26469706673582212204d98c4d5f62b1cb8aaca1ec0c1d43857fb6439acc73f1f5c4ec3ad082b5f047a64736f6c63430008150033","linkReferences":{}},"methodIdentifiers":{"ADDRESS_THIS()":"cc025f7c","ADMIN_IMPLEMENTATION()":"cc2fe94b","LIQUIDITY()":"2861c7d1","SECONDARY_IMPLEMENTATION()":"a07ddc17","vaultT1(address,address)":"f9f872f5","vaultT1CreationBytecode()":"68f4787e"},"id":54}