{"abi":[{"type":"constructor","inputs":[{"name":"_vaultT1","type":"address","internalType":"contract FluidVaultT1"},{"name":"_alice","type":"address","internalType":"address"},{"name":"_USDC","type":"address","internalType":"contract TestERC20Dec6"},{"name":"_DAI","type":"address","internalType":"contract IERC20"}],"stateMutability":"nonpayable"},{"type":"function","name":"alice","inputs":[],"outputs":[{"name":"","type":"address","internalType":"address"}],"stateMutability":"view"},{"type":"function","name":"deposit","inputs":[{"name":"depositAmount","type":"uint256","internalType":"uint256"}],"outputs":[],"stateMutability":"nonpayable"},{"type":"function","name":"vaultT1","inputs":[],"outputs":[{"name":"","type":"address","internalType":"contract FluidVaultT1"}],"stateMutability":"view"}],"bytecode":{"object":"0x6080604052346200003b576200002262000018620001e4565b9291909162000368565b6200002c62000041565b610abd6200039e8239610abd90f35b62000047565b60405190565b5f80fd5b601f801991011690565b634e487b7160e01b5f52604160045260245ffd5b9062000075906200004b565b810190811060018060401b038211176200008e57604052565b62000055565b90620000ab620000a362000041565b928362000069565b565b5f80fd5b60018060a01b031690565b620000c790620000b1565b90565b620000d590620000bc565b90565b620000e381620000ca565b03620000eb57565b5f80fd5b90505190620000fe82620000d8565b565b6200010b81620000bc565b036200011357565b5f80fd5b90505190620001268262000100565b565b6200013390620000bc565b90565b620001418162000128565b036200014957565b5f80fd5b905051906200015c8262000136565b565b6200016990620000bc565b90565b62000177816200015e565b036200017f57565b5f80fd5b9050519062000192826200016c565b565b608081830312620001de57620001ad825f8301620000ef565b92620001db620001c1846020850162000117565b93620001d181604086016200014d565b9360600162000183565b90565b620000ad565b6200020762000e5b80380380620001fb8162000094565b92833981019062000194565b90919293565b5f1b90565b906200022560018060a01b03916200020d565b9181191691161790565b90565b6200024b620002456200025192620000b1565b6200022f565b620000b1565b90565b6200025f9062000232565b90565b6200026d9062000254565b90565b90565b906200028d62000287620002959262000262565b62000270565b825462000212565b9055565b620002a49062000232565b90565b620002b29062000299565b90565b90565b90620002d2620002cc620002da92620002a7565b620002b5565b825462000212565b9055565b620002e99062000232565b90565b620002f790620002de565b90565b90565b9062000317620003116200031f92620002ec565b620002fa565b825462000212565b9055565b6200032e9062000232565b90565b6200033c9062000323565b90565b90565b906200035c62000356620003649262000331565b6200033f565b825462000212565b9055565b916200038b6200039392620003836200039b96955f62000273565b6001620002b8565b6002620002fd565b600362000342565b56fe60806040526004361015610013575b610269565b61001d5f3561004c565b8063b6b55f2514610047578063b9ada158146100425763fb47e3a20361000e57610234565b610191565b6100a9565b60e01c90565b60405190565b5f80fd5b5f80fd5b90565b61006c81610060565b0361007357565b5f80fd5b9050359061008482610063565b565b9060208282031261009f5761009c915f01610077565b90565b61005c565b5f0190565b346100d7576100c16100bc366004610086565b610666565b6100c9610052565b806100d3816100a4565b0390f35b610058565b5f9103126100e657565b61005c565b1c90565b60018060a01b031690565b61010a90600861010f93026100eb565b6100ef565b90565b9061011d91546100fa565b90565b61012a5f80610112565b90565b60018060a01b031690565b90565b61014f61014a6101549261012d565b610138565b61012d565b90565b6101609061013b565b90565b61016c90610157565b90565b61017890610163565b9052565b919061018f905f6020850194019061016f565b565b346101c1576101a13660046100dc565b6101bd6101ac610120565b6101b4610052565b9182918261017c565b0390f35b610058565b60018060a01b031690565b6101e19060086101e693026100eb565b6101c6565b90565b906101f491546101d1565b90565b61020360015f906101e9565b90565b61020f9061012d565b90565b61021b90610206565b9052565b9190610232905f60208501940190610212565b565b34610264576102443660046100dc565b61026061024f6101f7565b610257610052565b9182918261021f565b0390f35b610058565b5f80fd5b5f90565b5f90565b5f1c90565b60018060a01b031690565b61029161029691610275565b61027a565b90565b6102a39054610285565b90565b6102af90610157565b90565b6102be6102c391610275565b6100ef565b90565b6102d090546102b2565b90565b601f801991011690565b634e487b7160e01b5f52604160045260245ffd5b906102fb906102d3565b810190811067ffffffffffffffff82111761031557604052565b6102dd565b60e01b90565b151590565b61032e81610320565b0361033557565b5f80fd5b9050519061034682610325565b565b906020828203126103615761035e915f01610339565b90565b61005c565b61036f90610060565b9052565b91602061039492949361038d60408201965f830190610212565b0190610366565b565b61039e610052565b3d5f823e3d90fd5b90565b6103bd6103b86103c292610060565b610138565b6103a6565b90565b6103ce90610157565b90565b905051906103de82610063565b565b6103e9816103a6565b036103f057565b5f80fd5b90505190610401826103e0565b565b90916060828403126104385761043561041e845f85016103d1565b9361042c81602086016103f4565b936040016103f4565b90565b61005c565b90565b61045461044f6104599261043d565b610138565b610060565b90565b61046590610440565b9052565b610472906103a6565b9052565b90565b61048d61048861049292610476565b610138565b6103a6565b90565b61049e90610479565b9052565b6104d76104de946104cd6060949897956104c3608086019a5f87019061045c565b6020850190610469565b6040830190610495565b0190610212565b565b906104f36104ec610052565b92836102f1565b565b67ffffffffffffffff81116105135761050f6020916102d3565b0190565b6102dd565b9061052a610525836104f5565b6104e0565b918252565b5f7f4e46542049443a20000000000000000000000000000000000000000000000000910152565b6105606008610518565b9061056d6020830161052f565b565b610577610556565b90565b5f7f4e657720436f6c6c61746572616c3a2000000000000000000000000000000000910152565b6105ab6010610518565b906105b86020830161057a565b565b6105c26105a1565b90565b5f7f4e657720446562743a2000000000000000000000000000000000000000000000910152565b6105f6600a610518565b90610603602083016105c5565b565b61060d6105ec565b90565b60018060a01b031690565b61062761062c91610275565b610610565b90565b610639905461061b565b90565b61064590610157565b90565b906020828203126106615761065e915f016103d1565b90565b61005c565b61066e61026d565b50610677610271565b50610680610271565b5061069361068e6002610299565b6102a6565b602063095ea7b3916106ac6106a75f6102c6565b610163565b906106ca5f86956106d56106be610052565b9788968795869461031a565b845260048401610373565b03925af1801561088a5761085e575b5060606106f86106f35f6102c6565b610163565b9163032d2276926107325f61070d81946103a9565b9561073d61271061071d306103c5565b90610726610052565b998a988997889661031a565b8652600486016104a2565b03925af190811561085957610788915f808092610821575b61077b92935061076e90939161076961056f565b6109b7565b6107766105ba565b610a1f565b610783610605565b610a1f565b6107d1602061079f61079a600361062f565b61063c565b6370a08231906107c66107b1306103c5565b926107ba610052565b9586948593849361031a565b83526004830161021f565b03915afa801561081c576107ec915f916107ee575b506108a4565b565b61080f915060203d8111610815575b61080781836102f1565b810190610648565b5f6107e6565b503d6107fd565b610396565b50505061077b61084a61076e9260603d8111610852575b61084281836102f1565b810190610403565b909250610755565b503d610838565b610396565b61087e9060203d8111610883575b61087681836102f1565b810190610348565b6106e4565b503d61086c565b610396565b91906108a2905f60208501940190610366565b565b6108cf6108de6108e3926108b6610052565b92839160046020840163f82c50f160e01b81520161088f565b602082018103825203826102f1565b6108e5565b565b6108f8906108f36001610924565b610a75565b565b6a636f6e736f6c652e6c6f6790565b5f80916109146108fa565b602082519201905afa50565b5f90565b61092c610920565b5090565b5190565b60209181520190565b5f5b83811061094f575050905f910152565b80602091830151818501520161093f565b61097f61098860209361098d9361097681610930565b93848093610934565b9586910161093d565b6102d3565b0190565b929160206109ad6109b59360408701908782035f890152610960565b940190610366565b565b906109f26109f7926109e36109ca610052565b938492600460208501632d839cb360e21b815201610991565b602082018103825203826102f1565b6108e5565b565b92916020610a15610a1d9360408701908782035f890152610960565b940190610469565b565b90610a5a610a5f92610a4b610a32610052565b938492600460208501631e53134760e11b8152016109f9565b602082018103825203826102f1565b6108e5565b565b634e487b7160e01b5f52605160045260245ffd5b600103610a6157610a8590610909565b56fea26469706673582212204f8c06019bd48bd38858606da5e4a54c9bd4763786960c762a501ff635f6fe5b64736f6c63430008150033","linkReferences":{}},"methodIdentifiers":{"alice()":"fb47e3a2","deposit(uint256)":"b6b55f25","vaultT1()":"b9ada158"},"id":109}