{"abi":[{"type":"constructor","inputs":[{"name":"factory_","type":"address","internalType":"address"},{"name":"liquidityResolver_","type":"address","internalType":"address"}],"stateMutability":"nonpayable"},{"type":"function","name":"FACTORY","inputs":[],"outputs":[{"name":"","type":"address","internalType":"contract IFluidVaultFactory"}],"stateMutability":"view"},{"type":"function","name":"LIQUIDITY_RESOLVER","inputs":[],"outputs":[{"name":"","type":"address","internalType":"contract IFluidLiquidityResolver"}],"stateMutability":"view"}],"bytecode":{"object":"0x60c0604052346100415761001a610014610115565b90610186565b610022610046565b6101dd6101a18239608051816061015260a0518161011e01526101dd90f35b61004c565b60405190565b5f80fd5b601f801991011690565b634e487b7160e01b5f52604160045260245ffd5b9061007890610050565b810190811060018060401b0382111761009057604052565b61005a565b906100a86100a1610046565b928361006e565b565b5f80fd5b60018060a01b031690565b6100c2906100ae565b90565b6100ce816100b9565b036100d557565b5f80fd5b905051906100e6826100c5565b565b9190604083820312610110578061010461010d925f86016100d9565b936020016100d9565b90565b6100aa565b61013361037e8038038061012881610095565b9283398101906100e8565b9091565b90565b61014e610149610153926100ae565b610137565b6100ae565b90565b61015f9061013a565b90565b61016b90610156565b90565b6101779061013a565b90565b6101839061016e565b90565b9061019361019b92610162565b60805261017a565b60a05256fe60806040526004361015610013575b6101a3565b61001d5f3561003c565b80632dd310001461003757636902f79f0361000e5761016e565b6100e7565b60e01c90565b60405190565b5f80fd5b5f80fd5b5f91031261005a57565b61004c565b7f000000000000000000000000000000000000000000000000000000000000000090565b60018060a01b031690565b90565b6100a56100a06100aa92610083565b61008e565b610083565b90565b6100b690610091565b90565b6100c2906100ad565b90565b6100ce906100b9565b9052565b91906100e5905f602085019401906100c5565b565b34610117576100f7366004610050565b61011361010261005f565b61010a610042565b918291826100d2565b0390f35b610048565b7f000000000000000000000000000000000000000000000000000000000000000090565b610149906100ad565b90565b61015590610140565b9052565b919061016c905f6020850194019061014c565b565b3461019e5761017e366004610050565b61019a61018961011c565b610191610042565b91829182610159565b0390f35b610048565b5f80fdfea26469706673582212208439d0922f18f5617a2675d056ae22d9f1844546fdf919923be51e7e912755a664736f6c63430008150033","linkReferences":{}},"methodIdentifiers":{"FACTORY()":"2dd31000","LIQUIDITY_RESOLVER()":"6902f79f"},"id":43}