{"abi":[{"type":"constructor","inputs":[],"stateMutability":"nonpayable"},{"type":"function","name":"getExchangeRate","inputs":[],"outputs":[{"name":"exchangeRate_","type":"uint256","internalType":"uint256"}],"stateMutability":"view"},{"type":"function","name":"getExchangeRateLiquidate","inputs":[],"outputs":[{"name":"exchangeRate_","type":"uint256","internalType":"uint256"}],"stateMutability":"view"},{"type":"function","name":"getExchangeRateOperate","inputs":[],"outputs":[{"name":"exchangeRate_","type":"uint256","internalType":"uint256"}],"stateMutability":"view"},{"type":"function","name":"infoName","inputs":[],"outputs":[{"name":"","type":"string","internalType":"string"}],"stateMutability":"view"},{"type":"function","name":"price","inputs":[],"outputs":[{"name":"","type":"uint256","internalType":"uint256"}],"stateMutability":"view"},{"type":"function","name":"setPrice","inputs":[{"name":"price_","type":"uint256","internalType":"uint256"}],"outputs":[],"stateMutability":"nonpayable"},{"type":"function","name":"targetDecimals","inputs":[],"outputs":[{"name":"","type":"uint8","internalType":"uint8"}],"stateMutability":"view"},{"type":"error","name":"FluidOracleError","inputs":[{"name":"errorId_","type":"uint256","internalType":"uint256"}]}],"bytecode":{"object":"0x60c06040523462000046576200001462000177565b6200001e6200004c565b61074c620003fe823960805181818161065b01526106c4015260a05181610455015261074c90f35b62000052565b60405190565b5f80fd5b601f801991011690565b634e487b7160e01b5f52604160045260245ffd5b90620000809062000056565b810190811060018060401b038211176200009957604052565b62000060565b90620000b6620000ae6200004c565b928362000074565b565b60018060401b038111620000d757620000d360209162000056565b0190565b62000060565b90620000f3620000ed83620000b8565b6200009f565b918252565b5f7f736f6d654e616d65000000000000000000000000000000000000000000000000910152565b6200012b6008620000dd565b906200013a60208301620000f8565b565b620001466200011f565b90565b90565b60ff1690565b90565b6200016e62000168620001749262000149565b62000152565b6200014c565b90565b62000198620001856200013c565b62000191601462000155565b90620002cc565b565b90565b5190565b90565b90565b620001c0620001ba620001c692620001a4565b62000152565b620001a1565b90565b90565b620001e5620001df620001eb92620001c9565b62000152565b620001a1565b90565b90565b6200020a620002046200021092620001ee565b62000152565b620001a1565b90565b6200022061ea6a620001f1565b90565b6200022e90620001a1565b9052565b919062000247905f6020850194019062000223565b565b90565b620002656200025f6200026b9262000249565b62000152565b6200014c565b90565b90565b6200028a6200028462000290926200026e565b62000152565b6200014c565b90565b90565b620002af620002a9620002b59262000293565b62000152565b620001a1565b90565b620002c561ebf162000296565b90565b5f90565b620002e1620002db826200019a565b6200019d565b620002f8620002f16020620001a7565b91620001a1565b118015620003ca575b6200039757816200031e62000317600f6200024c565b916200014c565b10801562000377575b620003445760209160a0526200033c620002c8565b500151608052565b6200037362000352620002b8565b6200035c6200004c565b91829163c82fc46560e01b83526004830162000232565b0390fd5b50816200039062000389602762000271565b916200014c565b1162000327565b620003c6620003a562000213565b620003af6200004c565b91829163c82fc46560e01b83526004830162000232565b0390fd5b50620003e0620003da826200019a565b6200019d565b620003f6620003ef5f620001cc565b91620001a1565b146200030156fe60806040526004361015610013575b610370565b61001d5f3561008c565b806336c1387e146100875780638e7bfbc01461008257806391b7f5ed1461007d578063a035b1fe14610078578063abd5f95d14610073578063e6aa216c1461006e5763f3190c890361000e5761033b565b610306565b6102d1565b610219565b6101ac565b610131565b6100d7565b60e01c90565b60405190565b5f80fd5b5f80fd5b5f9103126100aa57565b61009c565b60ff1690565b6100be906100af565b9052565b91906100d5905f602085019401906100b5565b565b34610107576100e73660046100a0565b6101036100f261044a565b6100fa610092565b918291826100c2565b0390f35b610098565b90565b6101189061010c565b9052565b919061012f905f6020850194019061010f565b565b34610161576101413660046100a0565b61015d61014c61039e565b610154610092565b9182918261011c565b0390f35b610098565b61016f8161010c565b0361017657565b5f80fd5b9050359061018782610166565b565b906020828203126101a25761019f915f0161017a565b90565b61009c565b5f0190565b346101da576101c46101bf366004610189565b61043a565b6101cc610092565b806101d6816101a7565b0390f35b610098565b1c90565b90565b6101f69060086101fb93026101df565b6101e3565b90565b9061020991546101e6565b90565b6102165f806101fe565b90565b34610249576102293660046100a0565b61024561023461020c565b61023c610092565b9182918261011c565b0390f35b610098565b5190565b60209181520190565b5f5b83811061026d575050905f910152565b80602091830151818501520161025d565b601f801991011690565b6102a76102b06020936102b59361029e8161024e565b93848093610252565b9586910161025b565b61027e565b0190565b6102ce9160208201915f818403910152610288565b90565b34610301576102e13660046100a0565b6102fd6102ec6105ed565b6102f4610092565b918291826102b9565b0390f35b610098565b34610336576103163660046100a0565b6103326103216103c8565b610329610092565b9182918261011c565b0390f35b610098565b3461036b5761034b3660046100a0565b6103676103566103b3565b61035e610092565b9182918261011c565b0390f35b610098565b5f80fd5b5f90565b5f1c90565b61038961038e91610378565b6101e3565b90565b61039b905461037d565b90565b6103a6610374565b506103b05f610391565b90565b6103bb610374565b506103c55f610391565b90565b6103d0610374565b506103da5f610391565b90565b5f1b90565b906103ee5f19916103dd565b9181191691161790565b90565b61040f61040a6104149261010c565b6103f8565b61010c565b90565b90565b9061042f61042a610436926103fb565b610417565b82546103e2565b9055565b610444905f61041a565b565b5f90565b610452610446565b507f000000000000000000000000000000000000000000000000000000000000000090565b606090565b90565b61049361048e6104989261047c565b6103f8565b61010c565b90565b634e487b7160e01b5f52603260045260245ffd5b60f81b90565b60ff60f81b1690565b90565b6104d56104d06104da926104be565b6104af565b6104b5565b90565b634e487b7160e01b5f52601160045260245ffd5b6104fa9061010c565b5f1981146105085760010190565b6104dd565b634e487b7160e01b5f52604160045260245ffd5b9061052b9061027e565b810190811067ffffffffffffffff82111761054557604052565b61050d565b9061055d610556610092565b9283610521565b565b67ffffffffffffffff811161057d5761057960209161027e565b0190565b61050d565b9061059461058f8361055f565b61054a565b918252565b369037565b906105c36105ab83610582565b926020806105b9869361055f565b9201910390610599565b565b5190565b906105d3826105c5565b8110156105e557600160209102010190565b61049b565b90565b6105f5610477565b506105fe610374565b5b8061061361060d602061047f565b9161010c565b10806106c1575b1561062d57610628906104f1565b6105ff565b6106368161059e565b9161063f610374565b5b8061065361064d8561010c565b9161010c565b10156106b2577f0000000000000000000000000000000000000000000000000000000000000000908060208110156106ad576106a892610693911a6104af565b6106a2869183905f1a926105c9565b536104f1565b610640565b61049b565b50916106be91506105ea565b90565b507f000000000000000000000000000000000000000000000000000000000000000081906020821015610711576106f8911a6104af565b61070a6107045f6104c1565b916104b5565b141561061a565b61049b56fea2646970667358221220a2135e3ea1a4cfbcf106f1e543b65e43e475e0cc7bcb8c6f829e256a1850166a64736f6c63430008150033","linkReferences":{}},"methodIdentifiers":{"getExchangeRate()":"e6aa216c","getExchangeRateLiquidate()":"f3190c89","getExchangeRateOperate()":"8e7bfbc0","infoName()":"abd5f95d","price()":"a035b1fe","setPrice(uint256)":"91b7f5ed","targetDecimals()":"36c1387e"},"id":29}