{"abi":[{"type":"function","name":"executeOperation","inputs":[{"name":"assets","type":"address[]","internalType":"address[]"},{"name":"amounts","type":"uint256[]","internalType":"uint256[]"},{"name":"premiums","type":"uint256[]","internalType":"uint256[]"},{"name":"initiator","type":"address","internalType":"address"},{"name":"","type":"bytes","internalType":"bytes"}],"outputs":[{"name":"","type":"bool","internalType":"bool"}],"stateMutability":"nonpayable"},{"type":"function","name":"startFlashLoan","inputs":[{"name":"router","type":"address","internalType":"address"},{"name":"token","type":"address","internalType":"address"},{"name":"amount","type":"uint256","internalType":"uint256"}],"outputs":[],"stateMutability":"nonpayable"},{"type":"function","name":"swapWETHtoUSDC","inputs":[{"name":"amountIn","type":"uint256","internalType":"uint256"},{"name":"minOut","type":"uint256","internalType":"uint256"}],"outputs":[],"stateMutability":"nonpayable"}],"bytecode":{"object":"0x60806040523461001f57610011610024565b61122461002f823961122490f35b61002a565b60405190565b5f80fdfe60806040526004361015610013575b610384565b61001d5f3561004c565b8063920f5c8414610047578063ccdc7d76146100425763e4d5ffaf0361000e57610350565b6102e2565b61024b565b60e01c90565b60405190565b5f80fd5b5f80fd5b5f80fd5b5f80fd5b5f80fd5b5f80fd5b909182601f830112156100aa5781359167ffffffffffffffff83116100a55760200192602083028401116100a057565b61006c565b610068565b610064565b909182601f830112156100e95781359167ffffffffffffffff83116100e45760200192602083028401116100df57565b61006c565b610068565b610064565b60018060a01b031690565b610102906100ee565b90565b61010e816100f9565b0361011557565b5f80fd5b9050359061012682610105565b565b909182601f830112156101625781359167ffffffffffffffff831161015d57602001926001830284011161015857565b61006c565b610068565b610064565b919060a08382031261021f575f83013567ffffffffffffffff811161021a5781610192918501610070565b929093602081013567ffffffffffffffff811161021557836101b59183016100af565b929093604083013567ffffffffffffffff811161021057816101d89185016100af565b9290936101e88360608301610119565b92608082013567ffffffffffffffff811161020b576102079201610128565b9091565b610060565b610060565b610060565b610060565b61005c565b151590565b61023290610224565b9052565b9190610249905f60208501940190610229565b565b3461028557610281610270610261366004610167565b9796909695919594929461058a565b610278610052565b91829182610236565b0390f35b610058565b90565b6102968161028a565b0361029d57565b5f80fd5b905035906102ae8261028d565b565b91906040838203126102d857806102cc6102d5925f86016102a1565b936020016102a1565b90565b61005c565b5f0190565b34610311576102fb6102f53660046102b0565b9061100b565b610303610052565b8061030d816102dd565b0390f35b610058565b909160608284031261034b57610348610331845f8501610119565b9361033f8160208601610119565b936040016102a1565b90565b61005c565b3461037f57610369610363366004610316565b91610c6f565b610371610052565b8061037b816102dd565b0390f35b610058565b5f80fd5b5f90565b90565b90565b6103a66103a16103ab9261038c565b61038f565b61028a565b90565b634e487b7160e01b5f52601160045260245ffd5b6103cb9061028a565b5f1981146103d95760010190565b6103ae565b5090565b634e487b7160e01b5f52603260045260245ffd5b9190811015610406576020020190565b6103e2565b3561041581610105565b90565b61042c610427610431926100ee565b61038f565b6100ee565b90565b61043d90610418565b90565b61044990610434565b90565b61045590610418565b90565b6104619061044c565b90565b9190811015610474576020020190565b6103e2565b356104838161028d565b90565b61049561049b9193929361028a565b9261028a565b82018092116104a657565b6103ae565b5f80fd5b601f801991011690565b634e487b7160e01b5f52604160045260245ffd5b906104d7906104af565b810190811067ffffffffffffffff8211176104f157604052565b6104b9565b60e01b90565b61050581610224565b0361050c57565b5f80fd5b9050519061051d826104fc565b565b9060208282031261053857610535915f01610510565b90565b61005c565b610546906100f9565b9052565b6105539061028a565b9052565b91602061057892949361057160408201965f83019061053d565b019061054a565b565b610582610052565b3d5f823e3d90fd5b965091979650935061059a610388565b506105a45f610392565b5b806105c26105bc6105b78986906103de565b61028a565b9161028a565b101561076c5787906020866105f16105ec6105e76105e28c8988916103f6565b61040b565b610440565b610458565b6106465f61062e61061361060e63095ea7b3993397908a91610464565b610479565b6106286106238d8d908b91610464565b610479565b90610486565b9661065161063a610052565b988996879586946104f6565b845260048401610557565b03925af191821561076757899261073b575b5060208661068b61068661068161067c8c8988916103f6565b61040b565b610440565b610458565b6106e05f6106c86106ad6106a863a9059cbb993397908a91610464565b610479565b6106c26106bd8d8d908b91610464565b610479565b90610486565b966106eb6106d4610052565b988996879586946104f6565b845260048401610557565b03925af1918215610736576107059261070a575b506103c2565b6105a5565b61072a9060203d811161072f575b61072281836104cd565b81019061051f565b6106ff565b503d610718565b61057a565b61075b9060203d8111610760575b61075381836104cd565b81019061051f565b610663565b503d610749565b61057a565b5050505050509050600190565b90565b61079061078b61079592610779565b61038f565b61028a565b90565b906107ab6107a4610052565b92836104cd565b565b67ffffffffffffffff81116107c55760208091020190565b6104b9565b906107dc6107d7836107ad565b610798565b918252565b369037565b9061080b6107f3836107ca565b9260208061080186936107ad565b92019103906107e1565b565b5190565b9061081b8261080d565b81101561082c576020809102010190565b6103e2565b9061083b906100f9565b9052565b67ffffffffffffffff81116108575760208091020190565b6104b9565b9061086e6108698361083f565b610798565b918252565b369037565b9061089d6108858361085c565b92602080610893869361083f565b9201910390610873565b565b5190565b906108ad8261089f565b8110156108be576020809102010190565b6103e2565b906108cd9061028a565b9052565b6108da90610418565b90565b6108e6906108d1565b90565b6108f29061044c565b90565b67ffffffffffffffff811161090d5760208091020190565b6104b9565b61ffff1690565b61092281610912565b0361092957565b5f80fd5b9050519061093a82610919565b565b9092919261095161094c826108f5565b610798565b938185526020808601920283019281841161098e57915b8383106109755750505050565b60208091610983848661092d565b815201920191610968565b61006c565b9080601f830112156109b1578160206109ae9351910161093c565b90565b610064565b906020828203126109e6575f82015167ffffffffffffffff81116109e1576109de9201610993565b90565b610060565b61005c565b5190565b60209181520190565b5f7f4e6f20726f7574657320617661696c61626c6500000000000000000000000000910152565b610a2c60136020926109ef565b610a35816109f8565b0190565b610a4e9060208101905f818303910152610a1f565b90565b15610a5857565b610a60610052565b62461bcd60e51b815280610a7660048201610a39565b0390fd5b90610a84826109eb565b811015610a95576020809102010190565b6103e2565b610aa49051610912565b90565b610abb610ab6610ac092610912565b61038f565b61028a565b90565b610acc90610418565b90565b610ad890610ac3565b90565b610ae49061044c565b90565b5f910312610af157565b61005c565b60209181520190565b60200190565b610b0e906100f9565b9052565b90610b1f81602093610b05565b0190565b60200190565b90610b46610b40610b398461080d565b8093610af6565b92610aff565b905f5b818110610b565750505090565b909192610b6f610b696001928651610b12565b94610b23565b9101919091610b49565b60209181520190565b60200190565b610b919061028a565b9052565b90610ba281602093610b88565b0190565b60200190565b90610bc9610bc3610bbc8461089f565b8093610b79565b92610b82565b905f5b818110610bd95750505090565b909192610bf2610bec6001928651610b95565b94610ba6565b9101919091610bcc565b60209181520190565b610c105f8092610bfc565b0190565b9192610c51610c46610c6c95610c38610c5e9560a08801908882035f8a0152610b29565b908682036020880152610bac565b91604085019061054a565b8281036060840152610c05565b906080818303910152610c05565b90565b91610c9e610c85610c80600161077c565b6107e6565b92610c9984610c935f610392565b90610811565b610831565b610ccc610cb3610cae600161077c565b610878565b91610cc783610cc15f610392565b906108a3565b6108c3565b610cf75f610ce1610cdc866108dd565b6108e9565b637e92807290610cef610052565b9384926104f6565b82528180610d07600482016102dd565b03915afa8015610e1557610d67610d62610d5d610d6d93610d72955f91610df3575b50610d4e610d36826109eb565b610d48610d425f610392565b9161028a565b11610a51565b610d575f610392565b90610a7a565b610a9a565b610aa7565b94610acf565b610adb565b63095627e992919392813b15610dee575f610da091610dab8296610d94610052565b988997889687956104f6565b855260048501610c14565b03925af18015610de957610dbd575b50565b610ddc905f3d8111610de2575b610dd481836104cd565b810190610ae7565b5f610dba565b503d610dca565b61057a565b6104ab565b610e0f91503d805f833e610e0781836104cd565b8101906109b6565b5f610d29565b61057a565b73c02aaa39b223fe8d0a0e5c4f27ead9083c756cc290565b73e592427a0aece92de3edee1f18e0157c0586156490565b73a0b86991c6218b36c1d19d4a2e9eb0ce3606eb4890565b610e6b9061044c565b90565b90565b610e85610e80610e8a92610e6e565b61038f565b61028a565b90565b610e98610100610798565b90565b90565b62ffffff1690565b610eba610eb5610ebf92610e9b565b61038f565b610e9e565b90565b90610ecc90610e9e565b9052565b610ee4610edf610ee99261038c565b61038f565b6100ee565b90565b90610ef6906100ee565b9052565b610f0390610418565b90565b610f0f90610efa565b90565b610f1b9061044c565b90565b90505190610f2b8261028d565b565b90602082820312610f4657610f43915f01610f1e565b90565b61005c565b610f5490610e9e565b9052565b610f61906100ee565b9052565b9060e080610ff393610f7d5f8201515f860190610b05565b610f8f60208201516020860190610b05565b610fa160408201516040860190610f4b565b610fb360608201516060860190610b05565b610fc560808201516080860190610b88565b610fd760a082015160a0860190610b88565b610fe960c082015160c0860190610b88565b0151910190610f58565b565b9190611009905f6101008501940190610f65565b565b9061102461101f61101a610e1a565b610440565b610458565b602063095ea7b391611034610e32565b906110525f879561105d611046610052565b978896879586946104f6565b845260048401610557565b03925af180156111e9576111bd575b50611075610e1a565b9161107e610e4a565b91610bb8913061108d90610e62565b4261012c61109a90610e71565b6110a391610486565b9192935f956110b0610e8d565b975f8901906110be91610831565b60208801906110cc91610831565b6110d590610ea6565b60408701906110e391610ec2565b60608601906110f191610831565b60808501906110ff916108c3565b60a084019061110d916108c3565b60c083019061111b916108c3565b61112490610ed0565b60e082019061113291610eec565b61113a610e32565b61114390610f06565b61114c90610f12565b63414bf389611159610052565b809361116582936104f6565b8252600482019061117591610ff5565b03815a6020945f91f180156111b85761118c575b50565b6111ac9060203d81116111b1575b6111a481836104cd565b810190610f2d565b611189565b503d61119a565b61057a565b6111dd9060203d81116111e2575b6111d581836104cd565b81019061051f565b61106c565b503d6111cb565b61057a56fea2646970667358221220261cbd2585a4b26f45c04326fd3c4bfa4046fb9868d3090f870815245b5f2d5b64736f6c63430008150033","linkReferences":{}},"methodIdentifiers":{"executeOperation(address[],uint256[],uint256[],address,bytes)":"920f5c84","startFlashLoan(address,address,uint256)":"e4d5ffaf","swapWETHtoUSDC(uint256,uint256)":"ccdc7d76"},"id":25}