{"abi":[{"type":"function","name":"executeOperation","inputs":[{"name":"assets","type":"address[]","internalType":"address[]"},{"name":"amounts","type":"uint256[]","internalType":"uint256[]"},{"name":"premiums","type":"uint256[]","internalType":"uint256[]"},{"name":"initiator","type":"address","internalType":"address"},{"name":"","type":"bytes","internalType":"bytes"}],"outputs":[{"name":"","type":"bool","internalType":"bool"}],"stateMutability":"nonpayable"},{"type":"function","name":"startFlashLoan","inputs":[{"name":"router","type":"address","internalType":"address"},{"name":"token","type":"address","internalType":"address"},{"name":"amount","type":"uint256","internalType":"uint256"}],"outputs":[],"stateMutability":"nonpayable"}],"bytecode":{"object":"0x60806040523461001f57610011610024565b61107661002f823961107690f35b61002a565b60405190565b5f80fdfe60806040526004361015610013575b610313565b61001d5f3561003c565b8063920f5c84146100375763e4d5ffaf0361000e576102df565b61023b565b60e01c90565b60405190565b5f80fd5b5f80fd5b5f80fd5b5f80fd5b5f80fd5b5f80fd5b909182601f8301121561009a5781359167ffffffffffffffff831161009557602001926020830284011161009057565b61005c565b610058565b610054565b909182601f830112156100d95781359167ffffffffffffffff83116100d45760200192602083028401116100cf57565b61005c565b610058565b610054565b60018060a01b031690565b6100f2906100de565b90565b6100fe816100e9565b0361010557565b5f80fd5b90503590610116826100f5565b565b909182601f830112156101525781359167ffffffffffffffff831161014d57602001926001830284011161014857565b61005c565b610058565b610054565b919060a08382031261020f575f83013567ffffffffffffffff811161020a5781610182918501610060565b929093602081013567ffffffffffffffff811161020557836101a591830161009f565b929093604083013567ffffffffffffffff811161020057816101c891850161009f565b9290936101d88360608301610109565b92608082013567ffffffffffffffff81116101fb576101f79201610118565b9091565b610050565b610050565b610050565b610050565b61004c565b151590565b61022290610214565b9052565b9190610239905f60208501940190610219565b565b3461027557610271610260610251366004610157565b97969096959195949294610735565b610268610042565b91829182610226565b0390f35b610048565b90565b6102868161027a565b0361028d57565b5f80fd5b9050359061029e8261027d565b565b90916060828403126102d5576102d26102bb845f8501610109565b936102c98160208601610109565b93604001610291565b90565b61004c565b5f0190565b3461030e576102f86102f23660046102a0565b91610e95565b610300610042565b8061030a816102da565b0390f35b610048565b5f80fd5b5f90565b634e487b7160e01b5f52603260045260245ffd5b919081101561033f576020020190565b61031b565b90565b90565b61035e61035961036392610344565b610347565b61027a565b90565b356103708161027d565b90565b634e487b7160e01b5f52601160045260245ffd5b61039661039c9193929361027a565b9261027a565b82018092116103a757565b610373565b91908110156103bc576020020190565b61031b565b356103cb816100f5565b90565b6103e26103dd6103e7926100de565b610347565b6100de565b90565b6103f3906103ce565b90565b6103ff906103ea565b90565b61040b906103ce565b90565b61041790610402565b90565b73e592427a0aece92de3edee1f18e0157c0586156490565b5f80fd5b601f801991011690565b634e487b7160e01b5f52604160045260245ffd5b9061045e90610436565b810190811067ffffffffffffffff82111761047857604052565b610440565b60e01b90565b61048c81610214565b0361049357565b5f80fd5b905051906104a482610483565b565b906020828203126104bf576104bc915f01610497565b90565b61004c565b6104cd906100e9565b9052565b6104da9061027a565b9052565b9160206104ff9294936104f860408201965f8301906104c4565b01906104d1565b565b610509610042565b3d5f823e3d90fd5b73c02aaa39b223fe8d0a0e5c4f27ead9083c756cc290565b73a0b86991c6218b36c1d19d4a2e9eb0ce3606eb4890565b61054a90610402565b90565b90565b61056461055f6105699261054d565b610347565b61027a565b90565b9061057f610578610042565b9283610454565b565b61058c61010061056c565b90565b90610599906100e9565b9052565b90565b62ffffff1690565b6105bc6105b76105c19261059d565b610347565b6105a0565b90565b906105ce906105a0565b9052565b906105dc9061027a565b9052565b6105f46105ef6105f992610344565b610347565b6100de565b90565b90610606906100de565b9052565b610613906103ce565b90565b61061f9061060a565b90565b61062b90610402565b90565b9050519061063b8261027d565b565b9060208282031261065657610653915f0161062e565b90565b61004c565b610664906100e9565b9052565b610671906105a0565b9052565b61067e9061027a565b9052565b61068b906100de565b9052565b9060e08061071d936106a75f8201515f86019061065b565b6106b96020820151602086019061065b565b6106cb60408201516040860190610668565b6106dd6060820151606086019061065b565b6106ef60808201516080860190610675565b61070160a082015160a0860190610675565b61071360c082015160c0860190610675565b0151910190610682565b565b9190610733905f610100850194019061068f565b565b96509450926107899291965061077e61078391610750610317565b5061076d610768878b6107625f61034a565b9161032f565b610366565b93906107785f61034a565b9161032f565b610366565b90610387565b936107b66107b16107ac6107a787876107a15f61034a565b916103ac565b6103c1565b6103f6565b61040e565b602063095ea7b3916107c661041a565b906107ff5f6107e76107e289896107dc8561034a565b9161032f565b610366565b9561080a6107f3610042565b9788968795869461047d565b8452600484016104de565b03925af18015610a6557610a39575b50610822610511565b9161082b610529565b91610bb8913061083a90610541565b914261012c61084890610550565b61085191610387565b91905f61085d9061034a565b906108679261032f565b61087090610366565b915f935f9561087d610581565b975f89019061088b9161058f565b60208801906108999161058f565b6108a2906105a8565b60408701906108b0916105c4565b60608601906108be9161058f565b60808501906108cc916105d2565b60a08401906108da916105d2565b6108e39061034a565b60c08301906108f1916105d2565b6108fa906105e0565b60e0820190610908916105fc565b9161091161041a565b61091a90610616565b61092390610622565b63414bf389610930610042565b809561093c829361047d565b8252600482019061094c9161071f565b03815a6020945f91f1928315610a34576109846109939361098e9361098993602097610a09575b509061097e5f61034a565b916103ac565b6103c1565b6103f6565b61040e565b9163a9059cbb926109b85f3393956109c36109ac610042565b9788968795869461047d565b8452600484016104de565b03925af18015610a04576109d8575b50600190565b6109f89060203d81116109fd575b6109f08183610454565b8101906104a6565b6109d2565b503d6109e6565b610501565b610a2890883d8111610a2d575b610a208183610454565b81019061063d565b610973565b503d610a16565b610501565b610a599060203d8111610a5e575b610a518183610454565b8101906104a6565b610819565b503d610a47565b610501565b90565b610a81610a7c610a8692610a6a565b610347565b61027a565b90565b67ffffffffffffffff8111610aa15760208091020190565b610440565b90610ab8610ab383610a89565b61056c565b918252565b369037565b90610ae7610acf83610aa6565b92602080610add8693610a89565b9201910390610abd565b565b5190565b90610af782610ae9565b811015610b08576020809102010190565b61031b565b67ffffffffffffffff8111610b255760208091020190565b610440565b90610b3c610b3783610b0d565b61056c565b918252565b369037565b90610b6b610b5383610b2a565b92602080610b618693610b0d565b9201910390610b41565b565b5190565b90610b7b82610b6d565b811015610b8c576020809102010190565b61031b565b610b9a906103ce565b90565b610ba690610b91565b90565b610bb290610402565b90565b67ffffffffffffffff8111610bcd5760208091020190565b610440565b61ffff1690565b610be281610bd2565b03610be957565b5f80fd5b90505190610bfa82610bd9565b565b90929192610c11610c0c82610bb5565b61056c565b9381855260208086019202830192818411610c4e57915b838310610c355750505050565b60208091610c438486610bed565b815201920191610c28565b61005c565b9080601f83011215610c7157816020610c6e93519101610bfc565b90565b610054565b90602082820312610ca6575f82015167ffffffffffffffff8111610ca157610c9e9201610c53565b90565b610050565b61004c565b5190565b15610cb657565b5f80fd5b90610cc482610cab565b811015610cd5576020809102010190565b61031b565b610ce49051610bd2565b90565b610cfb610cf6610d0092610bd2565b610347565b61027a565b90565b610d0c906103ce565b90565b610d1890610d03565b90565b610d2490610402565b90565b5f910312610d3157565b61004c565b60209181520190565b60200190565b90610d528160209361065b565b0190565b60200190565b90610d79610d73610d6c84610ae9565b8093610d36565b92610d3f565b905f5b818110610d895750505090565b909192610da2610d9c6001928651610d45565b94610d56565b9101919091610d7c565b60209181520190565b60200190565b90610dc881602093610675565b0190565b60200190565b90610def610de9610de284610b6d565b8093610dac565b92610db5565b905f5b818110610dff5750505090565b909192610e18610e126001928651610dbb565b94610dcc565b9101919091610df2565b60209181520190565b610e365f8092610e22565b0190565b9192610e77610e6c610e9295610e5e610e849560a08801908882035f8a0152610d5c565b908682036020880152610dd2565b9160408501906104d1565b8281036060840152610e2b565b906080818303910152610e2b565b90565b91610ec4610eab610ea66001610a6d565b610ac2565b92610ebf84610eb95f61034a565b90610aed565b61058f565b610ef2610ed9610ed46001610a6d565b610b46565b91610eed83610ee75f61034a565b90610b71565b6105d2565b610f1d5f610f07610f0286610b9d565b610ba9565b637e92807290610f15610042565b93849261047d565b82528180610f2d600482016102da565b03915afa801561103b57610f8d610f88610f83610f9393610f98955f91611019575b50610f74610f5c82610cab565b610f6e610f685f61034a565b9161027a565b11610caf565b610f7d5f61034a565b90610cba565b610cda565b610ce7565b94610d0f565b610d1b565b63095627e992919392813b15611014575f610fc691610fd18296610fba610042565b9889978896879561047d565b855260048501610e3a565b03925af1801561100f57610fe3575b50565b611002905f3d8111611008575b610ffa8183610454565b810190610d27565b5f610fe0565b503d610ff0565b610501565b610432565b61103591503d805f833e61102d8183610454565b810190610c76565b5f610f4f565b61050156fea2646970667358221220b66cd6ddb1f8816dec5aa8f6e8c03049ae1c0d6b98c24cedd4297073c3c8864464736f6c63430008150033","linkReferences":{}},"methodIdentifiers":{"executeOperation(address[],uint256[],uint256[],address,bytes)":"920f5c84","startFlashLoan(address,address,uint256)":"e4d5ffaf"},"id":108}